{
  "contractName": "Municipality",
  "abi": [
    {
      "constant": true,
      "inputs": [],
      "name": "getUacAddress",
      "outputs": [
        {
          "name": "userActivationAddress",
          "type": "address"
        }
      ],
      "payable": false,
      "stateMutability": "view",
      "type": "function"
    },
    {
      "constant": false,
      "inputs": [
        {
          "name": "user",
          "type": "address"
        },
        {
          "name": "email",
          "type": "string"
        }
      ],
      "name": "setUserRole",
      "outputs": [],
      "payable": true,
      "stateMutability": "payable",
      "type": "function"
    },
    {
      "constant": true,
      "inputs": [],
      "name": "VOTING_START_TIMESTAMP",
      "outputs": [
        {
          "name": "",
          "type": "uint256"
        }
      ],
      "payable": false,
      "stateMutability": "view",
      "type": "function"
    },
    {
      "constant": true,
      "inputs": [],
      "name": "getRole",
      "outputs": [
        {
          "name": "",
          "type": "uint8"
        }
      ],
      "payable": false,
      "stateMutability": "view",
      "type": "function"
    },
    {
      "inputs": [
        {
          "name": "uacAddress",
          "type": "address"
        }
      ],
      "payable": true,
      "stateMutability": "payable",
      "type": "constructor"
    },
    {
      "anonymous": false,
      "inputs": [
        {
          "indexed": false,
          "name": "qrCodeHash",
          "type": "bytes32"
        },
        {
          "indexed": false,
          "name": "howMany",
          "type": "uint256"
        }
      ],
      "name": "VoterAlreadyRecorded",
      "type": "event"
    },
    {
      "anonymous": false,
      "inputs": [
        {
          "indexed": false,
          "name": "qrCodeHash",
          "type": "bytes32"
        },
        {
          "indexed": false,
          "name": "voterType",
          "type": "uint8"
        }
      ],
      "name": "VoterCleared",
      "type": "event"
    },
    {
      "anonymous": false,
      "inputs": [],
      "name": "YesVoted",
      "type": "event"
    },
    {
      "anonymous": false,
      "inputs": [],
      "name": "NoVoted",
      "type": "event"
    },
    {
      "anonymous": false,
      "inputs": [],
      "name": "InvalidVoted",
      "type": "event"
    },
    {
      "anonymous": false,
      "inputs": [],
      "name": "BlankVoted",
      "type": "event"
    },
    {
      "anonymous": false,
      "inputs": [
        {
          "indexed": false,
          "name": "success",
          "type": "bool"
        },
        {
          "indexed": false,
          "name": "message",
          "type": "string"
        },
        {
          "indexed": false,
          "name": "email",
          "type": "string"
        },
        {
          "indexed": false,
          "name": "userAddress",
          "type": "address"
        },
        {
          "indexed": false,
          "name": "role",
          "type": "uint8"
        }
      ],
      "name": "UserAdded",
      "type": "event"
    },
    {
      "anonymous": false,
      "inputs": [
        {
          "indexed": false,
          "name": "uAddress",
          "type": "address"
        },
        {
          "indexed": false,
          "name": "email",
          "type": "string"
        }
      ],
      "name": "UserCreationFailed",
      "type": "event"
    },
    {
      "anonymous": false,
      "inputs": [
        {
          "indexed": false,
          "name": "message",
          "type": "string"
        }
      ],
      "name": "NotAllowed",
      "type": "event"
    },
    {
      "constant": false,
      "inputs": [],
      "name": "enrollPollStation",
      "outputs": [],
      "payable": false,
      "stateMutability": "nonpayable",
      "type": "function"
    },
    {
      "constant": false,
      "inputs": [],
      "name": "voteYes",
      "outputs": [],
      "payable": false,
      "stateMutability": "nonpayable",
      "type": "function"
    },
    {
      "constant": false,
      "inputs": [],
      "name": "voteNo",
      "outputs": [],
      "payable": false,
      "stateMutability": "nonpayable",
      "type": "function"
    },
    {
      "constant": false,
      "inputs": [],
      "name": "voteBlank",
      "outputs": [],
      "payable": false,
      "stateMutability": "nonpayable",
      "type": "function"
    },
    {
      "constant": false,
      "inputs": [],
      "name": "voteInvalid",
      "outputs": [],
      "payable": false,
      "stateMutability": "nonpayable",
      "type": "function"
    },
    {
      "constant": true,
      "inputs": [],
      "name": "getYes",
      "outputs": [
        {
          "name": "",
          "type": "uint128"
        }
      ],
      "payable": false,
      "stateMutability": "view",
      "type": "function"
    },
    {
      "constant": true,
      "inputs": [],
      "name": "getNo",
      "outputs": [
        {
          "name": "",
          "type": "uint128"
        }
      ],
      "payable": false,
      "stateMutability": "view",
      "type": "function"
    },
    {
      "constant": true,
      "inputs": [],
      "name": "getInvalid",
      "outputs": [
        {
          "name": "",
          "type": "uint128"
        }
      ],
      "payable": false,
      "stateMutability": "view",
      "type": "function"
    },
    {
      "constant": true,
      "inputs": [],
      "name": "getBlank",
      "outputs": [
        {
          "name": "",
          "type": "uint128"
        }
      ],
      "payable": false,
      "stateMutability": "view",
      "type": "function"
    },
    {
      "constant": false,
      "inputs": [
        {
          "name": "pollingCards",
          "type": "uint256"
        },
        {
          "name": "powerOfAttorneys",
          "type": "uint256"
        },
        {
          "name": "voterPasses",
          "type": "uint256"
        }
      ],
      "name": "inputControlNumbers",
      "outputs": [],
      "payable": false,
      "stateMutability": "nonpayable",
      "type": "function"
    },
    {
      "constant": false,
      "inputs": [],
      "name": "recount",
      "outputs": [],
      "payable": false,
      "stateMutability": "nonpayable",
      "type": "function"
    },
    {
      "constant": true,
      "inputs": [],
      "name": "getRecounts",
      "outputs": [
        {
          "name": "",
          "type": "uint128"
        }
      ],
      "payable": false,
      "stateMutability": "view",
      "type": "function"
    },
    {
      "constant": false,
      "inputs": [
        {
          "name": "qrCodeHash",
          "type": "bytes32"
        },
        {
          "name": "voterType",
          "type": "uint8"
        }
      ],
      "name": "recordVoter",
      "outputs": [
        {
          "name": "",
          "type": "bool"
        }
      ],
      "payable": false,
      "stateMutability": "nonpayable",
      "type": "function"
    },
    {
      "constant": true,
      "inputs": [],
      "name": "isValid",
      "outputs": [
        {
          "name": "",
          "type": "bool"
        }
      ],
      "payable": false,
      "stateMutability": "view",
      "type": "function"
    },
    {
      "constant": true,
      "inputs": [
        {
          "name": "qrCodeHash",
          "type": "bytes32"
        }
      ],
      "name": "userVoted",
      "outputs": [
        {
          "name": "",
          "type": "bool"
        }
      ],
      "payable": false,
      "stateMutability": "view",
      "type": "function"
    }
  ],
  "bytecode": "0x60606040526000600360006101000a8154816fffffffffffffffffffffffffffffffff02191690836fffffffffffffffffffffffffffffffff1602179055506000600360106101000a8154816fffffffffffffffffffffffffffffffff02191690836fffffffffffffffffffffffffffffffff1602179055506000600460006101000a8154816fffffffffffffffffffffffffffffffff02191690836fffffffffffffffffffffffffffffffff1602179055506000600460106101000a8154816fffffffffffffffffffffffffffffffff02191690836fffffffffffffffffffffffffffffffff1602179055506000600560006101000a8154816fffffffffffffffffffffffffffffffff02191690836fffffffffffffffffffffffffffffffff1602179055506000600560106101000a8154816fffffffffffffffffffffffffffffffff02191690836fffffffffffffffffffffffffffffffff16021790555060006006556000600755600060085560006009556000600a556000600b556000600c556000600d556040516020806128fb8339810160405280805190602001909190505080336000806101000a81548173ffffffffffffffffffffffffffffffffffffffff021916908373ffffffffffffffffffffffffffffffffffffffff16021790555080600160006101000a81548173ffffffffffffffffffffffffffffffffffffffff021916908373ffffffffffffffffffffffffffffffffffffffff16021790555050506126c4806102376000396000f300606060405260043610610107576000357c0100000000000000000000000000000000000000000000000000000000900463ffffffff1680631df3c85c1461010c57806324716b20146101615780633ec3d5c4146101ac57806341c12a70146101c15780634c1aa976146101d65780635b692eba146101eb5780636bd0591b14610238578063724de979146102855780638d796bb3146102f657806390cf581c1461030b578063941974a2146103205780639d38800d146103555780639f0314fc14610394578063b3bf38b7146103e1578063bb5d40eb1461042e578063c8bef5501461045b578063cd75534114610484578063e0e9855d14610499578063fde08174146104e6575b600080fd5b341561011757600080fd5b61011f61051d565b604051808273ffffffffffffffffffffffffffffffffffffffff1673ffffffffffffffffffffffffffffffffffffffff16815260200191505060405180910390f35b341561016c57600080fd5b61019260048080356000191690602001909190803560ff16906020019091905050610547565b604051808215151515815260200191505060405180910390f35b34156101b757600080fd5b6101bf610b29565b005b34156101cc57600080fd5b6101d4610e2c565b005b34156101e157600080fd5b6101e961112f565b005b34156101f657600080fd5b6101fe611830565b60405180826fffffffffffffffffffffffffffffffff166fffffffffffffffffffffffffffffffff16815260200191505060405180910390f35b341561024357600080fd5b61024b611856565b60405180826fffffffffffffffffffffffffffffffff166fffffffffffffffffffffffffffffffff16815260200191505060405180910390f35b6102f4600480803573ffffffffffffffffffffffffffffffffffffffff1690602001909190803590602001908201803590602001908080601f0160208091040260200160405190810160405280939291908181526020018383808284378201915050505050509190505061187c565b005b341561030157600080fd5b610309611d04565b005b341561031657600080fd5b61031e611db4565b005b341561032b57600080fd5b61035360048080359060200190919080359060200190919080359060200190919050506120b7565b005b341561036057600080fd5b61037a6004808035600019169060200190919050506121ba565b604051808215151515815260200191505060405180910390f35b341561039f57600080fd5b6103a7612218565b60405180826fffffffffffffffffffffffffffffffff166fffffffffffffffffffffffffffffffff16815260200191505060405180910390f35b34156103ec57600080fd5b6103f461223e565b60405180826fffffffffffffffffffffffffffffffff166fffffffffffffffffffffffffffffffff16815260200191505060405180910390f35b341561043957600080fd5b610441612264565b604051808215151515815260200191505060405180910390f35b341561046657600080fd5b61046e612308565b6040518082815260200191505060405180910390f35b341561048f57600080fd5b61049761230d565b005b34156104a457600080fd5b6104ac612610565b60405180826fffffffffffffffffffffffffffffffff166fffffffffffffffffffffffffffffffff16815260200191505060405180910390f35b34156104f157600080fd5b6104f9612636565b6040518082600481111561050957fe5b60ff16815260200191505060405180910390f35b6000600160009054906101000a900473ffffffffffffffffffffffffffffffffffffffff16905090565b6000826000600f6000836000191660001916815260200190815260200160002060009054906101000a900473ffffffffffffffffffffffffffffffffffffffff1673ffffffffffffffffffffffffffffffffffffffff1614151561071157600e60008260001916600019168152602001908152602001600020600081819054906101000a90046fffffffffffffffffffffffffffffffff168092919060010191906101000a8154816fffffffffffffffffffffffffffffffff02191690836fffffffffffffffffffffffffffffffff160217905550506005600081819054906101000a90046fffffffffffffffffffffffffffffffff168092919060010191906101000a8154816fffffffffffffffffffffffffffffffff02191690836fffffffffffffffffffffffffffffffff160217905550507f2ef158f3a8866b3005320b4ab628d3ab4763db0f8e0e1f37c4d65c03cd63c26881600e6000846000191660001916815260200190815260200160002060009054906101000a90046fffffffffffffffffffffffffffffffff16604051808360001916600019168152602001826fffffffffffffffffffffffffffffffff1681526020019250505060405180910390a1610b22565b60011515601460003373ffffffffffffffffffffffffffffffffffffffff1673ffffffffffffffffffffffffffffffffffffffff16815260200190815260200160002060009054906101000a900460ff1615151415610a8e57600380600481111561077857fe5b600260003273ffffffffffffffffffffffffffffffffffffffff1673ffffffffffffffffffffffffffffffffffffffff16815260200190815260200160002060009054906101000a900460ff1660ff1660048111156107d357fe5b60048111156107de57fe5b1415610a1f57600160058111156107f157fe5b8460058111156107fd57fe5b141561081a57600660008154809291906001019190505550610966565b6002600581111561082757fe5b84600581111561083357fe5b141561085057600760008154809291906001019190505550610965565b6003600581111561085d57fe5b84600581111561086957fe5b141561088657600860008154809291906001019190505550610964565b6004600581111561089357fe5b84600581111561089f57fe5b14156108bc57600960008154809291906001019190505550610963565b6005808111156108c857fe5b8460058111156108d457fe5b14156108f157600a60008154809291906001019190505550610962565b7f367dccf700b76ac212780fb422c9b7569b12f28f39de0a0f8622641a83355ab16040518080602001828103825260138152602001807f496e76616c696420766f74657220747970652e0000000000000000000000000081525060200191505060405180910390a160009250610a1a565b5b5b5b5b33600f6000876000191660001916815260200190815260200160002060006101000a81548173ffffffffffffffffffffffffffffffffffffffff021916908373ffffffffffffffffffffffffffffffffffffffff1602179055507f536ee132d77576c724f4b134b1286b14d74fa4e6d4768190f399115b109982028585604051808360001916600019168152602001826005811115610a0157fe5b60ff1681526020019250505060405180910390a1600192505b610a88565b7f367dccf700b76ac212780fb422c9b7569b12f28f39de0a0f8622641a83355ab16040518080602001828103825260148152602001807f556e617574686f72697a6564206163636573732e00000000000000000000000081525060200191505060405180910390a15b50610b21565b7f367dccf700b76ac212780fb422c9b7569b12f28f39de0a0f8622641a83355ab160405180806020018281038252602b8152602001807f4f6e6c7920656e726f6c6c656420706f6c6c2073746174696f6e732063616e2081526020017f6361737420766f7465732e00000000000000000000000000000000000000000081525060400191505060405180910390a1600080fd5b5b5092915050565b6003806004811115610b3757fe5b600260003273ffffffffffffffffffffffffffffffffffffffff1673ffffffffffffffffffffffffffffffffffffffff16815260200190815260200160002060009054906101000a900460ff1660ff166004811115610b9257fe5b6004811115610b9d57fe5b1415610dc05760011515601460003373ffffffffffffffffffffffffffffffffffffffff1673ffffffffffffffffffffffffffffffffffffffff16815260200190815260200160002060009054906101000a900460ff1615151415610d28576004600081819054906101000a90046fffffffffffffffffffffffffffffffff168092919060010191906101000a8154816fffffffffffffffffffffffffffffffff02191690836fffffffffffffffffffffffffffffffff16021790555050601360003373ffffffffffffffffffffffffffffffffffffffff1673ffffffffffffffffffffffffffffffffffffffff168152602001908152602001600020600081819054906101000a90046fffffffffffffffffffffffffffffffff168092919060010191906101000a8154816fffffffffffffffffffffffffffffffff02191690836fffffffffffffffffffffffffffffffff160217905550507fe6bce24fbfde802b4ddd99726a92052f53a4af3b315dc545cf05a131a5bf661660405160405180910390a1610dbb565b7f367dccf700b76ac212780fb422c9b7569b12f28f39de0a0f8622641a83355ab160405180806020018281038252602b8152602001807f4f6e6c7920656e726f6c6c656420706f6c6c2073746174696f6e732063616e2081526020017f6361737420766f7465732e00000000000000000000000000000000000000000081525060400191505060405180910390a1600080fd5b610e29565b7f367dccf700b76ac212780fb422c9b7569b12f28f39de0a0f8622641a83355ab16040518080602001828103825260148152602001807f556e617574686f72697a6564206163636573732e00000000000000000000000081525060200191505060405180910390a15b50565b6003806004811115610e3a57fe5b600260003273ffffffffffffffffffffffffffffffffffffffff1673ffffffffffffffffffffffffffffffffffffffff16815260200190815260200160002060009054906101000a900460ff1660ff166004811115610e9557fe5b6004811115610ea057fe5b14156110c35760011515601460003373ffffffffffffffffffffffffffffffffffffffff1673ffffffffffffffffffffffffffffffffffffffff16815260200190815260200160002060009054906101000a900460ff161515141561102b576003601081819054906101000a90046fffffffffffffffffffffffffffffffff168092919060010191906101000a8154816fffffffffffffffffffffffffffffffff02191690836fffffffffffffffffffffffffffffffff16021790555050601160003373ffffffffffffffffffffffffffffffffffffffff1673ffffffffffffffffffffffffffffffffffffffff168152602001908152602001600020600081819054906101000a90046fffffffffffffffffffffffffffffffff168092919060010191906101000a8154816fffffffffffffffffffffffffffffffff02191690836fffffffffffffffffffffffffffffffff160217905550507f93aca1296570353c7b585444fa1092875960c43ae88f4a34b7d48500b587f7c760405160405180910390a16110be565b7f367dccf700b76ac212780fb422c9b7569b12f28f39de0a0f8622641a83355ab160405180806020018281038252602b8152602001807f4f6e6c7920656e726f6c6c656420706f6c6c2073746174696f6e732063616e2081526020017f6361737420766f7465732e00000000000000000000000000000000000000000081525060400191505060405180910390a1600080fd5b61112c565b7f367dccf700b76ac212780fb422c9b7569b12f28f39de0a0f8622641a83355ab16040518080602001828103825260148152602001807f556e617574686f72697a6564206163636573732e00000000000000000000000081525060200191505060405180910390a15b50565b600080600080600380600481111561114357fe5b600260003273ffffffffffffffffffffffffffffffffffffffff1673ffffffffffffffffffffffffffffffffffffffff16815260200190815260200160002060009054906101000a900460ff1660ff16600481111561119e57fe5b60048111156111a957fe5b14156117c05760011515601460003373ffffffffffffffffffffffffffffffffffffffff1673ffffffffffffffffffffffffffffffffffffffff16815260200190815260200160002060009054906101000a900460ff161515141561172857601060003373ffffffffffffffffffffffffffffffffffffffff1673ffffffffffffffffffffffffffffffffffffffff16815260200190815260200160002060009054906101000a90046fffffffffffffffffffffffffffffffff169450601160003373ffffffffffffffffffffffffffffffffffffffff1673ffffffffffffffffffffffffffffffffffffffff16815260200190815260200160002060009054906101000a90046fffffffffffffffffffffffffffffffff169350601260003373ffffffffffffffffffffffffffffffffffffffff1673ffffffffffffffffffffffffffffffffffffffff16815260200190815260200160002060009054906101000a90046fffffffffffffffffffffffffffffffff169250601360003373ffffffffffffffffffffffffffffffffffffffff1673ffffffffffffffffffffffffffffffffffffffff16815260200190815260200160002060009054906101000a90046fffffffffffffffffffffffffffffffff1691506000601060003373ffffffffffffffffffffffffffffffffffffffff1673ffffffffffffffffffffffffffffffffffffffff16815260200190815260200160002060006101000a8154816fffffffffffffffffffffffffffffffff02191690836fffffffffffffffffffffffffffffffff1602179055506000601160003373ffffffffffffffffffffffffffffffffffffffff1673ffffffffffffffffffffffffffffffffffffffff16815260200190815260200160002060006101000a8154816fffffffffffffffffffffffffffffffff02191690836fffffffffffffffffffffffffffffffff1602179055506000601260003373ffffffffffffffffffffffffffffffffffffffff1673ffffffffffffffffffffffffffffffffffffffff16815260200190815260200160002060006101000a8154816fffffffffffffffffffffffffffffffff02191690836fffffffffffffffffffffffffffffffff1602179055506000601360003373ffffffffffffffffffffffffffffffffffffffff1673ffffffffffffffffffffffffffffffffffffffff16815260200190815260200160002060006101000a8154816fffffffffffffffffffffffffffffffff02191690836fffffffffffffffffffffffffffffffff16021790555084600360008282829054906101000a90046fffffffffffffffffffffffffffffffff160392506101000a8154816fffffffffffffffffffffffffffffffff02191690836fffffffffffffffffffffffffffffffff16021790555083600360108282829054906101000a90046fffffffffffffffffffffffffffffffff160392506101000a8154816fffffffffffffffffffffffffffffffff02191690836fffffffffffffffffffffffffffffffff16021790555082600460108282829054906101000a90046fffffffffffffffffffffffffffffffff160392506101000a8154816fffffffffffffffffffffffffffffffff02191690836fffffffffffffffffffffffffffffffff16021790555081600460008282829054906101000a90046fffffffffffffffffffffffffffffffff160392506101000a8154816fffffffffffffffffffffffffffffffff02191690836fffffffffffffffffffffffffffffffff1602179055506005601081819054906101000a90046fffffffffffffffffffffffffffffffff168092919060010191906101000a8154816fffffffffffffffffffffffffffffffff02191690836fffffffffffffffffffffffffffffffff160217905550506117bb565b7f367dccf700b76ac212780fb422c9b7569b12f28f39de0a0f8622641a83355ab160405180806020018281038252602b8152602001807f4f6e6c7920656e726f6c6c656420706f6c6c2073746174696f6e732063616e2081526020017f6361737420766f7465732e00000000000000000000000000000000000000000081525060400191505060405180910390a1600080fd5b611829565b7f367dccf700b76ac212780fb422c9b7569b12f28f39de0a0f8622641a83355ab16040518080602001828103825260148152602001807f556e617574686f72697a6564206163636573732e00000000000000000000000081525060200191505060405180910390a15b5050505050565b6000600460109054906101000a90046fffffffffffffffffffffffffffffffff16905090565b6000600560109054906101000a90046fffffffffffffffffffffffffffffffff16905090565b60008060009054906101000a900473ffffffffffffffffffffffffffffffffffffffff1673ffffffffffffffffffffffffffffffffffffffff163273ffffffffffffffffffffffffffffffffffffffff161415611cff57600160009054906101000a900473ffffffffffffffffffffffffffffffffffffffff1673ffffffffffffffffffffffffffffffffffffffff1663b8c51067836000604051602001526040518263ffffffff167c01000000000000000000000000000000000000000000000000000000000281526004018080602001828103825283818151815260200191508051906020019080838360005b8381101561198657808201518184015260208101905061196b565b50505050905090810190601f1680156119b35780820380516001836020036101000a031916815260200191505b5092505050602060405180830381600087803b15156119d157600080fd5b6102c65a03f115156119e257600080fd5b5050506040518051905060ff1660048111156119fa57fe5b905060006004811115611a0957fe5b816004811115611a1557fe5b118015611a385750600480811115611a2957fe5b816004811115611a3557fe5b11155b15611bd157806004811115611a4957fe5b600260008573ffffffffffffffffffffffffffffffffffffffff1673ffffffffffffffffffffffffffffffffffffffff16815260200190815260200160002060006101000a81548160ff021916908360ff1602179055507fe0002dd72fe0d21c584dfb23d23de71a96770c70d5b244275f416a35df6b29726001838584604051808515151515815260200180602001806020018573ffffffffffffffffffffffffffffffffffffffff1673ffffffffffffffffffffffffffffffffffffffff168152602001846004811115611b1a57fe5b60ff1681526020018381038352600a8152602001807f5573657220416464656400000000000000000000000000000000000000000000815250602001838103825286818151815260200191508051906020019080838360005b83811015611b8e578082015181840152602081019050611b73565b50505050905090810190601f168015611bbb5780820380516001836020036101000a031916815260200191505b50965050505050505060405180910390a1611cfe565b7fe0002dd72fe0d21c584dfb23d23de71a96770c70d5b244275f416a35df6b29726000838584604051808515151515815260200180602001806020018573ffffffffffffffffffffffffffffffffffffffff1673ffffffffffffffffffffffffffffffffffffffff168152602001846004811115611c4b57fe5b60ff168152602001838103835260148152602001807f55736572204372656174696f6e204661696c6564000000000000000000000000815250602001838103825286818151815260200191508051906020019080838360005b83811015611cbf578082015181840152602081019050611ca4565b50505050905090810190601f168015611cec5780820380516001836020036101000a031916815260200191505b50965050505050505060405180910390a15b5b505050565b6000809054906101000a900473ffffffffffffffffffffffffffffffffffffffff1673ffffffffffffffffffffffffffffffffffffffff163273ffffffffffffffffffffffffffffffffffffffff161415611db2576001601460003373ffffffffffffffffffffffffffffffffffffffff1673ffffffffffffffffffffffffffffffffffffffff16815260200190815260200160002060006101000a81548160ff0219169083151502179055505b565b6003806004811115611dc257fe5b600260003273ffffffffffffffffffffffffffffffffffffffff1673ffffffffffffffffffffffffffffffffffffffff16815260200190815260200160002060009054906101000a900460ff1660ff166004811115611e1d57fe5b6004811115611e2857fe5b141561204b5760011515601460003373ffffffffffffffffffffffffffffffffffffffff1673ffffffffffffffffffffffffffffffffffffffff16815260200190815260200160002060009054906101000a900460ff1615151415611fb3576003600081819054906101000a90046fffffffffffffffffffffffffffffffff168092919060010191906101000a8154816fffffffffffffffffffffffffffffffff02191690836fffffffffffffffffffffffffffffffff16021790555050601060003373ffffffffffffffffffffffffffffffffffffffff1673ffffffffffffffffffffffffffffffffffffffff168152602001908152602001600020600081819054906101000a90046fffffffffffffffffffffffffffffffff168092919060010191906101000a8154816fffffffffffffffffffffffffffffffff02191690836fffffffffffffffffffffffffffffffff160217905550507ff0bd92b84f5fd8108a3dcdb245449f78cf64eb2416873dd0c91df67825db3d2160405160405180910390a1612046565b7f367dccf700b76ac212780fb422c9b7569b12f28f39de0a0f8622641a83355ab160405180806020018281038252602b8152602001807f4f6e6c7920656e726f6c6c656420706f6c6c2073746174696f6e732063616e2081526020017f6361737420766f7465732e00000000000000000000000000000000000000000081525060400191505060405180910390a1600080fd5b6120b4565b7f367dccf700b76ac212780fb422c9b7569b12f28f39de0a0f8622641a83355ab16040518080602001828103825260148152602001807f556e617574686f72697a6564206163636573732e00000000000000000000000081525060200191505060405180910390a15b50565b60038060048111156120c557fe5b600260003273ffffffffffffffffffffffffffffffffffffffff1673ffffffffffffffffffffffffffffffffffffffff16815260200190815260200160002060009054906101000a900460ff1660ff16600481111561212057fe5b600481111561212b57fe5b141561214b5783600b8190555082600c8190555081600d819055506121b4565b7f367dccf700b76ac212780fb422c9b7569b12f28f39de0a0f8622641a83355ab16040518080602001828103825260148152602001807f556e617574686f72697a6564206163636573732e00000000000000000000000081525060200191505060405180910390a15b50505050565b600080600f6000846000191660001916815260200190815260200160002060009054906101000a900473ffffffffffffffffffffffffffffffffffffffff1673ffffffffffffffffffffffffffffffffffffffff1614159050919050565b6000600360109054906101000a90046fffffffffffffffffffffffffffffffff16905090565b6000600360009054906101000a90046fffffffffffffffffffffffffffffffff16905090565b6000600b54600c54600d540101600460009054906101000a90046fffffffffffffffffffffffffffffffff16600360009054906101000a90046fffffffffffffffffffffffffffffffff16600360109054906101000a90046fffffffffffffffffffffffffffffffff16600460109054906101000a90046fffffffffffffffffffffffffffffffff160101016fffffffffffffffffffffffffffffffff1614905090565b600181565b600380600481111561231b57fe5b600260003273ffffffffffffffffffffffffffffffffffffffff1673ffffffffffffffffffffffffffffffffffffffff16815260200190815260200160002060009054906101000a900460ff1660ff16600481111561237657fe5b600481111561238157fe5b14156125a45760011515601460003373ffffffffffffffffffffffffffffffffffffffff1673ffffffffffffffffffffffffffffffffffffffff16815260200190815260200160002060009054906101000a900460ff161515141561250c576004601081819054906101000a90046fffffffffffffffffffffffffffffffff168092919060010191906101000a8154816fffffffffffffffffffffffffffffffff02191690836fffffffffffffffffffffffffffffffff16021790555050601260003373ffffffffffffffffffffffffffffffffffffffff1673ffffffffffffffffffffffffffffffffffffffff168152602001908152602001600020600081819054906101000a90046fffffffffffffffffffffffffffffffff168092919060010191906101000a8154816fffffffffffffffffffffffffffffffff02191690836fffffffffffffffffffffffffffffffff160217905550507fef870f3879b5707d5a2d99c1885de025e59929468dd9dc9bc0b5be352a36377b60405160405180910390a161259f565b7f367dccf700b76ac212780fb422c9b7569b12f28f39de0a0f8622641a83355ab160405180806020018281038252602b8152602001807f4f6e6c7920656e726f6c6c656420706f6c6c2073746174696f6e732063616e2081526020017f6361737420766f7465732e00000000000000000000000000000000000000000081525060400191505060405180910390a1600080fd5b61260d565b7f367dccf700b76ac212780fb422c9b7569b12f28f39de0a0f8622641a83355ab16040518080602001828103825260148152602001807f556e617574686f72697a6564206163636573732e00000000000000000000000081525060200191505060405180910390a15b50565b6000600460009054906101000a90046fffffffffffffffffffffffffffffffff16905090565b6000600260003273ffffffffffffffffffffffffffffffffffffffff1673ffffffffffffffffffffffffffffffffffffffff16815260200190815260200160002060009054906101000a900460ff1660ff16600481111561269357fe5b9050905600a165627a7a72305820a7ce2930b9fc85e3ebfd0da1ab51850d0645aa75b39e8c1dd7a3f8d04ddc276e0029",
  "source": "pragma solidity ^0.4.19;\r\n\r\nimport './useractivation.sol';\r\nimport './permissions.sol';\r\n\r\ncontract Municipality is Permissions {\r\n    \r\n    uint128 private yes = 0;\r\n    uint128 private no = 0;\r\n    uint128 private invalid = 0;\r\n    uint128 private blank = 0;\r\n    uint128 private duplicityError = 0;\r\n    uint128 private recounts = 0;\r\n    \r\n    //Voter Registration\r\n    uint private scannedPollingCardCount = 0;\r\n    uint private scannedPowerOfAttorneyCount = 0;\r\n    uint private registeredPowerOfAttorneyCount = 0;\r\n    uint private registeredVoterPassCount = 0;\r\n    uint private registeredObjectionCount = 0;\r\n    \r\n    //Control Numbers\r\n    uint private collectedPollingCardCount = 0;\r\n    uint private collectedPowerOfAttorneyCount = 0;\r\n    uint private collectedVoterPassCount = 0;\r\n    \r\n    mapping (bytes32 => uint128) private whosError;\r\n    mapping (bytes32 => address) private cardsClaimed;\r\n    mapping (address => uint128) private pollingStationYesVotes;\r\n    mapping (address => uint128) private pollingStationNoVotes;\r\n    mapping (address => uint128) private pollingStationBlankVotes;\r\n    mapping (address => uint128) private pollingStationInvalidVotes;\r\n    mapping (address => bool) private enrolledPollStations;\r\n\r\n    event VoterAlreadyRecorded(bytes32 qrCodeHash, uint howMany);\r\n    event VoterCleared(bytes32 qrCodeHash, VoterType voterType);\r\n    \r\n    event YesVoted();\r\n    event NoVoted();\r\n    event InvalidVoted();\r\n    event BlankVoted();\r\n    \r\n    function Municipality(address uacAddress) Permissions(uacAddress) public payable { }\r\n    \r\n    modifier _canVote() {\r\n        if (enrolledPollStations[msg.sender] == true) {\r\n            _;\r\n        } else {\r\n            NotAllowed(\"Only enrolled poll stations can cast votes.\");\r\n            revert();\r\n        }\r\n    }\r\n    \r\n    function enrollPollStation() public _isOwner() {\r\n        enrolledPollStations[msg.sender] = true;\r\n    }\r\n\r\n    function voteYes() public _verifyRole(Role.Chairman) _canVote() {\r\n        yes++;\r\n        pollingStationYesVotes[msg.sender]++;\r\n        YesVoted();\r\n    }\r\n    \r\n    function voteNo() public _verifyRole(Role.Chairman) _canVote() {\r\n        no++;\r\n        pollingStationNoVotes[msg.sender]++;\r\n        NoVoted();\r\n    }\r\n    \r\n    function voteBlank() public _verifyRole(Role.Chairman) _canVote() {\r\n        blank++;\r\n        pollingStationBlankVotes[msg.sender]++;\r\n        BlankVoted();\r\n    }\r\n    \r\n    function voteInvalid() public _verifyRole(Role.Chairman) _canVote() {\r\n        invalid++;\r\n        pollingStationInvalidVotes[msg.sender]++;\r\n        InvalidVoted();\r\n    }\r\n    \r\n    function getYes() public view returns (uint128) {\r\n        return yes;\r\n    }\r\n    \r\n    function getNo() public view returns (uint128) {\r\n        return no;\r\n    }\r\n    \r\n    function getInvalid() public view returns (uint128) {\r\n        return invalid;\r\n    }\r\n    \r\n    function getBlank() public view returns (uint128) {\r\n        return blank;\r\n    }\r\n    \r\n    function inputControlNumbers(uint pollingCards, uint powerOfAttorneys, uint voterPasses) public _verifyRole(Role.Chairman) {\r\n        collectedPollingCardCount = pollingCards;\r\n        collectedPowerOfAttorneyCount = powerOfAttorneys;\r\n        collectedVoterPassCount = voterPasses;\r\n    }\r\n    \r\n    function recount() public _verifyRole(Role.Chairman) _canVote() {\r\n        uint128 yesTemp = pollingStationYesVotes[msg.sender];\r\n        uint128 noTemp = pollingStationNoVotes[msg.sender];\r\n        uint128 blankTemp = pollingStationBlankVotes[msg.sender];\r\n        uint128 invalidTemp = pollingStationInvalidVotes[msg.sender];\r\n        \r\n        pollingStationYesVotes[msg.sender] = 0;\r\n        pollingStationNoVotes[msg.sender] = 0;\r\n        pollingStationBlankVotes[msg.sender] = 0;\r\n        pollingStationInvalidVotes[msg.sender] = 0;\r\n        \r\n        yes -= yesTemp;\r\n        no -= noTemp;\r\n        blank -= blankTemp;\r\n        invalid -= invalidTemp;\r\n        recounts++;\r\n    }\r\n    \r\n    function getRecounts() public view returns (uint128) {\r\n        return recounts;\r\n    }\r\n    \r\n    modifier _noRevote(bytes32 qrCodeHash) {\r\n        if (cardsClaimed[qrCodeHash] != 0) {\r\n            whosError[qrCodeHash]++;\r\n            duplicityError++;\r\n            VoterAlreadyRecorded(qrCodeHash, whosError[qrCodeHash]);\r\n        } else {\r\n            _;\r\n        }\r\n    }\r\n    \r\n    function recordVoter(bytes32 qrCodeHash, VoterType voterType) public _noRevote(qrCodeHash) _canVote() _verifyRole(Role.Chairman) returns (bool) {\r\n        \r\n        if (voterType == VoterType.PollingCard) {\r\n            scannedPollingCardCount++;\r\n        } else if (voterType == VoterType.PowerOfAttorneyPollingCard) {\r\n            scannedPowerOfAttorneyCount++;\r\n        } else if (voterType == VoterType.PowerOfAttorney) {\r\n            registeredPowerOfAttorneyCount++;\r\n        } else if (voterType == VoterType.VoterPass) {\r\n            registeredVoterPassCount++;\r\n        } else if (voterType == VoterType.Objection) {\r\n            registeredObjectionCount++;\r\n        } else {\r\n            NotAllowed(\"Invalid voter type.\");\r\n            return false;\r\n        }\r\n        \r\n        cardsClaimed[qrCodeHash] = msg.sender;\r\n        VoterCleared(qrCodeHash, voterType);\r\n        return true;\r\n    }\r\n    \r\n    function isValid() public view returns (bool) {\r\n       return ((blank + no + yes + invalid) == (collectedVoterPassCount + collectedPowerOfAttorneyCount + collectedPollingCardCount));\r\n    }\r\n    \r\n    function userVoted(bytes32 qrCodeHash) public view returns (bool) {\r\n        return cardsClaimed[qrCodeHash] != 0;\r\n    }\r\n}",
  "sourcePath": "C:\\Repos\\CountingVotes\\Pilot\\ps-blockchain\\contracts\\municipality.sol",
  "compiler": {
    "name": "solc",
    "version": "0.4.19+commit.c4cbbb05.Emscripten.clang"
  },
  "schemaVersion": "2.0.0",
  "updatedAt": "2018-03-16T17:29:48.510Z"
}