{
  "contractName": "Municipality",
  "abi": [
    {
      "constant": true,
      "inputs": [],
      "name": "getUacAddress",
      "outputs": [
        {
          "name": "userActivationAddress",
          "type": "address"
        }
      ],
      "payable": false,
      "stateMutability": "view",
      "type": "function"
    },
    {
      "constant": false,
      "inputs": [
        {
          "name": "user",
          "type": "address"
        },
        {
          "name": "email",
          "type": "string"
        }
      ],
      "name": "setUserRole",
      "outputs": [],
      "payable": true,
      "stateMutability": "payable",
      "type": "function"
    },
    {
      "constant": true,
      "inputs": [],
      "name": "VOTING_START_TIMESTAMP",
      "outputs": [
        {
          "name": "",
          "type": "uint256"
        }
      ],
      "payable": false,
      "stateMutability": "view",
      "type": "function"
    },
    {
      "constant": true,
      "inputs": [],
      "name": "getRole",
      "outputs": [
        {
          "name": "",
          "type": "uint8"
        }
      ],
      "payable": false,
      "stateMutability": "view",
      "type": "function"
    },
    {
      "inputs": [
        {
          "name": "uacAddress",
          "type": "address"
        }
      ],
      "payable": true,
      "stateMutability": "payable",
      "type": "constructor"
    },
    {
      "anonymous": false,
      "inputs": [
        {
          "indexed": false,
          "name": "success",
          "type": "bool"
        },
        {
          "indexed": false,
          "name": "message",
          "type": "string"
        }
      ],
      "name": "MayorSignedOff",
      "type": "event"
    },
    {
      "anonymous": false,
      "inputs": [
        {
          "indexed": false,
          "name": "success",
          "type": "bool"
        },
        {
          "indexed": false,
          "name": "message",
          "type": "string"
        }
      ],
      "name": "MayorSignedIn",
      "type": "event"
    },
    {
      "anonymous": false,
      "inputs": [
        {
          "indexed": false,
          "name": "qrCodeHash",
          "type": "bytes32"
        },
        {
          "indexed": false,
          "name": "howMany",
          "type": "uint256"
        }
      ],
      "name": "VoterAlreadyRecorded",
      "type": "event"
    },
    {
      "anonymous": false,
      "inputs": [
        {
          "indexed": false,
          "name": "qrCodeHash",
          "type": "bytes32"
        },
        {
          "indexed": false,
          "name": "voterType",
          "type": "uint8"
        }
      ],
      "name": "VoterCleared",
      "type": "event"
    },
    {
      "anonymous": false,
      "inputs": [
        {
          "indexed": false,
          "name": "voteCode",
          "type": "uint256"
        },
        {
          "indexed": false,
          "name": "timestamp",
          "type": "string"
        }
      ],
      "name": "VoteCounted",
      "type": "event"
    },
    {
      "anonymous": false,
      "inputs": [],
      "name": "YesVoted",
      "type": "event"
    },
    {
      "anonymous": false,
      "inputs": [],
      "name": "NoVoted",
      "type": "event"
    },
    {
      "anonymous": false,
      "inputs": [],
      "name": "InvalidVoted",
      "type": "event"
    },
    {
      "anonymous": false,
      "inputs": [],
      "name": "BlankVoted",
      "type": "event"
    },
    {
      "anonymous": false,
      "inputs": [
        {
          "indexed": false,
          "name": "success",
          "type": "bool"
        },
        {
          "indexed": false,
          "name": "message",
          "type": "string"
        },
        {
          "indexed": false,
          "name": "email",
          "type": "string"
        },
        {
          "indexed": false,
          "name": "userAddress",
          "type": "address"
        },
        {
          "indexed": false,
          "name": "role",
          "type": "uint8"
        }
      ],
      "name": "UserAdded",
      "type": "event"
    },
    {
      "anonymous": false,
      "inputs": [
        {
          "indexed": false,
          "name": "uAddress",
          "type": "address"
        },
        {
          "indexed": false,
          "name": "email",
          "type": "string"
        }
      ],
      "name": "UserCreationFailed",
      "type": "event"
    },
    {
      "anonymous": false,
      "inputs": [
        {
          "indexed": false,
          "name": "message",
          "type": "string"
        }
      ],
      "name": "NotAllowed",
      "type": "event"
    },
    {
      "constant": false,
      "inputs": [],
      "name": "enrollPollStation",
      "outputs": [],
      "payable": false,
      "stateMutability": "nonpayable",
      "type": "function"
    },
    {
      "constant": false,
      "inputs": [],
      "name": "beginVotingSession",
      "outputs": [],
      "payable": false,
      "stateMutability": "nonpayable",
      "type": "function"
    },
    {
      "constant": false,
      "inputs": [],
      "name": "finishVotingSession",
      "outputs": [],
      "payable": false,
      "stateMutability": "nonpayable",
      "type": "function"
    },
    {
      "constant": false,
      "inputs": [
        {
          "name": "voteId",
          "type": "uint256"
        },
        {
          "name": "timestamp",
          "type": "string"
        }
      ],
      "name": "countVote",
      "outputs": [],
      "payable": false,
      "stateMutability": "nonpayable",
      "type": "function"
    },
    {
      "constant": true,
      "inputs": [],
      "name": "getYes",
      "outputs": [
        {
          "name": "",
          "type": "uint128"
        }
      ],
      "payable": false,
      "stateMutability": "view",
      "type": "function"
    },
    {
      "constant": true,
      "inputs": [],
      "name": "getNo",
      "outputs": [
        {
          "name": "",
          "type": "uint128"
        }
      ],
      "payable": false,
      "stateMutability": "view",
      "type": "function"
    },
    {
      "constant": true,
      "inputs": [],
      "name": "getInvalid",
      "outputs": [
        {
          "name": "",
          "type": "uint128"
        }
      ],
      "payable": false,
      "stateMutability": "view",
      "type": "function"
    },
    {
      "constant": true,
      "inputs": [],
      "name": "getBlank",
      "outputs": [
        {
          "name": "",
          "type": "uint128"
        }
      ],
      "payable": false,
      "stateMutability": "view",
      "type": "function"
    },
    {
      "constant": false,
      "inputs": [
        {
          "name": "pollingCards",
          "type": "uint256"
        },
        {
          "name": "powerOfAttorneys",
          "type": "uint256"
        },
        {
          "name": "voterPasses",
          "type": "uint256"
        }
      ],
      "name": "inputControlNumbers",
      "outputs": [],
      "payable": false,
      "stateMutability": "nonpayable",
      "type": "function"
    },
    {
      "constant": false,
      "inputs": [],
      "name": "recount",
      "outputs": [],
      "payable": false,
      "stateMutability": "nonpayable",
      "type": "function"
    },
    {
      "constant": true,
      "inputs": [],
      "name": "getRecounts",
      "outputs": [
        {
          "name": "",
          "type": "uint128"
        }
      ],
      "payable": false,
      "stateMutability": "view",
      "type": "function"
    },
    {
      "constant": false,
      "inputs": [
        {
          "name": "qrCodeHash",
          "type": "bytes32"
        },
        {
          "name": "voterType",
          "type": "uint8"
        }
      ],
      "name": "recordVoter",
      "outputs": [
        {
          "name": "",
          "type": "bool"
        }
      ],
      "payable": false,
      "stateMutability": "nonpayable",
      "type": "function"
    },
    {
      "constant": true,
      "inputs": [],
      "name": "isValid",
      "outputs": [
        {
          "name": "",
          "type": "bool"
        }
      ],
      "payable": false,
      "stateMutability": "view",
      "type": "function"
    },
    {
      "constant": true,
      "inputs": [
        {
          "name": "qrCodeHash",
          "type": "bytes32"
        }
      ],
      "name": "userVoted",
      "outputs": [
        {
          "name": "",
          "type": "bool"
        }
      ],
      "payable": false,
      "stateMutability": "view",
      "type": "function"
    },
    {
      "constant": false,
      "inputs": [
        {
          "name": "user",
          "type": "address"
        },
        {
          "name": "email",
          "type": "string"
        }
      ],
      "name": "setMayorRole",
      "outputs": [],
      "payable": true,
      "stateMutability": "payable",
      "type": "function"
    },
    {
      "constant": false,
      "inputs": [],
      "name": "mayorSignIn",
      "outputs": [],
      "payable": false,
      "stateMutability": "nonpayable",
      "type": "function"
    },
    {
      "constant": true,
      "inputs": [],
      "name": "getSummary",
      "outputs": [
        {
          "name": "scannedPollingCards",
          "type": "uint256"
        },
        {
          "name": "registeredVoterPasses",
          "type": "uint256"
        },
        {
          "name": "scannedPowerOfAttorneys",
          "type": "uint256"
        },
        {
          "name": "registeredPowerOfAttorneys",
          "type": "uint256"
        },
        {
          "name": "registeredObjections",
          "type": "uint256"
        },
        {
          "name": "collectedPollingCards",
          "type": "uint256"
        },
        {
          "name": "collectedVoterPasses",
          "type": "uint256"
        },
        {
          "name": "collectedPowerOfAttorneys",
          "type": "uint256"
        },
        {
          "name": "yesGlobal",
          "type": "uint256"
        },
        {
          "name": "noGlobal",
          "type": "uint256"
        },
        {
          "name": "blankGlobal",
          "type": "uint256"
        },
        {
          "name": "invalidGlobal",
          "type": "uint256"
        }
      ],
      "payable": false,
      "stateMutability": "view",
      "type": "function"
    },
    {
      "constant": true,
      "inputs": [],
      "name": "canSignOff",
      "outputs": [
        {
          "name": "isMissingPollingStation",
          "type": "bool"
        }
      ],
      "payable": false,
      "stateMutability": "view",
      "type": "function"
    },
    {
      "constant": false,
      "inputs": [],
      "name": "signOff",
      "outputs": [],
      "payable": false,
      "stateMutability": "nonpayable",
      "type": "function"
    }
  ],
  "bytecode": "0x60606040526000600360006101000a8154816fffffffffffffffffffffffffffffffff02191690836fffffffffffffffffffffffffffffffff1602179055506000600360106101000a8154816fffffffffffffffffffffffffffffffff02191690836fffffffffffffffffffffffffffffffff1602179055506000600460006101000a8154816fffffffffffffffffffffffffffffffff02191690836fffffffffffffffffffffffffffffffff1602179055506000600460106101000a8154816fffffffffffffffffffffffffffffffff02191690836fffffffffffffffffffffffffffffffff1602179055506000600560006101000a8154816fffffffffffffffffffffffffffffffff02191690836fffffffffffffffffffffffffffffffff1602179055506000600560106101000a8154816fffffffffffffffffffffffffffffffff02191690836fffffffffffffffffffffffffffffffff16021790555060006006556000600755600060085560006009556000600a556000600e556000600f5560006010556000601155604051602080612fa58339810160405280805190602001909190505080336000806101000a81548173ffffffffffffffffffffffffffffffffffffffff021916908373ffffffffffffffffffffffffffffffffffffffff16021790555080600160006101000a81548173ffffffffffffffffffffffffffffffffffffffff021916908373ffffffffffffffffffffffffffffffffffffffff1602179055505050612d698061023c6000396000f300606060405260043610610133576000357c0100000000000000000000000000000000000000000000000000000000900463ffffffff16806313959081146101385780631df3c85c1461019e57806324716b20146101f35780632bb9e0751461023e5780632cb53e74146102535780632d896b0a146102805780634051ddac146102955780634c1aa9761461030b5780635b692eba146103205780636bd0591b1461036d578063724de979146103ba57806374cb4c241461042b5780638d796bb314610440578063941974a2146104555780639d38800d1461048a5780639f0314fc146104c9578063b3bf38b714610516578063bb5d40eb14610563578063bc5bd14a14610590578063c8bef550146105a5578063d559b0f6146105ce578063e0e9855d1461063f578063fde081741461068c575b600080fd5b341561014357600080fd5b61019c600480803590602001909190803590602001908201803590602001908080601f016020809104026020016040519081016040528093929190818152602001838380828437820191505050505050919050506106c3565b005b34156101a957600080fd5b6101b1610d5e565b604051808273ffffffffffffffffffffffffffffffffffffffff1673ffffffffffffffffffffffffffffffffffffffff16815260200191505060405180910390f35b34156101fe57600080fd5b61022460048080356000191690602001909190803560ff16906020019091905050610d88565b604051808215151515815260200191505060405180910390f35b341561024957600080fd5b61025161136a565b005b341561025e57600080fd5b6102666113d4565b604051808215151515815260200191505060405180910390f35b341561028b57600080fd5b6102936113e0565b005b34156102a057600080fd5b6102a8611551565b604051808d81526020018c81526020018b81526020018a81526020018981526020018881526020018781526020018681526020018581526020018481526020018381526020018281526020019c5050505050505050505050505060405180910390f35b341561031657600080fd5b61031e611671565b005b341561032b57600080fd5b610333611d72565b60405180826fffffffffffffffffffffffffffffffff166fffffffffffffffffffffffffffffffff16815260200191505060405180910390f35b341561037857600080fd5b610380611d98565b60405180826fffffffffffffffffffffffffffffffff166fffffffffffffffffffffffffffffffff16815260200191505060405180910390f35b610429600480803573ffffffffffffffffffffffffffffffffffffffff1690602001909190803590602001908201803590602001908080601f01602080910402602001604051908101604052809392919081815260200183838082843782019150505050505091905050611dbe565b005b341561043657600080fd5b61043e612246565b005b341561044b57600080fd5b610453612438565b005b341561046057600080fd5b61048860048080359060200190919080359060200190919080359060200190919050506124e8565b005b341561049557600080fd5b6104af6004808035600019169060200190919050506128c1565b604051808215151515815260200191505060405180910390f35b34156104d457600080fd5b6104dc61291f565b60405180826fffffffffffffffffffffffffffffffff166fffffffffffffffffffffffffffffffff16815260200191505060405180910390f35b341561052157600080fd5b610529612945565b60405180826fffffffffffffffffffffffffffffffff166fffffffffffffffffffffffffffffffff16815260200191505060405180910390f35b341561056e57600080fd5b61057661296b565b604051808215151515815260200191505060405180910390f35b341561059b57600080fd5b6105a3612a0f565b005b34156105b057600080fd5b6105b8612a7a565b6040518082815260200191505060405180910390f35b61063d600480803573ffffffffffffffffffffffffffffffffffffffff1690602001909190803590602001908201803590602001908080601f01602080910402602001604051908101604052809392919081815260200183838082843782019150505050505091905050612a7f565b005b341561064a57600080fd5b610652612b53565b60405180826fffffffffffffffffffffffffffffffff166fffffffffffffffffffffffffffffffff16815260200191505060405180910390f35b341561069757600080fd5b61069f612b79565b604051808260048111156106af57fe5b60ff16815260200191505060405180910390f35b60038060048111156106d157fe5b600260003273ffffffffffffffffffffffffffffffffffffffff1673ffffffffffffffffffffffffffffffffffffffff16815260200190815260200160002060009054906101000a900460ff1660ff16600481111561072c57fe5b600481111561073757fe5b1415610cf05760011515601860003373ffffffffffffffffffffffffffffffffffffffff1673ffffffffffffffffffffffffffffffffffffffff16815260200190815260200160002060009054906101000a900460ff1615151415610c5857600183141561089f576003600081819054906101000a90046fffffffffffffffffffffffffffffffff168092919060010191906101000a8154816fffffffffffffffffffffffffffffffff02191690836fffffffffffffffffffffffffffffffff16021790555050601460003373ffffffffffffffffffffffffffffffffffffffff1673ffffffffffffffffffffffffffffffffffffffff168152602001908152602001600020600081819054906101000a90046fffffffffffffffffffffffffffffffff168092919060010191906101000a8154816fffffffffffffffffffffffffffffffff02191690836fffffffffffffffffffffffffffffffff16021790555050610baf565b60028314156109a8576003601081819054906101000a90046fffffffffffffffffffffffffffffffff168092919060010191906101000a8154816fffffffffffffffffffffffffffffffff02191690836fffffffffffffffffffffffffffffffff16021790555050601560003373ffffffffffffffffffffffffffffffffffffffff1673ffffffffffffffffffffffffffffffffffffffff168152602001908152602001600020600081819054906101000a90046fffffffffffffffffffffffffffffffff168092919060010191906101000a8154816fffffffffffffffffffffffffffffffff02191690836fffffffffffffffffffffffffffffffff16021790555050610bae565b6003831415610ab1576004601081819054906101000a90046fffffffffffffffffffffffffffffffff168092919060010191906101000a8154816fffffffffffffffffffffffffffffffff02191690836fffffffffffffffffffffffffffffffff16021790555050601660003373ffffffffffffffffffffffffffffffffffffffff1673ffffffffffffffffffffffffffffffffffffffff168152602001908152602001600020600081819054906101000a90046fffffffffffffffffffffffffffffffff168092919060010191906101000a8154816fffffffffffffffffffffffffffffffff02191690836fffffffffffffffffffffffffffffffff16021790555050610bad565b6004600081819054906101000a90046fffffffffffffffffffffffffffffffff168092919060010191906101000a8154816fffffffffffffffffffffffffffffffff02191690836fffffffffffffffffffffffffffffffff16021790555050601760003373ffffffffffffffffffffffffffffffffffffffff1673ffffffffffffffffffffffffffffffffffffffff168152602001908152602001600020600081819054906101000a90046fffffffffffffffffffffffffffffffff168092919060010191906101000a8154816fffffffffffffffffffffffffffffffff02191690836fffffffffffffffffffffffffffffffff160217905550505b5b5b7fddec203a0a71d0a1cba926284554d3d171497153c7cb3416813c953124f4239483836040518083815260200180602001828103825283818151815260200191508051906020019080838360005b83811015610c18578082015181840152602081019050610bfd565b50505050905090810190601f168015610c455780820380516001836020036101000a031916815260200191505b50935050505060405180910390a1610ceb565b7f367dccf700b76ac212780fb422c9b7569b12f28f39de0a0f8622641a83355ab160405180806020018281038252602b8152602001807f4f6e6c7920656e726f6c6c656420706f6c6c2073746174696f6e732063616e2081526020017f6361737420766f7465732e00000000000000000000000000000000000000000081525060400191505060405180910390a1600080fd5b610d59565b7f367dccf700b76ac212780fb422c9b7569b12f28f39de0a0f8622641a83355ab16040518080602001828103825260148152602001807f556e617574686f72697a6564206163636573732e00000000000000000000000081525060200191505060405180910390a15b505050565b6000600160009054906101000a900473ffffffffffffffffffffffffffffffffffffffff16905090565b600082600060136000836000191660001916815260200190815260200160002060009054906101000a900473ffffffffffffffffffffffffffffffffffffffff1673ffffffffffffffffffffffffffffffffffffffff16141515610f5257601260008260001916600019168152602001908152602001600020600081819054906101000a90046fffffffffffffffffffffffffffffffff168092919060010191906101000a8154816fffffffffffffffffffffffffffffffff02191690836fffffffffffffffffffffffffffffffff160217905550506005600081819054906101000a90046fffffffffffffffffffffffffffffffff168092919060010191906101000a8154816fffffffffffffffffffffffffffffffff02191690836fffffffffffffffffffffffffffffffff160217905550507f2ef158f3a8866b3005320b4ab628d3ab4763db0f8e0e1f37c4d65c03cd63c2688160126000846000191660001916815260200190815260200160002060009054906101000a90046fffffffffffffffffffffffffffffffff16604051808360001916600019168152602001826fffffffffffffffffffffffffffffffff1681526020019250505060405180910390a1611363565b60011515601860003373ffffffffffffffffffffffffffffffffffffffff1673ffffffffffffffffffffffffffffffffffffffff16815260200190815260200160002060009054906101000a900460ff16151514156112cf576003806004811115610fb957fe5b600260003273ffffffffffffffffffffffffffffffffffffffff1673ffffffffffffffffffffffffffffffffffffffff16815260200190815260200160002060009054906101000a900460ff1660ff16600481111561101457fe5b600481111561101f57fe5b1415611260576001600581111561103257fe5b84600581111561103e57fe5b141561105b576006600081548092919060010191905055506111a7565b6002600581111561106857fe5b84600581111561107457fe5b1415611091576007600081548092919060010191905055506111a6565b6003600581111561109e57fe5b8460058111156110aa57fe5b14156110c7576008600081548092919060010191905055506111a5565b600460058111156110d457fe5b8460058111156110e057fe5b14156110fd576009600081548092919060010191905055506111a4565b60058081111561110957fe5b84600581111561111557fe5b141561113257600a600081548092919060010191905055506111a3565b7f367dccf700b76ac212780fb422c9b7569b12f28f39de0a0f8622641a83355ab16040518080602001828103825260138152602001807f496e76616c696420766f74657220747970652e0000000000000000000000000081525060200191505060405180910390a16000925061125b565b5b5b5b5b3360136000876000191660001916815260200190815260200160002060006101000a81548173ffffffffffffffffffffffffffffffffffffffff021916908373ffffffffffffffffffffffffffffffffffffffff1602179055507f536ee132d77576c724f4b134b1286b14d74fa4e6d4768190f399115b10998202858560405180836000191660001916815260200182600581111561124257fe5b60ff1681526020019250505060405180910390a1600192505b6112c9565b7f367dccf700b76ac212780fb422c9b7569b12f28f39de0a0f8622641a83355ab16040518080602001828103825260148152602001807f556e617574686f72697a6564206163636573732e00000000000000000000000081525060200191505060405180910390a15b50611362565b7f367dccf700b76ac212780fb422c9b7569b12f28f39de0a0f8622641a83355ab160405180806020018281038252602b8152602001807f4f6e6c7920656e726f6c6c656420706f6c6c2073746174696f6e732063616e2081526020017f6361737420766f7465732e00000000000000000000000000000000000000000081525060400191505060405180910390a1600080fd5b5b5092915050565b6000809054906101000a900473ffffffffffffffffffffffffffffffffffffffff1673ffffffffffffffffffffffffffffffffffffffff163273ffffffffffffffffffffffffffffffffffffffff1614156113d2576011600081548092919060010191905055505b565b60008060115414905090565b6000600260003373ffffffffffffffffffffffffffffffffffffffff1673ffffffffffffffffffffffffffffffffffffffff16815260200190815260200160002060009054906101000a900460ff1660ff16600481111561143d57fe5b90506002600481111561144c57fe5b81600481111561145857fe5b14156114d8577f0885e90635a43d97e91be8ce67e5bbcaa4dd8f347ba136082bb63570c695517e60016040518082151515158152602001806020018281038252600f8152602001807f4d61796f72205369676e656420496e00000000000000000000000000000000008152506020019250505060405180910390a161154e565b7f0885e90635a43d97e91be8ce67e5bbcaa4dd8f347ba136082bb63570c695517e60006040518082151515158152602001806020018281038252600f8152602001807f4d61796f72205369676e656420496e00000000000000000000000000000000008152506020019250505060405180910390a15b50565b600080600080600080600080600080600080600654600954600754600854600a54600e54601054600f54600360009054906101000a90046fffffffffffffffffffffffffffffffff16600360109054906101000a90046fffffffffffffffffffffffffffffffff16600460109054906101000a90046fffffffffffffffffffffffffffffffff16600460009054906101000a90046fffffffffffffffffffffffffffffffff16836fffffffffffffffffffffffffffffffff169350826fffffffffffffffffffffffffffffffff169250816fffffffffffffffffffffffffffffffff169150806fffffffffffffffffffffffffffffffff1690509b509b509b509b509b509b509b509b509b509b509b509b50909192939495969798999a9b565b600080600080600380600481111561168557fe5b600260003273ffffffffffffffffffffffffffffffffffffffff1673ffffffffffffffffffffffffffffffffffffffff16815260200190815260200160002060009054906101000a900460ff1660ff1660048111156116e057fe5b60048111156116eb57fe5b1415611d025760011515601860003373ffffffffffffffffffffffffffffffffffffffff1673ffffffffffffffffffffffffffffffffffffffff16815260200190815260200160002060009054906101000a900460ff1615151415611c6a57601460003373ffffffffffffffffffffffffffffffffffffffff1673ffffffffffffffffffffffffffffffffffffffff16815260200190815260200160002060009054906101000a90046fffffffffffffffffffffffffffffffff169450601560003373ffffffffffffffffffffffffffffffffffffffff1673ffffffffffffffffffffffffffffffffffffffff16815260200190815260200160002060009054906101000a90046fffffffffffffffffffffffffffffffff169350601660003373ffffffffffffffffffffffffffffffffffffffff1673ffffffffffffffffffffffffffffffffffffffff16815260200190815260200160002060009054906101000a90046fffffffffffffffffffffffffffffffff169250601760003373ffffffffffffffffffffffffffffffffffffffff1673ffffffffffffffffffffffffffffffffffffffff16815260200190815260200160002060009054906101000a90046fffffffffffffffffffffffffffffffff1691506000601460003373ffffffffffffffffffffffffffffffffffffffff1673ffffffffffffffffffffffffffffffffffffffff16815260200190815260200160002060006101000a8154816fffffffffffffffffffffffffffffffff02191690836fffffffffffffffffffffffffffffffff1602179055506000601560003373ffffffffffffffffffffffffffffffffffffffff1673ffffffffffffffffffffffffffffffffffffffff16815260200190815260200160002060006101000a8154816fffffffffffffffffffffffffffffffff02191690836fffffffffffffffffffffffffffffffff1602179055506000601660003373ffffffffffffffffffffffffffffffffffffffff1673ffffffffffffffffffffffffffffffffffffffff16815260200190815260200160002060006101000a8154816fffffffffffffffffffffffffffffffff02191690836fffffffffffffffffffffffffffffffff1602179055506000601760003373ffffffffffffffffffffffffffffffffffffffff1673ffffffffffffffffffffffffffffffffffffffff16815260200190815260200160002060006101000a8154816fffffffffffffffffffffffffffffffff02191690836fffffffffffffffffffffffffffffffff16021790555084600360008282829054906101000a90046fffffffffffffffffffffffffffffffff160392506101000a8154816fffffffffffffffffffffffffffffffff02191690836fffffffffffffffffffffffffffffffff16021790555083600360108282829054906101000a90046fffffffffffffffffffffffffffffffff160392506101000a8154816fffffffffffffffffffffffffffffffff02191690836fffffffffffffffffffffffffffffffff16021790555082600460108282829054906101000a90046fffffffffffffffffffffffffffffffff160392506101000a8154816fffffffffffffffffffffffffffffffff02191690836fffffffffffffffffffffffffffffffff16021790555081600460008282829054906101000a90046fffffffffffffffffffffffffffffffff160392506101000a8154816fffffffffffffffffffffffffffffffff02191690836fffffffffffffffffffffffffffffffff1602179055506005601081819054906101000a90046fffffffffffffffffffffffffffffffff168092919060010191906101000a8154816fffffffffffffffffffffffffffffffff02191690836fffffffffffffffffffffffffffffffff16021790555050611cfd565b7f367dccf700b76ac212780fb422c9b7569b12f28f39de0a0f8622641a83355ab160405180806020018281038252602b8152602001807f4f6e6c7920656e726f6c6c656420706f6c6c2073746174696f6e732063616e2081526020017f6361737420766f7465732e00000000000000000000000000000000000000000081525060400191505060405180910390a1600080fd5b611d6b565b7f367dccf700b76ac212780fb422c9b7569b12f28f39de0a0f8622641a83355ab16040518080602001828103825260148152602001807f556e617574686f72697a6564206163636573732e00000000000000000000000081525060200191505060405180910390a15b5050505050565b6000600460109054906101000a90046fffffffffffffffffffffffffffffffff16905090565b6000600560109054906101000a90046fffffffffffffffffffffffffffffffff16905090565b60008060009054906101000a900473ffffffffffffffffffffffffffffffffffffffff1673ffffffffffffffffffffffffffffffffffffffff163273ffffffffffffffffffffffffffffffffffffffff16141561224157600160009054906101000a900473ffffffffffffffffffffffffffffffffffffffff1673ffffffffffffffffffffffffffffffffffffffff1663b8c51067836000604051602001526040518263ffffffff167c01000000000000000000000000000000000000000000000000000000000281526004018080602001828103825283818151815260200191508051906020019080838360005b83811015611ec8578082015181840152602081019050611ead565b50505050905090810190601f168015611ef55780820380516001836020036101000a031916815260200191505b5092505050602060405180830381600087803b1515611f1357600080fd5b6102c65a03f11515611f2457600080fd5b5050506040518051905060ff166004811115611f3c57fe5b905060006004811115611f4b57fe5b816004811115611f5757fe5b118015611f7a5750600480811115611f6b57fe5b816004811115611f7757fe5b11155b1561211357806004811115611f8b57fe5b600260008573ffffffffffffffffffffffffffffffffffffffff1673ffffffffffffffffffffffffffffffffffffffff16815260200190815260200160002060006101000a81548160ff021916908360ff1602179055507fe0002dd72fe0d21c584dfb23d23de71a96770c70d5b244275f416a35df6b29726001838584604051808515151515815260200180602001806020018573ffffffffffffffffffffffffffffffffffffffff1673ffffffffffffffffffffffffffffffffffffffff16815260200184600481111561205c57fe5b60ff1681526020018381038352600a8152602001807f5573657220416464656400000000000000000000000000000000000000000000815250602001838103825286818151815260200191508051906020019080838360005b838110156120d05780820151818401526020810190506120b5565b50505050905090810190601f1680156120fd5780820380516001836020036101000a031916815260200191505b50965050505050505060405180910390a1612240565b7fe0002dd72fe0d21c584dfb23d23de71a96770c70d5b244275f416a35df6b29726000838584604051808515151515815260200180602001806020018573ffffffffffffffffffffffffffffffffffffffff1673ffffffffffffffffffffffffffffffffffffffff16815260200184600481111561218d57fe5b60ff168152602001838103835260148152602001807f55736572204372656174696f6e204661696c6564000000000000000000000000815250602001838103825286818151815260200191508051906020019080838360005b838110156122015780820151818401526020810190506121e6565b50505050905090810190601f16801561222e5780820380516001836020036101000a031916815260200191505b50965050505050505060405180910390a15b5b505050565b6002600481111561225357fe5b600260003273ffffffffffffffffffffffffffffffffffffffff1673ffffffffffffffffffffffffffffffffffffffff16815260200190815260200160002060009054906101000a900460ff1660ff1660048111156122ae57fe5b60048111156122b957fe5b1415612339577f6918bd3f15dae330b0d138ce975f1aaaf4e33c57091ed31f134a5f4c4848167d60006040518082151515158152602001806020018281038252600e8152602001807f4163636573732064656e696564210000000000000000000000000000000000008152506020019250505060405180910390a1612436565b60006011541415156123e5577f6918bd3f15dae330b0d138ce975f1aaaf4e33c57091ed31f134a5f4c4848167d6000604051808215151515815260200180602001828103825260288152602001807f416c6c20506f6c6c696e672053746174696f6e73206d757374205369676e204f81526020017f66662066697273740000000000000000000000000000000000000000000000008152506040019250505060405180910390a1612436565b7f6918bd3f15dae330b0d138ce975f1aaaf4e33c57091ed31f134a5f4c4848167d60006040518082151515158152602001806020018281038252600081526020016020019250505060405180910390a15b565b6000809054906101000a900473ffffffffffffffffffffffffffffffffffffffff1673ffffffffffffffffffffffffffffffffffffffff163273ffffffffffffffffffffffffffffffffffffffff1614156124e6576001601860003373ffffffffffffffffffffffffffffffffffffffff1673ffffffffffffffffffffffffffffffffffffffff16815260200190815260200160002060006101000a81548160ff0219169083151502179055505b565b600080600060038060048111156124fb57fe5b600260003273ffffffffffffffffffffffffffffffffffffffff1673ffffffffffffffffffffffffffffffffffffffff16815260200190815260200160002060009054906101000a900460ff1660ff16600481111561255657fe5b600481111561256157fe5b141561284f5760011515601860003373ffffffffffffffffffffffffffffffffffffffff1673ffffffffffffffffffffffffffffffffffffffff16815260200190815260200160002060009054906101000a900460ff16151514156127b757600b60003373ffffffffffffffffffffffffffffffffffffffff1673ffffffffffffffffffffffffffffffffffffffff168152602001908152602001600020549350600c60003373ffffffffffffffffffffffffffffffffffffffff1673ffffffffffffffffffffffffffffffffffffffff168152602001908152602001600020549250600d60003373ffffffffffffffffffffffffffffffffffffffff1673ffffffffffffffffffffffffffffffffffffffff16815260200190815260200160002054915083600e6000828254039250508190555082600f600082825403925050819055508160106000828254039250508190555086600e6000828254019250508190555085600f600082825401925050819055508460106000828254019250508190555086600b60003373ffffffffffffffffffffffffffffffffffffffff1673ffffffffffffffffffffffffffffffffffffffff1681526020019081526020016000208190555085600c60003373ffffffffffffffffffffffffffffffffffffffff1673ffffffffffffffffffffffffffffffffffffffff1681526020019081526020016000208190555084600d60003373ffffffffffffffffffffffffffffffffffffffff1673ffffffffffffffffffffffffffffffffffffffff1681526020019081526020016000208190555061284a565b7f367dccf700b76ac212780fb422c9b7569b12f28f39de0a0f8622641a83355ab160405180806020018281038252602b8152602001807f4f6e6c7920656e726f6c6c656420706f6c6c2073746174696f6e732063616e2081526020017f6361737420766f7465732e00000000000000000000000000000000000000000081525060400191505060405180910390a1600080fd5b6128b8565b7f367dccf700b76ac212780fb422c9b7569b12f28f39de0a0f8622641a83355ab16040518080602001828103825260148152602001807f556e617574686f72697a6564206163636573732e00000000000000000000000081525060200191505060405180910390a15b50505050505050565b60008060136000846000191660001916815260200190815260200160002060009054906101000a900473ffffffffffffffffffffffffffffffffffffffff1673ffffffffffffffffffffffffffffffffffffffff1614159050919050565b6000600360109054906101000a90046fffffffffffffffffffffffffffffffff16905090565b6000600360009054906101000a90046fffffffffffffffffffffffffffffffff16905090565b6000600e54600f546010540101600460009054906101000a90046fffffffffffffffffffffffffffffffff16600360009054906101000a90046fffffffffffffffffffffffffffffffff16600360109054906101000a90046fffffffffffffffffffffffffffffffff16600460109054906101000a90046fffffffffffffffffffffffffffffffff160101016fffffffffffffffffffffffffffffffff1614905090565b6000809054906101000a900473ffffffffffffffffffffffffffffffffffffffff1673ffffffffffffffffffffffffffffffffffffffff163273ffffffffffffffffffffffffffffffffffffffff161415612a7857601160008154809291906001900391905055505b565b600181565b6000809054906101000a900473ffffffffffffffffffffffffffffffffffffffff1673ffffffffffffffffffffffffffffffffffffffff163273ffffffffffffffffffffffffffffffffffffffff161415612b4f57600034111515612ae357600080fd5b612aed8282611dbe565b612af681612bdb565b60018273ffffffffffffffffffffffffffffffffffffffff1631111515612b4e578173ffffffffffffffffffffffffffffffffffffffff166108fc349081150290604051600060405180830381858888f19350505050505b5b5050565b6000600460009054906101000a90046fffffffffffffffffffffffffffffffff16905090565b6000600260003273ffffffffffffffffffffffffffffffffffffffff1673ffffffffffffffffffffffffffffffffffffffff16815260200190815260200160002060009054906101000a900460ff1660ff166004811115612bd657fe5b905090565b6000809054906101000a900473ffffffffffffffffffffffffffffffffffffffff1673ffffffffffffffffffffffffffffffffffffffff163273ffffffffffffffffffffffffffffffffffffffff161415612d3a57600160009054906101000a900473ffffffffffffffffffffffffffffffffffffffff1673ffffffffffffffffffffffffffffffffffffffff16634af57033826040518263ffffffff167c01000000000000000000000000000000000000000000000000000000000281526004018080602001828103825283818151815260200191508051906020019080838360005b83811015612cda578082015181840152602081019050612cbf565b50505050905090810190601f168015612d075780820380516001836020036101000a031916815260200191505b5092505050600060405180830381600087803b1515612d2557600080fd5b6102c65a03f11515612d3657600080fd5b5050505b505600a165627a7a723058200f49bf2f833e3eca5a4f91e4c4997aacaeb62fe270d5fb6b2ba32d41739c2dce0029",
  "source": "pragma solidity ^0.4.19;\r\n\r\nimport \"./useractivation.sol\";\r\nimport \"./permissions.sol\";\r\n\r\ncontract Municipality is Permissions {\r\n   \r\n    uint128 private yes = 0;\r\n    uint128 private no = 0;\r\n    uint128 private invalid = 0;\r\n    uint128 private blank = 0;\r\n    uint128 private duplicityError = 0;\r\n    uint128 private recounts = 0;\r\n    \r\n    //Voter Registration\r\n    uint private scannedPollingCardCount = 0;\r\n    uint private scannedPowerOfAttorneyCount = 0;\r\n    uint private registeredPowerOfAttorneyCount = 0;\r\n    uint private registeredVoterPassCount = 0;\r\n    uint private registeredObjectionCount = 0;\r\n    \r\n    //Control Numbers\r\n    mapping (address => uint) collectedPollingCardCountByPollingStation;\r\n    mapping (address => uint) collectedPowerOfAttorneyCountByPollingStation;\r\n    mapping (address => uint) collectedVoterPassCountByPollingStation;\r\n    uint private collectedPollingCardCount = 0;\r\n    uint private collectedPowerOfAttorneyCount = 0;\r\n    uint private collectedVoterPassCount = 0;\r\n\r\n    uint private workingPollingStationsCount = 0;\r\n    \r\n    mapping (bytes32 => uint128) private whosError;\r\n    mapping (bytes32 => address) private cardsClaimed;\r\n    mapping (address => uint128) private pollingStationYesVotes;\r\n    mapping (address => uint128) private pollingStationNoVotes;\r\n    mapping (address => uint128) private pollingStationBlankVotes;\r\n    mapping (address => uint128) private pollingStationInvalidVotes;\r\n    mapping (address => bool) private enrolledPollStations;\r\n    mapping (address => bool) private pollingStationJobComplete; \r\n\r\n    event MayorSignedOff(bool success, string message);\r\n    event MayorSignedIn(bool success, string message);\r\n    event VoterAlreadyRecorded(bytes32 qrCodeHash, uint howMany);\r\n    event VoterCleared(bytes32 qrCodeHash, VoterType voterType);\r\n    event VoteCounted(uint voteCode, string timestamp);\r\n    \r\n    event YesVoted();\r\n    event NoVoted();\r\n    event InvalidVoted();\r\n    event BlankVoted();\r\n    \r\n    function Municipality(address uacAddress) Permissions(uacAddress) public payable { }\r\n    \r\n    modifier _canVote() {\r\n        if (enrolledPollStations[msg.sender] == true) {\r\n            _;\r\n        } else {\r\n            NotAllowed(\"Only enrolled poll stations can cast votes.\");\r\n            revert();\r\n        }\r\n    }\r\n\r\n    modifier _canSignOff() {\r\n        if(Role(roles[tx.origin]) == Role.Mayor) {\r\n            MayorSignedOff(false, \"Access denied!\");\r\n            return;\r\n        }\r\n\r\n        if(workingPollingStationsCount != 0) {\r\n            MayorSignedOff(false, \"All Polling Stations must Sign Off first\");\r\n            return;\r\n        }\r\n\r\n        MayorSignedOff(false, \"\");\r\n        _;\r\n    }\r\n    \r\n    function enrollPollStation() public _isOwner() {\r\n        enrolledPollStations[msg.sender] = true;\r\n    }\r\n\r\n    function beginVotingSession() public _isOwner() {\r\n        workingPollingStationsCount++;\r\n    }\r\n\r\n    function finishVotingSession() public _isOwner() {\r\n        workingPollingStationsCount--;\r\n    }\r\n\r\n    function countVote(uint voteId, string timestamp) public _verifyRole(Role.Chairman) _canVote() {\r\n\r\n        if(voteId == 1) {\r\n            yes++;\r\n            pollingStationYesVotes[msg.sender]++;\r\n        }else if(voteId == 2) {\r\n            no++;\r\n            pollingStationNoVotes[msg.sender]++;\r\n        }else if(voteId == 3) {\r\n            blank++;\r\n            pollingStationBlankVotes[msg.sender]++;\r\n        }else {\r\n            invalid++;\r\n            pollingStationInvalidVotes[msg.sender]++;          \r\n        }\r\n\r\n        VoteCounted(voteId, timestamp);\r\n    }\r\n   \r\n    function getYes() public view returns (uint128) {\r\n        return yes;\r\n    }\r\n    \r\n    function getNo() public view returns (uint128) {\r\n        return no;\r\n    }\r\n    \r\n    function getInvalid() public view returns (uint128) {\r\n        return invalid;\r\n    }\r\n    \r\n    function getBlank() public view returns (uint128) {\r\n        return blank;\r\n    }\r\n    \r\n    function inputControlNumbers(uint pollingCards, uint powerOfAttorneys, uint voterPasses) public _verifyRole(Role.Chairman) _canVote() {\r\n        uint tempPollingCardCount = collectedPollingCardCountByPollingStation[msg.sender];\r\n        uint tempPowerOfAttorneyCount = collectedPowerOfAttorneyCountByPollingStation[msg.sender];\r\n        uint tempVoterPassCount = collectedVoterPassCountByPollingStation[msg.sender];\r\n\r\n        collectedPollingCardCount -= tempPollingCardCount;\r\n        collectedPowerOfAttorneyCount -= tempPowerOfAttorneyCount;\r\n        collectedVoterPassCount -= tempVoterPassCount;\r\n\r\n        collectedPollingCardCount += pollingCards;\r\n        collectedPowerOfAttorneyCount += powerOfAttorneys;\r\n        collectedVoterPassCount += voterPasses;\r\n\r\n        collectedPollingCardCountByPollingStation[msg.sender] = pollingCards;\r\n        collectedPowerOfAttorneyCountByPollingStation[msg.sender] = powerOfAttorneys;\r\n        collectedVoterPassCountByPollingStation[msg.sender] = voterPasses;\r\n    }\r\n    \r\n    function recount() public _verifyRole(Role.Chairman) _canVote() {\r\n        uint128 yesTemp = pollingStationYesVotes[msg.sender];\r\n        uint128 noTemp = pollingStationNoVotes[msg.sender];\r\n        uint128 blankTemp = pollingStationBlankVotes[msg.sender];\r\n        uint128 invalidTemp = pollingStationInvalidVotes[msg.sender];\r\n        \r\n        pollingStationYesVotes[msg.sender] = 0;\r\n        pollingStationNoVotes[msg.sender] = 0;\r\n        pollingStationBlankVotes[msg.sender] = 0;\r\n        pollingStationInvalidVotes[msg.sender] = 0;\r\n        \r\n        yes -= yesTemp;\r\n        no -= noTemp;\r\n        blank -= blankTemp;\r\n        invalid -= invalidTemp;\r\n        recounts++;\r\n    }\r\n    \r\n    function getRecounts() public view returns (uint128) {\r\n        return recounts;\r\n    }\r\n    \r\n    modifier _noRevote(bytes32 qrCodeHash) {\r\n        if (cardsClaimed[qrCodeHash] != 0) {\r\n            whosError[qrCodeHash]++;\r\n            duplicityError++;\r\n            VoterAlreadyRecorded(qrCodeHash, whosError[qrCodeHash]);\r\n        } else {\r\n            _;\r\n        }\r\n    }\r\n    \r\n    function recordVoter(bytes32 qrCodeHash, VoterType voterType) public _noRevote(qrCodeHash) _canVote() _verifyRole(Role.Chairman) returns (bool) {\r\n        \r\n        if (voterType == VoterType.PollingCard) {\r\n            scannedPollingCardCount++;\r\n        } else if (voterType == VoterType.PowerOfAttorneyPollingCard) {\r\n            scannedPowerOfAttorneyCount++;\r\n        } else if (voterType == VoterType.PowerOfAttorney) {\r\n            registeredPowerOfAttorneyCount++;\r\n        } else if (voterType == VoterType.VoterPass) {\r\n            registeredVoterPassCount++;\r\n        } else if (voterType == VoterType.Objection) {\r\n            registeredObjectionCount++;\r\n        } else {\r\n            NotAllowed(\"Invalid voter type.\");\r\n            return false;\r\n        }\r\n        \r\n        cardsClaimed[qrCodeHash] = msg.sender;\r\n        VoterCleared(qrCodeHash, voterType);\r\n        return true;\r\n    }\r\n    \r\n    function isValid() public view returns (bool) {\r\n        return ((blank + no + yes + invalid) == (collectedVoterPassCount + collectedPowerOfAttorneyCount + collectedPollingCardCount));\r\n    }\r\n    \r\n    function userVoted(bytes32 qrCodeHash) public view returns (bool) {\r\n        return cardsClaimed[qrCodeHash] != 0;\r\n    }\r\n\r\n    //Adds the Mayor Role when the mayor first signs in\r\n    function setMayorRole(address user, string email) public _isOwner() payable {\r\n        require(msg.value > 0);\r\n        super.setUserRole(user, email);\r\n        super.setUsedEmail(email);\r\n        if (user.balance <= 1) {\r\n            user.send(msg.value);\r\n        }\r\n    }\r\n\r\n    function mayorSignIn() public {\r\n        Role role = Role(roles[msg.sender]);\r\n\r\n        if (role == Role.Mayor) {\r\n            MayorSignedIn(true, \"Mayor Signed In\");\r\n        }\r\n        else{\r\n            MayorSignedIn(false, \"Mayor Signed In\");\r\n        }\r\n    }\r\n\r\n    function getSummary() public view returns (uint scannedPollingCards, uint registeredVoterPasses, uint scannedPowerOfAttorneys, uint registeredPowerOfAttorneys, uint registeredObjections, uint collectedPollingCards, uint collectedVoterPasses, uint collectedPowerOfAttorneys, uint yesGlobal, uint noGlobal, uint blankGlobal, uint invalidGlobal) {\r\n        return (scannedPollingCardCount, registeredVoterPassCount, scannedPowerOfAttorneyCount, registeredPowerOfAttorneyCount, registeredObjectionCount, collectedPollingCardCount, collectedVoterPassCount, collectedPowerOfAttorneyCount, yes, no, blank, invalid);\r\n    }\r\n\r\n    function canSignOff() public view returns (bool isMissingPollingStation) {\r\n        return (workingPollingStationsCount == 0);\r\n    }\r\n\r\n    function signOff() public _canSignOff() {\r\n        \r\n    }\r\n}",
  "sourcePath": "D:\\LAB15\\git\\CountingVotes\\ps-blockchain\\contracts\\municipality.sol",
  "compiler": {
    "name": "solc",
    "version": "0.4.19+commit.c4cbbb05.Emscripten.clang"
  },
  "schemaVersion": "2.0.0",
  "updatedAt": "2018-03-20T08:50:35.188Z"
}