{
  "contractName": "Municipality",
  "abi": [
    {
      "constant": true,
      "inputs": [],
      "name": "getUacAddress",
      "outputs": [
        {
          "name": "userActivationAddress",
          "type": "address"
        }
      ],
      "payable": false,
      "stateMutability": "view",
      "type": "function"
    },
    {
      "constant": false,
      "inputs": [
        {
          "name": "user",
          "type": "address"
        },
        {
          "name": "email",
          "type": "string"
        }
      ],
      "name": "setUserRole",
      "outputs": [],
      "payable": true,
      "stateMutability": "payable",
      "type": "function"
    },
    {
      "constant": true,
      "inputs": [],
      "name": "VOTING_START_TIMESTAMP",
      "outputs": [
        {
          "name": "",
          "type": "uint256"
        }
      ],
      "payable": false,
      "stateMutability": "view",
      "type": "function"
    },
    {
      "constant": true,
      "inputs": [],
      "name": "getRole",
      "outputs": [
        {
          "name": "",
          "type": "uint8"
        }
      ],
      "payable": false,
      "stateMutability": "view",
      "type": "function"
    },
    {
      "inputs": [
        {
          "name": "uacAddress",
          "type": "address"
        }
      ],
      "payable": true,
      "stateMutability": "payable",
      "type": "constructor"
    },
    {
      "anonymous": false,
      "inputs": [
        {
          "indexed": false,
          "name": "success",
          "type": "bool"
        },
        {
          "indexed": false,
          "name": "message",
          "type": "string"
        }
      ],
      "name": "MayorSignedIn",
      "type": "event"
    },
    {
      "anonymous": false,
      "inputs": [
        {
          "indexed": false,
          "name": "qrCodeHash",
          "type": "bytes32"
        },
        {
          "indexed": false,
          "name": "howMany",
          "type": "uint256"
        }
      ],
      "name": "VoterAlreadyRecorded",
      "type": "event"
    },
    {
      "anonymous": false,
      "inputs": [
        {
          "indexed": false,
          "name": "qrCodeHash",
          "type": "bytes32"
        },
        {
          "indexed": false,
          "name": "voterType",
          "type": "uint8"
        }
      ],
      "name": "VoterCleared",
      "type": "event"
    },
    {
      "anonymous": false,
      "inputs": [
        {
          "indexed": false,
          "name": "voteCode",
          "type": "uint256"
        },
        {
          "indexed": false,
          "name": "timestamp",
          "type": "string"
        }
      ],
      "name": "VoteCounted",
      "type": "event"
    },
    {
      "anonymous": false,
      "inputs": [],
      "name": "YesVoted",
      "type": "event"
    },
    {
      "anonymous": false,
      "inputs": [],
      "name": "NoVoted",
      "type": "event"
    },
    {
      "anonymous": false,
      "inputs": [],
      "name": "InvalidVoted",
      "type": "event"
    },
    {
      "anonymous": false,
      "inputs": [],
      "name": "BlankVoted",
      "type": "event"
    },
    {
      "anonymous": false,
      "inputs": [
        {
          "indexed": false,
          "name": "success",
          "type": "bool"
        },
        {
          "indexed": false,
          "name": "message",
          "type": "string"
        },
        {
          "indexed": false,
          "name": "email",
          "type": "string"
        },
        {
          "indexed": false,
          "name": "userAddress",
          "type": "address"
        },
        {
          "indexed": false,
          "name": "role",
          "type": "uint8"
        }
      ],
      "name": "UserAdded",
      "type": "event"
    },
    {
      "anonymous": false,
      "inputs": [
        {
          "indexed": false,
          "name": "uAddress",
          "type": "address"
        },
        {
          "indexed": false,
          "name": "email",
          "type": "string"
        }
      ],
      "name": "UserCreationFailed",
      "type": "event"
    },
    {
      "anonymous": false,
      "inputs": [
        {
          "indexed": false,
          "name": "message",
          "type": "string"
        }
      ],
      "name": "NotAllowed",
      "type": "event"
    },
    {
      "constant": false,
      "inputs": [],
      "name": "enrollPollStation",
      "outputs": [],
      "payable": false,
      "stateMutability": "nonpayable",
      "type": "function"
    },
    {
      "constant": false,
      "inputs": [],
      "name": "beginVotingSession",
      "outputs": [],
      "payable": false,
      "stateMutability": "nonpayable",
      "type": "function"
    },
    {
      "constant": false,
      "inputs": [],
      "name": "finishVotingSession",
      "outputs": [],
      "payable": false,
      "stateMutability": "nonpayable",
      "type": "function"
    },
    {
      "constant": false,
      "inputs": [
        {
          "name": "voteId",
          "type": "uint256"
        },
        {
          "name": "timestamp",
          "type": "string"
        }
      ],
      "name": "countVote",
      "outputs": [],
      "payable": false,
      "stateMutability": "nonpayable",
      "type": "function"
    },
    {
      "constant": true,
      "inputs": [],
      "name": "getYes",
      "outputs": [
        {
          "name": "",
          "type": "uint128"
        }
      ],
      "payable": false,
      "stateMutability": "view",
      "type": "function"
    },
    {
      "constant": true,
      "inputs": [],
      "name": "getNo",
      "outputs": [
        {
          "name": "",
          "type": "uint128"
        }
      ],
      "payable": false,
      "stateMutability": "view",
      "type": "function"
    },
    {
      "constant": true,
      "inputs": [],
      "name": "getInvalid",
      "outputs": [
        {
          "name": "",
          "type": "uint128"
        }
      ],
      "payable": false,
      "stateMutability": "view",
      "type": "function"
    },
    {
      "constant": true,
      "inputs": [],
      "name": "getBlank",
      "outputs": [
        {
          "name": "",
          "type": "uint128"
        }
      ],
      "payable": false,
      "stateMutability": "view",
      "type": "function"
    },
    {
      "constant": false,
      "inputs": [
        {
          "name": "pollingCards",
          "type": "uint256"
        },
        {
          "name": "powerOfAttorneys",
          "type": "uint256"
        },
        {
          "name": "voterPasses",
          "type": "uint256"
        }
      ],
      "name": "inputControlNumbers",
      "outputs": [],
      "payable": false,
      "stateMutability": "nonpayable",
      "type": "function"
    },
    {
      "constant": false,
      "inputs": [],
      "name": "recount",
      "outputs": [],
      "payable": false,
      "stateMutability": "nonpayable",
      "type": "function"
    },
    {
      "constant": true,
      "inputs": [],
      "name": "getRecounts",
      "outputs": [
        {
          "name": "",
          "type": "uint128"
        }
      ],
      "payable": false,
      "stateMutability": "view",
      "type": "function"
    },
    {
      "constant": false,
      "inputs": [
        {
          "name": "qrCodeHash",
          "type": "bytes32"
        },
        {
          "name": "voterType",
          "type": "uint8"
        }
      ],
      "name": "recordVoter",
      "outputs": [
        {
          "name": "",
          "type": "bool"
        }
      ],
      "payable": false,
      "stateMutability": "nonpayable",
      "type": "function"
    },
    {
      "constant": true,
      "inputs": [],
      "name": "isValid",
      "outputs": [
        {
          "name": "",
          "type": "bool"
        }
      ],
      "payable": false,
      "stateMutability": "view",
      "type": "function"
    },
    {
      "constant": true,
      "inputs": [
        {
          "name": "qrCodeHash",
          "type": "bytes32"
        }
      ],
      "name": "userVoted",
      "outputs": [
        {
          "name": "",
          "type": "bool"
        }
      ],
      "payable": false,
      "stateMutability": "view",
      "type": "function"
    },
    {
      "constant": false,
      "inputs": [
        {
          "name": "user",
          "type": "address"
        },
        {
          "name": "email",
          "type": "string"
        }
      ],
      "name": "setMayorRole",
      "outputs": [],
      "payable": true,
      "stateMutability": "payable",
      "type": "function"
    },
    {
      "constant": false,
      "inputs": [],
      "name": "mayorSignIn",
      "outputs": [],
      "payable": false,
      "stateMutability": "nonpayable",
      "type": "function"
    },
    {
      "constant": true,
      "inputs": [],
      "name": "getSummary",
      "outputs": [
        {
          "name": "scannedPollingCards",
          "type": "uint256"
        },
        {
          "name": "registeredVoterPasses",
          "type": "uint256"
        },
        {
          "name": "scannedPowerOfAttorneys",
          "type": "uint256"
        },
        {
          "name": "registeredPowerOfAttorneys",
          "type": "uint256"
        },
        {
          "name": "registeredObjections",
          "type": "uint256"
        },
        {
          "name": "collectedPollingCards",
          "type": "uint256"
        },
        {
          "name": "collectedVoterPasses",
          "type": "uint256"
        },
        {
          "name": "collectedPowerOfAttorneys",
          "type": "uint256"
        },
        {
          "name": "yesGlobal",
          "type": "uint256"
        },
        {
          "name": "noGlobal",
          "type": "uint256"
        },
        {
          "name": "blankGlobal",
          "type": "uint256"
        },
        {
          "name": "invalidGlobal",
          "type": "uint256"
        }
      ],
      "payable": false,
      "stateMutability": "view",
      "type": "function"
    },
    {
      "constant": true,
      "inputs": [],
      "name": "canSignOff",
      "outputs": [
        {
          "name": "isMissingPollingStation",
          "type": "bool"
        }
      ],
      "payable": false,
      "stateMutability": "view",
      "type": "function"
    }
  ],
  "bytecode": "0x60606040526000600360006101000a8154816fffffffffffffffffffffffffffffffff02191690836fffffffffffffffffffffffffffffffff1602179055506000600360106101000a8154816fffffffffffffffffffffffffffffffff02191690836fffffffffffffffffffffffffffffffff1602179055506000600460006101000a8154816fffffffffffffffffffffffffffffffff02191690836fffffffffffffffffffffffffffffffff1602179055506000600460106101000a8154816fffffffffffffffffffffffffffffffff02191690836fffffffffffffffffffffffffffffffff1602179055506000600560006101000a8154816fffffffffffffffffffffffffffffffff02191690836fffffffffffffffffffffffffffffffff1602179055506000600560106101000a8154816fffffffffffffffffffffffffffffffff02191690836fffffffffffffffffffffffffffffffff16021790555060006006556000600755600060085560006009556000600a556000600b556000600c556000600d556000600e55604051602080612abd8339810160405280805190602001909190505080336000806101000a81548173ffffffffffffffffffffffffffffffffffffffff021916908373ffffffffffffffffffffffffffffffffffffffff16021790555080600160006101000a81548173ffffffffffffffffffffffffffffffffffffffff021916908373ffffffffffffffffffffffffffffffffffffffff16021790555050506128818061023c6000396000f300606060405260043610610128576000357c0100000000000000000000000000000000000000000000000000000000900463ffffffff168063139590811461012d5780631df3c85c1461019357806324716b20146101e85780632bb9e075146102335780632cb53e74146102485780632d896b0a146102755780634051ddac1461028a5780634c1aa976146103005780635b692eba146103155780636bd0591b14610362578063724de979146103af5780638d796bb314610420578063941974a2146104355780639d38800d1461046a5780639f0314fc146104a9578063b3bf38b7146104f6578063bb5d40eb14610543578063bc5bd14a14610570578063c8bef55014610585578063d559b0f6146105ae578063e0e9855d1461061f578063fde081741461066c575b600080fd5b341561013857600080fd5b610191600480803590602001909190803590602001908201803590602001908080601f016020809104026020016040519081016040528093929190818152602001838380828437820191505050505050919050506106a3565b005b341561019e57600080fd5b6101a6610d3e565b604051808273ffffffffffffffffffffffffffffffffffffffff1673ffffffffffffffffffffffffffffffffffffffff16815260200191505060405180910390f35b34156101f357600080fd5b61021960048080356000191690602001909190803560ff16906020019091905050610d68565b604051808215151515815260200191505060405180910390f35b341561023e57600080fd5b61024661134a565b005b341561025357600080fd5b61025b6113b4565b604051808215151515815260200191505060405180910390f35b341561028057600080fd5b6102886113c0565b005b341561029557600080fd5b61029d611531565b604051808d81526020018c81526020018b81526020018a81526020018981526020018881526020018781526020018681526020018581526020018481526020018381526020018281526020019c5050505050505050505050505060405180910390f35b341561030b57600080fd5b610313611651565b005b341561032057600080fd5b610328611d52565b60405180826fffffffffffffffffffffffffffffffff166fffffffffffffffffffffffffffffffff16815260200191505060405180910390f35b341561036d57600080fd5b610375611d78565b60405180826fffffffffffffffffffffffffffffffff166fffffffffffffffffffffffffffffffff16815260200191505060405180910390f35b61041e600480803573ffffffffffffffffffffffffffffffffffffffff1690602001909190803590602001908201803590602001908080601f01602080910402602001604051908101604052809392919081815260200183838082843782019150505050505091905050611d9e565b005b341561042b57600080fd5b610433612226565b005b341561044057600080fd5b61046860048080359060200190919080359060200190919080359060200190919050506122d6565b005b341561047557600080fd5b61048f6004808035600019169060200190919050506123d9565b604051808215151515815260200191505060405180910390f35b34156104b457600080fd5b6104bc612437565b60405180826fffffffffffffffffffffffffffffffff166fffffffffffffffffffffffffffffffff16815260200191505060405180910390f35b341561050157600080fd5b61050961245d565b60405180826fffffffffffffffffffffffffffffffff166fffffffffffffffffffffffffffffffff16815260200191505060405180910390f35b341561054e57600080fd5b610556612483565b604051808215151515815260200191505060405180910390f35b341561057b57600080fd5b610583612527565b005b341561059057600080fd5b610598612592565b6040518082815260200191505060405180910390f35b61061d600480803573ffffffffffffffffffffffffffffffffffffffff1690602001909190803590602001908201803590602001908080601f01602080910402602001604051908101604052809392919081815260200183838082843782019150505050505091905050612597565b005b341561062a57600080fd5b61063261266b565b60405180826fffffffffffffffffffffffffffffffff166fffffffffffffffffffffffffffffffff16815260200191505060405180910390f35b341561067757600080fd5b61067f612691565b6040518082600481111561068f57fe5b60ff16815260200191505060405180910390f35b60038060048111156106b157fe5b600260003273ffffffffffffffffffffffffffffffffffffffff1673ffffffffffffffffffffffffffffffffffffffff16815260200190815260200160002060009054906101000a900460ff1660ff16600481111561070c57fe5b600481111561071757fe5b1415610cd05760011515601560003373ffffffffffffffffffffffffffffffffffffffff1673ffffffffffffffffffffffffffffffffffffffff16815260200190815260200160002060009054906101000a900460ff1615151415610c3857600183141561087f576003600081819054906101000a90046fffffffffffffffffffffffffffffffff168092919060010191906101000a8154816fffffffffffffffffffffffffffffffff02191690836fffffffffffffffffffffffffffffffff16021790555050601160003373ffffffffffffffffffffffffffffffffffffffff1673ffffffffffffffffffffffffffffffffffffffff168152602001908152602001600020600081819054906101000a90046fffffffffffffffffffffffffffffffff168092919060010191906101000a8154816fffffffffffffffffffffffffffffffff02191690836fffffffffffffffffffffffffffffffff16021790555050610b8f565b6002831415610988576003601081819054906101000a90046fffffffffffffffffffffffffffffffff168092919060010191906101000a8154816fffffffffffffffffffffffffffffffff02191690836fffffffffffffffffffffffffffffffff16021790555050601260003373ffffffffffffffffffffffffffffffffffffffff1673ffffffffffffffffffffffffffffffffffffffff168152602001908152602001600020600081819054906101000a90046fffffffffffffffffffffffffffffffff168092919060010191906101000a8154816fffffffffffffffffffffffffffffffff02191690836fffffffffffffffffffffffffffffffff16021790555050610b8e565b6003831415610a91576004601081819054906101000a90046fffffffffffffffffffffffffffffffff168092919060010191906101000a8154816fffffffffffffffffffffffffffffffff02191690836fffffffffffffffffffffffffffffffff16021790555050601360003373ffffffffffffffffffffffffffffffffffffffff1673ffffffffffffffffffffffffffffffffffffffff168152602001908152602001600020600081819054906101000a90046fffffffffffffffffffffffffffffffff168092919060010191906101000a8154816fffffffffffffffffffffffffffffffff02191690836fffffffffffffffffffffffffffffffff16021790555050610b8d565b6004600081819054906101000a90046fffffffffffffffffffffffffffffffff168092919060010191906101000a8154816fffffffffffffffffffffffffffffffff02191690836fffffffffffffffffffffffffffffffff16021790555050601460003373ffffffffffffffffffffffffffffffffffffffff1673ffffffffffffffffffffffffffffffffffffffff168152602001908152602001600020600081819054906101000a90046fffffffffffffffffffffffffffffffff168092919060010191906101000a8154816fffffffffffffffffffffffffffffffff02191690836fffffffffffffffffffffffffffffffff160217905550505b5b5b7fddec203a0a71d0a1cba926284554d3d171497153c7cb3416813c953124f4239483836040518083815260200180602001828103825283818151815260200191508051906020019080838360005b83811015610bf8578082015181840152602081019050610bdd565b50505050905090810190601f168015610c255780820380516001836020036101000a031916815260200191505b50935050505060405180910390a1610ccb565b7f367dccf700b76ac212780fb422c9b7569b12f28f39de0a0f8622641a83355ab160405180806020018281038252602b8152602001807f4f6e6c7920656e726f6c6c656420706f6c6c2073746174696f6e732063616e2081526020017f6361737420766f7465732e00000000000000000000000000000000000000000081525060400191505060405180910390a1600080fd5b610d39565b7f367dccf700b76ac212780fb422c9b7569b12f28f39de0a0f8622641a83355ab16040518080602001828103825260148152602001807f556e617574686f72697a6564206163636573732e00000000000000000000000081525060200191505060405180910390a15b505050565b6000600160009054906101000a900473ffffffffffffffffffffffffffffffffffffffff16905090565b600082600060106000836000191660001916815260200190815260200160002060009054906101000a900473ffffffffffffffffffffffffffffffffffffffff1673ffffffffffffffffffffffffffffffffffffffff16141515610f3257600f60008260001916600019168152602001908152602001600020600081819054906101000a90046fffffffffffffffffffffffffffffffff168092919060010191906101000a8154816fffffffffffffffffffffffffffffffff02191690836fffffffffffffffffffffffffffffffff160217905550506005600081819054906101000a90046fffffffffffffffffffffffffffffffff168092919060010191906101000a8154816fffffffffffffffffffffffffffffffff02191690836fffffffffffffffffffffffffffffffff160217905550507f2ef158f3a8866b3005320b4ab628d3ab4763db0f8e0e1f37c4d65c03cd63c26881600f6000846000191660001916815260200190815260200160002060009054906101000a90046fffffffffffffffffffffffffffffffff16604051808360001916600019168152602001826fffffffffffffffffffffffffffffffff1681526020019250505060405180910390a1611343565b60011515601560003373ffffffffffffffffffffffffffffffffffffffff1673ffffffffffffffffffffffffffffffffffffffff16815260200190815260200160002060009054906101000a900460ff16151514156112af576003806004811115610f9957fe5b600260003273ffffffffffffffffffffffffffffffffffffffff1673ffffffffffffffffffffffffffffffffffffffff16815260200190815260200160002060009054906101000a900460ff1660ff166004811115610ff457fe5b6004811115610fff57fe5b1415611240576001600581111561101257fe5b84600581111561101e57fe5b141561103b57600660008154809291906001019190505550611187565b6002600581111561104857fe5b84600581111561105457fe5b141561107157600760008154809291906001019190505550611186565b6003600581111561107e57fe5b84600581111561108a57fe5b14156110a757600860008154809291906001019190505550611185565b600460058111156110b457fe5b8460058111156110c057fe5b14156110dd57600960008154809291906001019190505550611184565b6005808111156110e957fe5b8460058111156110f557fe5b141561111257600a60008154809291906001019190505550611183565b7f367dccf700b76ac212780fb422c9b7569b12f28f39de0a0f8622641a83355ab16040518080602001828103825260138152602001807f496e76616c696420766f74657220747970652e0000000000000000000000000081525060200191505060405180910390a16000925061123b565b5b5b5b5b3360106000876000191660001916815260200190815260200160002060006101000a81548173ffffffffffffffffffffffffffffffffffffffff021916908373ffffffffffffffffffffffffffffffffffffffff1602179055507f536ee132d77576c724f4b134b1286b14d74fa4e6d4768190f399115b10998202858560405180836000191660001916815260200182600581111561122257fe5b60ff1681526020019250505060405180910390a1600192505b6112a9565b7f367dccf700b76ac212780fb422c9b7569b12f28f39de0a0f8622641a83355ab16040518080602001828103825260148152602001807f556e617574686f72697a6564206163636573732e00000000000000000000000081525060200191505060405180910390a15b50611342565b7f367dccf700b76ac212780fb422c9b7569b12f28f39de0a0f8622641a83355ab160405180806020018281038252602b8152602001807f4f6e6c7920656e726f6c6c656420706f6c6c2073746174696f6e732063616e2081526020017f6361737420766f7465732e00000000000000000000000000000000000000000081525060400191505060405180910390a1600080fd5b5b5092915050565b6000809054906101000a900473ffffffffffffffffffffffffffffffffffffffff1673ffffffffffffffffffffffffffffffffffffffff163273ffffffffffffffffffffffffffffffffffffffff1614156113b257600e600081548092919060010191905055505b565b600080600e5414905090565b6000600260003373ffffffffffffffffffffffffffffffffffffffff1673ffffffffffffffffffffffffffffffffffffffff16815260200190815260200160002060009054906101000a900460ff1660ff16600481111561141d57fe5b90506002600481111561142c57fe5b81600481111561143857fe5b14156114b8577f0885e90635a43d97e91be8ce67e5bbcaa4dd8f347ba136082bb63570c695517e60016040518082151515158152602001806020018281038252600f8152602001807f4d61796f72205369676e656420496e00000000000000000000000000000000008152506020019250505060405180910390a161152e565b7f0885e90635a43d97e91be8ce67e5bbcaa4dd8f347ba136082bb63570c695517e60006040518082151515158152602001806020018281038252600f8152602001807f4d61796f72205369676e656420496e00000000000000000000000000000000008152506020019250505060405180910390a15b50565b600080600080600080600080600080600080600654600954600754600854600a54600b54600d54600c54600360009054906101000a90046fffffffffffffffffffffffffffffffff16600360109054906101000a90046fffffffffffffffffffffffffffffffff16600460109054906101000a90046fffffffffffffffffffffffffffffffff16600460009054906101000a90046fffffffffffffffffffffffffffffffff16836fffffffffffffffffffffffffffffffff169350826fffffffffffffffffffffffffffffffff169250816fffffffffffffffffffffffffffffffff169150806fffffffffffffffffffffffffffffffff1690509b509b509b509b509b509b509b509b509b509b509b509b50909192939495969798999a9b565b600080600080600380600481111561166557fe5b600260003273ffffffffffffffffffffffffffffffffffffffff1673ffffffffffffffffffffffffffffffffffffffff16815260200190815260200160002060009054906101000a900460ff1660ff1660048111156116c057fe5b60048111156116cb57fe5b1415611ce25760011515601560003373ffffffffffffffffffffffffffffffffffffffff1673ffffffffffffffffffffffffffffffffffffffff16815260200190815260200160002060009054906101000a900460ff1615151415611c4a57601160003373ffffffffffffffffffffffffffffffffffffffff1673ffffffffffffffffffffffffffffffffffffffff16815260200190815260200160002060009054906101000a90046fffffffffffffffffffffffffffffffff169450601260003373ffffffffffffffffffffffffffffffffffffffff1673ffffffffffffffffffffffffffffffffffffffff16815260200190815260200160002060009054906101000a90046fffffffffffffffffffffffffffffffff169350601360003373ffffffffffffffffffffffffffffffffffffffff1673ffffffffffffffffffffffffffffffffffffffff16815260200190815260200160002060009054906101000a90046fffffffffffffffffffffffffffffffff169250601460003373ffffffffffffffffffffffffffffffffffffffff1673ffffffffffffffffffffffffffffffffffffffff16815260200190815260200160002060009054906101000a90046fffffffffffffffffffffffffffffffff1691506000601160003373ffffffffffffffffffffffffffffffffffffffff1673ffffffffffffffffffffffffffffffffffffffff16815260200190815260200160002060006101000a8154816fffffffffffffffffffffffffffffffff02191690836fffffffffffffffffffffffffffffffff1602179055506000601260003373ffffffffffffffffffffffffffffffffffffffff1673ffffffffffffffffffffffffffffffffffffffff16815260200190815260200160002060006101000a8154816fffffffffffffffffffffffffffffffff02191690836fffffffffffffffffffffffffffffffff1602179055506000601360003373ffffffffffffffffffffffffffffffffffffffff1673ffffffffffffffffffffffffffffffffffffffff16815260200190815260200160002060006101000a8154816fffffffffffffffffffffffffffffffff02191690836fffffffffffffffffffffffffffffffff1602179055506000601460003373ffffffffffffffffffffffffffffffffffffffff1673ffffffffffffffffffffffffffffffffffffffff16815260200190815260200160002060006101000a8154816fffffffffffffffffffffffffffffffff02191690836fffffffffffffffffffffffffffffffff16021790555084600360008282829054906101000a90046fffffffffffffffffffffffffffffffff160392506101000a8154816fffffffffffffffffffffffffffffffff02191690836fffffffffffffffffffffffffffffffff16021790555083600360108282829054906101000a90046fffffffffffffffffffffffffffffffff160392506101000a8154816fffffffffffffffffffffffffffffffff02191690836fffffffffffffffffffffffffffffffff16021790555082600460108282829054906101000a90046fffffffffffffffffffffffffffffffff160392506101000a8154816fffffffffffffffffffffffffffffffff02191690836fffffffffffffffffffffffffffffffff16021790555081600460008282829054906101000a90046fffffffffffffffffffffffffffffffff160392506101000a8154816fffffffffffffffffffffffffffffffff02191690836fffffffffffffffffffffffffffffffff1602179055506005601081819054906101000a90046fffffffffffffffffffffffffffffffff168092919060010191906101000a8154816fffffffffffffffffffffffffffffffff02191690836fffffffffffffffffffffffffffffffff16021790555050611cdd565b7f367dccf700b76ac212780fb422c9b7569b12f28f39de0a0f8622641a83355ab160405180806020018281038252602b8152602001807f4f6e6c7920656e726f6c6c656420706f6c6c2073746174696f6e732063616e2081526020017f6361737420766f7465732e00000000000000000000000000000000000000000081525060400191505060405180910390a1600080fd5b611d4b565b7f367dccf700b76ac212780fb422c9b7569b12f28f39de0a0f8622641a83355ab16040518080602001828103825260148152602001807f556e617574686f72697a6564206163636573732e00000000000000000000000081525060200191505060405180910390a15b5050505050565b6000600460109054906101000a90046fffffffffffffffffffffffffffffffff16905090565b6000600560109054906101000a90046fffffffffffffffffffffffffffffffff16905090565b60008060009054906101000a900473ffffffffffffffffffffffffffffffffffffffff1673ffffffffffffffffffffffffffffffffffffffff163273ffffffffffffffffffffffffffffffffffffffff16141561222157600160009054906101000a900473ffffffffffffffffffffffffffffffffffffffff1673ffffffffffffffffffffffffffffffffffffffff1663b8c51067836000604051602001526040518263ffffffff167c01000000000000000000000000000000000000000000000000000000000281526004018080602001828103825283818151815260200191508051906020019080838360005b83811015611ea8578082015181840152602081019050611e8d565b50505050905090810190601f168015611ed55780820380516001836020036101000a031916815260200191505b5092505050602060405180830381600087803b1515611ef357600080fd5b6102c65a03f11515611f0457600080fd5b5050506040518051905060ff166004811115611f1c57fe5b905060006004811115611f2b57fe5b816004811115611f3757fe5b118015611f5a5750600480811115611f4b57fe5b816004811115611f5757fe5b11155b156120f357806004811115611f6b57fe5b600260008573ffffffffffffffffffffffffffffffffffffffff1673ffffffffffffffffffffffffffffffffffffffff16815260200190815260200160002060006101000a81548160ff021916908360ff1602179055507fe0002dd72fe0d21c584dfb23d23de71a96770c70d5b244275f416a35df6b29726001838584604051808515151515815260200180602001806020018573ffffffffffffffffffffffffffffffffffffffff1673ffffffffffffffffffffffffffffffffffffffff16815260200184600481111561203c57fe5b60ff1681526020018381038352600a8152602001807f5573657220416464656400000000000000000000000000000000000000000000815250602001838103825286818151815260200191508051906020019080838360005b838110156120b0578082015181840152602081019050612095565b50505050905090810190601f1680156120dd5780820380516001836020036101000a031916815260200191505b50965050505050505060405180910390a1612220565b7fe0002dd72fe0d21c584dfb23d23de71a96770c70d5b244275f416a35df6b29726000838584604051808515151515815260200180602001806020018573ffffffffffffffffffffffffffffffffffffffff1673ffffffffffffffffffffffffffffffffffffffff16815260200184600481111561216d57fe5b60ff168152602001838103835260148152602001807f55736572204372656174696f6e204661696c6564000000000000000000000000815250602001838103825286818151815260200191508051906020019080838360005b838110156121e15780820151818401526020810190506121c6565b50505050905090810190601f16801561220e5780820380516001836020036101000a031916815260200191505b50965050505050505060405180910390a15b5b505050565b6000809054906101000a900473ffffffffffffffffffffffffffffffffffffffff1673ffffffffffffffffffffffffffffffffffffffff163273ffffffffffffffffffffffffffffffffffffffff1614156122d4576001601560003373ffffffffffffffffffffffffffffffffffffffff1673ffffffffffffffffffffffffffffffffffffffff16815260200190815260200160002060006101000a81548160ff0219169083151502179055505b565b60038060048111156122e457fe5b600260003273ffffffffffffffffffffffffffffffffffffffff1673ffffffffffffffffffffffffffffffffffffffff16815260200190815260200160002060009054906101000a900460ff1660ff16600481111561233f57fe5b600481111561234a57fe5b141561236a5783600b8190555082600c8190555081600d819055506123d3565b7f367dccf700b76ac212780fb422c9b7569b12f28f39de0a0f8622641a83355ab16040518080602001828103825260148152602001807f556e617574686f72697a6564206163636573732e00000000000000000000000081525060200191505060405180910390a15b50505050565b60008060106000846000191660001916815260200190815260200160002060009054906101000a900473ffffffffffffffffffffffffffffffffffffffff1673ffffffffffffffffffffffffffffffffffffffff1614159050919050565b6000600360109054906101000a90046fffffffffffffffffffffffffffffffff16905090565b6000600360009054906101000a90046fffffffffffffffffffffffffffffffff16905090565b6000600b54600c54600d540101600460009054906101000a90046fffffffffffffffffffffffffffffffff16600360009054906101000a90046fffffffffffffffffffffffffffffffff16600360109054906101000a90046fffffffffffffffffffffffffffffffff16600460109054906101000a90046fffffffffffffffffffffffffffffffff160101016fffffffffffffffffffffffffffffffff1614905090565b6000809054906101000a900473ffffffffffffffffffffffffffffffffffffffff1673ffffffffffffffffffffffffffffffffffffffff163273ffffffffffffffffffffffffffffffffffffffff16141561259057600e60008154809291906001900391905055505b565b600181565b6000809054906101000a900473ffffffffffffffffffffffffffffffffffffffff1673ffffffffffffffffffffffffffffffffffffffff163273ffffffffffffffffffffffffffffffffffffffff161415612667576000341115156125fb57600080fd5b6126058282611d9e565b61260e816126f3565b60018273ffffffffffffffffffffffffffffffffffffffff1631111515612666578173ffffffffffffffffffffffffffffffffffffffff166108fc349081150290604051600060405180830381858888f19350505050505b5b5050565b6000600460009054906101000a90046fffffffffffffffffffffffffffffffff16905090565b6000600260003273ffffffffffffffffffffffffffffffffffffffff1673ffffffffffffffffffffffffffffffffffffffff16815260200190815260200160002060009054906101000a900460ff1660ff1660048111156126ee57fe5b905090565b6000809054906101000a900473ffffffffffffffffffffffffffffffffffffffff1673ffffffffffffffffffffffffffffffffffffffff163273ffffffffffffffffffffffffffffffffffffffff16141561285257600160009054906101000a900473ffffffffffffffffffffffffffffffffffffffff1673ffffffffffffffffffffffffffffffffffffffff16634af57033826040518263ffffffff167c01000000000000000000000000000000000000000000000000000000000281526004018080602001828103825283818151815260200191508051906020019080838360005b838110156127f25780820151818401526020810190506127d7565b50505050905090810190601f16801561281f5780820380516001836020036101000a031916815260200191505b5092505050600060405180830381600087803b151561283d57600080fd5b6102c65a03f1151561284e57600080fd5b5050505b505600a165627a7a7230582070a0ca1d5d81e563a4651eb2a07e8b68d9e02d9096d89d1d19688ba25cd82fdb0029",
  "source": "pragma solidity ^0.4.19;\r\n\r\nimport \"./useractivation.sol\";\r\nimport \"./permissions.sol\";\r\n\r\ncontract Municipality is Permissions {\r\n   \r\n    uint128 private yes = 0;\r\n    uint128 private no = 0;\r\n    uint128 private invalid = 0;\r\n    uint128 private blank = 0;\r\n    uint128 private duplicityError = 0;\r\n    uint128 private recounts = 0;\r\n    \r\n    //Voter Registration\r\n    uint private scannedPollingCardCount = 0;\r\n    uint private scannedPowerOfAttorneyCount = 0;\r\n    uint private registeredPowerOfAttorneyCount = 0;\r\n    uint private registeredVoterPassCount = 0;\r\n    uint private registeredObjectionCount = 0;\r\n    \r\n    //Control Numbers\r\n    uint private collectedPollingCardCount = 0;\r\n    uint private collectedPowerOfAttorneyCount = 0;\r\n    uint private collectedVoterPassCount = 0;\r\n\r\n    uint private workingPollingStationsCount = 0;\r\n    \r\n    mapping (bytes32 => uint128) private whosError;\r\n    mapping (bytes32 => address) private cardsClaimed;\r\n    mapping (address => uint128) private pollingStationYesVotes;\r\n    mapping (address => uint128) private pollingStationNoVotes;\r\n    mapping (address => uint128) private pollingStationBlankVotes;\r\n    mapping (address => uint128) private pollingStationInvalidVotes;\r\n    mapping (address => bool) private enrolledPollStations;\r\n    mapping (address => bool) private pollingStationJobComplete; \r\n\r\n    event MayorSignedIn(bool success, string message);\r\n    event VoterAlreadyRecorded(bytes32 qrCodeHash, uint howMany);\r\n    event VoterCleared(bytes32 qrCodeHash, VoterType voterType);\r\n    event VoteCounted(uint voteCode, string timestamp);\r\n    \r\n    event YesVoted();\r\n    event NoVoted();\r\n    event InvalidVoted();\r\n    event BlankVoted();\r\n    \r\n    function Municipality(address uacAddress) Permissions(uacAddress) public payable { }\r\n    \r\n    modifier _canVote() {\r\n        if (enrolledPollStations[msg.sender] == true) {\r\n            _;\r\n        } else {\r\n            NotAllowed(\"Only enrolled poll stations can cast votes.\");\r\n            revert();\r\n        }\r\n    }\r\n    \r\n    function enrollPollStation() public _isOwner() {\r\n        enrolledPollStations[msg.sender] = true;\r\n    }\r\n\r\n    function beginVotingSession() public _isOwner() {\r\n        workingPollingStationsCount++;\r\n    }\r\n\r\n    function finishVotingSession() public _isOwner() {\r\n        workingPollingStationsCount--;\r\n    }\r\n\r\n    function countVote(uint voteId, string timestamp) public _verifyRole(Role.Chairman) _canVote() {\r\n\r\n        if(voteId == 1){\r\n            yes++;\r\n            pollingStationYesVotes[msg.sender]++;\r\n        }else if(voteId == 2){\r\n            no++;\r\n            pollingStationNoVotes[msg.sender]++;\r\n        }else if(voteId == 3){\r\n            blank++;\r\n            pollingStationBlankVotes[msg.sender]++;\r\n        }else {\r\n            invalid++;\r\n            pollingStationInvalidVotes[msg.sender]++;          \r\n        }\r\n\r\n        VoteCounted(voteId, timestamp);\r\n    }\r\n   \r\n    function getYes() public view returns (uint128) {\r\n        return yes;\r\n    }\r\n    \r\n    function getNo() public view returns (uint128) {\r\n        return no;\r\n    }\r\n    \r\n    function getInvalid() public view returns (uint128) {\r\n        return invalid;\r\n    }\r\n    \r\n    function getBlank() public view returns (uint128) {\r\n        return blank;\r\n    }\r\n    \r\n    function inputControlNumbers(uint pollingCards, uint powerOfAttorneys, uint voterPasses) public _verifyRole(Role.Chairman) {\r\n        collectedPollingCardCount = pollingCards;\r\n        collectedPowerOfAttorneyCount = powerOfAttorneys;\r\n        collectedVoterPassCount = voterPasses;\r\n    }\r\n    \r\n    function recount() public _verifyRole(Role.Chairman) _canVote() {\r\n        uint128 yesTemp = pollingStationYesVotes[msg.sender];\r\n        uint128 noTemp = pollingStationNoVotes[msg.sender];\r\n        uint128 blankTemp = pollingStationBlankVotes[msg.sender];\r\n        uint128 invalidTemp = pollingStationInvalidVotes[msg.sender];\r\n        \r\n        pollingStationYesVotes[msg.sender] = 0;\r\n        pollingStationNoVotes[msg.sender] = 0;\r\n        pollingStationBlankVotes[msg.sender] = 0;\r\n        pollingStationInvalidVotes[msg.sender] = 0;\r\n        \r\n        yes -= yesTemp;\r\n        no -= noTemp;\r\n        blank -= blankTemp;\r\n        invalid -= invalidTemp;\r\n        recounts++;\r\n    }\r\n    \r\n    function getRecounts() public view returns (uint128) {\r\n        return recounts;\r\n    }\r\n    \r\n    modifier _noRevote(bytes32 qrCodeHash) {\r\n        if (cardsClaimed[qrCodeHash] != 0) {\r\n            whosError[qrCodeHash]++;\r\n            duplicityError++;\r\n            VoterAlreadyRecorded(qrCodeHash, whosError[qrCodeHash]);\r\n        } else {\r\n            _;\r\n        }\r\n    }\r\n    \r\n    function recordVoter(bytes32 qrCodeHash, VoterType voterType) public _noRevote(qrCodeHash) _canVote() _verifyRole(Role.Chairman) returns (bool) {\r\n        \r\n        if (voterType == VoterType.PollingCard) {\r\n            scannedPollingCardCount++;\r\n        } else if (voterType == VoterType.PowerOfAttorneyPollingCard) {\r\n            scannedPowerOfAttorneyCount++;\r\n        } else if (voterType == VoterType.PowerOfAttorney) {\r\n            registeredPowerOfAttorneyCount++;\r\n        } else if (voterType == VoterType.VoterPass) {\r\n            registeredVoterPassCount++;\r\n        } else if (voterType == VoterType.Objection) {\r\n            registeredObjectionCount++;\r\n        } else {\r\n            NotAllowed(\"Invalid voter type.\");\r\n            return false;\r\n        }\r\n        \r\n        cardsClaimed[qrCodeHash] = msg.sender;\r\n        VoterCleared(qrCodeHash, voterType);\r\n        return true;\r\n    }\r\n    \r\n    function isValid() public view returns (bool) {\r\n        return ((blank + no + yes + invalid) == (collectedVoterPassCount + collectedPowerOfAttorneyCount + collectedPollingCardCount));\r\n    }\r\n    \r\n    function userVoted(bytes32 qrCodeHash) public view returns (bool) {\r\n        return cardsClaimed[qrCodeHash] != 0;\r\n    }\r\n\r\n    //Adds the Mayor Role when the mayor first signs in\r\n    function setMayorRole(address user, string email) public _isOwner() payable {\r\n        require(msg.value > 0);\r\n        super.setUserRole(user, email);\r\n        super.setUsedEmail(email);\r\n        if (user.balance <= 1) {\r\n            user.send(msg.value);\r\n        }\r\n    }\r\n\r\n    function mayorSignIn() public {\r\n        Role role = Role(roles[msg.sender]);\r\n\r\n        if (role == Role.Mayor) {\r\n            MayorSignedIn(true, \"Mayor Signed In\");\r\n        }\r\n        else{\r\n            MayorSignedIn(false, \"Mayor Signed In\");\r\n        }\r\n    }\r\n\r\n    function getSummary() public view returns (uint scannedPollingCards, uint registeredVoterPasses, uint scannedPowerOfAttorneys, uint registeredPowerOfAttorneys, uint registeredObjections, uint collectedPollingCards, uint collectedVoterPasses, uint collectedPowerOfAttorneys, uint yesGlobal, uint noGlobal, uint blankGlobal, uint invalidGlobal) {\r\n        return (scannedPollingCardCount, registeredVoterPassCount, scannedPowerOfAttorneyCount, registeredPowerOfAttorneyCount, registeredObjectionCount, collectedPollingCardCount, collectedVoterPassCount, collectedPowerOfAttorneyCount, yes, no, blank, invalid);\r\n    }\r\n\r\n    function canSignOff() public view returns (bool isMissingPollingStation) {\r\n        return (workingPollingStationsCount == 0);\r\n    }\r\n}",
  "sourcePath": "D:\\LAB15\\git\\CountingVotes\\ps-blockchain\\contracts\\municipality.sol",
  "compiler": {
    "name": "solc",
    "version": "0.4.19+commit.c4cbbb05.Emscripten.clang"
  },
  "schemaVersion": "2.0.0",
  "updatedAt": "2018-03-19T14:56:15.528Z"
}