{
  "contractName": "Municipality",
  "abi": [
    {
      "constant": false,
      "inputs": [
        {
          "name": "user",
          "type": "address"
        },
        {
          "name": "email",
          "type": "string"
        }
      ],
      "name": "setUserRole",
      "outputs": [],
      "payable": true,
      "stateMutability": "payable",
      "type": "function"
    },
    {
      "constant": true,
      "inputs": [],
      "name": "VOTING_START_TIMESTAMP",
      "outputs": [
        {
          "name": "",
          "type": "uint256"
        }
      ],
      "payable": false,
      "stateMutability": "view",
      "type": "function"
    },
    {
      "constant": true,
      "inputs": [],
      "name": "getRole",
      "outputs": [
        {
          "name": "",
          "type": "uint8"
        }
      ],
      "payable": false,
      "stateMutability": "view",
      "type": "function"
    },
    {
      "inputs": [
        {
          "name": "uacAddress",
          "type": "address"
        }
      ],
      "payable": true,
      "stateMutability": "payable",
      "type": "constructor"
    },
    {
      "anonymous": false,
      "inputs": [
        {
          "indexed": false,
          "name": "qrCodeHash",
          "type": "bytes32"
        },
        {
          "indexed": false,
          "name": "howMany",
          "type": "uint256"
        }
      ],
      "name": "VoterAlreadyRecorded",
      "type": "event"
    },
    {
      "anonymous": false,
      "inputs": [
        {
          "indexed": false,
          "name": "qrCodeHash",
          "type": "bytes32"
        },
        {
          "indexed": false,
          "name": "voterType",
          "type": "uint8"
        }
      ],
      "name": "VoterCleared",
      "type": "event"
    },
    {
      "anonymous": false,
      "inputs": [],
      "name": "YesVoted",
      "type": "event"
    },
    {
      "anonymous": false,
      "inputs": [],
      "name": "NoVoted",
      "type": "event"
    },
    {
      "anonymous": false,
      "inputs": [],
      "name": "InvalidVoted",
      "type": "event"
    },
    {
      "anonymous": false,
      "inputs": [],
      "name": "BlankVoted",
      "type": "event"
    },
    {
      "anonymous": false,
      "inputs": [
        {
          "indexed": false,
          "name": "role",
          "type": "uint8"
        }
      ],
      "name": "UserAdded",
      "type": "event"
    },
    {
      "anonymous": false,
      "inputs": [
        {
          "indexed": false,
          "name": "uAddress",
          "type": "address"
        },
        {
          "indexed": false,
          "name": "email",
          "type": "string"
        }
      ],
      "name": "UserCreationFailed",
      "type": "event"
    },
    {
      "anonymous": false,
      "inputs": [
        {
          "indexed": false,
          "name": "message",
          "type": "string"
        }
      ],
      "name": "NotAllowed",
      "type": "event"
    },
    {
      "constant": false,
      "inputs": [],
      "name": "enrollPollStation",
      "outputs": [],
      "payable": false,
      "stateMutability": "nonpayable",
      "type": "function"
    },
    {
      "constant": false,
      "inputs": [],
      "name": "voteYes",
      "outputs": [],
      "payable": false,
      "stateMutability": "nonpayable",
      "type": "function"
    },
    {
      "constant": false,
      "inputs": [],
      "name": "voteNo",
      "outputs": [],
      "payable": false,
      "stateMutability": "nonpayable",
      "type": "function"
    },
    {
      "constant": false,
      "inputs": [],
      "name": "voteBlank",
      "outputs": [],
      "payable": false,
      "stateMutability": "nonpayable",
      "type": "function"
    },
    {
      "constant": false,
      "inputs": [],
      "name": "voteInvalid",
      "outputs": [],
      "payable": false,
      "stateMutability": "nonpayable",
      "type": "function"
    },
    {
      "constant": true,
      "inputs": [],
      "name": "getYes",
      "outputs": [
        {
          "name": "",
          "type": "uint128"
        }
      ],
      "payable": false,
      "stateMutability": "view",
      "type": "function"
    },
    {
      "constant": true,
      "inputs": [],
      "name": "getNo",
      "outputs": [
        {
          "name": "",
          "type": "uint128"
        }
      ],
      "payable": false,
      "stateMutability": "view",
      "type": "function"
    },
    {
      "constant": true,
      "inputs": [],
      "name": "getInvalid",
      "outputs": [
        {
          "name": "",
          "type": "uint128"
        }
      ],
      "payable": false,
      "stateMutability": "view",
      "type": "function"
    },
    {
      "constant": true,
      "inputs": [],
      "name": "getBlank",
      "outputs": [
        {
          "name": "",
          "type": "uint128"
        }
      ],
      "payable": false,
      "stateMutability": "view",
      "type": "function"
    },
    {
      "constant": false,
      "inputs": [],
      "name": "recount",
      "outputs": [],
      "payable": false,
      "stateMutability": "nonpayable",
      "type": "function"
    },
    {
      "constant": true,
      "inputs": [],
      "name": "getRecounts",
      "outputs": [
        {
          "name": "",
          "type": "uint128"
        }
      ],
      "payable": false,
      "stateMutability": "view",
      "type": "function"
    },
    {
      "constant": false,
      "inputs": [
        {
          "name": "qrCodeHash",
          "type": "bytes32"
        },
        {
          "name": "voterType",
          "type": "uint8"
        }
      ],
      "name": "recordVoter",
      "outputs": [
        {
          "name": "",
          "type": "bool"
        }
      ],
      "payable": false,
      "stateMutability": "nonpayable",
      "type": "function"
    },
    {
      "constant": true,
      "inputs": [],
      "name": "isValid",
      "outputs": [
        {
          "name": "",
          "type": "bool"
        }
      ],
      "payable": false,
      "stateMutability": "view",
      "type": "function"
    },
    {
      "constant": true,
      "inputs": [
        {
          "name": "qrCodeHash",
          "type": "bytes32"
        }
      ],
      "name": "userVoted",
      "outputs": [
        {
          "name": "",
          "type": "bool"
        }
      ],
      "payable": false,
      "stateMutability": "view",
      "type": "function"
    }
  ],
  "bytecode": "0x60606040526000600360006101000a8154816fffffffffffffffffffffffffffffffff02191690836fffffffffffffffffffffffffffffffff1602179055506000600360106101000a8154816fffffffffffffffffffffffffffffffff02191690836fffffffffffffffffffffffffffffffff1602179055506000600460006101000a8154816fffffffffffffffffffffffffffffffff02191690836fffffffffffffffffffffffffffffffff1602179055506000600460106101000a8154816fffffffffffffffffffffffffffffffff02191690836fffffffffffffffffffffffffffffffff1602179055506000600560006101000a8154816fffffffffffffffffffffffffffffffff02191690836fffffffffffffffffffffffffffffffff1602179055506000600560106101000a8154816fffffffffffffffffffffffffffffffff02191690836fffffffffffffffffffffffffffffffff16021790555060006006556000600755600060085560006009556000600a556000600b556000600c556000600d556040516020806125ca8339810160405280805190602001909190505080336000806101000a81548173ffffffffffffffffffffffffffffffffffffffff021916908373ffffffffffffffffffffffffffffffffffffffff16021790555080600160006101000a81548173ffffffffffffffffffffffffffffffffffffffff021916908373ffffffffffffffffffffffffffffffffffffffff1602179055505050612393806102376000396000f3006060604052600436106100f1576000357c0100000000000000000000000000000000000000000000000000000000900463ffffffff16806324716b20146100f65780633ec3d5c41461014157806341c12a70146101565780634c1aa9761461016b5780635b692eba146101805780636bd0591b146101cd578063724de9791461021a5780638d796bb31461028b57806390cf581c146102a05780639d38800d146102b55780639f0314fc146102f4578063b3bf38b714610341578063bb5d40eb1461038e578063c8bef550146103bb578063cd755341146103e4578063e0e9855d146103f9578063fde0817414610446575b600080fd5b341561010157600080fd5b61012760048080356000191690602001909190803560ff1690602001909190505061047d565b604051808215151515815260200191505060405180910390f35b341561014c57600080fd5b610154610a5f565b005b341561016157600080fd5b610169610d62565b005b341561017657600080fd5b61017e611065565b005b341561018b57600080fd5b610193611766565b60405180826fffffffffffffffffffffffffffffffff166fffffffffffffffffffffffffffffffff16815260200191505060405180910390f35b34156101d857600080fd5b6101e061178c565b60405180826fffffffffffffffffffffffffffffffff166fffffffffffffffffffffffffffffffff16815260200191505060405180910390f35b610289600480803573ffffffffffffffffffffffffffffffffffffffff1690602001909190803590602001908201803590602001908080601f016020809104026020016040519081016040528093929190818152602001838380828437820191505050505050919050506117b2565b005b341561029657600080fd5b61029e611ad6565b005b34156102ab57600080fd5b6102b3611b86565b005b34156102c057600080fd5b6102da600480803560001916906020019091905050611e89565b604051808215151515815260200191505060405180910390f35b34156102ff57600080fd5b610307611ee7565b60405180826fffffffffffffffffffffffffffffffff166fffffffffffffffffffffffffffffffff16815260200191505060405180910390f35b341561034c57600080fd5b610354611f0d565b60405180826fffffffffffffffffffffffffffffffff166fffffffffffffffffffffffffffffffff16815260200191505060405180910390f35b341561039957600080fd5b6103a1611f33565b604051808215151515815260200191505060405180910390f35b34156103c657600080fd5b6103ce611fd7565b6040518082815260200191505060405180910390f35b34156103ef57600080fd5b6103f7611fdc565b005b341561040457600080fd5b61040c6122df565b60405180826fffffffffffffffffffffffffffffffff166fffffffffffffffffffffffffffffffff16815260200191505060405180910390f35b341561045157600080fd5b610459612305565b6040518082600481111561046957fe5b60ff16815260200191505060405180910390f35b6000826000600f6000836000191660001916815260200190815260200160002060009054906101000a900473ffffffffffffffffffffffffffffffffffffffff1673ffffffffffffffffffffffffffffffffffffffff1614151561064757600e60008260001916600019168152602001908152602001600020600081819054906101000a90046fffffffffffffffffffffffffffffffff168092919060010191906101000a8154816fffffffffffffffffffffffffffffffff02191690836fffffffffffffffffffffffffffffffff160217905550506005600081819054906101000a90046fffffffffffffffffffffffffffffffff168092919060010191906101000a8154816fffffffffffffffffffffffffffffffff02191690836fffffffffffffffffffffffffffffffff160217905550507f2ef158f3a8866b3005320b4ab628d3ab4763db0f8e0e1f37c4d65c03cd63c26881600e6000846000191660001916815260200190815260200160002060009054906101000a90046fffffffffffffffffffffffffffffffff16604051808360001916600019168152602001826fffffffffffffffffffffffffffffffff1681526020019250505060405180910390a1610a58565b60011515601460003373ffffffffffffffffffffffffffffffffffffffff1673ffffffffffffffffffffffffffffffffffffffff16815260200190815260200160002060009054906101000a900460ff16151514156109c45760038060048111156106ae57fe5b600260003273ffffffffffffffffffffffffffffffffffffffff1673ffffffffffffffffffffffffffffffffffffffff16815260200190815260200160002060009054906101000a900460ff1660ff16600481111561070957fe5b600481111561071457fe5b1415610955576001600581111561072757fe5b84600581111561073357fe5b14156107505760066000815480929190600101919050555061089c565b6002600581111561075d57fe5b84600581111561076957fe5b14156107865760076000815480929190600101919050555061089b565b6003600581111561079357fe5b84600581111561079f57fe5b14156107bc5760086000815480929190600101919050555061089a565b600460058111156107c957fe5b8460058111156107d557fe5b14156107f257600960008154809291906001019190505550610899565b6005808111156107fe57fe5b84600581111561080a57fe5b141561082757600a60008154809291906001019190505550610898565b7f367dccf700b76ac212780fb422c9b7569b12f28f39de0a0f8622641a83355ab16040518080602001828103825260138152602001807f496e76616c696420766f74657220747970652e0000000000000000000000000081525060200191505060405180910390a160009250610950565b5b5b5b5b33600f6000876000191660001916815260200190815260200160002060006101000a81548173ffffffffffffffffffffffffffffffffffffffff021916908373ffffffffffffffffffffffffffffffffffffffff1602179055507f536ee132d77576c724f4b134b1286b14d74fa4e6d4768190f399115b10998202858560405180836000191660001916815260200182600581111561093757fe5b60ff1681526020019250505060405180910390a1600192505b6109be565b7f367dccf700b76ac212780fb422c9b7569b12f28f39de0a0f8622641a83355ab16040518080602001828103825260148152602001807f556e617574686f72697a6564206163636573732e00000000000000000000000081525060200191505060405180910390a15b50610a57565b7f367dccf700b76ac212780fb422c9b7569b12f28f39de0a0f8622641a83355ab160405180806020018281038252602b8152602001807f4f6e6c7920656e726f6c6c656420706f6c6c2073746174696f6e732063616e2081526020017f6361737420766f7465732e00000000000000000000000000000000000000000081525060400191505060405180910390a1600080fd5b5b5092915050565b6003806004811115610a6d57fe5b600260003273ffffffffffffffffffffffffffffffffffffffff1673ffffffffffffffffffffffffffffffffffffffff16815260200190815260200160002060009054906101000a900460ff1660ff166004811115610ac857fe5b6004811115610ad357fe5b1415610cf65760011515601460003373ffffffffffffffffffffffffffffffffffffffff1673ffffffffffffffffffffffffffffffffffffffff16815260200190815260200160002060009054906101000a900460ff1615151415610c5e576004600081819054906101000a90046fffffffffffffffffffffffffffffffff168092919060010191906101000a8154816fffffffffffffffffffffffffffffffff02191690836fffffffffffffffffffffffffffffffff16021790555050601360003373ffffffffffffffffffffffffffffffffffffffff1673ffffffffffffffffffffffffffffffffffffffff168152602001908152602001600020600081819054906101000a90046fffffffffffffffffffffffffffffffff168092919060010191906101000a8154816fffffffffffffffffffffffffffffffff02191690836fffffffffffffffffffffffffffffffff160217905550507fe6bce24fbfde802b4ddd99726a92052f53a4af3b315dc545cf05a131a5bf661660405160405180910390a1610cf1565b7f367dccf700b76ac212780fb422c9b7569b12f28f39de0a0f8622641a83355ab160405180806020018281038252602b8152602001807f4f6e6c7920656e726f6c6c656420706f6c6c2073746174696f6e732063616e2081526020017f6361737420766f7465732e00000000000000000000000000000000000000000081525060400191505060405180910390a1600080fd5b610d5f565b7f367dccf700b76ac212780fb422c9b7569b12f28f39de0a0f8622641a83355ab16040518080602001828103825260148152602001807f556e617574686f72697a6564206163636573732e00000000000000000000000081525060200191505060405180910390a15b50565b6003806004811115610d7057fe5b600260003273ffffffffffffffffffffffffffffffffffffffff1673ffffffffffffffffffffffffffffffffffffffff16815260200190815260200160002060009054906101000a900460ff1660ff166004811115610dcb57fe5b6004811115610dd657fe5b1415610ff95760011515601460003373ffffffffffffffffffffffffffffffffffffffff1673ffffffffffffffffffffffffffffffffffffffff16815260200190815260200160002060009054906101000a900460ff1615151415610f61576003601081819054906101000a90046fffffffffffffffffffffffffffffffff168092919060010191906101000a8154816fffffffffffffffffffffffffffffffff02191690836fffffffffffffffffffffffffffffffff16021790555050601160003373ffffffffffffffffffffffffffffffffffffffff1673ffffffffffffffffffffffffffffffffffffffff168152602001908152602001600020600081819054906101000a90046fffffffffffffffffffffffffffffffff168092919060010191906101000a8154816fffffffffffffffffffffffffffffffff02191690836fffffffffffffffffffffffffffffffff160217905550507f93aca1296570353c7b585444fa1092875960c43ae88f4a34b7d48500b587f7c760405160405180910390a1610ff4565b7f367dccf700b76ac212780fb422c9b7569b12f28f39de0a0f8622641a83355ab160405180806020018281038252602b8152602001807f4f6e6c7920656e726f6c6c656420706f6c6c2073746174696f6e732063616e2081526020017f6361737420766f7465732e00000000000000000000000000000000000000000081525060400191505060405180910390a1600080fd5b611062565b7f367dccf700b76ac212780fb422c9b7569b12f28f39de0a0f8622641a83355ab16040518080602001828103825260148152602001807f556e617574686f72697a6564206163636573732e00000000000000000000000081525060200191505060405180910390a15b50565b600080600080600380600481111561107957fe5b600260003273ffffffffffffffffffffffffffffffffffffffff1673ffffffffffffffffffffffffffffffffffffffff16815260200190815260200160002060009054906101000a900460ff1660ff1660048111156110d457fe5b60048111156110df57fe5b14156116f65760011515601460003373ffffffffffffffffffffffffffffffffffffffff1673ffffffffffffffffffffffffffffffffffffffff16815260200190815260200160002060009054906101000a900460ff161515141561165e57601060003373ffffffffffffffffffffffffffffffffffffffff1673ffffffffffffffffffffffffffffffffffffffff16815260200190815260200160002060009054906101000a90046fffffffffffffffffffffffffffffffff169450601160003373ffffffffffffffffffffffffffffffffffffffff1673ffffffffffffffffffffffffffffffffffffffff16815260200190815260200160002060009054906101000a90046fffffffffffffffffffffffffffffffff169350601260003373ffffffffffffffffffffffffffffffffffffffff1673ffffffffffffffffffffffffffffffffffffffff16815260200190815260200160002060009054906101000a90046fffffffffffffffffffffffffffffffff169250601360003373ffffffffffffffffffffffffffffffffffffffff1673ffffffffffffffffffffffffffffffffffffffff16815260200190815260200160002060009054906101000a90046fffffffffffffffffffffffffffffffff1691506000601060003373ffffffffffffffffffffffffffffffffffffffff1673ffffffffffffffffffffffffffffffffffffffff16815260200190815260200160002060006101000a8154816fffffffffffffffffffffffffffffffff02191690836fffffffffffffffffffffffffffffffff1602179055506000601160003373ffffffffffffffffffffffffffffffffffffffff1673ffffffffffffffffffffffffffffffffffffffff16815260200190815260200160002060006101000a8154816fffffffffffffffffffffffffffffffff02191690836fffffffffffffffffffffffffffffffff1602179055506000601260003373ffffffffffffffffffffffffffffffffffffffff1673ffffffffffffffffffffffffffffffffffffffff16815260200190815260200160002060006101000a8154816fffffffffffffffffffffffffffffffff02191690836fffffffffffffffffffffffffffffffff1602179055506000601360003373ffffffffffffffffffffffffffffffffffffffff1673ffffffffffffffffffffffffffffffffffffffff16815260200190815260200160002060006101000a8154816fffffffffffffffffffffffffffffffff02191690836fffffffffffffffffffffffffffffffff16021790555084600360008282829054906101000a90046fffffffffffffffffffffffffffffffff160392506101000a8154816fffffffffffffffffffffffffffffffff02191690836fffffffffffffffffffffffffffffffff16021790555083600360108282829054906101000a90046fffffffffffffffffffffffffffffffff160392506101000a8154816fffffffffffffffffffffffffffffffff02191690836fffffffffffffffffffffffffffffffff16021790555082600460108282829054906101000a90046fffffffffffffffffffffffffffffffff160392506101000a8154816fffffffffffffffffffffffffffffffff02191690836fffffffffffffffffffffffffffffffff16021790555081600460008282829054906101000a90046fffffffffffffffffffffffffffffffff160392506101000a8154816fffffffffffffffffffffffffffffffff02191690836fffffffffffffffffffffffffffffffff1602179055506005601081819054906101000a90046fffffffffffffffffffffffffffffffff168092919060010191906101000a8154816fffffffffffffffffffffffffffffffff02191690836fffffffffffffffffffffffffffffffff160217905550506116f1565b7f367dccf700b76ac212780fb422c9b7569b12f28f39de0a0f8622641a83355ab160405180806020018281038252602b8152602001807f4f6e6c7920656e726f6c6c656420706f6c6c2073746174696f6e732063616e2081526020017f6361737420766f7465732e00000000000000000000000000000000000000000081525060400191505060405180910390a1600080fd5b61175f565b7f367dccf700b76ac212780fb422c9b7569b12f28f39de0a0f8622641a83355ab16040518080602001828103825260148152602001807f556e617574686f72697a6564206163636573732e00000000000000000000000081525060200191505060405180910390a15b5050505050565b6000600460109054906101000a90046fffffffffffffffffffffffffffffffff16905090565b6000600560109054906101000a90046fffffffffffffffffffffffffffffffff16905090565b60008060009054906101000a900473ffffffffffffffffffffffffffffffffffffffff1673ffffffffffffffffffffffffffffffffffffffff163273ffffffffffffffffffffffffffffffffffffffff161415611ad157600160009054906101000a900473ffffffffffffffffffffffffffffffffffffffff1673ffffffffffffffffffffffffffffffffffffffff1663b8c51067836000604051602001526040518263ffffffff167c01000000000000000000000000000000000000000000000000000000000281526004018080602001828103825283818151815260200191508051906020019080838360005b838110156118bc5780820151818401526020810190506118a1565b50505050905090810190601f1680156118e95780820380516001836020036101000a031916815260200191505b5092505050602060405180830381600087803b151561190757600080fd5b6102c65a03f1151561191857600080fd5b5050506040518051905060ff16600481111561193057fe5b90506000600481111561193f57fe5b81600481111561194b57fe5b1415156119ff5780600481111561195e57fe5b600260008573ffffffffffffffffffffffffffffffffffffffff1673ffffffffffffffffffffffffffffffffffffffff16815260200190815260200160002060006101000a81548160ff021916908360ff1602179055507f0db108fd08f791e0a8707015f9100e5936e30ef23034b51285733bec66e2480581604051808260048111156119e757fe5b60ff16815260200191505060405180910390a1611ad0565b7f4298449a2c73d2957b2b49fcfece5131ab9a0e15d2c6549f0730c5a6bc8d17b68383604051808373ffffffffffffffffffffffffffffffffffffffff1673ffffffffffffffffffffffffffffffffffffffff16815260200180602001828103825283818151815260200191508051906020019080838360005b83811015611a94578082015181840152602081019050611a79565b50505050905090810190601f168015611ac15780820380516001836020036101000a031916815260200191505b50935050505060405180910390a15b5b505050565b6000809054906101000a900473ffffffffffffffffffffffffffffffffffffffff1673ffffffffffffffffffffffffffffffffffffffff163273ffffffffffffffffffffffffffffffffffffffff161415611b84576001601460003373ffffffffffffffffffffffffffffffffffffffff1673ffffffffffffffffffffffffffffffffffffffff16815260200190815260200160002060006101000a81548160ff0219169083151502179055505b565b6003806004811115611b9457fe5b600260003273ffffffffffffffffffffffffffffffffffffffff1673ffffffffffffffffffffffffffffffffffffffff16815260200190815260200160002060009054906101000a900460ff1660ff166004811115611bef57fe5b6004811115611bfa57fe5b1415611e1d5760011515601460003373ffffffffffffffffffffffffffffffffffffffff1673ffffffffffffffffffffffffffffffffffffffff16815260200190815260200160002060009054906101000a900460ff1615151415611d85576003600081819054906101000a90046fffffffffffffffffffffffffffffffff168092919060010191906101000a8154816fffffffffffffffffffffffffffffffff02191690836fffffffffffffffffffffffffffffffff16021790555050601060003373ffffffffffffffffffffffffffffffffffffffff1673ffffffffffffffffffffffffffffffffffffffff168152602001908152602001600020600081819054906101000a90046fffffffffffffffffffffffffffffffff168092919060010191906101000a8154816fffffffffffffffffffffffffffffffff02191690836fffffffffffffffffffffffffffffffff160217905550507ff0bd92b84f5fd8108a3dcdb245449f78cf64eb2416873dd0c91df67825db3d2160405160405180910390a1611e18565b7f367dccf700b76ac212780fb422c9b7569b12f28f39de0a0f8622641a83355ab160405180806020018281038252602b8152602001807f4f6e6c7920656e726f6c6c656420706f6c6c2073746174696f6e732063616e2081526020017f6361737420766f7465732e00000000000000000000000000000000000000000081525060400191505060405180910390a1600080fd5b611e86565b7f367dccf700b76ac212780fb422c9b7569b12f28f39de0a0f8622641a83355ab16040518080602001828103825260148152602001807f556e617574686f72697a6564206163636573732e00000000000000000000000081525060200191505060405180910390a15b50565b600080600f6000846000191660001916815260200190815260200160002060009054906101000a900473ffffffffffffffffffffffffffffffffffffffff1673ffffffffffffffffffffffffffffffffffffffff1614159050919050565b6000600360109054906101000a90046fffffffffffffffffffffffffffffffff16905090565b6000600360009054906101000a90046fffffffffffffffffffffffffffffffff16905090565b6000600b54600c54600d540101600460009054906101000a90046fffffffffffffffffffffffffffffffff16600360009054906101000a90046fffffffffffffffffffffffffffffffff16600360109054906101000a90046fffffffffffffffffffffffffffffffff16600460109054906101000a90046fffffffffffffffffffffffffffffffff160101016fffffffffffffffffffffffffffffffff1614905090565b600181565b6003806004811115611fea57fe5b600260003273ffffffffffffffffffffffffffffffffffffffff1673ffffffffffffffffffffffffffffffffffffffff16815260200190815260200160002060009054906101000a900460ff1660ff16600481111561204557fe5b600481111561205057fe5b14156122735760011515601460003373ffffffffffffffffffffffffffffffffffffffff1673ffffffffffffffffffffffffffffffffffffffff16815260200190815260200160002060009054906101000a900460ff16151514156121db576004601081819054906101000a90046fffffffffffffffffffffffffffffffff168092919060010191906101000a8154816fffffffffffffffffffffffffffffffff02191690836fffffffffffffffffffffffffffffffff16021790555050601260003373ffffffffffffffffffffffffffffffffffffffff1673ffffffffffffffffffffffffffffffffffffffff168152602001908152602001600020600081819054906101000a90046fffffffffffffffffffffffffffffffff168092919060010191906101000a8154816fffffffffffffffffffffffffffffffff02191690836fffffffffffffffffffffffffffffffff160217905550507fef870f3879b5707d5a2d99c1885de025e59929468dd9dc9bc0b5be352a36377b60405160405180910390a161226e565b7f367dccf700b76ac212780fb422c9b7569b12f28f39de0a0f8622641a83355ab160405180806020018281038252602b8152602001807f4f6e6c7920656e726f6c6c656420706f6c6c2073746174696f6e732063616e2081526020017f6361737420766f7465732e00000000000000000000000000000000000000000081525060400191505060405180910390a1600080fd5b6122dc565b7f367dccf700b76ac212780fb422c9b7569b12f28f39de0a0f8622641a83355ab16040518080602001828103825260148152602001807f556e617574686f72697a6564206163636573732e00000000000000000000000081525060200191505060405180910390a15b50565b6000600460009054906101000a90046fffffffffffffffffffffffffffffffff16905090565b6000600260003273ffffffffffffffffffffffffffffffffffffffff1673ffffffffffffffffffffffffffffffffffffffff16815260200190815260200160002060009054906101000a900460ff1660ff16600481111561236257fe5b9050905600a165627a7a72305820719ae6f62515ebdf5dcea4ef22a753adb4e4cfddfc1856f855f21c8e2f65a1ae0029",
  "source": "pragma solidity ^0.4.19;\r\n\r\nimport './useractivation.sol';\r\nimport './permissions.sol';\r\n\r\ncontract Municipality is Permissions {\r\n    \r\n    uint128 private yes = 0;\r\n    uint128 private no = 0;\r\n    uint128 private invalid = 0;\r\n    uint128 private blank = 0;\r\n    uint128 private duplicityError = 0;\r\n    uint128 private recounts = 0;\r\n    \r\n    //Voter Registration\r\n    uint private scannedPollingCardCount = 0;\r\n    uint private scannedPowerOfAttorneyCount = 0;\r\n    uint private registeredPowerOfAttorneyCount = 0;\r\n    uint private registeredVoterPassCount = 0;\r\n    uint private registeredObjectionCount = 0;\r\n    \r\n    //Control Numbers\r\n    uint private collectedPollingCardCount = 0;\r\n    uint private collectedPowerOfAttorneyCount = 0;\r\n    uint private collectedVoterPassCount = 0;\r\n    \r\n    mapping (bytes32 => uint128) private whosError;\r\n    mapping (bytes32 => address) private cardsClaimed;\r\n    mapping (address => uint128) private pollingStationYesVotes;\r\n    mapping (address => uint128) private pollingStationNoVotes;\r\n    mapping (address => uint128) private pollingStationBlankVotes;\r\n    mapping (address => uint128) private pollingStationInvalidVotes;\r\n    mapping (address => bool) private enrolledPollStations;\r\n\r\n    event VoterAlreadyRecorded(bytes32 qrCodeHash, uint howMany);\r\n    event VoterCleared(bytes32 qrCodeHash, VoterType voterType);\r\n    \r\n    event YesVoted();\r\n    event NoVoted();\r\n    event InvalidVoted();\r\n    event BlankVoted();\r\n    \r\n    function Municipality(address uacAddress) Permissions(uacAddress) public payable { }\r\n    \r\n    modifier _canVote() {\r\n        if (enrolledPollStations[msg.sender] == true) {\r\n            _;\r\n        } else {\r\n            NotAllowed(\"Only enrolled poll stations can cast votes.\");\r\n            revert();\r\n        }\r\n    }\r\n    \r\n    function enrollPollStation() public _isOwner() {\r\n        enrolledPollStations[msg.sender] = true;\r\n    }\r\n\r\n    function voteYes() public _verifyRole(Role.Chairman) _canVote() {\r\n        yes++;\r\n        pollingStationYesVotes[msg.sender]++;\r\n        YesVoted();\r\n    }\r\n    \r\n    function voteNo() public _verifyRole(Role.Chairman) _canVote() {\r\n        no++;\r\n        pollingStationNoVotes[msg.sender]++;\r\n        NoVoted();\r\n    }\r\n    \r\n    function voteBlank() public _verifyRole(Role.Chairman) _canVote() {\r\n        blank++;\r\n        pollingStationBlankVotes[msg.sender]++;\r\n        BlankVoted();\r\n    }\r\n    \r\n    function voteInvalid() public _verifyRole(Role.Chairman) _canVote() {\r\n        invalid++;\r\n        pollingStationInvalidVotes[msg.sender]++;\r\n        InvalidVoted();\r\n    }\r\n    \r\n    function getYes() public view returns (uint128) {\r\n        return yes;\r\n    }\r\n    \r\n    function getNo() public view returns (uint128) {\r\n        return no;\r\n    }\r\n    \r\n    function getInvalid() public view returns (uint128) {\r\n        return invalid;\r\n    }\r\n    \r\n    function getBlank() public view returns (uint128) {\r\n        return blank;\r\n    }\r\n    \r\n    function recount() public _verifyRole(Role.Chairman) _canVote() {\r\n        uint128 yesTemp = pollingStationYesVotes[msg.sender];\r\n        uint128 noTemp = pollingStationNoVotes[msg.sender];\r\n        uint128 blankTemp = pollingStationBlankVotes[msg.sender];\r\n        uint128 invalidTemp = pollingStationInvalidVotes[msg.sender];\r\n        \r\n        pollingStationYesVotes[msg.sender] = 0;\r\n        pollingStationNoVotes[msg.sender] = 0;\r\n        pollingStationBlankVotes[msg.sender] = 0;\r\n        pollingStationInvalidVotes[msg.sender] = 0;\r\n        \r\n        yes -= yesTemp;\r\n        no -= noTemp;\r\n        blank -= blankTemp;\r\n        invalid -= invalidTemp;\r\n        recounts++;\r\n    }\r\n    \r\n    function getRecounts() public view returns (uint128) {\r\n        return recounts;\r\n    }\r\n    \r\n    modifier _noRevote(bytes32 qrCodeHash) {\r\n        if (cardsClaimed[qrCodeHash] != 0) {\r\n            whosError[qrCodeHash]++;\r\n            duplicityError++;\r\n            VoterAlreadyRecorded(qrCodeHash, whosError[qrCodeHash]);\r\n        } else {\r\n            _;\r\n        }\r\n    }\r\n    \r\n    function recordVoter(bytes32 qrCodeHash, VoterType voterType) public _noRevote(qrCodeHash) _canVote() _verifyRole(Role.Chairman) returns (bool) {\r\n        \r\n        if (voterType == VoterType.PollingCard) {\r\n            scannedPollingCardCount++;\r\n        } else if (voterType == VoterType.PowerOfAttorneyPollingCard) {\r\n            scannedPowerOfAttorneyCount++;\r\n        } else if (voterType == VoterType.PowerOfAttorney) {\r\n            registeredPowerOfAttorneyCount++;\r\n        } else if (voterType == VoterType.VoterPass) {\r\n            registeredVoterPassCount++;\r\n        } else if (voterType == VoterType.Objection) {\r\n            registeredObjectionCount++;\r\n        } else {\r\n            NotAllowed(\"Invalid voter type.\");\r\n            return false;\r\n        }\r\n        \r\n        cardsClaimed[qrCodeHash] = msg.sender;\r\n        VoterCleared(qrCodeHash, voterType);\r\n        return true;\r\n    }\r\n    \r\n    function isValid() public view returns (bool) {\r\n       return ((blank + no + yes + invalid) == (collectedVoterPassCount + collectedPowerOfAttorneyCount + collectedPollingCardCount));\r\n    }\r\n    \r\n    function userVoted(bytes32 qrCodeHash) public view returns (bool) {\r\n        return cardsClaimed[qrCodeHash] != 0;\r\n    }\r\n}",
  "sourcePath": "D:\\LAB15\\git\\CountingVotes\\ps-blockchain\\contracts\\municipality.sol",
  "compiler": {
    "name": "solc",
    "version": "0.4.19+commit.c4cbbb05.Emscripten.clang"
  },
  "schemaVersion": "2.0.0",
  "updatedAt": "2018-03-14T16:33:47.193Z"
}