{
  "contractName": "Municipality",
  "abi": [
    {
      "constant": true,
      "inputs": [],
      "name": "getUacAddress",
      "outputs": [
        {
          "name": "userActivationAddress",
          "type": "address"
        }
      ],
      "payable": false,
      "stateMutability": "view",
      "type": "function"
    },
    {
      "constant": false,
      "inputs": [
        {
          "name": "user",
          "type": "address"
        },
        {
          "name": "email",
          "type": "string"
        }
      ],
      "name": "setUserRole",
      "outputs": [],
      "payable": true,
      "stateMutability": "payable",
      "type": "function"
    },
    {
      "constant": true,
      "inputs": [],
      "name": "VOTING_START_TIMESTAMP",
      "outputs": [
        {
          "name": "",
          "type": "uint256"
        }
      ],
      "payable": false,
      "stateMutability": "view",
      "type": "function"
    },
    {
      "constant": true,
      "inputs": [],
      "name": "getRole",
      "outputs": [
        {
          "name": "",
          "type": "uint8"
        }
      ],
      "payable": false,
      "stateMutability": "view",
      "type": "function"
    },
    {
      "inputs": [
        {
          "name": "uacAddress",
          "type": "address"
        }
      ],
      "payable": true,
      "stateMutability": "payable",
      "type": "constructor"
    },
    {
      "anonymous": false,
      "inputs": [
        {
          "indexed": false,
          "name": "qrCodeHash",
          "type": "bytes32"
        },
        {
          "indexed": false,
          "name": "howMany",
          "type": "uint256"
        }
      ],
      "name": "VoterAlreadyRecorded",
      "type": "event"
    },
    {
      "anonymous": false,
      "inputs": [
        {
          "indexed": false,
          "name": "qrCodeHash",
          "type": "bytes32"
        },
        {
          "indexed": false,
          "name": "voterType",
          "type": "uint8"
        }
      ],
      "name": "VoterCleared",
      "type": "event"
    },
    {
      "anonymous": false,
      "inputs": [],
      "name": "YesVoted",
      "type": "event"
    },
    {
      "anonymous": false,
      "inputs": [],
      "name": "NoVoted",
      "type": "event"
    },
    {
      "anonymous": false,
      "inputs": [],
      "name": "InvalidVoted",
      "type": "event"
    },
    {
      "anonymous": false,
      "inputs": [],
      "name": "BlankVoted",
      "type": "event"
    },
    {
      "anonymous": false,
      "inputs": [
        {
          "indexed": false,
          "name": "success",
          "type": "bool"
        },
        {
          "indexed": false,
          "name": "message",
          "type": "string"
        },
        {
          "indexed": false,
          "name": "email",
          "type": "string"
        },
        {
          "indexed": false,
          "name": "userAddress",
          "type": "address"
        },
        {
          "indexed": false,
          "name": "role",
          "type": "uint8"
        }
      ],
      "name": "UserAdded",
      "type": "event"
    },
    {
      "anonymous": false,
      "inputs": [
        {
          "indexed": false,
          "name": "uAddress",
          "type": "address"
        },
        {
          "indexed": false,
          "name": "email",
          "type": "string"
        }
      ],
      "name": "UserCreationFailed",
      "type": "event"
    },
    {
      "anonymous": false,
      "inputs": [
        {
          "indexed": false,
          "name": "message",
          "type": "string"
        }
      ],
      "name": "NotAllowed",
      "type": "event"
    },
    {
      "constant": false,
      "inputs": [],
      "name": "enrollPollStation",
      "outputs": [],
      "payable": false,
      "stateMutability": "nonpayable",
      "type": "function"
    },
    {
      "constant": false,
      "inputs": [],
      "name": "voteYes",
      "outputs": [],
      "payable": false,
      "stateMutability": "nonpayable",
      "type": "function"
    },
    {
      "constant": false,
      "inputs": [],
      "name": "voteNo",
      "outputs": [],
      "payable": false,
      "stateMutability": "nonpayable",
      "type": "function"
    },
    {
      "constant": false,
      "inputs": [],
      "name": "voteBlank",
      "outputs": [],
      "payable": false,
      "stateMutability": "nonpayable",
      "type": "function"
    },
    {
      "constant": false,
      "inputs": [],
      "name": "voteInvalid",
      "outputs": [],
      "payable": false,
      "stateMutability": "nonpayable",
      "type": "function"
    },
    {
      "constant": true,
      "inputs": [],
      "name": "getYes",
      "outputs": [
        {
          "name": "",
          "type": "uint128"
        }
      ],
      "payable": false,
      "stateMutability": "view",
      "type": "function"
    },
    {
      "constant": true,
      "inputs": [],
      "name": "getNo",
      "outputs": [
        {
          "name": "",
          "type": "uint128"
        }
      ],
      "payable": false,
      "stateMutability": "view",
      "type": "function"
    },
    {
      "constant": true,
      "inputs": [],
      "name": "getInvalid",
      "outputs": [
        {
          "name": "",
          "type": "uint128"
        }
      ],
      "payable": false,
      "stateMutability": "view",
      "type": "function"
    },
    {
      "constant": true,
      "inputs": [],
      "name": "getBlank",
      "outputs": [
        {
          "name": "",
          "type": "uint128"
        }
      ],
      "payable": false,
      "stateMutability": "view",
      "type": "function"
    },
    {
      "constant": false,
      "inputs": [],
      "name": "recount",
      "outputs": [],
      "payable": false,
      "stateMutability": "nonpayable",
      "type": "function"
    },
    {
      "constant": true,
      "inputs": [],
      "name": "getRecounts",
      "outputs": [
        {
          "name": "",
          "type": "uint128"
        }
      ],
      "payable": false,
      "stateMutability": "view",
      "type": "function"
    },
    {
      "constant": false,
      "inputs": [
        {
          "name": "qrCodeHash",
          "type": "bytes32"
        },
        {
          "name": "voterType",
          "type": "uint8"
        }
      ],
      "name": "recordVoter",
      "outputs": [
        {
          "name": "",
          "type": "bool"
        }
      ],
      "payable": false,
      "stateMutability": "nonpayable",
      "type": "function"
    },
    {
      "constant": true,
      "inputs": [],
      "name": "isValid",
      "outputs": [
        {
          "name": "",
          "type": "bool"
        }
      ],
      "payable": false,
      "stateMutability": "view",
      "type": "function"
    },
    {
      "constant": true,
      "inputs": [
        {
          "name": "qrCodeHash",
          "type": "bytes32"
        }
      ],
      "name": "userVoted",
      "outputs": [
        {
          "name": "",
          "type": "bool"
        }
      ],
      "payable": false,
      "stateMutability": "view",
      "type": "function"
    }
  ],
  "bytecode": "0x60606040526000600360006101000a8154816fffffffffffffffffffffffffffffffff02191690836fffffffffffffffffffffffffffffffff1602179055506000600360106101000a8154816fffffffffffffffffffffffffffffffff02191690836fffffffffffffffffffffffffffffffff1602179055506000600460006101000a8154816fffffffffffffffffffffffffffffffff02191690836fffffffffffffffffffffffffffffffff1602179055506000600460106101000a8154816fffffffffffffffffffffffffffffffff02191690836fffffffffffffffffffffffffffffffff1602179055506000600560006101000a8154816fffffffffffffffffffffffffffffffff02191690836fffffffffffffffffffffffffffffffff1602179055506000600560106101000a8154816fffffffffffffffffffffffffffffffff02191690836fffffffffffffffffffffffffffffffff16021790555060006006556000600755600060085560006009556000600a556000600b556000600c556000600d556040516020806127b88339810160405280805190602001909190505080336000806101000a81548173ffffffffffffffffffffffffffffffffffffffff021916908373ffffffffffffffffffffffffffffffffffffffff16021790555080600160006101000a81548173ffffffffffffffffffffffffffffffffffffffff021916908373ffffffffffffffffffffffffffffffffffffffff1602179055505050612581806102376000396000f3006060604052600436106100fc576000357c0100000000000000000000000000000000000000000000000000000000900463ffffffff1680631df3c85c1461010157806324716b20146101565780633ec3d5c4146101a157806341c12a70146101b65780634c1aa976146101cb5780635b692eba146101e05780636bd0591b1461022d578063724de9791461027a5780638d796bb3146102eb57806390cf581c146103005780639d38800d146103155780639f0314fc14610354578063b3bf38b7146103a1578063bb5d40eb146103ee578063c8bef5501461041b578063cd75534114610444578063e0e9855d14610459578063fde08174146104a6575b600080fd5b341561010c57600080fd5b6101146104dd565b604051808273ffffffffffffffffffffffffffffffffffffffff1673ffffffffffffffffffffffffffffffffffffffff16815260200191505060405180910390f35b341561016157600080fd5b61018760048080356000191690602001909190803560ff16906020019091905050610507565b604051808215151515815260200191505060405180910390f35b34156101ac57600080fd5b6101b4610ae9565b005b34156101c157600080fd5b6101c9610dec565b005b34156101d657600080fd5b6101de6110ef565b005b34156101eb57600080fd5b6101f36117f0565b60405180826fffffffffffffffffffffffffffffffff166fffffffffffffffffffffffffffffffff16815260200191505060405180910390f35b341561023857600080fd5b610240611816565b60405180826fffffffffffffffffffffffffffffffff166fffffffffffffffffffffffffffffffff16815260200191505060405180910390f35b6102e9600480803573ffffffffffffffffffffffffffffffffffffffff1690602001909190803590602001908201803590602001908080601f0160208091040260200160405190810160405280939291908181526020018383808284378201915050505050509190505061183c565b005b34156102f657600080fd5b6102fe611cc4565b005b341561030b57600080fd5b610313611d74565b005b341561032057600080fd5b61033a600480803560001916906020019091905050612077565b604051808215151515815260200191505060405180910390f35b341561035f57600080fd5b6103676120d5565b60405180826fffffffffffffffffffffffffffffffff166fffffffffffffffffffffffffffffffff16815260200191505060405180910390f35b34156103ac57600080fd5b6103b46120fb565b60405180826fffffffffffffffffffffffffffffffff166fffffffffffffffffffffffffffffffff16815260200191505060405180910390f35b34156103f957600080fd5b610401612121565b604051808215151515815260200191505060405180910390f35b341561042657600080fd5b61042e6121c5565b6040518082815260200191505060405180910390f35b341561044f57600080fd5b6104576121ca565b005b341561046457600080fd5b61046c6124cd565b60405180826fffffffffffffffffffffffffffffffff166fffffffffffffffffffffffffffffffff16815260200191505060405180910390f35b34156104b157600080fd5b6104b96124f3565b604051808260048111156104c957fe5b60ff16815260200191505060405180910390f35b6000600160009054906101000a900473ffffffffffffffffffffffffffffffffffffffff16905090565b6000826000600f6000836000191660001916815260200190815260200160002060009054906101000a900473ffffffffffffffffffffffffffffffffffffffff1673ffffffffffffffffffffffffffffffffffffffff161415156106d157600e60008260001916600019168152602001908152602001600020600081819054906101000a90046fffffffffffffffffffffffffffffffff168092919060010191906101000a8154816fffffffffffffffffffffffffffffffff02191690836fffffffffffffffffffffffffffffffff160217905550506005600081819054906101000a90046fffffffffffffffffffffffffffffffff168092919060010191906101000a8154816fffffffffffffffffffffffffffffffff02191690836fffffffffffffffffffffffffffffffff160217905550507f2ef158f3a8866b3005320b4ab628d3ab4763db0f8e0e1f37c4d65c03cd63c26881600e6000846000191660001916815260200190815260200160002060009054906101000a90046fffffffffffffffffffffffffffffffff16604051808360001916600019168152602001826fffffffffffffffffffffffffffffffff1681526020019250505060405180910390a1610ae2565b60011515601460003373ffffffffffffffffffffffffffffffffffffffff1673ffffffffffffffffffffffffffffffffffffffff16815260200190815260200160002060009054906101000a900460ff1615151415610a4e57600380600481111561073857fe5b600260003273ffffffffffffffffffffffffffffffffffffffff1673ffffffffffffffffffffffffffffffffffffffff16815260200190815260200160002060009054906101000a900460ff1660ff16600481111561079357fe5b600481111561079e57fe5b14156109df57600160058111156107b157fe5b8460058111156107bd57fe5b14156107da57600660008154809291906001019190505550610926565b600260058111156107e757fe5b8460058111156107f357fe5b141561081057600760008154809291906001019190505550610925565b6003600581111561081d57fe5b84600581111561082957fe5b141561084657600860008154809291906001019190505550610924565b6004600581111561085357fe5b84600581111561085f57fe5b141561087c57600960008154809291906001019190505550610923565b60058081111561088857fe5b84600581111561089457fe5b14156108b157600a60008154809291906001019190505550610922565b7f367dccf700b76ac212780fb422c9b7569b12f28f39de0a0f8622641a83355ab16040518080602001828103825260138152602001807f496e76616c696420766f74657220747970652e0000000000000000000000000081525060200191505060405180910390a1600092506109da565b5b5b5b5b33600f6000876000191660001916815260200190815260200160002060006101000a81548173ffffffffffffffffffffffffffffffffffffffff021916908373ffffffffffffffffffffffffffffffffffffffff1602179055507f536ee132d77576c724f4b134b1286b14d74fa4e6d4768190f399115b1099820285856040518083600019166000191681526020018260058111156109c157fe5b60ff1681526020019250505060405180910390a1600192505b610a48565b7f367dccf700b76ac212780fb422c9b7569b12f28f39de0a0f8622641a83355ab16040518080602001828103825260148152602001807f556e617574686f72697a6564206163636573732e00000000000000000000000081525060200191505060405180910390a15b50610ae1565b7f367dccf700b76ac212780fb422c9b7569b12f28f39de0a0f8622641a83355ab160405180806020018281038252602b8152602001807f4f6e6c7920656e726f6c6c656420706f6c6c2073746174696f6e732063616e2081526020017f6361737420766f7465732e00000000000000000000000000000000000000000081525060400191505060405180910390a1600080fd5b5b5092915050565b6003806004811115610af757fe5b600260003273ffffffffffffffffffffffffffffffffffffffff1673ffffffffffffffffffffffffffffffffffffffff16815260200190815260200160002060009054906101000a900460ff1660ff166004811115610b5257fe5b6004811115610b5d57fe5b1415610d805760011515601460003373ffffffffffffffffffffffffffffffffffffffff1673ffffffffffffffffffffffffffffffffffffffff16815260200190815260200160002060009054906101000a900460ff1615151415610ce8576004600081819054906101000a90046fffffffffffffffffffffffffffffffff168092919060010191906101000a8154816fffffffffffffffffffffffffffffffff02191690836fffffffffffffffffffffffffffffffff16021790555050601360003373ffffffffffffffffffffffffffffffffffffffff1673ffffffffffffffffffffffffffffffffffffffff168152602001908152602001600020600081819054906101000a90046fffffffffffffffffffffffffffffffff168092919060010191906101000a8154816fffffffffffffffffffffffffffffffff02191690836fffffffffffffffffffffffffffffffff160217905550507fe6bce24fbfde802b4ddd99726a92052f53a4af3b315dc545cf05a131a5bf661660405160405180910390a1610d7b565b7f367dccf700b76ac212780fb422c9b7569b12f28f39de0a0f8622641a83355ab160405180806020018281038252602b8152602001807f4f6e6c7920656e726f6c6c656420706f6c6c2073746174696f6e732063616e2081526020017f6361737420766f7465732e00000000000000000000000000000000000000000081525060400191505060405180910390a1600080fd5b610de9565b7f367dccf700b76ac212780fb422c9b7569b12f28f39de0a0f8622641a83355ab16040518080602001828103825260148152602001807f556e617574686f72697a6564206163636573732e00000000000000000000000081525060200191505060405180910390a15b50565b6003806004811115610dfa57fe5b600260003273ffffffffffffffffffffffffffffffffffffffff1673ffffffffffffffffffffffffffffffffffffffff16815260200190815260200160002060009054906101000a900460ff1660ff166004811115610e5557fe5b6004811115610e6057fe5b14156110835760011515601460003373ffffffffffffffffffffffffffffffffffffffff1673ffffffffffffffffffffffffffffffffffffffff16815260200190815260200160002060009054906101000a900460ff1615151415610feb576003601081819054906101000a90046fffffffffffffffffffffffffffffffff168092919060010191906101000a8154816fffffffffffffffffffffffffffffffff02191690836fffffffffffffffffffffffffffffffff16021790555050601160003373ffffffffffffffffffffffffffffffffffffffff1673ffffffffffffffffffffffffffffffffffffffff168152602001908152602001600020600081819054906101000a90046fffffffffffffffffffffffffffffffff168092919060010191906101000a8154816fffffffffffffffffffffffffffffffff02191690836fffffffffffffffffffffffffffffffff160217905550507f93aca1296570353c7b585444fa1092875960c43ae88f4a34b7d48500b587f7c760405160405180910390a161107e565b7f367dccf700b76ac212780fb422c9b7569b12f28f39de0a0f8622641a83355ab160405180806020018281038252602b8152602001807f4f6e6c7920656e726f6c6c656420706f6c6c2073746174696f6e732063616e2081526020017f6361737420766f7465732e00000000000000000000000000000000000000000081525060400191505060405180910390a1600080fd5b6110ec565b7f367dccf700b76ac212780fb422c9b7569b12f28f39de0a0f8622641a83355ab16040518080602001828103825260148152602001807f556e617574686f72697a6564206163636573732e00000000000000000000000081525060200191505060405180910390a15b50565b600080600080600380600481111561110357fe5b600260003273ffffffffffffffffffffffffffffffffffffffff1673ffffffffffffffffffffffffffffffffffffffff16815260200190815260200160002060009054906101000a900460ff1660ff16600481111561115e57fe5b600481111561116957fe5b14156117805760011515601460003373ffffffffffffffffffffffffffffffffffffffff1673ffffffffffffffffffffffffffffffffffffffff16815260200190815260200160002060009054906101000a900460ff16151514156116e857601060003373ffffffffffffffffffffffffffffffffffffffff1673ffffffffffffffffffffffffffffffffffffffff16815260200190815260200160002060009054906101000a90046fffffffffffffffffffffffffffffffff169450601160003373ffffffffffffffffffffffffffffffffffffffff1673ffffffffffffffffffffffffffffffffffffffff16815260200190815260200160002060009054906101000a90046fffffffffffffffffffffffffffffffff169350601260003373ffffffffffffffffffffffffffffffffffffffff1673ffffffffffffffffffffffffffffffffffffffff16815260200190815260200160002060009054906101000a90046fffffffffffffffffffffffffffffffff169250601360003373ffffffffffffffffffffffffffffffffffffffff1673ffffffffffffffffffffffffffffffffffffffff16815260200190815260200160002060009054906101000a90046fffffffffffffffffffffffffffffffff1691506000601060003373ffffffffffffffffffffffffffffffffffffffff1673ffffffffffffffffffffffffffffffffffffffff16815260200190815260200160002060006101000a8154816fffffffffffffffffffffffffffffffff02191690836fffffffffffffffffffffffffffffffff1602179055506000601160003373ffffffffffffffffffffffffffffffffffffffff1673ffffffffffffffffffffffffffffffffffffffff16815260200190815260200160002060006101000a8154816fffffffffffffffffffffffffffffffff02191690836fffffffffffffffffffffffffffffffff1602179055506000601260003373ffffffffffffffffffffffffffffffffffffffff1673ffffffffffffffffffffffffffffffffffffffff16815260200190815260200160002060006101000a8154816fffffffffffffffffffffffffffffffff02191690836fffffffffffffffffffffffffffffffff1602179055506000601360003373ffffffffffffffffffffffffffffffffffffffff1673ffffffffffffffffffffffffffffffffffffffff16815260200190815260200160002060006101000a8154816fffffffffffffffffffffffffffffffff02191690836fffffffffffffffffffffffffffffffff16021790555084600360008282829054906101000a90046fffffffffffffffffffffffffffffffff160392506101000a8154816fffffffffffffffffffffffffffffffff02191690836fffffffffffffffffffffffffffffffff16021790555083600360108282829054906101000a90046fffffffffffffffffffffffffffffffff160392506101000a8154816fffffffffffffffffffffffffffffffff02191690836fffffffffffffffffffffffffffffffff16021790555082600460108282829054906101000a90046fffffffffffffffffffffffffffffffff160392506101000a8154816fffffffffffffffffffffffffffffffff02191690836fffffffffffffffffffffffffffffffff16021790555081600460008282829054906101000a90046fffffffffffffffffffffffffffffffff160392506101000a8154816fffffffffffffffffffffffffffffffff02191690836fffffffffffffffffffffffffffffffff1602179055506005601081819054906101000a90046fffffffffffffffffffffffffffffffff168092919060010191906101000a8154816fffffffffffffffffffffffffffffffff02191690836fffffffffffffffffffffffffffffffff1602179055505061177b565b7f367dccf700b76ac212780fb422c9b7569b12f28f39de0a0f8622641a83355ab160405180806020018281038252602b8152602001807f4f6e6c7920656e726f6c6c656420706f6c6c2073746174696f6e732063616e2081526020017f6361737420766f7465732e00000000000000000000000000000000000000000081525060400191505060405180910390a1600080fd5b6117e9565b7f367dccf700b76ac212780fb422c9b7569b12f28f39de0a0f8622641a83355ab16040518080602001828103825260148152602001807f556e617574686f72697a6564206163636573732e00000000000000000000000081525060200191505060405180910390a15b5050505050565b6000600460109054906101000a90046fffffffffffffffffffffffffffffffff16905090565b6000600560109054906101000a90046fffffffffffffffffffffffffffffffff16905090565b60008060009054906101000a900473ffffffffffffffffffffffffffffffffffffffff1673ffffffffffffffffffffffffffffffffffffffff163273ffffffffffffffffffffffffffffffffffffffff161415611cbf57600160009054906101000a900473ffffffffffffffffffffffffffffffffffffffff1673ffffffffffffffffffffffffffffffffffffffff1663b8c51067836000604051602001526040518263ffffffff167c01000000000000000000000000000000000000000000000000000000000281526004018080602001828103825283818151815260200191508051906020019080838360005b8381101561194657808201518184015260208101905061192b565b50505050905090810190601f1680156119735780820380516001836020036101000a031916815260200191505b5092505050602060405180830381600087803b151561199157600080fd5b6102c65a03f115156119a257600080fd5b5050506040518051905060ff1660048111156119ba57fe5b9050600060048111156119c957fe5b8160048111156119d557fe5b1180156119f857506004808111156119e957fe5b8160048111156119f557fe5b11155b15611b9157806004811115611a0957fe5b600260008573ffffffffffffffffffffffffffffffffffffffff1673ffffffffffffffffffffffffffffffffffffffff16815260200190815260200160002060006101000a81548160ff021916908360ff1602179055507fe0002dd72fe0d21c584dfb23d23de71a96770c70d5b244275f416a35df6b29726001838584604051808515151515815260200180602001806020018573ffffffffffffffffffffffffffffffffffffffff1673ffffffffffffffffffffffffffffffffffffffff168152602001846004811115611ada57fe5b60ff1681526020018381038352600a8152602001807f5573657220416464656400000000000000000000000000000000000000000000815250602001838103825286818151815260200191508051906020019080838360005b83811015611b4e578082015181840152602081019050611b33565b50505050905090810190601f168015611b7b5780820380516001836020036101000a031916815260200191505b50965050505050505060405180910390a1611cbe565b7fe0002dd72fe0d21c584dfb23d23de71a96770c70d5b244275f416a35df6b29726000838584604051808515151515815260200180602001806020018573ffffffffffffffffffffffffffffffffffffffff1673ffffffffffffffffffffffffffffffffffffffff168152602001846004811115611c0b57fe5b60ff168152602001838103835260148152602001807f55736572204372656174696f6e204661696c6564000000000000000000000000815250602001838103825286818151815260200191508051906020019080838360005b83811015611c7f578082015181840152602081019050611c64565b50505050905090810190601f168015611cac5780820380516001836020036101000a031916815260200191505b50965050505050505060405180910390a15b5b505050565b6000809054906101000a900473ffffffffffffffffffffffffffffffffffffffff1673ffffffffffffffffffffffffffffffffffffffff163273ffffffffffffffffffffffffffffffffffffffff161415611d72576001601460003373ffffffffffffffffffffffffffffffffffffffff1673ffffffffffffffffffffffffffffffffffffffff16815260200190815260200160002060006101000a81548160ff0219169083151502179055505b565b6003806004811115611d8257fe5b600260003273ffffffffffffffffffffffffffffffffffffffff1673ffffffffffffffffffffffffffffffffffffffff16815260200190815260200160002060009054906101000a900460ff1660ff166004811115611ddd57fe5b6004811115611de857fe5b141561200b5760011515601460003373ffffffffffffffffffffffffffffffffffffffff1673ffffffffffffffffffffffffffffffffffffffff16815260200190815260200160002060009054906101000a900460ff1615151415611f73576003600081819054906101000a90046fffffffffffffffffffffffffffffffff168092919060010191906101000a8154816fffffffffffffffffffffffffffffffff02191690836fffffffffffffffffffffffffffffffff16021790555050601060003373ffffffffffffffffffffffffffffffffffffffff1673ffffffffffffffffffffffffffffffffffffffff168152602001908152602001600020600081819054906101000a90046fffffffffffffffffffffffffffffffff168092919060010191906101000a8154816fffffffffffffffffffffffffffffffff02191690836fffffffffffffffffffffffffffffffff160217905550507ff0bd92b84f5fd8108a3dcdb245449f78cf64eb2416873dd0c91df67825db3d2160405160405180910390a1612006565b7f367dccf700b76ac212780fb422c9b7569b12f28f39de0a0f8622641a83355ab160405180806020018281038252602b8152602001807f4f6e6c7920656e726f6c6c656420706f6c6c2073746174696f6e732063616e2081526020017f6361737420766f7465732e00000000000000000000000000000000000000000081525060400191505060405180910390a1600080fd5b612074565b7f367dccf700b76ac212780fb422c9b7569b12f28f39de0a0f8622641a83355ab16040518080602001828103825260148152602001807f556e617574686f72697a6564206163636573732e00000000000000000000000081525060200191505060405180910390a15b50565b600080600f6000846000191660001916815260200190815260200160002060009054906101000a900473ffffffffffffffffffffffffffffffffffffffff1673ffffffffffffffffffffffffffffffffffffffff1614159050919050565b6000600360109054906101000a90046fffffffffffffffffffffffffffffffff16905090565b6000600360009054906101000a90046fffffffffffffffffffffffffffffffff16905090565b6000600b54600c54600d540101600460009054906101000a90046fffffffffffffffffffffffffffffffff16600360009054906101000a90046fffffffffffffffffffffffffffffffff16600360109054906101000a90046fffffffffffffffffffffffffffffffff16600460109054906101000a90046fffffffffffffffffffffffffffffffff160101016fffffffffffffffffffffffffffffffff1614905090565b600181565b60038060048111156121d857fe5b600260003273ffffffffffffffffffffffffffffffffffffffff1673ffffffffffffffffffffffffffffffffffffffff16815260200190815260200160002060009054906101000a900460ff1660ff16600481111561223357fe5b600481111561223e57fe5b14156124615760011515601460003373ffffffffffffffffffffffffffffffffffffffff1673ffffffffffffffffffffffffffffffffffffffff16815260200190815260200160002060009054906101000a900460ff16151514156123c9576004601081819054906101000a90046fffffffffffffffffffffffffffffffff168092919060010191906101000a8154816fffffffffffffffffffffffffffffffff02191690836fffffffffffffffffffffffffffffffff16021790555050601260003373ffffffffffffffffffffffffffffffffffffffff1673ffffffffffffffffffffffffffffffffffffffff168152602001908152602001600020600081819054906101000a90046fffffffffffffffffffffffffffffffff168092919060010191906101000a8154816fffffffffffffffffffffffffffffffff02191690836fffffffffffffffffffffffffffffffff160217905550507fef870f3879b5707d5a2d99c1885de025e59929468dd9dc9bc0b5be352a36377b60405160405180910390a161245c565b7f367dccf700b76ac212780fb422c9b7569b12f28f39de0a0f8622641a83355ab160405180806020018281038252602b8152602001807f4f6e6c7920656e726f6c6c656420706f6c6c2073746174696f6e732063616e2081526020017f6361737420766f7465732e00000000000000000000000000000000000000000081525060400191505060405180910390a1600080fd5b6124ca565b7f367dccf700b76ac212780fb422c9b7569b12f28f39de0a0f8622641a83355ab16040518080602001828103825260148152602001807f556e617574686f72697a6564206163636573732e00000000000000000000000081525060200191505060405180910390a15b50565b6000600460009054906101000a90046fffffffffffffffffffffffffffffffff16905090565b6000600260003273ffffffffffffffffffffffffffffffffffffffff1673ffffffffffffffffffffffffffffffffffffffff16815260200190815260200160002060009054906101000a900460ff1660ff16600481111561255057fe5b9050905600a165627a7a72305820617697e7c322e503fa5ea02c48921d73902c2e83e252d885a31d83250c06567e0029",
  "source": "pragma solidity ^0.4.19;\r\n\r\nimport './useractivation.sol';\r\nimport './permissions.sol';\r\n\r\ncontract Municipality is Permissions {\r\n    \r\n    uint128 private yes = 0;\r\n    uint128 private no = 0;\r\n    uint128 private invalid = 0;\r\n    uint128 private blank = 0;\r\n    uint128 private duplicityError = 0;\r\n    uint128 private recounts = 0;\r\n    \r\n    //Voter Registration\r\n    uint private scannedPollingCardCount = 0;\r\n    uint private scannedPowerOfAttorneyCount = 0;\r\n    uint private registeredPowerOfAttorneyCount = 0;\r\n    uint private registeredVoterPassCount = 0;\r\n    uint private registeredObjectionCount = 0;\r\n    \r\n    //Control Numbers\r\n    uint private collectedPollingCardCount = 0;\r\n    uint private collectedPowerOfAttorneyCount = 0;\r\n    uint private collectedVoterPassCount = 0;\r\n    \r\n    mapping (bytes32 => uint128) private whosError;\r\n    mapping (bytes32 => address) private cardsClaimed;\r\n    mapping (address => uint128) private pollingStationYesVotes;\r\n    mapping (address => uint128) private pollingStationNoVotes;\r\n    mapping (address => uint128) private pollingStationBlankVotes;\r\n    mapping (address => uint128) private pollingStationInvalidVotes;\r\n    mapping (address => bool) private enrolledPollStations;\r\n\r\n    event VoterAlreadyRecorded(bytes32 qrCodeHash, uint howMany);\r\n    event VoterCleared(bytes32 qrCodeHash, VoterType voterType);\r\n    \r\n    event YesVoted();\r\n    event NoVoted();\r\n    event InvalidVoted();\r\n    event BlankVoted();\r\n    \r\n    function Municipality(address uacAddress) Permissions(uacAddress) public payable { }\r\n    \r\n    modifier _canVote() {\r\n        if (enrolledPollStations[msg.sender] == true) {\r\n            _;\r\n        } else {\r\n            NotAllowed(\"Only enrolled poll stations can cast votes.\");\r\n            revert();\r\n        }\r\n    }\r\n    \r\n    function enrollPollStation() public _isOwner() {\r\n        enrolledPollStations[msg.sender] = true;\r\n    }\r\n\r\n    function voteYes() public _verifyRole(Role.Chairman) _canVote() {\r\n        yes++;\r\n        pollingStationYesVotes[msg.sender]++;\r\n        YesVoted();\r\n    }\r\n    \r\n    function voteNo() public _verifyRole(Role.Chairman) _canVote() {\r\n        no++;\r\n        pollingStationNoVotes[msg.sender]++;\r\n        NoVoted();\r\n    }\r\n    \r\n    function voteBlank() public _verifyRole(Role.Chairman) _canVote() {\r\n        blank++;\r\n        pollingStationBlankVotes[msg.sender]++;\r\n        BlankVoted();\r\n    }\r\n    \r\n    function voteInvalid() public _verifyRole(Role.Chairman) _canVote() {\r\n        invalid++;\r\n        pollingStationInvalidVotes[msg.sender]++;\r\n        InvalidVoted();\r\n    }\r\n    \r\n    function getYes() public view returns (uint128) {\r\n        return yes;\r\n    }\r\n    \r\n    function getNo() public view returns (uint128) {\r\n        return no;\r\n    }\r\n    \r\n    function getInvalid() public view returns (uint128) {\r\n        return invalid;\r\n    }\r\n    \r\n    function getBlank() public view returns (uint128) {\r\n        return blank;\r\n    }\r\n    \r\n    function recount() public _verifyRole(Role.Chairman) _canVote() {\r\n        uint128 yesTemp = pollingStationYesVotes[msg.sender];\r\n        uint128 noTemp = pollingStationNoVotes[msg.sender];\r\n        uint128 blankTemp = pollingStationBlankVotes[msg.sender];\r\n        uint128 invalidTemp = pollingStationInvalidVotes[msg.sender];\r\n        \r\n        pollingStationYesVotes[msg.sender] = 0;\r\n        pollingStationNoVotes[msg.sender] = 0;\r\n        pollingStationBlankVotes[msg.sender] = 0;\r\n        pollingStationInvalidVotes[msg.sender] = 0;\r\n        \r\n        yes -= yesTemp;\r\n        no -= noTemp;\r\n        blank -= blankTemp;\r\n        invalid -= invalidTemp;\r\n        recounts++;\r\n    }\r\n    \r\n    function getRecounts() public view returns (uint128) {\r\n        return recounts;\r\n    }\r\n    \r\n    modifier _noRevote(bytes32 qrCodeHash) {\r\n        if (cardsClaimed[qrCodeHash] != 0) {\r\n            whosError[qrCodeHash]++;\r\n            duplicityError++;\r\n            VoterAlreadyRecorded(qrCodeHash, whosError[qrCodeHash]);\r\n        } else {\r\n            _;\r\n        }\r\n    }\r\n    \r\n    function recordVoter(bytes32 qrCodeHash, VoterType voterType) public _noRevote(qrCodeHash) _canVote() _verifyRole(Role.Chairman) returns (bool) {\r\n        \r\n        if (voterType == VoterType.PollingCard) {\r\n            scannedPollingCardCount++;\r\n        } else if (voterType == VoterType.PowerOfAttorneyPollingCard) {\r\n            scannedPowerOfAttorneyCount++;\r\n        } else if (voterType == VoterType.PowerOfAttorney) {\r\n            registeredPowerOfAttorneyCount++;\r\n        } else if (voterType == VoterType.VoterPass) {\r\n            registeredVoterPassCount++;\r\n        } else if (voterType == VoterType.Objection) {\r\n            registeredObjectionCount++;\r\n        } else {\r\n            NotAllowed(\"Invalid voter type.\");\r\n            return false;\r\n        }\r\n        \r\n        cardsClaimed[qrCodeHash] = msg.sender;\r\n        VoterCleared(qrCodeHash, voterType);\r\n        return true;\r\n    }\r\n    \r\n    function isValid() public view returns (bool) {\r\n       return ((blank + no + yes + invalid) == (collectedVoterPassCount + collectedPowerOfAttorneyCount + collectedPollingCardCount));\r\n    }\r\n    \r\n    function userVoted(bytes32 qrCodeHash) public view returns (bool) {\r\n        return cardsClaimed[qrCodeHash] != 0;\r\n    }\r\n}",
  "sourcePath": "D:\\LAB15\\git\\CountingVotes\\ps-blockchain\\contracts\\municipality.sol",
  "compiler": {
    "name": "solc",
    "version": "0.4.19+commit.c4cbbb05.Emscripten.clang"
  },
  "schemaVersion": "2.0.0",
  "updatedAt": "2018-03-16T11:40:38.496Z"
}