{
  "contractName": "Permissions",
  "abi": [
    {
      "constant": true,
      "inputs": [],
      "name": "VOTING_START_TIMESTAMP",
      "outputs": [
        {
          "name": "",
          "type": "uint256"
        }
      ],
      "payable": false,
      "stateMutability": "view",
      "type": "function"
    },
    {
      "inputs": [
        {
          "name": "userActivationAddress",
          "type": "address"
        }
      ],
      "payable": false,
      "stateMutability": "nonpayable",
      "type": "constructor"
    },
    {
      "anonymous": false,
      "inputs": [
        {
          "indexed": false,
          "name": "success",
          "type": "bool"
        },
        {
          "indexed": false,
          "name": "message",
          "type": "string"
        },
        {
          "indexed": false,
          "name": "email",
          "type": "string"
        },
        {
          "indexed": false,
          "name": "userAddress",
          "type": "address"
        },
        {
          "indexed": false,
          "name": "role",
          "type": "uint8"
        }
      ],
      "name": "UserAdded",
      "type": "event"
    },
    {
      "anonymous": false,
      "inputs": [
        {
          "indexed": false,
          "name": "uAddress",
          "type": "address"
        },
        {
          "indexed": false,
          "name": "email",
          "type": "string"
        }
      ],
      "name": "UserCreationFailed",
      "type": "event"
    },
    {
      "anonymous": false,
      "inputs": [
        {
          "indexed": false,
          "name": "message",
          "type": "string"
        }
      ],
      "name": "NotAllowed",
      "type": "event"
    },
    {
      "constant": true,
      "inputs": [],
      "name": "getRole",
      "outputs": [
        {
          "name": "",
          "type": "uint8"
        }
      ],
      "payable": false,
      "stateMutability": "view",
      "type": "function"
    },
    {
      "constant": false,
      "inputs": [
        {
          "name": "user",
          "type": "address"
        },
        {
          "name": "email",
          "type": "string"
        }
      ],
      "name": "setUserRole",
      "outputs": [],
      "payable": true,
      "stateMutability": "payable",
      "type": "function"
    },
    {
      "constant": true,
      "inputs": [],
      "name": "getUacAddress",
      "outputs": [
        {
          "name": "userActivationAddress",
          "type": "address"
        }
      ],
      "payable": false,
      "stateMutability": "view",
      "type": "function"
    }
  ],
  "bytecode": "0x6060604052341561000f57600080fd5b60405160208061078e83398101604052808051906020019091905050336000806101000a81548173ffffffffffffffffffffffffffffffffffffffff021916908373ffffffffffffffffffffffffffffffffffffffff16021790555080600160006101000a81548173ffffffffffffffffffffffffffffffffffffffff021916908373ffffffffffffffffffffffffffffffffffffffff160217905550506106d2806100bc6000396000f300606060405260043610610062576000357c0100000000000000000000000000000000000000000000000000000000900463ffffffff1680631df3c85c14610067578063724de979146100bc578063c8bef5501461012d578063fde0817414610156575b600080fd5b341561007257600080fd5b61007a61018d565b604051808273ffffffffffffffffffffffffffffffffffffffff1673ffffffffffffffffffffffffffffffffffffffff16815260200191505060405180910390f35b61012b600480803573ffffffffffffffffffffffffffffffffffffffff1690602001909190803590602001908201803590602001908080601f016020809104026020016040519081016040528093929190818152602001838380828437820191505050505050919050506101b7565b005b341561013857600080fd5b61014061063f565b6040518082815260200191505060405180910390f35b341561016157600080fd5b610169610644565b6040518082600481111561017957fe5b60ff16815260200191505060405180910390f35b6000600160009054906101000a900473ffffffffffffffffffffffffffffffffffffffff16905090565b60008060009054906101000a900473ffffffffffffffffffffffffffffffffffffffff1673ffffffffffffffffffffffffffffffffffffffff163273ffffffffffffffffffffffffffffffffffffffff16141561063a57600160009054906101000a900473ffffffffffffffffffffffffffffffffffffffff1673ffffffffffffffffffffffffffffffffffffffff1663b8c51067836000604051602001526040518263ffffffff167c01000000000000000000000000000000000000000000000000000000000281526004018080602001828103825283818151815260200191508051906020019080838360005b838110156102c15780820151818401526020810190506102a6565b50505050905090810190601f1680156102ee5780820380516001836020036101000a031916815260200191505b5092505050602060405180830381600087803b151561030c57600080fd5b6102c65a03f1151561031d57600080fd5b5050506040518051905060ff16600481111561033557fe5b90506000600481111561034457fe5b81600481111561035057fe5b118015610373575060048081111561036457fe5b81600481111561037057fe5b11155b1561050c5780600481111561038457fe5b600260008573ffffffffffffffffffffffffffffffffffffffff1673ffffffffffffffffffffffffffffffffffffffff16815260200190815260200160002060006101000a81548160ff021916908360ff1602179055507fe0002dd72fe0d21c584dfb23d23de71a96770c70d5b244275f416a35df6b29726001838584604051808515151515815260200180602001806020018573ffffffffffffffffffffffffffffffffffffffff1673ffffffffffffffffffffffffffffffffffffffff16815260200184600481111561045557fe5b60ff1681526020018381038352600a8152602001807f5573657220416464656400000000000000000000000000000000000000000000815250602001838103825286818151815260200191508051906020019080838360005b838110156104c95780820151818401526020810190506104ae565b50505050905090810190601f1680156104f65780820380516001836020036101000a031916815260200191505b50965050505050505060405180910390a1610639565b7fe0002dd72fe0d21c584dfb23d23de71a96770c70d5b244275f416a35df6b29726000838584604051808515151515815260200180602001806020018573ffffffffffffffffffffffffffffffffffffffff1673ffffffffffffffffffffffffffffffffffffffff16815260200184600481111561058657fe5b60ff168152602001838103835260148152602001807f55736572204372656174696f6e204661696c6564000000000000000000000000815250602001838103825286818151815260200191508051906020019080838360005b838110156105fa5780820151818401526020810190506105df565b50505050905090810190601f1680156106275780820380516001836020036101000a031916815260200191505b50965050505050505060405180910390a15b5b505050565b600181565b6000600260003273ffffffffffffffffffffffffffffffffffffffff1673ffffffffffffffffffffffffffffffffffffffff16815260200190815260200160002060009054906101000a900460ff1660ff1660048111156106a157fe5b9050905600a165627a7a723058202b6f7d1abb342539ec2ecb4d5a864f068b057c30c016e973bb1311ce7ea639b00029",
  "source": "pragma solidity ^0.4.19;\r\n\r\nimport \"./useractivation.sol\";\r\n\r\ncontract Permissions {\r\n\r\n   //Timestamp in seconds (from UNIX epoch). Voting date: 21-03-2018 05:00:00 GMT: 1521604800\r\n    uint256 constant public VOTING_START_TIMESTAMP = 1;\r\n   \r\n    enum VoterType {\r\n        Unspecified,\r\n        PollingCard,\r\n        PowerOfAttorneyPollingCard,\r\n        PowerOfAttorney,\r\n        VoterPass,\r\n        Objection\r\n    }\r\n   \r\n    enum Role {\r\n        Unknown,\r\n        Owner,\r\n        Mayor,\r\n        Chairman,\r\n        Teller\r\n    }\r\n   \r\n    address internal owner;\r\n    UserActivation internal userActivationContract;\r\n\r\n    mapping (address => uint8) internal roles;\r\n\r\n    event UserAdded(bool success, string message, string email, address userAddress, Role role);\r\n    event UserCreationFailed(address uAddress, string email);\r\n    event NotAllowed(string message);\r\n\r\n    function Permissions(address userActivationAddress) public {\r\n        owner = msg.sender;\r\n        userActivationContract = UserActivation(userActivationAddress);\r\n    }\r\n\r\n    function getRole() public view returns (Role) {\r\n        return Role(roles[tx.origin]);\r\n    }    \r\n\r\n    function setUserRole(address user, string email) public _isOwner() payable {\r\n        Role userRole = Role(userActivationContract.getRoleId(email));\r\n\r\n        if (userRole > Role.Unknown && userRole <= Role.Teller) {\r\n            roles[user] = uint8(userRole);\r\n            UserAdded(true, \"User Added\", email, user, Role(userRole));\r\n        } else {\r\n            UserAdded(false, \"User Creation Failed\", email, user, Role(userRole));\r\n        }\r\n    }\r\n\r\n    function setUsedEmail(string email) internal _isOwner() {\r\n        userActivationContract.setUsedEmail(email);\r\n    }\r\n\r\n    modifier _isOwner() {\r\n        if (tx.origin == owner) {\r\n            _;\r\n        }\r\n    }\r\n\r\n    modifier _verifyRole(Role role) {\r\n        if (Role(roles[tx.origin]) == role) {\r\n            _;\r\n        } else {\r\n            NotAllowed(\"Unauthorized access.\");\r\n        }\r\n    }\r\n\r\n    function getUacAddress() public view returns (address userActivationAddress) {\r\n        return address(userActivationContract);\r\n    }\r\n}",
  "sourcePath": "D:\\LAB15\\git\\CountingVotes\\ps-blockchain\\contracts\\permissions.sol",
  "compiler": {
    "name": "solc",
    "version": "0.4.19+commit.c4cbbb05.Emscripten.clang"
  },
  "schemaVersion": "2.0.0",
  "updatedAt": "2018-03-19T14:56:15.511Z"
}