{
  "contractName": "PollingStation",
  "abi": [
    {
      "constant": true,
      "inputs": [],
      "name": "getUacAddress",
      "outputs": [
        {
          "name": "userActivationAddress",
          "type": "address"
        }
      ],
      "payable": false,
      "stateMutability": "view",
      "type": "function"
    },
    {
      "constant": true,
      "inputs": [],
      "name": "VOTING_START_TIMESTAMP",
      "outputs": [
        {
          "name": "",
          "type": "uint256"
        }
      ],
      "payable": false,
      "stateMutability": "view",
      "type": "function"
    },
    {
      "constant": true,
      "inputs": [],
      "name": "munContract",
      "outputs": [
        {
          "name": "",
          "type": "address"
        }
      ],
      "payable": false,
      "stateMutability": "view",
      "type": "function"
    },
    {
      "constant": true,
      "inputs": [],
      "name": "getRole",
      "outputs": [
        {
          "name": "",
          "type": "uint8"
        }
      ],
      "payable": false,
      "stateMutability": "view",
      "type": "function"
    },
    {
      "inputs": [
        {
          "name": "mAddress",
          "type": "address"
        },
        {
          "name": "uacAddress",
          "type": "address"
        }
      ],
      "payable": false,
      "stateMutability": "nonpayable",
      "type": "constructor"
    },
    {
      "anonymous": false,
      "inputs": [
        {
          "indexed": false,
          "name": "qrCodeHash",
          "type": "bytes32"
        }
      ],
      "name": "VoterAlreadyRecorded",
      "type": "event"
    },
    {
      "anonymous": false,
      "inputs": [
        {
          "indexed": false,
          "name": "qrCodeHash",
          "type": "bytes32"
        }
      ],
      "name": "VoterCleared",
      "type": "event"
    },
    {
      "anonymous": false,
      "inputs": [
        {
          "indexed": false,
          "name": "userAddress",
          "type": "address"
        },
        {
          "indexed": false,
          "name": "role",
          "type": "uint8"
        }
      ],
      "name": "UserSignedIn",
      "type": "event"
    },
    {
      "anonymous": false,
      "inputs": [
        {
          "indexed": false,
          "name": "userAddress",
          "type": "address"
        },
        {
          "indexed": false,
          "name": "role",
          "type": "uint8"
        }
      ],
      "name": "UserSignedOut",
      "type": "event"
    },
    {
      "anonymous": false,
      "inputs": [
        {
          "indexed": false,
          "name": "pollingStation",
          "type": "address"
        }
      ],
      "name": "VotingFinished",
      "type": "event"
    },
    {
      "anonymous": false,
      "inputs": [
        {
          "indexed": false,
          "name": "staff",
          "type": "address"
        }
      ],
      "name": "StaffSignedOff",
      "type": "event"
    },
    {
      "anonymous": false,
      "inputs": [
        {
          "indexed": false,
          "name": "staff",
          "type": "address"
        },
        {
          "indexed": false,
          "name": "success",
          "type": "bool"
        },
        {
          "indexed": false,
          "name": "message",
          "type": "string"
        }
      ],
      "name": "SignedOff",
      "type": "event"
    },
    {
      "anonymous": false,
      "inputs": [
        {
          "indexed": false,
          "name": "success",
          "type": "bool"
        },
        {
          "indexed": false,
          "name": "message",
          "type": "string"
        },
        {
          "indexed": false,
          "name": "needsRecount",
          "type": "bool"
        },
        {
          "indexed": false,
          "name": "yes",
          "type": "bool"
        },
        {
          "indexed": false,
          "name": "no",
          "type": "bool"
        },
        {
          "indexed": false,
          "name": "blank",
          "type": "bool"
        },
        {
          "indexed": false,
          "name": "invalid",
          "type": "bool"
        }
      ],
      "name": "VerificationDone",
      "type": "event"
    },
    {
      "anonymous": false,
      "inputs": [
        {
          "indexed": false,
          "name": "pollingCards",
          "type": "uint256"
        },
        {
          "indexed": false,
          "name": "powerOfAttorneys",
          "type": "uint256"
        },
        {
          "indexed": false,
          "name": "voterPasses",
          "type": "uint256"
        }
      ],
      "name": "ControlNumbersAdded",
      "type": "event"
    },
    {
      "anonymous": false,
      "inputs": [
        {
          "indexed": false,
          "name": "pollingStation",
          "type": "address"
        }
      ],
      "name": "VotingSessionBegan",
      "type": "event"
    },
    {
      "anonymous": false,
      "inputs": [
        {
          "indexed": false,
          "name": "voteCode",
          "type": "uint256"
        },
        {
          "indexed": false,
          "name": "success",
          "type": "bool"
        },
        {
          "indexed": false,
          "name": "message",
          "type": "string"
        }
      ],
      "name": "VoteCounted",
      "type": "event"
    },
    {
      "anonymous": false,
      "inputs": [
        {
          "indexed": false,
          "name": "success",
          "type": "bool"
        },
        {
          "indexed": false,
          "name": "message",
          "type": "string"
        },
        {
          "indexed": false,
          "name": "email",
          "type": "string"
        },
        {
          "indexed": false,
          "name": "userAddress",
          "type": "address"
        },
        {
          "indexed": false,
          "name": "role",
          "type": "uint8"
        }
      ],
      "name": "UserAdded",
      "type": "event"
    },
    {
      "anonymous": false,
      "inputs": [
        {
          "indexed": false,
          "name": "uAddress",
          "type": "address"
        },
        {
          "indexed": false,
          "name": "email",
          "type": "string"
        }
      ],
      "name": "UserCreationFailed",
      "type": "event"
    },
    {
      "anonymous": false,
      "inputs": [
        {
          "indexed": false,
          "name": "message",
          "type": "string"
        }
      ],
      "name": "NotAllowed",
      "type": "event"
    },
    {
      "constant": true,
      "inputs": [],
      "name": "getMunicipalityAddress",
      "outputs": [
        {
          "name": "municipalityAddress",
          "type": "address"
        }
      ],
      "payable": false,
      "stateMutability": "view",
      "type": "function"
    },
    {
      "constant": false,
      "inputs": [
        {
          "name": "user",
          "type": "address"
        },
        {
          "name": "email",
          "type": "string"
        }
      ],
      "name": "setUserRole",
      "outputs": [],
      "payable": true,
      "stateMutability": "payable",
      "type": "function"
    },
    {
      "constant": true,
      "inputs": [],
      "name": "isSessionOpen",
      "outputs": [
        {
          "name": "",
          "type": "bool"
        }
      ],
      "payable": false,
      "stateMutability": "view",
      "type": "function"
    },
    {
      "constant": false,
      "inputs": [],
      "name": "signIn",
      "outputs": [],
      "payable": false,
      "stateMutability": "nonpayable",
      "type": "function"
    },
    {
      "constant": true,
      "inputs": [],
      "name": "getSignedInTellers",
      "outputs": [
        {
          "name": "",
          "type": "uint8"
        }
      ],
      "payable": false,
      "stateMutability": "view",
      "type": "function"
    },
    {
      "constant": false,
      "inputs": [],
      "name": "signOut",
      "outputs": [],
      "payable": false,
      "stateMutability": "nonpayable",
      "type": "function"
    },
    {
      "constant": false,
      "inputs": [],
      "name": "beginVotingSession",
      "outputs": [],
      "payable": false,
      "stateMutability": "nonpayable",
      "type": "function"
    },
    {
      "constant": false,
      "inputs": [
        {
          "name": "qrCodeHash",
          "type": "bytes32"
        },
        {
          "name": "voterType",
          "type": "uint8"
        }
      ],
      "name": "recordVoter",
      "outputs": [
        {
          "name": "",
          "type": "bool"
        }
      ],
      "payable": false,
      "stateMutability": "nonpayable",
      "type": "function"
    },
    {
      "constant": true,
      "inputs": [],
      "name": "getReport",
      "outputs": [
        {
          "name": "scannedPollingCards",
          "type": "uint256"
        },
        {
          "name": "registeredVoterPasses",
          "type": "uint256"
        },
        {
          "name": "scannedPowerOfAttorneys",
          "type": "uint256"
        },
        {
          "name": "registeredPowerOfAttorneys",
          "type": "uint256"
        },
        {
          "name": "registeredObjections",
          "type": "uint256"
        },
        {
          "name": "collectedPollingCards",
          "type": "uint256"
        },
        {
          "name": "collectedVoterPasses",
          "type": "uint256"
        },
        {
          "name": "collectedPowerOfAttorneys",
          "type": "uint256"
        },
        {
          "name": "yes",
          "type": "uint256"
        },
        {
          "name": "no",
          "type": "uint256"
        },
        {
          "name": "blank",
          "type": "uint256"
        },
        {
          "name": "invalid",
          "type": "uint256"
        }
      ],
      "payable": false,
      "stateMutability": "view",
      "type": "function"
    },
    {
      "constant": false,
      "inputs": [],
      "name": "yes",
      "outputs": [],
      "payable": false,
      "stateMutability": "nonpayable",
      "type": "function"
    },
    {
      "constant": false,
      "inputs": [],
      "name": "no",
      "outputs": [],
      "payable": false,
      "stateMutability": "nonpayable",
      "type": "function"
    },
    {
      "constant": false,
      "inputs": [],
      "name": "blank",
      "outputs": [],
      "payable": false,
      "stateMutability": "nonpayable",
      "type": "function"
    },
    {
      "constant": false,
      "inputs": [],
      "name": "invalid",
      "outputs": [],
      "payable": false,
      "stateMutability": "nonpayable",
      "type": "function"
    },
    {
      "constant": true,
      "inputs": [],
      "name": "getVerification",
      "outputs": [
        {
          "name": "",
          "type": "bool"
        }
      ],
      "payable": false,
      "stateMutability": "view",
      "type": "function"
    },
    {
      "constant": true,
      "inputs": [],
      "name": "getVotingRound",
      "outputs": [
        {
          "name": "",
          "type": "uint256"
        }
      ],
      "payable": false,
      "stateMutability": "view",
      "type": "function"
    },
    {
      "constant": false,
      "inputs": [],
      "name": "recount",
      "outputs": [],
      "payable": false,
      "stateMutability": "nonpayable",
      "type": "function"
    },
    {
      "constant": false,
      "inputs": [
        {
          "name": "pollingCards",
          "type": "uint256"
        },
        {
          "name": "powerOfAttorneys",
          "type": "uint256"
        },
        {
          "name": "voterPasses",
          "type": "uint256"
        }
      ],
      "name": "inputControlNumbers",
      "outputs": [],
      "payable": false,
      "stateMutability": "nonpayable",
      "type": "function"
    },
    {
      "constant": false,
      "inputs": [
        {
          "name": "yesCount",
          "type": "uint256"
        },
        {
          "name": "noCount",
          "type": "uint256"
        },
        {
          "name": "blankCount",
          "type": "uint256"
        },
        {
          "name": "invalidCount",
          "type": "uint256"
        }
      ],
      "name": "verifyVotes",
      "outputs": [],
      "payable": false,
      "stateMutability": "nonpayable",
      "type": "function"
    },
    {
      "constant": true,
      "inputs": [],
      "name": "getDeviation",
      "outputs": [
        {
          "name": "",
          "type": "uint256"
        }
      ],
      "payable": false,
      "stateMutability": "view",
      "type": "function"
    },
    {
      "constant": false,
      "inputs": [
        {
          "name": "explanation",
          "type": "string"
        }
      ],
      "name": "signOff",
      "outputs": [
        {
          "name": "",
          "type": "bool"
        }
      ],
      "payable": false,
      "stateMutability": "nonpayable",
      "type": "function"
    },
    {
      "constant": true,
      "inputs": [],
      "name": "canSubmit",
      "outputs": [
        {
          "name": "",
          "type": "bool"
        }
      ],
      "payable": false,
      "stateMutability": "view",
      "type": "function"
    }
  ],
  "bytecode": "0x60606040526000600360006101000a8154816fffffffffffffffffffffffffffffffff02191690836fffffffffffffffffffffffffffffffff1602179055506000600360106101000a8154816fffffffffffffffffffffffffffffffff02191690836fffffffffffffffffffffffffffffffff1602179055506000600460006101000a8154816fffffffffffffffffffffffffffffffff02191690836fffffffffffffffffffffffffffffffff1602179055506000600460106101000a8154816fffffffffffffffffffffffffffffffff02191690836fffffffffffffffffffffffffffffffff1602179055506000600560006101000a8154816fffffffffffffffffffffffffffffffff02191690836fffffffffffffffffffffffffffffffff16021790555060006006556000600755600060085560006009556000600a556000600b556000600c556000600d556000600e60006101000a81548160ff021916908360ff1602179055506000600e60016101000a81548160ff021916908360ff1602179055506000600e60026101000a81548160ff021916908360ff1602179055506000600e60036101000a81548160ff021916908360ff1602179055506001600e60046101000a81548160ff0219169083151502179055506000601060006101000a81548160ff0219169083151502179055506001601060016101000a81548160ff0219169083151502179055506000601060026101000a81548160ff02191690831515021790555034156200023657600080fd5b60405160408062004e638339810160405280805190602001909190805190602001909190505080336000806101000a81548173ffffffffffffffffffffffffffffffffffffffff021916908373ffffffffffffffffffffffffffffffffffffffff16021790555080600160006101000a81548173ffffffffffffffffffffffffffffffffffffffff021916908373ffffffffffffffffffffffffffffffffffffffff1602179055505081601460006101000a81548173ffffffffffffffffffffffffffffffffffffffff021916908373ffffffffffffffffffffffffffffffffffffffff160217905550601460009054906101000a900473ffffffffffffffffffffffffffffffffffffffff1673ffffffffffffffffffffffffffffffffffffffff16638d796bb36040518163ffffffff167c0100000000000000000000000000000000000000000000000000000000028152600401600060405180830381600087803b1515620003a657600080fd5b6102c65a03f11515620003b857600080fd5b5050505050614a9680620003cd6000396000f300606060405260043610610149576000357c0100000000000000000000000000000000000000000000000000000000900463ffffffff1680631704f0981461014e5780631df3c85c1461017b57806323f314c4146101d057806324716b201461020e5780632bb9e075146102595780632f87f8d11461026e57806334adc875146102c35780634c1aa976146102d85780634c6c9b78146102ed578063724de9791461030257806386bafc791461037357806389ab3532146103a05780638a365e59146103c9578063941974a2146103f25780639e4cda4314610427578063b6c52ae81461043c578063bde9e40e14610451578063c8bef55014610466578063ce909a521461048f578063dfc86fe214610504578063e4085d6714610559578063e66632fb146105cf578063fde08174146105e4578063fe559d971461061b578063ffbc9bd01461064a575b600080fd5b341561015957600080fd5b610161610677565b604051808215151515815260200191505060405180910390f35b341561018657600080fd5b61018e61068e565b604051808273ffffffffffffffffffffffffffffffffffffffff1673ffffffffffffffffffffffffffffffffffffffff16815260200191505060405180910390f35b34156101db57600080fd5b61020c60048080359060200190919080359060200190919080359060200190919080359060200190919050506106b8565b005b341561021957600080fd5b61023f60048080356000191690602001909190803560ff16906020019091905050610d8a565b604051808215151515815260200191505060405180910390f35b341561026457600080fd5b61026c61126b565b005b341561027957600080fd5b610281611489565b604051808273ffffffffffffffffffffffffffffffffffffffff1673ffffffffffffffffffffffffffffffffffffffff16815260200191505060405180910390f35b34156102ce57600080fd5b6102d66114b3565b005b34156102e357600080fd5b6102eb61193c565b005b34156102f857600080fd5b610300611c22565b005b610371600480803573ffffffffffffffffffffffffffffffffffffffff1690602001909190803590602001908201803590602001908080601f01602080910402602001604051908101604052809392919081815260200183838082843782019150505050505091905050611fb3565b005b341561037e57600080fd5b6103866121c4565b604051808215151515815260200191505060405180910390f35b34156103ab57600080fd5b6103b36121dc565b6040518082815260200191505060405180910390f35b34156103d457600080fd5b6103dc6122b4565b6040518082815260200191505060405180910390f35b34156103fd57600080fd5b61042560048080359060200190919080359060200190919080359060200190919050506122ec565b005b341561043257600080fd5b61043a612436565b005b341561044757600080fd5b61044f6128ec565b005b341561045c57600080fd5b610464612c7e565b005b341561047157600080fd5b610479613010565b6040518082815260200191505060405180910390f35b341561049a57600080fd5b6104ea600480803590602001908201803590602001908080601f01602080910402602001604051908101604052809392919081815260200183838082843782019150505050505091905050613015565b604051808215151515815260200191505060405180910390f35b341561050f57600080fd5b610517613df2565b604051808273ffffffffffffffffffffffffffffffffffffffff1673ffffffffffffffffffffffffffffffffffffffff16815260200191505060405180910390f35b341561056457600080fd5b61056c613e18565b604051808d81526020018c81526020018b81526020018a81526020018981526020018881526020018781526020018681526020018581526020018481526020018381526020018281526020019c5050505050505050505050505060405180910390f35b34156105da57600080fd5b6105e2613f38565b005b34156105ef57600080fd5b6105f76142ca565b6040518082600481111561060757fe5b60ff16815260200191505060405180910390f35b341561062657600080fd5b61062e61432c565b604051808260ff1660ff16815260200191505060405180910390f35b341561065557600080fd5b61065d614343565b604051808215151515815260200191505060405180910390f35b6000601060009054906101000a900460ff16905090565b6000600160009054906101000a900473ffffffffffffffffffffffffffffffffffffffff16905090565b60008060008060038060048111156106cc57fe5b600260003273ffffffffffffffffffffffffffffffffffffffff1673ffffffffffffffffffffffffffffffffffffffff16815260200190815260200160002060009054906101000a900460ff1660ff16600481111561072757fe5b600481111561073257fe5b1415610d1657601060009054906101000a900460ff1615610860577f43ee49b353e606440a3e01e92992e6016fe11eb3c3745608f6b54fbc8d758faa601060009054906101000a900460ff1660008060008060006040518087151515158152602001806020018715151515815260200186151515158152602001851515151581526020018415151515815260200183151515158152602001828103825260478152602001807f566572696669636174696f6e20616c72656164792068617070656e656420616e81526020017f6420697420776173207375636365737366756c2e20496e70757420646973726581526020017f6761726465642e0000000000000000000000000000000000000000000000000081525060600197505050505050505060405180910390a1610d11565b601060019054906101000a900460ff1615610970577f43ee49b353e606440a3e01e92992e6016fe11eb3c3745608f6b54fbc8d758faa601060009054906101000a900460ff16601060019054906101000a900460ff166000806000806040518087151515158152602001806020018715151515815260200186151515158152602001851515151581526020018415151515815260200183151515158152602001828103825260328152602001807f5265636f756e74206e6563657373617279206265666f7265206e65772076657281526020017f696669636174696f6e20617474656d70742e000000000000000000000000000081525060400197505050505050505060405180910390a1610d11565b601060029054906101000a900460ff161515610a4d577f43ee49b353e606440a3e01e92992e6016fe11eb3c3745608f6b54fbc8d758faa601060009054906101000a900460ff16600160008060008060405180871515151581526020018060200187151515158152602001861515151581526020018515151515815260200184151515158152602001831515151581526020018281038252601a8152602001807f436f756e74696e67206d75737420626567696e2066697273742e00000000000081525060200197505050505050505060405180910390a1610d11565b6000601060026101000a81548160ff021916908315150217905550600360109054906101000a90046fffffffffffffffffffffffffffffffff166fffffffffffffffffffffffffffffffff1689149450600460009054906101000a90046fffffffffffffffffffffffffffffffff166fffffffffffffffffffffffffffffffff1688149350600560009054906101000a90046fffffffffffffffffffffffffffffffff166fffffffffffffffffffffffffffffffff1687149250600460109054906101000a90046fffffffffffffffffffffffffffffffff166fffffffffffffffffffffffffffffffff1686149150848015610b465750835b8015610b4f5750825b8015610b585750815b15610c26576001601060006101000a81548160ff0219169083151502179055507f43ee49b353e606440a3e01e92992e6016fe11eb3c3745608f6b54fbc8d758faa601060009054906101000a900460ff16601060019054906101000a900460ff1687878787604051808715151515815260200180602001871515151581526020018615151515815260200185151515158152602001841515151581526020018315151515815260200182810382526000815260200160200197505050505050505060405180910390a1610d10565b6001601060016101000a81548160ff0219169083151502179055507f43ee49b353e606440a3e01e92992e6016fe11eb3c3745608f6b54fbc8d758faa601060009054906101000a900460ff16601060019054906101000a900460ff168787878760405180871515151581526020018060200187151515158152602001861515151581526020018515151515815260200184151515158152602001831515151581526020018281038252600e8152602001807f4e65656473205265636f756e742e00000000000000000000000000000000000081525060200197505050505050505060405180910390a15b5b610d7f565b7f367dccf700b76ac212780fb422c9b7569b12f28f39de0a0f8622641a83355ab16040518080602001828103825260148152602001807f556e617574686f72697a6564206163636573732e00000000000000000000000081525060200191505060405180910390a15b505050505050505050565b6000806003806004811115610d9b57fe5b600260003273ffffffffffffffffffffffffffffffffffffffff1673ffffffffffffffffffffffffffffffffffffffff16815260200190815260200160002060009054906101000a900460ff1660ff166004811115610df657fe5b6004811115610e0157fe5b14156111fa5784601460009054906101000a900473ffffffffffffffffffffffffffffffffffffffff1673ffffffffffffffffffffffffffffffffffffffff16639d38800d826000604051602001526040518263ffffffff167c0100000000000000000000000000000000000000000000000000000000028152600401808260001916600019168152602001915050602060405180830381600087803b1515610ea957600080fd5b6102c65a03f11515610eba57600080fd5b5050506040518051905015610f0d577fc6f463ff03552b32a5c8648ccdcd61429246dafb835c341eb26574fdb791bdf08160405180826000191660001916815260200191505060405180910390a16111f4565b7fd135bcf6825b1f8773fbc5614aff8574c3d4bb8bc5853109ef17f35b30e5a0ba8160405180826000191660001916815260200191505060405180910390a160006005811115610f5957fe5b856005811115610f6557fe5b111580610f875750600580811115610f7957fe5b856005811115610f8557fe5b115b15610ffd577f367dccf700b76ac212780fb422c9b7569b12f28f39de0a0f8622641a83355ab16040518080602001828103825260138152602001807f496e76616c696420766f74657220747970652e0000000000000000000000000081525060200191505060405180910390a1600093506111f3565b601460009054906101000a900473ffffffffffffffffffffffffffffffffffffffff1673ffffffffffffffffffffffffffffffffffffffff166324716b2087876000604051602001526040518363ffffffff167c010000000000000000000000000000000000000000000000000000000002815260040180836000191660001916815260200182600581111561108f57fe5b60ff16815260200192505050602060405180830381600087803b15156110b457600080fd5b6102c65a03f115156110c557600080fd5b5050506040518051905092508215156110e157600093506111f3565b600160058111156110ee57fe5b8560058111156110fa57fe5b1415611117576006600081548092919060010191905055506111ee565b6002600581111561112457fe5b85600581111561113057fe5b141561114d576007600081548092919060010191905055506111ed565b6003600581111561115a57fe5b85600581111561116657fe5b1415611183576008600081548092919060010191905055506111ec565b6004600581111561119057fe5b85600581111561119c57fe5b14156111b9576009600081548092919060010191905055506111eb565b6005808111156111c557fe5b8560058111156111d157fe5b14156111ea57600a600081548092919060010191905055505b5b5b5b5b600193505b5b50611263565b7f367dccf700b76ac212780fb422c9b7569b12f28f39de0a0f8622641a83355ab16040518080602001828103825260148152602001807f556e617574686f72697a6564206163636573732e00000000000000000000000081525060200191505060405180910390a15b505092915050565b6000809054906101000a900473ffffffffffffffffffffffffffffffffffffffff1673ffffffffffffffffffffffffffffffffffffffff163273ffffffffffffffffffffffffffffffffffffffff161415611487576001421180156112dc5750600e60049054906101000a900460ff165b80156112f55750601060009054906101000a900460ff16155b156113f7576000600e60046101000a81548160ff0219169083151502179055506000601060016101000a81548160ff0219169083151502179055506003600081819054906101000a90046fffffffffffffffffffffffffffffffff168092919060010191906101000a8154816fffffffffffffffffffffffffffffffff02191690836fffffffffffffffffffffffffffffffff160217905550507ff8c17d4907a64b36c45f63ee113f829f56a8059e18751190e9d7f81d18aed06530604051808273ffffffffffffffffffffffffffffffffffffffff1673ffffffffffffffffffffffffffffffffffffffff16815260200191505060405180910390a1611486565b7f367dccf700b76ac212780fb422c9b7569b12f28f39de0a0f8622641a83355ab16040518080602001828103825260278152602001807f4e6f7420616c6c6f776564206265666f7265206f6666696369616c207374617281526020017f7420646174652e0000000000000000000000000000000000000000000000000081525060400191505060405180910390a15b5b565b6000601460009054906101000a900473ffffffffffffffffffffffffffffffffffffffff16905090565b600080600260003373ffffffffffffffffffffffffffffffffffffffff1673ffffffffffffffffffffffffffffffffffffffff16815260200190815260200160002060009054906101000a900460ff1660ff16600481111561151157fe5b90506003600481111561152057fe5b81600481111561152c57fe5b14801561154b57506000600e60009054906101000a900460ff1660ff16115b801561156a57506000600e60019054906101000a900460ff1660ff1611155b80156115825750600e60049054906101000a900460ff165b806115d7575060048081111561159457fe5b8160048111156115a057fe5b1480156115d657506001600e60019054906101000a900460ff1660ff1611806115d55750600e60049054906101000a900460ff165b5b5b156118a957600260003373ffffffffffffffffffffffffffffffffffffffff1673ffffffffffffffffffffffffffffffffffffffff16815260200190815260200160002060009054906101000a900460ff1660ff16600481111561163757fe5b91506003600481111561164657fe5b82600481111561165257fe5b14156116e857600e600081819054906101000a900460ff16809291906001900391906101000a81548160ff021916908360ff160217905550506000601160003373ffffffffffffffffffffffffffffffffffffffff1673ffffffffffffffffffffffffffffffffffffffff16815260200190815260200160002060006101000a81548160ff02191690831515021790555061182a565b6004808111156116f457fe5b82600481111561170057fe5b141561179657600e600181819054906101000a900460ff16809291906001900391906101000a81548160ff021916908360ff160217905550506000601260003373ffffffffffffffffffffffffffffffffffffffff1673ffffffffffffffffffffffffffffffffffffffff16815260200190815260200160002060006101000a81548160ff021916908315150217905550611829565b7f367dccf700b76ac212780fb422c9b7569b12f28f39de0a0f8622641a83355ab16040518080602001828103825260218152602001807f556e616c6c6f77656420726f6c65206f722072756c652076696f6c6174696f6e81526020017f2e0000000000000000000000000000000000000000000000000000000000000081525060400191505060405180910390a16118a4565b5b7f95e9e12152d49e817d9be172b4aa1bee982eb0d34932f10d6a5c36d19535f32a3383604051808373ffffffffffffffffffffffffffffffffffffffff1673ffffffffffffffffffffffffffffffffffffffff16815260200182600481111561188f57fe5b60ff1681526020019250505060405180910390a15b611938565b7f367dccf700b76ac212780fb422c9b7569b12f28f39de0a0f8622641a83355ab16040518080602001828103825260218152602001807f556e616c6c6f77656420726f6c65206f722072756c652076696f6c6174696f6e81526020017f2e0000000000000000000000000000000000000000000000000000000000000081525060400191505060405180910390a15b5050565b600380600481111561194a57fe5b600260003273ffffffffffffffffffffffffffffffffffffffff1673ffffffffffffffffffffffffffffffffffffffff16815260200190815260200160002060009054906101000a900460ff1660ff1660048111156119a557fe5b60048111156119b057fe5b1415611bb657601460009054906101000a900473ffffffffffffffffffffffffffffffffffffffff1673ffffffffffffffffffffffffffffffffffffffff16634c1aa9766040518163ffffffff167c0100000000000000000000000000000000000000000000000000000000028152600401600060405180830381600087803b1515611a3b57600080fd5b6102c65a03f11515611a4c57600080fd5b5050506003600081819054906101000a90046fffffffffffffffffffffffffffffffff168092919060010191906101000a8154816fffffffffffffffffffffffffffffffff02191690836fffffffffffffffffffffffffffffffff160217905550506000600360106101000a8154816fffffffffffffffffffffffffffffffff02191690836fffffffffffffffffffffffffffffffff1602179055506000600460006101000a8154816fffffffffffffffffffffffffffffffff02191690836fffffffffffffffffffffffffffffffff1602179055506000600560006101000a8154816fffffffffffffffffffffffffffffffff02191690836fffffffffffffffffffffffffffffffff1602179055506000600460106101000a8154816fffffffffffffffffffffffffffffffff02191690836fffffffffffffffffffffffffffffffff1602179055506000601060016101000a81548160ff021916908315150217905550611c1f565b7f367dccf700b76ac212780fb422c9b7569b12f28f39de0a0f8622641a83355ab16040518080602001828103825260148152602001807f556e617574686f72697a6564206163636573732e00000000000000000000000081525060200191505060405180910390a15b50565b611c2a6121c4565b1515611c9d577f367dccf700b76ac212780fb422c9b7569b12f28f39de0a0f8622641a83355ab16040518080602001828103825260128152602001807f53657373696f6e20697320636c6f7365642e000000000000000000000000000081525060200191505060405180910390a1611fb1565b601060009054906101000a900460ff161515611f0c576003806004811115611cc157fe5b600260003273ffffffffffffffffffffffffffffffffffffffff1673ffffffffffffffffffffffffffffffffffffffff16815260200190815260200160002060009054906101000a900460ff1660ff166004811115611d1c57fe5b6004811115611d2757fe5b1415611e9d576001601060026101000a81548160ff0219169083151502179055506003601081819054906101000a90046fffffffffffffffffffffffffffffffff168092919060010191906101000a8154816fffffffffffffffffffffffffffffffff02191690836fffffffffffffffffffffffffffffffff16021790555050601460009054906101000a900473ffffffffffffffffffffffffffffffffffffffff1673ffffffffffffffffffffffffffffffffffffffff166390cf581c6040518163ffffffff167c0100000000000000000000000000000000000000000000000000000000028152600401600060405180830381600087803b1515611e2c57600080fd5b6102c65a03f11515611e3d57600080fd5b5050507f87567035f0c5d3143998f3f50df307463b25b6e935e0113bb98a7985fcf5da3d600180604051808381526020018215151515815260200180602001828103825260008152602001602001935050505060405180910390a1611f06565b7f367dccf700b76ac212780fb422c9b7569b12f28f39de0a0f8622641a83355ab16040518080602001828103825260148152602001807f556e617574686f72697a6564206163636573732e00000000000000000000000081525060200191505060405180910390a15b50611fb0565b7f87567035f0c5d3143998f3f50df307463b25b6e935e0113bb98a7985fcf5da3d600080604051808381526020018215151515815260200180602001828103825260378152602001807f566572696669636174696f6e20616c72656164792068617070656e65642c207681526020017f6f746520636f756e74696e6720697320636c6f7365642e000000000000000000815250604001935050505060405180910390a15b5b565b6000809054906101000a900473ffffffffffffffffffffffffffffffffffffffff1673ffffffffffffffffffffffffffffffffffffffff163273ffffffffffffffffffffffffffffffffffffffff1614156121c05760003411151561201757600080fd5b61202182826143db565b601460009054906101000a900473ffffffffffffffffffffffffffffffffffffffff1673ffffffffffffffffffffffffffffffffffffffff1663724de97983836040518363ffffffff167c0100000000000000000000000000000000000000000000000000000000028152600401808373ffffffffffffffffffffffffffffffffffffffff1673ffffffffffffffffffffffffffffffffffffffff16815260200180602001828103825283818151815260200191508051906020019080838360005b838110156120fe5780820151818401526020810190506120e3565b50505050905090810190601f16801561212b5780820380516001836020036101000a031916815260200191505b509350505050600060405180830381600087803b151561214a57600080fd5b6102c65a03f1151561215b57600080fd5b50505061216781614863565b60018273ffffffffffffffffffffffffffffffffffffffff16311115156121bf578173ffffffffffffffffffffffffffffffffffffffff166108fc349081150290604051600060405180830381858888f19350505050505b5b5050565b6000600e60049054906101000a900460ff1615905090565b600080600b54600c54600d540101600460109054906101000a90046fffffffffffffffffffffffffffffffff16600360109054906101000a90046fffffffffffffffffffffffffffffffff16600460009054906101000a90046fffffffffffffffffffffffffffffffff16600560009054906101000a90046fffffffffffffffffffffffffffffffff160101016fffffffffffffffffffffffffffffffff1603905060008112156122ad577fffffffffffffffffffffffffffffffffffffffffffffffffffffffffffffffff810290505b8091505090565b6000600360009054906101000a90046fffffffffffffffffffffffffffffffff166fffffffffffffffffffffffffffffffff16905090565b60038060048111156122fa57fe5b600260003273ffffffffffffffffffffffffffffffffffffffff1673ffffffffffffffffffffffffffffffffffffffff16815260200190815260200160002060009054906101000a900460ff1660ff16600481111561235557fe5b600481111561236057fe5b14156123c75783600b8190555082600c8190555081600d819055507faeceb13618d1f91e300025c2eed9b7064b28e50e9624b49ea8c3f33fae6f5d7384848460405180848152602001838152602001828152602001935050505060405180910390a1612430565b7f367dccf700b76ac212780fb422c9b7569b12f28f39de0a0f8622641a83355ab16040518080602001828103825260148152602001807f556e617574686f72697a6564206163636573732e00000000000000000000000081525060200191505060405180910390a15b50505050565b600080600260003373ffffffffffffffffffffffffffffffffffffffff1673ffffffffffffffffffffffffffffffffffffffff16815260200190815260200160002060009054906101000a900460ff1660ff16600481111561249457fe5b905061249e6121c4565b1515612511577f367dccf700b76ac212780fb422c9b7569b12f28f39de0a0f8622641a83355ab16040518080602001828103825260198152602001807f566f74696e672053657373696f6e20697320636c6f7365642e0000000000000081525060200191505060405180910390a16128e8565b6003600481111561251e57fe5b81600481111561252a57fe5b14801561254957506000600e60009054906101000a900460ff1660ff16145b80612588575060048081111561255b57fe5b81600481111561256757fe5b14801561258757506000600e60009054906101000a900460ff1660ff1610155b5b1561285857600260003373ffffffffffffffffffffffffffffffffffffffff1673ffffffffffffffffffffffffffffffffffffffff16815260200190815260200160002060009054906101000a900460ff1660ff1660048111156125e857fe5b9150600360048111156125f757fe5b82600481111561260357fe5b141561269857600e600081819054906101000a900460ff168092919060010191906101000a81548160ff021916908360ff160217905550506001601160003373ffffffffffffffffffffffffffffffffffffffff1673ffffffffffffffffffffffffffffffffffffffff16815260200190815260200160002060006101000a81548160ff0219169083151502179055506127d9565b6004808111156126a457fe5b8260048111156126b057fe5b141561274557600e600181819054906101000a900460ff168092919060010191906101000a81548160ff021916908360ff160217905550506001601260003373ffffffffffffffffffffffffffffffffffffffff1673ffffffffffffffffffffffffffffffffffffffff16815260200190815260200160002060006101000a81548160ff0219169083151502179055506127d8565b7f367dccf700b76ac212780fb422c9b7569b12f28f39de0a0f8622641a83355ab16040518080602001828103825260218152602001807f556e616c6c6f77656420726f6c65206f722072756c652076696f6c6174696f6e81526020017f2e0000000000000000000000000000000000000000000000000000000000000081525060400191505060405180910390a1612853565b5b7f45cd18d769a210a633e8004aa52201726912d20a65e161dedd6650fb3058a3783383604051808373ffffffffffffffffffffffffffffffffffffffff1673ffffffffffffffffffffffffffffffffffffffff16815260200182600481111561283e57fe5b60ff1681526020019250505060405180910390a15b6128e7565b7f367dccf700b76ac212780fb422c9b7569b12f28f39de0a0f8622641a83355ab16040518080602001828103825260218152602001807f556e616c6c6f77656420726f6c65206f722072756c652076696f6c6174696f6e81526020017f2e0000000000000000000000000000000000000000000000000000000000000081525060400191505060405180910390a15b5b5050565b6128f46121c4565b1515612967577f367dccf700b76ac212780fb422c9b7569b12f28f39de0a0f8622641a83355ab16040518080602001828103825260128152602001807f53657373696f6e20697320636c6f7365642e000000000000000000000000000081525060200191505060405180910390a1612c7c565b601060009054906101000a900460ff161515612bd757600380600481111561298b57fe5b600260003273ffffffffffffffffffffffffffffffffffffffff1673ffffffffffffffffffffffffffffffffffffffff16815260200190815260200160002060009054906101000a900460ff1660ff1660048111156129e657fe5b60048111156129f157fe5b1415612b68576001601060026101000a81548160ff0219169083151502179055506004600081819054906101000a90046fffffffffffffffffffffffffffffffff168092919060010191906101000a8154816fffffffffffffffffffffffffffffffff02191690836fffffffffffffffffffffffffffffffff16021790555050601460009054906101000a900473ffffffffffffffffffffffffffffffffffffffff1673ffffffffffffffffffffffffffffffffffffffff166341c12a706040518163ffffffff167c0100000000000000000000000000000000000000000000000000000000028152600401600060405180830381600087803b1515612af657600080fd5b6102c65a03f11515612b0757600080fd5b5050507f87567035f0c5d3143998f3f50df307463b25b6e935e0113bb98a7985fcf5da3d60026001604051808381526020018215151515815260200180602001828103825260008152602001602001935050505060405180910390a1612bd1565b7f367dccf700b76ac212780fb422c9b7569b12f28f39de0a0f8622641a83355ab16040518080602001828103825260148152602001807f556e617574686f72697a6564206163636573732e00000000000000000000000081525060200191505060405180910390a15b50612c7b565b7f87567035f0c5d3143998f3f50df307463b25b6e935e0113bb98a7985fcf5da3d600080604051808381526020018215151515815260200180602001828103825260378152602001807f566572696669636174696f6e20616c72656164792068617070656e65642c207681526020017f6f746520636f756e74696e6720697320636c6f7365642e000000000000000000815250604001935050505060405180910390a15b5b565b612c866121c4565b1515612cf9577f367dccf700b76ac212780fb422c9b7569b12f28f39de0a0f8622641a83355ab16040518080602001828103825260128152602001807f53657373696f6e20697320636c6f7365642e000000000000000000000000000081525060200191505060405180910390a161300e565b601060009054906101000a900460ff161515612f69576003806004811115612d1d57fe5b600260003273ffffffffffffffffffffffffffffffffffffffff1673ffffffffffffffffffffffffffffffffffffffff16815260200190815260200160002060009054906101000a900460ff1660ff166004811115612d7857fe5b6004811115612d8357fe5b1415612efa576001601060026101000a81548160ff0219169083151502179055506004601081819054906101000a90046fffffffffffffffffffffffffffffffff168092919060010191906101000a8154816fffffffffffffffffffffffffffffffff02191690836fffffffffffffffffffffffffffffffff16021790555050601460009054906101000a900473ffffffffffffffffffffffffffffffffffffffff1673ffffffffffffffffffffffffffffffffffffffff16633ec3d5c46040518163ffffffff167c0100000000000000000000000000000000000000000000000000000000028152600401600060405180830381600087803b1515612e8857600080fd5b6102c65a03f11515612e9957600080fd5b5050507f87567035f0c5d3143998f3f50df307463b25b6e935e0113bb98a7985fcf5da3d60046001604051808381526020018215151515815260200180602001828103825260008152602001602001935050505060405180910390a1612f63565b7f367dccf700b76ac212780fb422c9b7569b12f28f39de0a0f8622641a83355ab16040518080602001828103825260148152602001807f556e617574686f72697a6564206163636573732e00000000000000000000000081525060200191505060405180910390a15b5061300d565b7f87567035f0c5d3143998f3f50df307463b25b6e935e0113bb98a7985fcf5da3d600080604051808381526020018215151515815260200180602001828103825260378152602001807f566572696669636174696f6e20616c72656164792068617070656e65642c207681526020017f6f746520636f756e74696e6720697320636c6f7365642e000000000000000000815250604001935050505060405180910390a15b5b565b600181565b6000806000600e60049054906101000a900460ff1615613103577f76159ff031441b48dca9d0fcd995632b18116259a9887cfe2c1ece27b8cf2113336000604051808373ffffffffffffffffffffffffffffffffffffffff1673ffffffffffffffffffffffffffffffffffffffff16815260200182151515158152602001806020018281038252602d8152602001807f43616e206f6e6c79207369676e206f666620647572696e67206f70656e20766f81526020017f74696e672073657373696f6e2e00000000000000000000000000000000000000815250604001935050505060405180910390a1613deb565b601060009054906101000a900460ff16151561311e57613deb565b6000601360003373ffffffffffffffffffffffffffffffffffffffff1673ffffffffffffffffffffffffffffffffffffffff1681526020019081526020016000205414151561323b577f76159ff031441b48dca9d0fcd995632b18116259a9887cfe2c1ece27b8cf2113336000604051808373ffffffffffffffffffffffffffffffffffffffff1673ffffffffffffffffffffffffffffffffffffffff1681526020018215151515815260200180602001828103825260218152602001807f5374616666206d656d6562657220616c7265616479207369676e6564206f666681526020017f2e00000000000000000000000000000000000000000000000000000000000000815250604001935050505060405180910390a1613deb565b600260003373ffffffffffffffffffffffffffffffffffffffff1673ffffffffffffffffffffffffffffffffffffffff16815260200190815260200160002060009054906101000a900460ff1660ff16600481111561329657fe5b90506004808111156132a457fe5b8160048111156132b057fe5b14801561330e575060011515601260003373ffffffffffffffffffffffffffffffffffffffff1673ffffffffffffffffffffffffffffffffffffffff16815260200190815260200160002060009054906101000a900460ff16151514155b156133e7577f76159ff031441b48dca9d0fcd995632b18116259a9887cfe2c1ece27b8cf2113336000604051808373ffffffffffffffffffffffffffffffffffffffff1673ffffffffffffffffffffffffffffffffffffffff1681526020018215151515815260200180602001828103825260248152602001807f4f6e6c79207369676e656420696e2054656c6c6572732063616e207369676e2081526020017f6f66662e00000000000000000000000000000000000000000000000000000000815250604001935050505060405180910390a1613deb565b600360048111156133f457fe5b81600481111561340057fe5b14801561345e575060011515601160003373ffffffffffffffffffffffffffffffffffffffff1673ffffffffffffffffffffffffffffffffffffffff16815260200190815260200160002060009054906101000a900460ff16151514155b15613537577f76159ff031441b48dca9d0fcd995632b18116259a9887cfe2c1ece27b8cf2113336000604051808373ffffffffffffffffffffffffffffffffffffffff1673ffffffffffffffffffffffffffffffffffffffff1681526020018215151515815260200180602001828103825260258152602001807f4f6e6c79207369676e656420696e2043686169726d656e2063616e207369676e81526020017f206f66662e000000000000000000000000000000000000000000000000000000815250604001935050505060405180910390a1613deb565b6003600481111561354457fe5b81600481111561355057fe5b1480156135805750600e60009054906101000a900460ff1660ff16600e60029054906101000a900460ff1660ff16105b801561359e57506000600e60019054906101000a900460ff1660ff16115b8061360b57506004808111156135b057fe5b8160048111156135bc57fe5b1480156135ec5750600e60019054906101000a900460ff1660ff16600e60039054906101000a900460ff1660ff16105b801561360a57506000600e60029054906101000a900460ff1660ff16145b5b15613cf457600260003373ffffffffffffffffffffffffffffffffffffffff1673ffffffffffffffffffffffffffffffffffffffff16815260200190815260200160002060009054906101000a900460ff1660ff16600481111561366b57fe5b915060048081111561367957fe5b82600481111561368557fe5b141561378b57600e600381819054906101000a900460ff168092919060010191906101000a81548160ff021916908360ff160217905550506001601360003373ffffffffffffffffffffffffffffffffffffffff1673ffffffffffffffffffffffffffffffffffffffff168152602001908152602001600020819055507f76159ff031441b48dca9d0fcd995632b18116259a9887cfe2c1ece27b8cf2113336001604051808373ffffffffffffffffffffffffffffffffffffffff1673ffffffffffffffffffffffffffffffffffffffff1681526020018215151515815260200180602001828103825260008152602001602001935050505060405180910390a1613cea565b6003600481111561379857fe5b8260048111156137a457fe5b1415613c3f57600e60039054906101000a900460ff1660ff16600e60019054906101000a900460ff1660ff16141515613889577f76159ff031441b48dca9d0fcd995632b18116259a9887cfe2c1ece27b8cf2113336000604051808373ffffffffffffffffffffffffffffffffffffffff1673ffffffffffffffffffffffffffffffffffffffff16815260200182151515158152602001806020018281038252601e8152602001807f416c6c2074656c6c657273206d757374207369676e6f66662066697273740000815250602001935050505060405180910390a160009250613cef565b60006138936121dc565b141580156138a357506005845111155b15613980577f76159ff031441b48dca9d0fcd995632b18116259a9887cfe2c1ece27b8cf2113336000604051808373ffffffffffffffffffffffffffffffffffffffff1673ffffffffffffffffffffffffffffffffffffffff1681526020018215151515815260200180602001828103825260398152602001807f596f752073686f756c6420737570706c7920616e206578706c616e6174696f6e81526020017f207768656e206120646576696174696f6e206f63637572732e00000000000000815250604001935050505060405180910390a160009250613cef565b608c84511115613a62577f76159ff031441b48dca9d0fcd995632b18116259a9887cfe2c1ece27b8cf2113336000604051808373ffffffffffffffffffffffffffffffffffffffff1673ffffffffffffffffffffffffffffffffffffffff16815260200182151515158152602001806020018281038252602a8152602001807f4578706c616e6174696f6e206973206c6f6e676572207468616e20313430206381526020017f6861726163746572732e00000000000000000000000000000000000000000000815250604001935050505060405180910390a160009250613cef565b6000613a6c6121dc565b141515613a8b5783600f9080519060200190613a899291906149c5565b505b600e600281819054906101000a900460ff168092919060010191906101000a81548160ff021916908360ff16021790555050600e60009054906101000a900460ff1660ff16600e60029054906101000a900460ff1660ff16101515613c3a576001600e60046101000a81548160ff0219169083151502179055506001601360003373ffffffffffffffffffffffffffffffffffffffff1673ffffffffffffffffffffffffffffffffffffffff168152602001908152602001600020819055507f76159ff031441b48dca9d0fcd995632b18116259a9887cfe2c1ece27b8cf2113336001604051808373ffffffffffffffffffffffffffffffffffffffff1673ffffffffffffffffffffffffffffffffffffffff1681526020018215151515815260200180602001828103825260008152602001602001935050505060405180910390a17f4636d8618be0c9ce1d54a3899392732cbf63446bdf72f5d0920a95657771e9ff30604051808273ffffffffffffffffffffffffffffffffffffffff1673ffffffffffffffffffffffffffffffffffffffff16815260200191505060405180910390a160019250613cef565b613ce9565b7f76159ff031441b48dca9d0fcd995632b18116259a9887cfe2c1ece27b8cf2113336000604051808373ffffffffffffffffffffffffffffffffffffffff1673ffffffffffffffffffffffffffffffffffffffff16815260200182151515158152602001806020018281038252600f8152602001807f526f6c652076696f6c6174696f6e2e0000000000000000000000000000000000815250602001935050505060405180910390a15b5b600092505b613dea565b7f76159ff031441b48dca9d0fcd995632b18116259a9887cfe2c1ece27b8cf2113336000604051808373ffffffffffffffffffffffffffffffffffffffff1673ffffffffffffffffffffffffffffffffffffffff1681526020018215151515815260200180602001828103825260528152602001807f416c6c2054656c6c657273206d757374207369676e206f66662c207468656e2081526020017f63686169726d616e2063616e207369676e206f66662e204e6f206f746865722081526020017f726f6c652063616e207369676e206f66662e0000000000000000000000000000815250606001935050505060405180910390a15b5b5050919050565b601460009054906101000a900473ffffffffffffffffffffffffffffffffffffffff1681565b600080600080600080600080600080600080600654600954600754600854600a54600b54600d54600c54600360109054906101000a90046fffffffffffffffffffffffffffffffff16600460009054906101000a90046fffffffffffffffffffffffffffffffff16600560009054906101000a90046fffffffffffffffffffffffffffffffff16600460109054906101000a90046fffffffffffffffffffffffffffffffff16836fffffffffffffffffffffffffffffffff169350826fffffffffffffffffffffffffffffffff169250816fffffffffffffffffffffffffffffffff169150806fffffffffffffffffffffffffffffffff1690509b509b509b509b509b509b509b509b509b509b509b509b50909192939495969798999a9b565b613f406121c4565b1515613fb3577f367dccf700b76ac212780fb422c9b7569b12f28f39de0a0f8622641a83355ab16040518080602001828103825260128152602001807f53657373696f6e20697320636c6f7365642e000000000000000000000000000081525060200191505060405180910390a16142c8565b601060009054906101000a900460ff161515614223576003806004811115613fd757fe5b600260003273ffffffffffffffffffffffffffffffffffffffff1673ffffffffffffffffffffffffffffffffffffffff16815260200190815260200160002060009054906101000a900460ff1660ff16600481111561403257fe5b600481111561403d57fe5b14156141b4576001601060026101000a81548160ff0219169083151502179055506005600081819054906101000a90046fffffffffffffffffffffffffffffffff168092919060010191906101000a8154816fffffffffffffffffffffffffffffffff02191690836fffffffffffffffffffffffffffffffff16021790555050601460009054906101000a900473ffffffffffffffffffffffffffffffffffffffff1673ffffffffffffffffffffffffffffffffffffffff1663cd7553416040518163ffffffff167c0100000000000000000000000000000000000000000000000000000000028152600401600060405180830381600087803b151561414257600080fd5b6102c65a03f1151561415357600080fd5b5050507f87567035f0c5d3143998f3f50df307463b25b6e935e0113bb98a7985fcf5da3d60036001604051808381526020018215151515815260200180602001828103825260008152602001602001935050505060405180910390a161421d565b7f367dccf700b76ac212780fb422c9b7569b12f28f39de0a0f8622641a83355ab16040518080602001828103825260148152602001807f556e617574686f72697a6564206163636573732e00000000000000000000000081525060200191505060405180910390a15b506142c7565b7f87567035f0c5d3143998f3f50df307463b25b6e935e0113bb98a7985fcf5da3d600080604051808381526020018215151515815260200180602001828103825260378152602001807f566572696669636174696f6e20616c72656164792068617070656e65642c207681526020017f6f746520636f756e74696e6720697320636c6f7365642e000000000000000000815250604001935050505060405180910390a15b5b565b6000600260003273ffffffffffffffffffffffffffffffffffffffff1673ffffffffffffffffffffffffffffffffffffffff16815260200190815260200160002060009054906101000a900460ff1660ff16600481111561432757fe5b905090565b6000600e60019054906101000a900460ff16905090565b600080600e60039054906101000a900460ff1660ff161180156143895750600e60039054906101000a900460ff1660ff16600e60019054906101000a900460ff1660ff16145b80156143a757506000600e60029054906101000a900460ff1660ff16115b80156143d65750600e60009054906101000a900460ff1660ff16600e60029054906101000a900460ff1660ff16145b905090565b60008060009054906101000a900473ffffffffffffffffffffffffffffffffffffffff1673ffffffffffffffffffffffffffffffffffffffff163273ffffffffffffffffffffffffffffffffffffffff16141561485e57600160009054906101000a900473ffffffffffffffffffffffffffffffffffffffff1673ffffffffffffffffffffffffffffffffffffffff1663b8c51067836000604051602001526040518263ffffffff167c01000000000000000000000000000000000000000000000000000000000281526004018080602001828103825283818151815260200191508051906020019080838360005b838110156144e55780820151818401526020810190506144ca565b50505050905090810190601f1680156145125780820380516001836020036101000a031916815260200191505b5092505050602060405180830381600087803b151561453057600080fd5b6102c65a03f1151561454157600080fd5b5050506040518051905060ff16600481111561455957fe5b90506000600481111561456857fe5b81600481111561457457fe5b118015614597575060048081111561458857fe5b81600481111561459457fe5b11155b15614730578060048111156145a857fe5b600260008573ffffffffffffffffffffffffffffffffffffffff1673ffffffffffffffffffffffffffffffffffffffff16815260200190815260200160002060006101000a81548160ff021916908360ff1602179055507fe0002dd72fe0d21c584dfb23d23de71a96770c70d5b244275f416a35df6b29726001838584604051808515151515815260200180602001806020018573ffffffffffffffffffffffffffffffffffffffff1673ffffffffffffffffffffffffffffffffffffffff16815260200184600481111561467957fe5b60ff1681526020018381038352600a8152602001807f5573657220416464656400000000000000000000000000000000000000000000815250602001838103825286818151815260200191508051906020019080838360005b838110156146ed5780820151818401526020810190506146d2565b50505050905090810190601f16801561471a5780820380516001836020036101000a031916815260200191505b50965050505050505060405180910390a161485d565b7fe0002dd72fe0d21c584dfb23d23de71a96770c70d5b244275f416a35df6b29726000838584604051808515151515815260200180602001806020018573ffffffffffffffffffffffffffffffffffffffff1673ffffffffffffffffffffffffffffffffffffffff1681526020018460048111156147aa57fe5b60ff168152602001838103835260148152602001807f55736572204372656174696f6e204661696c6564000000000000000000000000815250602001838103825286818151815260200191508051906020019080838360005b8381101561481e578082015181840152602081019050614803565b50505050905090810190601f16801561484b5780820380516001836020036101000a031916815260200191505b50965050505050505060405180910390a15b5b505050565b6000809054906101000a900473ffffffffffffffffffffffffffffffffffffffff1673ffffffffffffffffffffffffffffffffffffffff163273ffffffffffffffffffffffffffffffffffffffff1614156149c257600160009054906101000a900473ffffffffffffffffffffffffffffffffffffffff1673ffffffffffffffffffffffffffffffffffffffff16634af57033826040518263ffffffff167c01000000000000000000000000000000000000000000000000000000000281526004018080602001828103825283818151815260200191508051906020019080838360005b83811015614962578082015181840152602081019050614947565b50505050905090810190601f16801561498f5780820380516001836020036101000a031916815260200191505b5092505050600060405180830381600087803b15156149ad57600080fd5b6102c65a03f115156149be57600080fd5b5050505b50565b828054600181600116156101000203166002900490600052602060002090601f016020900481019282601f10614a0657805160ff1916838001178555614a34565b82800160010185558215614a34579182015b82811115614a33578251825591602001919060010190614a18565b5b509050614a419190614a45565b5090565b614a6791905b80821115614a63576000816000905550600101614a4b565b5090565b905600a165627a7a72305820ccc8a95a3488ba86b5e780e5967c3088f154bb03452614c92bc6b59674ad29380029",
  "source": "pragma solidity ^0.4.19;\r\n\r\nimport \"./permissions.sol\";\r\nimport \"./municipality.sol\";\r\n\r\ncontract PollingStation is Permissions {\r\n    \r\n    //Voting data\r\n    uint128 private votingRound = 0;\r\n    uint128 private yesLocal = 0;\r\n    uint128 private noLocal = 0;\r\n    uint128 private invalidLocal = 0;\r\n    uint128 private blankLocal = 0;\r\n    \r\n    //Voter Registration\r\n    uint private scannedPollingCardCount = 0;\r\n    uint private scannedPowerOfAttorneyCount = 0;\r\n    uint private registeredPowerOfAttorneyCount = 0;\r\n    uint private registeredVoterPassCount = 0;\r\n    uint private registeredObjectionCount = 0;\r\n    \r\n    //Control Numbers\r\n    uint private collectedPollingCardCount = 0;\r\n    uint private collectedPowerOfAttorneyCount = 0;\r\n    uint private collectedVoterPassCount = 0;\r\n    \r\n    //Access control\r\n    uint8 private signedInChairmenCount = 0;\r\n    uint8 private signedInTellerCount = 0;\r\n    uint8 private signedOffChairmenCount = 0;\r\n    uint8 private signedOffTellerCount = 0;\r\n    bool private votingSessionClosed = true;\r\n    string private deviationExplanation;\r\n    bool private verificationSuccessful = false;\r\n    bool private needsRecount = true;\r\n    bool private beganCounting = false;\r\n    \r\n    //Mappings\r\n    mapping (address => bool) private signedInChairmen;\r\n    mapping (address => bool) private signedInTellers;\r\n    mapping (address => uint256) private signedOffStaff;\r\n    \r\n    Municipality public munContract;\r\n    \r\n    event VoterAlreadyRecorded(bytes32 qrCodeHash);\r\n    event VoterCleared(bytes32 qrCodeHash);\r\n    event UserSignedIn(address userAddress, Role role);\r\n    event UserSignedOut(address userAddress, Role role);\r\n    event VotingFinished(address pollingStation);\r\n    event StaffSignedOff(address staff);\r\n    event SignedOff(address staff, bool success, string message);\r\n    event VerificationDone(bool success, string message, bool needsRecount, bool yes, bool no, bool blank, bool invalid);\r\n    event ControlNumbersAdded(uint256 pollingCards, uint256 powerOfAttorneys, uint256 voterPasses);\r\n    event VotingSessionBegan(address pollingStation);\r\n    event VoteCounted(uint voteCode, bool success, string message);\r\n    \r\n    function PollingStation(address mAddress, address uacAddress) Permissions(uacAddress) public {\r\n        munContract = Municipality(mAddress);\r\n        munContract.enrollPollStation();\r\n    }\r\n\r\n    modifier _noRevote(bytes32 qrCodeHash) {\r\n        if (munContract.userVoted(qrCodeHash)) {\r\n            VoterAlreadyRecorded(qrCodeHash);\r\n        } else {\r\n            VoterCleared(qrCodeHash);\r\n            _;\r\n        }\r\n    }\r\n    \r\n    modifier _isSessionOpen() {\r\n        if (!isSessionOpen()) {\r\n            NotAllowed(\"Session is closed.\");\r\n        } else {\r\n            _;\r\n        }\r\n    }\r\n\r\n    modifier _isNotVerified() {\r\n        if (!verificationSuccessful) {\r\n            _;\r\n        } else {\r\n            VoteCounted(0, false, \"Verification already happened, vote counting is closed.\");\r\n        }\r\n    }\r\n    \r\n    modifier _canSignIn() {\r\n        Role currRole = Role(roles[msg.sender]);\r\n        \r\n        if (!isSessionOpen()) {\r\n            NotAllowed(\"Voting Session is closed.\");\r\n            return;\r\n        }\r\n        \r\n        if ((currRole == Role.Chairman && signedInChairmenCount == 0) || (currRole == Role.Teller && signedInChairmenCount >= 0)) {\r\n            _;\r\n        } else {\r\n            NotAllowed(\"Unallowed role or rule violation.\");\r\n        }\r\n    }\r\n    \r\n    modifier _canSignOut() {\r\n        Role currRole = Role(roles[msg.sender]);\r\n        \r\n        if ((currRole == Role.Chairman && signedInChairmenCount > 0 && signedInTellerCount <= 0 && votingSessionClosed) || \r\n            (currRole == Role.Teller && (signedInTellerCount > 1 || votingSessionClosed))) {\r\n            _;\r\n        } else {\r\n            NotAllowed(\"Unallowed role or rule violation.\");\r\n        }\r\n    }\r\n    \r\n    modifier _canSessionStart() {\r\n        \r\n        if (block.timestamp > VOTING_START_TIMESTAMP && votingSessionClosed && !verificationSuccessful) {\r\n            _;\r\n        } else {\r\n            NotAllowed(\"Not allowed before official start date.\");\r\n        }\r\n        \r\n    }\r\n    \r\n    modifier _canSignOff() {\r\n        if (votingSessionClosed) {\r\n            SignedOff(msg.sender, false, \"Can only sign off during open voting session.\");\r\n            return;\r\n        }\r\n        \r\n        if (!verificationSuccessful) {\r\n            return;\r\n        }\r\n        \r\n        if (signedOffStaff[msg.sender] != 0) {\r\n            SignedOff(msg.sender, false, \"Staff memeber already signed off.\");\r\n            return;\r\n        }\r\n        \r\n        Role currRole = Role(roles[msg.sender]);\r\n        \r\n        if (currRole == Role.Teller && signedInTellers[msg.sender] != true) {\r\n            SignedOff(msg.sender, false, \"Only signed in Tellers can sign off.\");\r\n            return;\r\n        }\r\n        \r\n        if (currRole == Role.Chairman && signedInChairmen[msg.sender] != true) {\r\n            SignedOff(msg.sender, false, \"Only signed in Chairmen can sign off.\");\r\n            return;\r\n        }\r\n        \r\n        if ((currRole == Role.Chairman && signedOffChairmenCount < signedInChairmenCount && signedInTellerCount > 0) || \r\n            (currRole == Role.Teller && signedOffTellerCount < signedInTellerCount && signedOffChairmenCount == 0)) {\r\n            _;\r\n        } else {\r\n            SignedOff(msg.sender, false, \"All Tellers must sign off, then chairman can sign off. No other role can sign off.\");\r\n        }\r\n    }\r\n    \r\n    function getMunicipalityAddress() public view returns (address municipalityAddress) {\r\n        return munContract;\r\n    }\r\n    \r\n    // this will record the roles locally and into the municipality\r\n    function setUserRole(address user, string email) public _isOwner() payable {\r\n        require(msg.value > 0);\r\n        super.setUserRole(user, email);\r\n        munContract.setUserRole(user, email);\r\n        super.setUsedEmail(email);\r\n        if (user.balance <= 1) {\r\n            user.send(msg.value);\r\n        }    \r\n    }\r\n    \r\n    function isSessionOpen() public view returns (bool) {\r\n        return !votingSessionClosed;\r\n    }\r\n    \r\n    function signIn() public _canSignIn() {\r\n        Role role = Role(roles[msg.sender]);\r\n        \r\n        if (role == Role.Chairman) {\r\n            signedInChairmenCount++;\r\n            signedInChairmen[msg.sender] = true;\r\n        } else if (role == Role.Teller) {\r\n            signedInTellerCount++;\r\n            signedInTellers[msg.sender] = true;\r\n        } else {\r\n            NotAllowed(\"Unallowed role or rule violation.\");\r\n            return;\r\n        }\r\n        \r\n        UserSignedIn(msg.sender, role);\r\n    }\r\n\r\n    function getSignedInTellers() public view returns(uint8) {\r\n        return signedInTellerCount;\r\n    }\r\n    \r\n    function signOut() public _canSignOut { \r\n        \r\n        Role role = Role(roles[msg.sender]);\r\n        \r\n        if (role == Role.Chairman) {\r\n            signedInChairmenCount--;\r\n            signedInChairmen[msg.sender] = false;\r\n        } else if (role == Role.Teller) {\r\n            signedInTellerCount--;\r\n            signedInTellers[msg.sender] = false;\r\n        } else {\r\n            NotAllowed(\"Unallowed role or rule violation.\");\r\n            return;\r\n        }\r\n        \r\n        UserSignedOut(msg.sender, role);\r\n    }\r\n    \r\n    function beginVotingSession() public _isOwner _canSessionStart() {\r\n        votingSessionClosed = false;\r\n        needsRecount = false;\r\n        votingRound++;\r\n        VotingSessionBegan(this);\r\n    }\r\n    \r\n    function recordVoter(bytes32 qrCodeHash, VoterType voterType) public _verifyRole(Role.Chairman) _noRevote(qrCodeHash) returns(bool) {\r\n        if (voterType <= VoterType.Unspecified || voterType > VoterType.Objection) {\r\n            NotAllowed(\"Invalid voter type.\");\r\n            return false;\r\n        }\r\n        \r\n        bool success = munContract.recordVoter(qrCodeHash, voterType);\r\n        if (!success) {\r\n            return false;\r\n        }\r\n        \r\n        if (voterType == VoterType.PollingCard) {\r\n            scannedPollingCardCount++;\r\n        } else if (voterType == VoterType.PowerOfAttorneyPollingCard) {\r\n            scannedPowerOfAttorneyCount++;\r\n        } else if (voterType == VoterType.PowerOfAttorney) {\r\n            registeredPowerOfAttorneyCount++;\r\n        } else if (voterType == VoterType.VoterPass) {\r\n            registeredVoterPassCount++;\r\n        } else if (voterType == VoterType.Objection) {\r\n            registeredObjectionCount++;\r\n        }\r\n        \r\n        return true;\r\n    }\r\n    \r\n    function getReport() public view returns (uint scannedPollingCards, uint registeredVoterPasses, uint scannedPowerOfAttorneys, uint registeredPowerOfAttorneys, uint registeredObjections, uint collectedPollingCards, uint collectedVoterPasses, uint collectedPowerOfAttorneys, uint yes, uint no, uint blank, uint invalid) {\r\n        return (scannedPollingCardCount, registeredVoterPassCount, scannedPowerOfAttorneyCount, registeredPowerOfAttorneyCount, registeredObjectionCount, collectedPollingCardCount, collectedVoterPassCount, collectedPowerOfAttorneyCount, yesLocal, noLocal, blankLocal, invalidLocal);\r\n    }\r\n    \r\n    function yes() public _isSessionOpen() _isNotVerified() _verifyRole(Role.Chairman) {\r\n        beganCounting = true;\r\n        yesLocal++;\r\n        munContract.voteYes();\r\n        VoteCounted(1, true, \"\");\r\n    }\r\n    \r\n    function no() public _isSessionOpen() _isNotVerified() _verifyRole(Role.Chairman) {\r\n        beganCounting = true;\r\n        noLocal++;\r\n        munContract.voteNo();\r\n        VoteCounted(2, true, \"\");\r\n    }\r\n    \r\n    function blank() public _isSessionOpen() _isNotVerified() _verifyRole(Role.Chairman) {\r\n        beganCounting = true;\r\n        blankLocal++;\r\n        munContract.voteBlank();\r\n        VoteCounted(3, true, \"\");\r\n    }\r\n    \r\n    function invalid() public _isSessionOpen() _isNotVerified() _verifyRole(Role.Chairman) {\r\n        beganCounting = true;\r\n        invalidLocal++;\r\n        munContract.voteInvalid();\r\n        VoteCounted(4, true, \"\");\r\n    }\r\n    \r\n    function getVerification() public view returns (bool) {\r\n        return verificationSuccessful;\r\n    }\r\n    \r\n    function getVotingRound() public view returns (uint) {\r\n        return votingRound;\r\n    }\r\n    \r\n    function recount() public _verifyRole(Role.Chairman) {\r\n        munContract.recount();\r\n        votingRound++;\r\n        yesLocal = 0;\r\n        noLocal = 0;\r\n        blankLocal = 0;\r\n        invalidLocal = 0;\r\n        needsRecount = false;\r\n    }\r\n    \r\n    function inputControlNumbers(uint pollingCards, uint powerOfAttorneys, uint voterPasses) public _verifyRole(Role.Chairman) {\r\n        collectedPollingCardCount = pollingCards;\r\n        collectedPowerOfAttorneyCount = powerOfAttorneys;\r\n        collectedVoterPassCount = voterPasses;\r\n        ControlNumbersAdded(pollingCards, powerOfAttorneys, voterPasses);\r\n    }\r\n    \r\n    function verifyVotes(uint yesCount, uint noCount, uint blankCount, uint invalidCount) public _verifyRole(Role.Chairman) {\r\n        if (verificationSuccessful) {\r\n            VerificationDone(verificationSuccessful, \"Verification already happened and it was successful. Input disregarded.\", false, false, false, false, false);\r\n            return;\r\n        }\r\n        \r\n        if (needsRecount) {\r\n            VerificationDone(verificationSuccessful, \"Recount necessary before new verification attempt.\", needsRecount, false, false, false, false);\r\n            return;\r\n        }\r\n        \r\n        if (!beganCounting) {\r\n            VerificationDone(verificationSuccessful, \"Counting must begin first.\", true, false, false, false, false);\r\n            return;\r\n        }\r\n        \r\n        beganCounting = false;\r\n        bool yesVerified = (yesCount == yesLocal);\r\n        bool noVerified = (noCount == noLocal);\r\n        bool blankVerified = (blankCount == blankLocal);\r\n        bool invalidVerified = (invalidCount == invalidLocal);\r\n        if (yesVerified && noVerified && blankVerified && invalidVerified) {\r\n            verificationSuccessful = true;\r\n            VerificationDone(verificationSuccessful, \"\", needsRecount, yesVerified, noVerified, blankVerified, invalidVerified);\r\n        } else {\r\n            needsRecount = true;\r\n            VerificationDone(verificationSuccessful, \"Needs Recount.\", needsRecount, yesVerified, noVerified, blankVerified, invalidVerified);\r\n        }\r\n    }\r\n    \r\n    // Returns the deviation of all votes against the number of collected cards\r\n    function getDeviation() public view returns (uint) {\r\n        int deviation = int(blankLocal + noLocal + yesLocal + invalidLocal) - int(collectedVoterPassCount + collectedPowerOfAttorneyCount + collectedPollingCardCount);\r\n        \r\n        if (deviation < 0) {\r\n            deviation = deviation * -1;\r\n        }\r\n        \r\n        return uint(deviation);\r\n    }\r\n    \r\n    function signOff(string explanation) public _canSignOff() returns(bool) {       \r\n        Role role = Role(roles[msg.sender]);\r\n        if (role == Role.Teller) {\r\n            signedOffTellerCount++;\r\n            signedOffStaff[msg.sender] = 1;\r\n            SignedOff(msg.sender, true, \"\");\r\n        } else if (role == Role.Chairman) {\r\n            if (signedInTellerCount != signedOffTellerCount) {\r\n                SignedOff(msg.sender, false, \"All tellers must signoff first\");\r\n                return false;\r\n            }\r\n            if (getDeviation() != 0 && bytes(explanation).length <= 5) {\r\n                SignedOff(msg.sender, false, \"You should supply an explanation when a deviation occurs.\");\r\n                return false;\r\n            }\r\n\r\n            if (bytes(explanation).length > 140) {\r\n                SignedOff(msg.sender, false, \"Explanation is longer than 140 characters.\");\r\n                return false;\r\n            } else if (getDeviation() != 0) {\r\n                deviationExplanation = explanation;\r\n            }\r\n            signedOffChairmenCount++;\r\n            if (signedOffChairmenCount >= signedInChairmenCount) {\r\n                votingSessionClosed = true;\r\n                signedOffStaff[msg.sender] = 1;\r\n                SignedOff(msg.sender, true, \"\");\r\n                VotingFinished(this);\r\n                return true;\r\n            }\r\n        } else {\r\n            SignedOff(msg.sender, false, \"Role violation.\");\r\n        }\r\n        return false;                \r\n    }\r\n\r\n    function canSubmit() public view returns (bool) {\r\n        return signedOffTellerCount > 0 && signedInTellerCount == signedOffTellerCount && signedOffChairmenCount > 0 && signedOffChairmenCount == signedInChairmenCount;\r\n    }\r\n}",
  "sourcePath": "D:\\LAB15\\git\\CountingVotes\\ps-blockchain\\contracts\\pollingstation.sol",
  "compiler": {
    "name": "solc",
    "version": "0.4.19+commit.c4cbbb05.Emscripten.clang"
  },
  "schemaVersion": "2.0.0",
  "updatedAt": "2018-03-16T08:46:17.732Z"
}