{
  "contractName": "PollingStation",
  "abi": [
    {
      "constant": true,
      "inputs": [],
      "name": "getUacAddress",
      "outputs": [
        {
          "name": "userActivationAddress",
          "type": "address"
        }
      ],
      "payable": false,
      "stateMutability": "view",
      "type": "function"
    },
    {
      "constant": true,
      "inputs": [],
      "name": "VOTING_START_TIMESTAMP",
      "outputs": [
        {
          "name": "",
          "type": "uint256"
        }
      ],
      "payable": false,
      "stateMutability": "view",
      "type": "function"
    },
    {
      "constant": true,
      "inputs": [],
      "name": "munContract",
      "outputs": [
        {
          "name": "",
          "type": "address"
        }
      ],
      "payable": false,
      "stateMutability": "view",
      "type": "function"
    },
    {
      "constant": true,
      "inputs": [],
      "name": "getRole",
      "outputs": [
        {
          "name": "",
          "type": "uint8"
        }
      ],
      "payable": false,
      "stateMutability": "view",
      "type": "function"
    },
    {
      "inputs": [
        {
          "name": "mAddress",
          "type": "address"
        },
        {
          "name": "uacAddress",
          "type": "address"
        }
      ],
      "payable": false,
      "stateMutability": "nonpayable",
      "type": "constructor"
    },
    {
      "anonymous": false,
      "inputs": [
        {
          "indexed": false,
          "name": "qrCodeHash",
          "type": "bytes32"
        }
      ],
      "name": "VoterAlreadyRecorded",
      "type": "event"
    },
    {
      "anonymous": false,
      "inputs": [
        {
          "indexed": false,
          "name": "qrCodeHash",
          "type": "bytes32"
        }
      ],
      "name": "VoterCleared",
      "type": "event"
    },
    {
      "anonymous": false,
      "inputs": [
        {
          "indexed": false,
          "name": "userAddress",
          "type": "address"
        },
        {
          "indexed": false,
          "name": "role",
          "type": "uint8"
        }
      ],
      "name": "UserSignedIn",
      "type": "event"
    },
    {
      "anonymous": false,
      "inputs": [
        {
          "indexed": false,
          "name": "success",
          "type": "bool"
        },
        {
          "indexed": false,
          "name": "message",
          "type": "string"
        },
        {
          "indexed": false,
          "name": "userAddress",
          "type": "address"
        },
        {
          "indexed": false,
          "name": "role",
          "type": "uint8"
        }
      ],
      "name": "UserSignedOut",
      "type": "event"
    },
    {
      "anonymous": false,
      "inputs": [
        {
          "indexed": false,
          "name": "pollingStation",
          "type": "address"
        }
      ],
      "name": "VotingFinished",
      "type": "event"
    },
    {
      "anonymous": false,
      "inputs": [
        {
          "indexed": false,
          "name": "staff",
          "type": "address"
        }
      ],
      "name": "StaffSignedOff",
      "type": "event"
    },
    {
      "anonymous": false,
      "inputs": [
        {
          "indexed": false,
          "name": "staff",
          "type": "address"
        },
        {
          "indexed": false,
          "name": "success",
          "type": "bool"
        },
        {
          "indexed": false,
          "name": "message",
          "type": "string"
        }
      ],
      "name": "SignedOff",
      "type": "event"
    },
    {
      "anonymous": false,
      "inputs": [
        {
          "indexed": false,
          "name": "success",
          "type": "bool"
        },
        {
          "indexed": false,
          "name": "message",
          "type": "string"
        },
        {
          "indexed": false,
          "name": "needsRecount",
          "type": "bool"
        },
        {
          "indexed": false,
          "name": "yes",
          "type": "bool"
        },
        {
          "indexed": false,
          "name": "no",
          "type": "bool"
        },
        {
          "indexed": false,
          "name": "blank",
          "type": "bool"
        },
        {
          "indexed": false,
          "name": "invalid",
          "type": "bool"
        }
      ],
      "name": "VerificationDone",
      "type": "event"
    },
    {
      "anonymous": false,
      "inputs": [
        {
          "indexed": false,
          "name": "pollingCards",
          "type": "uint256"
        },
        {
          "indexed": false,
          "name": "powerOfAttorneys",
          "type": "uint256"
        },
        {
          "indexed": false,
          "name": "voterPasses",
          "type": "uint256"
        }
      ],
      "name": "ControlNumbersAdded",
      "type": "event"
    },
    {
      "anonymous": false,
      "inputs": [
        {
          "indexed": false,
          "name": "pollingStation",
          "type": "address"
        }
      ],
      "name": "VotingSessionBegan",
      "type": "event"
    },
    {
      "anonymous": false,
      "inputs": [
        {
          "indexed": false,
          "name": "voteCode",
          "type": "uint256"
        },
        {
          "indexed": false,
          "name": "success",
          "type": "bool"
        },
        {
          "indexed": false,
          "name": "message",
          "type": "string"
        }
      ],
      "name": "VoteCounted",
      "type": "event"
    },
    {
      "anonymous": false,
      "inputs": [
        {
          "indexed": false,
          "name": "success",
          "type": "bool"
        },
        {
          "indexed": false,
          "name": "message",
          "type": "string"
        },
        {
          "indexed": false,
          "name": "email",
          "type": "string"
        },
        {
          "indexed": false,
          "name": "userAddress",
          "type": "address"
        },
        {
          "indexed": false,
          "name": "role",
          "type": "uint8"
        }
      ],
      "name": "UserAdded",
      "type": "event"
    },
    {
      "anonymous": false,
      "inputs": [
        {
          "indexed": false,
          "name": "uAddress",
          "type": "address"
        },
        {
          "indexed": false,
          "name": "email",
          "type": "string"
        }
      ],
      "name": "UserCreationFailed",
      "type": "event"
    },
    {
      "anonymous": false,
      "inputs": [
        {
          "indexed": false,
          "name": "message",
          "type": "string"
        }
      ],
      "name": "NotAllowed",
      "type": "event"
    },
    {
      "constant": true,
      "inputs": [],
      "name": "getMunicipalityAddress",
      "outputs": [
        {
          "name": "municipalityAddress",
          "type": "address"
        }
      ],
      "payable": false,
      "stateMutability": "view",
      "type": "function"
    },
    {
      "constant": false,
      "inputs": [
        {
          "name": "user",
          "type": "address"
        },
        {
          "name": "email",
          "type": "string"
        }
      ],
      "name": "setUserRole",
      "outputs": [],
      "payable": true,
      "stateMutability": "payable",
      "type": "function"
    },
    {
      "constant": true,
      "inputs": [],
      "name": "isSessionOpen",
      "outputs": [
        {
          "name": "",
          "type": "bool"
        }
      ],
      "payable": false,
      "stateMutability": "view",
      "type": "function"
    },
    {
      "constant": false,
      "inputs": [],
      "name": "signIn",
      "outputs": [],
      "payable": false,
      "stateMutability": "nonpayable",
      "type": "function"
    },
    {
      "constant": true,
      "inputs": [],
      "name": "getSignedInTellers",
      "outputs": [
        {
          "name": "",
          "type": "uint8"
        }
      ],
      "payable": false,
      "stateMutability": "view",
      "type": "function"
    },
    {
      "constant": false,
      "inputs": [],
      "name": "signOut",
      "outputs": [],
      "payable": false,
      "stateMutability": "nonpayable",
      "type": "function"
    },
    {
      "constant": false,
      "inputs": [],
      "name": "beginVotingSession",
      "outputs": [],
      "payable": false,
      "stateMutability": "nonpayable",
      "type": "function"
    },
    {
      "constant": false,
      "inputs": [
        {
          "name": "qrCodeHash",
          "type": "bytes32"
        },
        {
          "name": "voterType",
          "type": "uint8"
        }
      ],
      "name": "recordVoter",
      "outputs": [
        {
          "name": "",
          "type": "bool"
        }
      ],
      "payable": false,
      "stateMutability": "nonpayable",
      "type": "function"
    },
    {
      "constant": true,
      "inputs": [],
      "name": "getReport",
      "outputs": [
        {
          "name": "scannedPollingCards",
          "type": "uint256"
        },
        {
          "name": "registeredVoterPasses",
          "type": "uint256"
        },
        {
          "name": "scannedPowerOfAttorneys",
          "type": "uint256"
        },
        {
          "name": "registeredPowerOfAttorneys",
          "type": "uint256"
        },
        {
          "name": "registeredObjections",
          "type": "uint256"
        },
        {
          "name": "collectedPollingCards",
          "type": "uint256"
        },
        {
          "name": "collectedVoterPasses",
          "type": "uint256"
        },
        {
          "name": "collectedPowerOfAttorneys",
          "type": "uint256"
        },
        {
          "name": "yes",
          "type": "uint256"
        },
        {
          "name": "no",
          "type": "uint256"
        },
        {
          "name": "blank",
          "type": "uint256"
        },
        {
          "name": "invalid",
          "type": "uint256"
        }
      ],
      "payable": false,
      "stateMutability": "view",
      "type": "function"
    },
    {
      "constant": false,
      "inputs": [],
      "name": "yes",
      "outputs": [],
      "payable": false,
      "stateMutability": "nonpayable",
      "type": "function"
    },
    {
      "constant": false,
      "inputs": [],
      "name": "no",
      "outputs": [],
      "payable": false,
      "stateMutability": "nonpayable",
      "type": "function"
    },
    {
      "constant": false,
      "inputs": [],
      "name": "blank",
      "outputs": [],
      "payable": false,
      "stateMutability": "nonpayable",
      "type": "function"
    },
    {
      "constant": false,
      "inputs": [],
      "name": "invalid",
      "outputs": [],
      "payable": false,
      "stateMutability": "nonpayable",
      "type": "function"
    },
    {
      "constant": true,
      "inputs": [],
      "name": "getVerification",
      "outputs": [
        {
          "name": "",
          "type": "bool"
        }
      ],
      "payable": false,
      "stateMutability": "view",
      "type": "function"
    },
    {
      "constant": true,
      "inputs": [],
      "name": "getVotingRound",
      "outputs": [
        {
          "name": "",
          "type": "uint256"
        }
      ],
      "payable": false,
      "stateMutability": "view",
      "type": "function"
    },
    {
      "constant": false,
      "inputs": [],
      "name": "recount",
      "outputs": [],
      "payable": false,
      "stateMutability": "nonpayable",
      "type": "function"
    },
    {
      "constant": false,
      "inputs": [
        {
          "name": "pollingCards",
          "type": "uint256"
        },
        {
          "name": "powerOfAttorneys",
          "type": "uint256"
        },
        {
          "name": "voterPasses",
          "type": "uint256"
        }
      ],
      "name": "inputControlNumbers",
      "outputs": [],
      "payable": false,
      "stateMutability": "nonpayable",
      "type": "function"
    },
    {
      "constant": false,
      "inputs": [
        {
          "name": "yesCount",
          "type": "uint256"
        },
        {
          "name": "noCount",
          "type": "uint256"
        },
        {
          "name": "blankCount",
          "type": "uint256"
        },
        {
          "name": "invalidCount",
          "type": "uint256"
        }
      ],
      "name": "verifyVotes",
      "outputs": [],
      "payable": false,
      "stateMutability": "nonpayable",
      "type": "function"
    },
    {
      "constant": true,
      "inputs": [],
      "name": "getDeviation",
      "outputs": [
        {
          "name": "",
          "type": "uint256"
        }
      ],
      "payable": false,
      "stateMutability": "view",
      "type": "function"
    },
    {
      "constant": false,
      "inputs": [
        {
          "name": "explanation",
          "type": "string"
        }
      ],
      "name": "signOff",
      "outputs": [
        {
          "name": "",
          "type": "bool"
        }
      ],
      "payable": false,
      "stateMutability": "nonpayable",
      "type": "function"
    },
    {
      "constant": true,
      "inputs": [],
      "name": "canSubmit",
      "outputs": [
        {
          "name": "",
          "type": "bool"
        }
      ],
      "payable": false,
      "stateMutability": "view",
      "type": "function"
    }
  ],
  "bytecode": "0x60606040526000600360006101000a8154816fffffffffffffffffffffffffffffffff02191690836fffffffffffffffffffffffffffffffff1602179055506000600360106101000a8154816fffffffffffffffffffffffffffffffff02191690836fffffffffffffffffffffffffffffffff1602179055506000600460006101000a8154816fffffffffffffffffffffffffffffffff02191690836fffffffffffffffffffffffffffffffff1602179055506000600460106101000a8154816fffffffffffffffffffffffffffffffff02191690836fffffffffffffffffffffffffffffffff1602179055506000600560006101000a8154816fffffffffffffffffffffffffffffffff02191690836fffffffffffffffffffffffffffffffff16021790555060006006556000600755600060085560006009556000600a556000600b556000600c556000600d556000600e60006101000a81548160ff021916908360ff1602179055506000600e60016101000a81548160ff021916908360ff1602179055506000600e60026101000a81548160ff021916908360ff1602179055506000600e60036101000a81548160ff021916908360ff1602179055506001600e60046101000a81548160ff0219169083151502179055506000601060006101000a81548160ff0219169083151502179055506001601060016101000a81548160ff0219169083151502179055506000601060026101000a81548160ff02191690831515021790555034156200023657600080fd5b60405160408062004d4e8339810160405280805190602001909190805190602001909190505080336000806101000a81548173ffffffffffffffffffffffffffffffffffffffff021916908373ffffffffffffffffffffffffffffffffffffffff16021790555080600160006101000a81548173ffffffffffffffffffffffffffffffffffffffff021916908373ffffffffffffffffffffffffffffffffffffffff1602179055505081601460006101000a81548173ffffffffffffffffffffffffffffffffffffffff021916908373ffffffffffffffffffffffffffffffffffffffff160217905550601460009054906101000a900473ffffffffffffffffffffffffffffffffffffffff1673ffffffffffffffffffffffffffffffffffffffff16638d796bb36040518163ffffffff167c0100000000000000000000000000000000000000000000000000000000028152600401600060405180830381600087803b1515620003a657600080fd5b6102c65a03f11515620003b857600080fd5b505050505061498180620003cd6000396000f300606060405260043610610149576000357c0100000000000000000000000000000000000000000000000000000000900463ffffffff1680631704f0981461014e5780631df3c85c1461017b57806323f314c4146101d057806324716b201461020e5780632bb9e075146102595780632f87f8d11461026e57806334adc875146102c35780634c1aa976146102d85780634c6c9b78146102ed578063724de9791461030257806386bafc791461037357806389ab3532146103a05780638a365e59146103c9578063941974a2146103f25780639e4cda4314610427578063b6c52ae81461043c578063bde9e40e14610451578063c8bef55014610466578063ce909a521461048f578063dfc86fe214610504578063e4085d6714610559578063e66632fb146105cf578063fde08174146105e4578063fe559d971461061b578063ffbc9bd01461064a575b600080fd5b341561015957600080fd5b610161610677565b604051808215151515815260200191505060405180910390f35b341561018657600080fd5b61018e61068e565b604051808273ffffffffffffffffffffffffffffffffffffffff1673ffffffffffffffffffffffffffffffffffffffff16815260200191505060405180910390f35b34156101db57600080fd5b61020c60048080359060200190919080359060200190919080359060200190919080359060200190919050506106b8565b005b341561021957600080fd5b61023f60048080356000191690602001909190803560ff16906020019091905050610d8a565b604051808215151515815260200191505060405180910390f35b341561026457600080fd5b61026c61126b565b005b341561027957600080fd5b610281611489565b604051808273ffffffffffffffffffffffffffffffffffffffff1673ffffffffffffffffffffffffffffffffffffffff16815260200191505060405180910390f35b34156102ce57600080fd5b6102d66114b3565b005b34156102e357600080fd5b6102eb611827565b005b34156102f857600080fd5b610300611b0d565b005b610371600480803573ffffffffffffffffffffffffffffffffffffffff1690602001909190803590602001908201803590602001908080601f01602080910402602001604051908101604052809392919081815260200183838082843782019150505050505091905050611e9e565b005b341561037e57600080fd5b6103866120af565b604051808215151515815260200191505060405180910390f35b34156103ab57600080fd5b6103b36120c7565b6040518082815260200191505060405180910390f35b34156103d457600080fd5b6103dc61219f565b6040518082815260200191505060405180910390f35b34156103fd57600080fd5b61042560048080359060200190919080359060200190919080359060200190919050506121d7565b005b341561043257600080fd5b61043a612321565b005b341561044757600080fd5b61044f6127d7565b005b341561045c57600080fd5b610464612b69565b005b341561047157600080fd5b610479612efb565b6040518082815260200191505060405180910390f35b341561049a57600080fd5b6104ea600480803590602001908201803590602001908080601f01602080910402602001604051908101604052809392919081815260200183838082843782019150505050505091905050612f00565b604051808215151515815260200191505060405180910390f35b341561050f57600080fd5b610517613cdd565b604051808273ffffffffffffffffffffffffffffffffffffffff1673ffffffffffffffffffffffffffffffffffffffff16815260200191505060405180910390f35b341561056457600080fd5b61056c613d03565b604051808d81526020018c81526020018b81526020018a81526020018981526020018881526020018781526020018681526020018581526020018481526020018381526020018281526020019c5050505050505050505050505060405180910390f35b34156105da57600080fd5b6105e2613e23565b005b34156105ef57600080fd5b6105f76141b5565b6040518082600481111561060757fe5b60ff16815260200191505060405180910390f35b341561062657600080fd5b61062e614217565b604051808260ff1660ff16815260200191505060405180910390f35b341561065557600080fd5b61065d61422e565b604051808215151515815260200191505060405180910390f35b6000601060009054906101000a900460ff16905090565b6000600160009054906101000a900473ffffffffffffffffffffffffffffffffffffffff16905090565b60008060008060038060048111156106cc57fe5b600260003273ffffffffffffffffffffffffffffffffffffffff1673ffffffffffffffffffffffffffffffffffffffff16815260200190815260200160002060009054906101000a900460ff1660ff16600481111561072757fe5b600481111561073257fe5b1415610d1657601060009054906101000a900460ff1615610860577f43ee49b353e606440a3e01e92992e6016fe11eb3c3745608f6b54fbc8d758faa601060009054906101000a900460ff1660008060008060006040518087151515158152602001806020018715151515815260200186151515158152602001851515151581526020018415151515815260200183151515158152602001828103825260478152602001807f566572696669636174696f6e20616c72656164792068617070656e656420616e81526020017f6420697420776173207375636365737366756c2e20496e70757420646973726581526020017f6761726465642e0000000000000000000000000000000000000000000000000081525060600197505050505050505060405180910390a1610d11565b601060019054906101000a900460ff1615610970577f43ee49b353e606440a3e01e92992e6016fe11eb3c3745608f6b54fbc8d758faa601060009054906101000a900460ff16601060019054906101000a900460ff166000806000806040518087151515158152602001806020018715151515815260200186151515158152602001851515151581526020018415151515815260200183151515158152602001828103825260328152602001807f5265636f756e74206e6563657373617279206265666f7265206e65772076657281526020017f696669636174696f6e20617474656d70742e000000000000000000000000000081525060400197505050505050505060405180910390a1610d11565b601060029054906101000a900460ff161515610a4d577f43ee49b353e606440a3e01e92992e6016fe11eb3c3745608f6b54fbc8d758faa601060009054906101000a900460ff16600160008060008060405180871515151581526020018060200187151515158152602001861515151581526020018515151515815260200184151515158152602001831515151581526020018281038252601a8152602001807f436f756e74696e67206d75737420626567696e2066697273742e00000000000081525060200197505050505050505060405180910390a1610d11565b6000601060026101000a81548160ff021916908315150217905550600360109054906101000a90046fffffffffffffffffffffffffffffffff166fffffffffffffffffffffffffffffffff1689149450600460009054906101000a90046fffffffffffffffffffffffffffffffff166fffffffffffffffffffffffffffffffff1688149350600560009054906101000a90046fffffffffffffffffffffffffffffffff166fffffffffffffffffffffffffffffffff1687149250600460109054906101000a90046fffffffffffffffffffffffffffffffff166fffffffffffffffffffffffffffffffff1686149150848015610b465750835b8015610b4f5750825b8015610b585750815b15610c26576001601060006101000a81548160ff0219169083151502179055507f43ee49b353e606440a3e01e92992e6016fe11eb3c3745608f6b54fbc8d758faa601060009054906101000a900460ff16601060019054906101000a900460ff1687878787604051808715151515815260200180602001871515151581526020018615151515815260200185151515158152602001841515151581526020018315151515815260200182810382526000815260200160200197505050505050505060405180910390a1610d10565b6001601060016101000a81548160ff0219169083151502179055507f43ee49b353e606440a3e01e92992e6016fe11eb3c3745608f6b54fbc8d758faa601060009054906101000a900460ff16601060019054906101000a900460ff168787878760405180871515151581526020018060200187151515158152602001861515151581526020018515151515815260200184151515158152602001831515151581526020018281038252600e8152602001807f4e65656473205265636f756e742e00000000000000000000000000000000000081525060200197505050505050505060405180910390a15b5b610d7f565b7f367dccf700b76ac212780fb422c9b7569b12f28f39de0a0f8622641a83355ab16040518080602001828103825260148152602001807f556e617574686f72697a6564206163636573732e00000000000000000000000081525060200191505060405180910390a15b505050505050505050565b6000806003806004811115610d9b57fe5b600260003273ffffffffffffffffffffffffffffffffffffffff1673ffffffffffffffffffffffffffffffffffffffff16815260200190815260200160002060009054906101000a900460ff1660ff166004811115610df657fe5b6004811115610e0157fe5b14156111fa5784601460009054906101000a900473ffffffffffffffffffffffffffffffffffffffff1673ffffffffffffffffffffffffffffffffffffffff16639d38800d826000604051602001526040518263ffffffff167c0100000000000000000000000000000000000000000000000000000000028152600401808260001916600019168152602001915050602060405180830381600087803b1515610ea957600080fd5b6102c65a03f11515610eba57600080fd5b5050506040518051905015610f0d577fc6f463ff03552b32a5c8648ccdcd61429246dafb835c341eb26574fdb791bdf08160405180826000191660001916815260200191505060405180910390a16111f4565b7fd135bcf6825b1f8773fbc5614aff8574c3d4bb8bc5853109ef17f35b30e5a0ba8160405180826000191660001916815260200191505060405180910390a160006005811115610f5957fe5b856005811115610f6557fe5b111580610f875750600580811115610f7957fe5b856005811115610f8557fe5b115b15610ffd577f367dccf700b76ac212780fb422c9b7569b12f28f39de0a0f8622641a83355ab16040518080602001828103825260138152602001807f496e76616c696420766f74657220747970652e0000000000000000000000000081525060200191505060405180910390a1600093506111f3565b601460009054906101000a900473ffffffffffffffffffffffffffffffffffffffff1673ffffffffffffffffffffffffffffffffffffffff166324716b2087876000604051602001526040518363ffffffff167c010000000000000000000000000000000000000000000000000000000002815260040180836000191660001916815260200182600581111561108f57fe5b60ff16815260200192505050602060405180830381600087803b15156110b457600080fd5b6102c65a03f115156110c557600080fd5b5050506040518051905092508215156110e157600093506111f3565b600160058111156110ee57fe5b8560058111156110fa57fe5b1415611117576006600081548092919060010191905055506111ee565b6002600581111561112457fe5b85600581111561113057fe5b141561114d576007600081548092919060010191905055506111ed565b6003600581111561115a57fe5b85600581111561116657fe5b1415611183576008600081548092919060010191905055506111ec565b6004600581111561119057fe5b85600581111561119c57fe5b14156111b9576009600081548092919060010191905055506111eb565b6005808111156111c557fe5b8560058111156111d157fe5b14156111ea57600a600081548092919060010191905055505b5b5b5b5b600193505b5b50611263565b7f367dccf700b76ac212780fb422c9b7569b12f28f39de0a0f8622641a83355ab16040518080602001828103825260148152602001807f556e617574686f72697a6564206163636573732e00000000000000000000000081525060200191505060405180910390a15b505092915050565b6000809054906101000a900473ffffffffffffffffffffffffffffffffffffffff1673ffffffffffffffffffffffffffffffffffffffff163273ffffffffffffffffffffffffffffffffffffffff161415611487576001421180156112dc5750600e60049054906101000a900460ff165b80156112f55750601060009054906101000a900460ff16155b156113f7576000600e60046101000a81548160ff0219169083151502179055506000601060016101000a81548160ff0219169083151502179055506003600081819054906101000a90046fffffffffffffffffffffffffffffffff168092919060010191906101000a8154816fffffffffffffffffffffffffffffffff02191690836fffffffffffffffffffffffffffffffff160217905550507ff8c17d4907a64b36c45f63ee113f829f56a8059e18751190e9d7f81d18aed06530604051808273ffffffffffffffffffffffffffffffffffffffff1673ffffffffffffffffffffffffffffffffffffffff16815260200191505060405180910390a1611486565b7f367dccf700b76ac212780fb422c9b7569b12f28f39de0a0f8622641a83355ab16040518080602001828103825260278152602001807f4e6f7420616c6c6f776564206265666f7265206f6666696369616c207374617281526020017f7420646174652e0000000000000000000000000000000000000000000000000081525060400191505060405180910390a15b5b565b6000601460009054906101000a900473ffffffffffffffffffffffffffffffffffffffff16905090565b6000600260003373ffffffffffffffffffffffffffffffffffffffff1673ffffffffffffffffffffffffffffffffffffffff16815260200190815260200160002060009054906101000a900460ff1660ff16600481111561151057fe5b90506003600481111561151f57fe5b81600481111561152b57fe5b14156115f5577f9f5d878a6c93f9c0170f49b359f3217699e53adf8f8291807c90626fc5faf88a600033836040518084151515158152602001806020018473ffffffffffffffffffffffffffffffffffffffff1673ffffffffffffffffffffffffffffffffffffffff1681526020018360048111156115a657fe5b60ff1681526020018281038252601b8152602001807f5468652063686169726d616e2063616e2774207369676e206f7574000000000081525060200194505050505060405180910390a1611824565b60048081111561160157fe5b81600481111561160d57fe5b141561176257600e600181819054906101000a900460ff16809291906001900391906101000a81548160ff021916908360ff160217905550506000601260003373ffffffffffffffffffffffffffffffffffffffff1673ffffffffffffffffffffffffffffffffffffffff16815260200190815260200160002060006101000a81548160ff0219169083151502179055507f9f5d878a6c93f9c0170f49b359f3217699e53adf8f8291807c90626fc5faf88a600133836040518084151515158152602001806020018473ffffffffffffffffffffffffffffffffffffffff1673ffffffffffffffffffffffffffffffffffffffff16815260200183600481111561171357fe5b60ff1681526020018281038252600f8152602001807f55736572207369676e6564206f7574000000000000000000000000000000000081525060200194505050505060405180910390a1611823565b7f9f5d878a6c93f9c0170f49b359f3217699e53adf8f8291807c90626fc5faf88a60003360006040518084151515158152602001806020018473ffffffffffffffffffffffffffffffffffffffff1673ffffffffffffffffffffffffffffffffffffffff1681526020018360048111156117d857fe5b60ff168152602001828103825260128152602001807f55736572206e6f74207369676e656420696e000000000000000000000000000081525060200194505050505060405180910390a15b5b50565b600380600481111561183557fe5b600260003273ffffffffffffffffffffffffffffffffffffffff1673ffffffffffffffffffffffffffffffffffffffff16815260200190815260200160002060009054906101000a900460ff1660ff16600481111561189057fe5b600481111561189b57fe5b1415611aa157601460009054906101000a900473ffffffffffffffffffffffffffffffffffffffff1673ffffffffffffffffffffffffffffffffffffffff16634c1aa9766040518163ffffffff167c0100000000000000000000000000000000000000000000000000000000028152600401600060405180830381600087803b151561192657600080fd5b6102c65a03f1151561193757600080fd5b5050506003600081819054906101000a90046fffffffffffffffffffffffffffffffff168092919060010191906101000a8154816fffffffffffffffffffffffffffffffff02191690836fffffffffffffffffffffffffffffffff160217905550506000600360106101000a8154816fffffffffffffffffffffffffffffffff02191690836fffffffffffffffffffffffffffffffff1602179055506000600460006101000a8154816fffffffffffffffffffffffffffffffff02191690836fffffffffffffffffffffffffffffffff1602179055506000600560006101000a8154816fffffffffffffffffffffffffffffffff02191690836fffffffffffffffffffffffffffffffff1602179055506000600460106101000a8154816fffffffffffffffffffffffffffffffff02191690836fffffffffffffffffffffffffffffffff1602179055506000601060016101000a81548160ff021916908315150217905550611b0a565b7f367dccf700b76ac212780fb422c9b7569b12f28f39de0a0f8622641a83355ab16040518080602001828103825260148152602001807f556e617574686f72697a6564206163636573732e00000000000000000000000081525060200191505060405180910390a15b50565b611b156120af565b1515611b88577f367dccf700b76ac212780fb422c9b7569b12f28f39de0a0f8622641a83355ab16040518080602001828103825260128152602001807f53657373696f6e20697320636c6f7365642e000000000000000000000000000081525060200191505060405180910390a1611e9c565b601060009054906101000a900460ff161515611df7576003806004811115611bac57fe5b600260003273ffffffffffffffffffffffffffffffffffffffff1673ffffffffffffffffffffffffffffffffffffffff16815260200190815260200160002060009054906101000a900460ff1660ff166004811115611c0757fe5b6004811115611c1257fe5b1415611d88576001601060026101000a81548160ff0219169083151502179055506003601081819054906101000a90046fffffffffffffffffffffffffffffffff168092919060010191906101000a8154816fffffffffffffffffffffffffffffffff02191690836fffffffffffffffffffffffffffffffff16021790555050601460009054906101000a900473ffffffffffffffffffffffffffffffffffffffff1673ffffffffffffffffffffffffffffffffffffffff166390cf581c6040518163ffffffff167c0100000000000000000000000000000000000000000000000000000000028152600401600060405180830381600087803b1515611d1757600080fd5b6102c65a03f11515611d2857600080fd5b5050507f87567035f0c5d3143998f3f50df307463b25b6e935e0113bb98a7985fcf5da3d600180604051808381526020018215151515815260200180602001828103825260008152602001602001935050505060405180910390a1611df1565b7f367dccf700b76ac212780fb422c9b7569b12f28f39de0a0f8622641a83355ab16040518080602001828103825260148152602001807f556e617574686f72697a6564206163636573732e00000000000000000000000081525060200191505060405180910390a15b50611e9b565b7f87567035f0c5d3143998f3f50df307463b25b6e935e0113bb98a7985fcf5da3d600080604051808381526020018215151515815260200180602001828103825260378152602001807f566572696669636174696f6e20616c72656164792068617070656e65642c207681526020017f6f746520636f756e74696e6720697320636c6f7365642e000000000000000000815250604001935050505060405180910390a15b5b565b6000809054906101000a900473ffffffffffffffffffffffffffffffffffffffff1673ffffffffffffffffffffffffffffffffffffffff163273ffffffffffffffffffffffffffffffffffffffff1614156120ab57600034111515611f0257600080fd5b611f0c82826142c6565b601460009054906101000a900473ffffffffffffffffffffffffffffffffffffffff1673ffffffffffffffffffffffffffffffffffffffff1663724de97983836040518363ffffffff167c0100000000000000000000000000000000000000000000000000000000028152600401808373ffffffffffffffffffffffffffffffffffffffff1673ffffffffffffffffffffffffffffffffffffffff16815260200180602001828103825283818151815260200191508051906020019080838360005b83811015611fe9578082015181840152602081019050611fce565b50505050905090810190601f1680156120165780820380516001836020036101000a031916815260200191505b509350505050600060405180830381600087803b151561203557600080fd5b6102c65a03f1151561204657600080fd5b5050506120528161474e565b60018273ffffffffffffffffffffffffffffffffffffffff16311115156120aa578173ffffffffffffffffffffffffffffffffffffffff166108fc349081150290604051600060405180830381858888f19350505050505b5b5050565b6000600e60049054906101000a900460ff1615905090565b600080600b54600c54600d540101600460109054906101000a90046fffffffffffffffffffffffffffffffff16600360109054906101000a90046fffffffffffffffffffffffffffffffff16600460009054906101000a90046fffffffffffffffffffffffffffffffff16600560009054906101000a90046fffffffffffffffffffffffffffffffff160101016fffffffffffffffffffffffffffffffff160390506000811215612198577fffffffffffffffffffffffffffffffffffffffffffffffffffffffffffffffff810290505b8091505090565b6000600360009054906101000a90046fffffffffffffffffffffffffffffffff166fffffffffffffffffffffffffffffffff16905090565b60038060048111156121e557fe5b600260003273ffffffffffffffffffffffffffffffffffffffff1673ffffffffffffffffffffffffffffffffffffffff16815260200190815260200160002060009054906101000a900460ff1660ff16600481111561224057fe5b600481111561224b57fe5b14156122b25783600b8190555082600c8190555081600d819055507faeceb13618d1f91e300025c2eed9b7064b28e50e9624b49ea8c3f33fae6f5d7384848460405180848152602001838152602001828152602001935050505060405180910390a161231b565b7f367dccf700b76ac212780fb422c9b7569b12f28f39de0a0f8622641a83355ab16040518080602001828103825260148152602001807f556e617574686f72697a6564206163636573732e00000000000000000000000081525060200191505060405180910390a15b50505050565b600080600260003373ffffffffffffffffffffffffffffffffffffffff1673ffffffffffffffffffffffffffffffffffffffff16815260200190815260200160002060009054906101000a900460ff1660ff16600481111561237f57fe5b90506123896120af565b15156123fc577f367dccf700b76ac212780fb422c9b7569b12f28f39de0a0f8622641a83355ab16040518080602001828103825260198152602001807f566f74696e672053657373696f6e20697320636c6f7365642e0000000000000081525060200191505060405180910390a16127d3565b6003600481111561240957fe5b81600481111561241557fe5b14801561243457506000600e60009054906101000a900460ff1660ff16145b80612473575060048081111561244657fe5b81600481111561245257fe5b14801561247257506000600e60009054906101000a900460ff1660ff1610155b5b1561274357600260003373ffffffffffffffffffffffffffffffffffffffff1673ffffffffffffffffffffffffffffffffffffffff16815260200190815260200160002060009054906101000a900460ff1660ff1660048111156124d357fe5b9150600360048111156124e257fe5b8260048111156124ee57fe5b141561258357600e600081819054906101000a900460ff168092919060010191906101000a81548160ff021916908360ff160217905550506001601160003373ffffffffffffffffffffffffffffffffffffffff1673ffffffffffffffffffffffffffffffffffffffff16815260200190815260200160002060006101000a81548160ff0219169083151502179055506126c4565b60048081111561258f57fe5b82600481111561259b57fe5b141561263057600e600181819054906101000a900460ff168092919060010191906101000a81548160ff021916908360ff160217905550506001601260003373ffffffffffffffffffffffffffffffffffffffff1673ffffffffffffffffffffffffffffffffffffffff16815260200190815260200160002060006101000a81548160ff0219169083151502179055506126c3565b7f367dccf700b76ac212780fb422c9b7569b12f28f39de0a0f8622641a83355ab16040518080602001828103825260218152602001807f556e616c6c6f77656420726f6c65206f722072756c652076696f6c6174696f6e81526020017f2e0000000000000000000000000000000000000000000000000000000000000081525060400191505060405180910390a161273e565b5b7f45cd18d769a210a633e8004aa52201726912d20a65e161dedd6650fb3058a3783383604051808373ffffffffffffffffffffffffffffffffffffffff1673ffffffffffffffffffffffffffffffffffffffff16815260200182600481111561272957fe5b60ff1681526020019250505060405180910390a15b6127d2565b7f367dccf700b76ac212780fb422c9b7569b12f28f39de0a0f8622641a83355ab16040518080602001828103825260218152602001807f556e616c6c6f77656420726f6c65206f722072756c652076696f6c6174696f6e81526020017f2e0000000000000000000000000000000000000000000000000000000000000081525060400191505060405180910390a15b5b5050565b6127df6120af565b1515612852577f367dccf700b76ac212780fb422c9b7569b12f28f39de0a0f8622641a83355ab16040518080602001828103825260128152602001807f53657373696f6e20697320636c6f7365642e000000000000000000000000000081525060200191505060405180910390a1612b67565b601060009054906101000a900460ff161515612ac257600380600481111561287657fe5b600260003273ffffffffffffffffffffffffffffffffffffffff1673ffffffffffffffffffffffffffffffffffffffff16815260200190815260200160002060009054906101000a900460ff1660ff1660048111156128d157fe5b60048111156128dc57fe5b1415612a53576001601060026101000a81548160ff0219169083151502179055506004600081819054906101000a90046fffffffffffffffffffffffffffffffff168092919060010191906101000a8154816fffffffffffffffffffffffffffffffff02191690836fffffffffffffffffffffffffffffffff16021790555050601460009054906101000a900473ffffffffffffffffffffffffffffffffffffffff1673ffffffffffffffffffffffffffffffffffffffff166341c12a706040518163ffffffff167c0100000000000000000000000000000000000000000000000000000000028152600401600060405180830381600087803b15156129e157600080fd5b6102c65a03f115156129f257600080fd5b5050507f87567035f0c5d3143998f3f50df307463b25b6e935e0113bb98a7985fcf5da3d60026001604051808381526020018215151515815260200180602001828103825260008152602001602001935050505060405180910390a1612abc565b7f367dccf700b76ac212780fb422c9b7569b12f28f39de0a0f8622641a83355ab16040518080602001828103825260148152602001807f556e617574686f72697a6564206163636573732e00000000000000000000000081525060200191505060405180910390a15b50612b66565b7f87567035f0c5d3143998f3f50df307463b25b6e935e0113bb98a7985fcf5da3d600080604051808381526020018215151515815260200180602001828103825260378152602001807f566572696669636174696f6e20616c72656164792068617070656e65642c207681526020017f6f746520636f756e74696e6720697320636c6f7365642e000000000000000000815250604001935050505060405180910390a15b5b565b612b716120af565b1515612be4577f367dccf700b76ac212780fb422c9b7569b12f28f39de0a0f8622641a83355ab16040518080602001828103825260128152602001807f53657373696f6e20697320636c6f7365642e000000000000000000000000000081525060200191505060405180910390a1612ef9565b601060009054906101000a900460ff161515612e54576003806004811115612c0857fe5b600260003273ffffffffffffffffffffffffffffffffffffffff1673ffffffffffffffffffffffffffffffffffffffff16815260200190815260200160002060009054906101000a900460ff1660ff166004811115612c6357fe5b6004811115612c6e57fe5b1415612de5576001601060026101000a81548160ff0219169083151502179055506004601081819054906101000a90046fffffffffffffffffffffffffffffffff168092919060010191906101000a8154816fffffffffffffffffffffffffffffffff02191690836fffffffffffffffffffffffffffffffff16021790555050601460009054906101000a900473ffffffffffffffffffffffffffffffffffffffff1673ffffffffffffffffffffffffffffffffffffffff16633ec3d5c46040518163ffffffff167c0100000000000000000000000000000000000000000000000000000000028152600401600060405180830381600087803b1515612d7357600080fd5b6102c65a03f11515612d8457600080fd5b5050507f87567035f0c5d3143998f3f50df307463b25b6e935e0113bb98a7985fcf5da3d60046001604051808381526020018215151515815260200180602001828103825260008152602001602001935050505060405180910390a1612e4e565b7f367dccf700b76ac212780fb422c9b7569b12f28f39de0a0f8622641a83355ab16040518080602001828103825260148152602001807f556e617574686f72697a6564206163636573732e00000000000000000000000081525060200191505060405180910390a15b50612ef8565b7f87567035f0c5d3143998f3f50df307463b25b6e935e0113bb98a7985fcf5da3d600080604051808381526020018215151515815260200180602001828103825260378152602001807f566572696669636174696f6e20616c72656164792068617070656e65642c207681526020017f6f746520636f756e74696e6720697320636c6f7365642e000000000000000000815250604001935050505060405180910390a15b5b565b600181565b6000806000600e60049054906101000a900460ff1615612fee577f76159ff031441b48dca9d0fcd995632b18116259a9887cfe2c1ece27b8cf2113336000604051808373ffffffffffffffffffffffffffffffffffffffff1673ffffffffffffffffffffffffffffffffffffffff16815260200182151515158152602001806020018281038252602d8152602001807f43616e206f6e6c79207369676e206f666620647572696e67206f70656e20766f81526020017f74696e672073657373696f6e2e00000000000000000000000000000000000000815250604001935050505060405180910390a1613cd6565b601060009054906101000a900460ff16151561300957613cd6565b6000601360003373ffffffffffffffffffffffffffffffffffffffff1673ffffffffffffffffffffffffffffffffffffffff16815260200190815260200160002054141515613126577f76159ff031441b48dca9d0fcd995632b18116259a9887cfe2c1ece27b8cf2113336000604051808373ffffffffffffffffffffffffffffffffffffffff1673ffffffffffffffffffffffffffffffffffffffff1681526020018215151515815260200180602001828103825260218152602001807f5374616666206d656d6562657220616c7265616479207369676e6564206f666681526020017f2e00000000000000000000000000000000000000000000000000000000000000815250604001935050505060405180910390a1613cd6565b600260003373ffffffffffffffffffffffffffffffffffffffff1673ffffffffffffffffffffffffffffffffffffffff16815260200190815260200160002060009054906101000a900460ff1660ff16600481111561318157fe5b905060048081111561318f57fe5b81600481111561319b57fe5b1480156131f9575060011515601260003373ffffffffffffffffffffffffffffffffffffffff1673ffffffffffffffffffffffffffffffffffffffff16815260200190815260200160002060009054906101000a900460ff16151514155b156132d2577f76159ff031441b48dca9d0fcd995632b18116259a9887cfe2c1ece27b8cf2113336000604051808373ffffffffffffffffffffffffffffffffffffffff1673ffffffffffffffffffffffffffffffffffffffff1681526020018215151515815260200180602001828103825260248152602001807f4f6e6c79207369676e656420696e2054656c6c6572732063616e207369676e2081526020017f6f66662e00000000000000000000000000000000000000000000000000000000815250604001935050505060405180910390a1613cd6565b600360048111156132df57fe5b8160048111156132eb57fe5b148015613349575060011515601160003373ffffffffffffffffffffffffffffffffffffffff1673ffffffffffffffffffffffffffffffffffffffff16815260200190815260200160002060009054906101000a900460ff16151514155b15613422577f76159ff031441b48dca9d0fcd995632b18116259a9887cfe2c1ece27b8cf2113336000604051808373ffffffffffffffffffffffffffffffffffffffff1673ffffffffffffffffffffffffffffffffffffffff1681526020018215151515815260200180602001828103825260258152602001807f4f6e6c79207369676e656420696e2043686169726d656e2063616e207369676e81526020017f206f66662e000000000000000000000000000000000000000000000000000000815250604001935050505060405180910390a1613cd6565b6003600481111561342f57fe5b81600481111561343b57fe5b14801561346b5750600e60009054906101000a900460ff1660ff16600e60029054906101000a900460ff1660ff16105b801561348957506000600e60019054906101000a900460ff1660ff16115b806134f6575060048081111561349b57fe5b8160048111156134a757fe5b1480156134d75750600e60019054906101000a900460ff1660ff16600e60039054906101000a900460ff1660ff16105b80156134f557506000600e60029054906101000a900460ff1660ff16145b5b15613bdf57600260003373ffffffffffffffffffffffffffffffffffffffff1673ffffffffffffffffffffffffffffffffffffffff16815260200190815260200160002060009054906101000a900460ff1660ff16600481111561355657fe5b915060048081111561356457fe5b82600481111561357057fe5b141561367657600e600381819054906101000a900460ff168092919060010191906101000a81548160ff021916908360ff160217905550506001601360003373ffffffffffffffffffffffffffffffffffffffff1673ffffffffffffffffffffffffffffffffffffffff168152602001908152602001600020819055507f76159ff031441b48dca9d0fcd995632b18116259a9887cfe2c1ece27b8cf2113336001604051808373ffffffffffffffffffffffffffffffffffffffff1673ffffffffffffffffffffffffffffffffffffffff1681526020018215151515815260200180602001828103825260008152602001602001935050505060405180910390a1613bd5565b6003600481111561368357fe5b82600481111561368f57fe5b1415613b2a57600e60039054906101000a900460ff1660ff16600e60019054906101000a900460ff1660ff16141515613774577f76159ff031441b48dca9d0fcd995632b18116259a9887cfe2c1ece27b8cf2113336000604051808373ffffffffffffffffffffffffffffffffffffffff1673ffffffffffffffffffffffffffffffffffffffff16815260200182151515158152602001806020018281038252601e8152602001807f416c6c2074656c6c657273206d757374207369676e6f66662066697273740000815250602001935050505060405180910390a160009250613bda565b600061377e6120c7565b1415801561378e57506005845111155b1561386b577f76159ff031441b48dca9d0fcd995632b18116259a9887cfe2c1ece27b8cf2113336000604051808373ffffffffffffffffffffffffffffffffffffffff1673ffffffffffffffffffffffffffffffffffffffff1681526020018215151515815260200180602001828103825260398152602001807f596f752073686f756c6420737570706c7920616e206578706c616e6174696f6e81526020017f207768656e206120646576696174696f6e206f63637572732e00000000000000815250604001935050505060405180910390a160009250613bda565b608c8451111561394d577f76159ff031441b48dca9d0fcd995632b18116259a9887cfe2c1ece27b8cf2113336000604051808373ffffffffffffffffffffffffffffffffffffffff1673ffffffffffffffffffffffffffffffffffffffff16815260200182151515158152602001806020018281038252602a8152602001807f4578706c616e6174696f6e206973206c6f6e676572207468616e20313430206381526020017f6861726163746572732e00000000000000000000000000000000000000000000815250604001935050505060405180910390a160009250613bda565b60006139576120c7565b1415156139765783600f90805190602001906139749291906148b0565b505b600e600281819054906101000a900460ff168092919060010191906101000a81548160ff021916908360ff16021790555050600e60009054906101000a900460ff1660ff16600e60029054906101000a900460ff1660ff16101515613b25576001600e60046101000a81548160ff0219169083151502179055506001601360003373ffffffffffffffffffffffffffffffffffffffff1673ffffffffffffffffffffffffffffffffffffffff168152602001908152602001600020819055507f76159ff031441b48dca9d0fcd995632b18116259a9887cfe2c1ece27b8cf2113336001604051808373ffffffffffffffffffffffffffffffffffffffff1673ffffffffffffffffffffffffffffffffffffffff1681526020018215151515815260200180602001828103825260008152602001602001935050505060405180910390a17f4636d8618be0c9ce1d54a3899392732cbf63446bdf72f5d0920a95657771e9ff30604051808273ffffffffffffffffffffffffffffffffffffffff1673ffffffffffffffffffffffffffffffffffffffff16815260200191505060405180910390a160019250613bda565b613bd4565b7f76159ff031441b48dca9d0fcd995632b18116259a9887cfe2c1ece27b8cf2113336000604051808373ffffffffffffffffffffffffffffffffffffffff1673ffffffffffffffffffffffffffffffffffffffff16815260200182151515158152602001806020018281038252600f8152602001807f526f6c652076696f6c6174696f6e2e0000000000000000000000000000000000815250602001935050505060405180910390a15b5b600092505b613cd5565b7f76159ff031441b48dca9d0fcd995632b18116259a9887cfe2c1ece27b8cf2113336000604051808373ffffffffffffffffffffffffffffffffffffffff1673ffffffffffffffffffffffffffffffffffffffff1681526020018215151515815260200180602001828103825260528152602001807f416c6c2054656c6c657273206d757374207369676e206f66662c207468656e2081526020017f63686169726d616e2063616e207369676e206f66662e204e6f206f746865722081526020017f726f6c652063616e207369676e206f66662e0000000000000000000000000000815250606001935050505060405180910390a15b5b5050919050565b601460009054906101000a900473ffffffffffffffffffffffffffffffffffffffff1681565b600080600080600080600080600080600080600654600954600754600854600a54600b54600d54600c54600360109054906101000a90046fffffffffffffffffffffffffffffffff16600460009054906101000a90046fffffffffffffffffffffffffffffffff16600560009054906101000a90046fffffffffffffffffffffffffffffffff16600460109054906101000a90046fffffffffffffffffffffffffffffffff16836fffffffffffffffffffffffffffffffff169350826fffffffffffffffffffffffffffffffff169250816fffffffffffffffffffffffffffffffff169150806fffffffffffffffffffffffffffffffff1690509b509b509b509b509b509b509b509b509b509b509b509b50909192939495969798999a9b565b613e2b6120af565b1515613e9e577f367dccf700b76ac212780fb422c9b7569b12f28f39de0a0f8622641a83355ab16040518080602001828103825260128152602001807f53657373696f6e20697320636c6f7365642e000000000000000000000000000081525060200191505060405180910390a16141b3565b601060009054906101000a900460ff16151561410e576003806004811115613ec257fe5b600260003273ffffffffffffffffffffffffffffffffffffffff1673ffffffffffffffffffffffffffffffffffffffff16815260200190815260200160002060009054906101000a900460ff1660ff166004811115613f1d57fe5b6004811115613f2857fe5b141561409f576001601060026101000a81548160ff0219169083151502179055506005600081819054906101000a90046fffffffffffffffffffffffffffffffff168092919060010191906101000a8154816fffffffffffffffffffffffffffffffff02191690836fffffffffffffffffffffffffffffffff16021790555050601460009054906101000a900473ffffffffffffffffffffffffffffffffffffffff1673ffffffffffffffffffffffffffffffffffffffff1663cd7553416040518163ffffffff167c0100000000000000000000000000000000000000000000000000000000028152600401600060405180830381600087803b151561402d57600080fd5b6102c65a03f1151561403e57600080fd5b5050507f87567035f0c5d3143998f3f50df307463b25b6e935e0113bb98a7985fcf5da3d60036001604051808381526020018215151515815260200180602001828103825260008152602001602001935050505060405180910390a1614108565b7f367dccf700b76ac212780fb422c9b7569b12f28f39de0a0f8622641a83355ab16040518080602001828103825260148152602001807f556e617574686f72697a6564206163636573732e00000000000000000000000081525060200191505060405180910390a15b506141b2565b7f87567035f0c5d3143998f3f50df307463b25b6e935e0113bb98a7985fcf5da3d600080604051808381526020018215151515815260200180602001828103825260378152602001807f566572696669636174696f6e20616c72656164792068617070656e65642c207681526020017f6f746520636f756e74696e6720697320636c6f7365642e000000000000000000815250604001935050505060405180910390a15b5b565b6000600260003273ffffffffffffffffffffffffffffffffffffffff1673ffffffffffffffffffffffffffffffffffffffff16815260200190815260200160002060009054906101000a900460ff1660ff16600481111561421257fe5b905090565b6000600e60019054906101000a900460ff16905090565b600080600e60039054906101000a900460ff1660ff161180156142745750600e60039054906101000a900460ff1660ff16600e60019054906101000a900460ff1660ff16145b801561429257506000600e60029054906101000a900460ff1660ff16115b80156142c15750600e60009054906101000a900460ff1660ff16600e60029054906101000a900460ff1660ff16145b905090565b60008060009054906101000a900473ffffffffffffffffffffffffffffffffffffffff1673ffffffffffffffffffffffffffffffffffffffff163273ffffffffffffffffffffffffffffffffffffffff16141561474957600160009054906101000a900473ffffffffffffffffffffffffffffffffffffffff1673ffffffffffffffffffffffffffffffffffffffff1663b8c51067836000604051602001526040518263ffffffff167c01000000000000000000000000000000000000000000000000000000000281526004018080602001828103825283818151815260200191508051906020019080838360005b838110156143d05780820151818401526020810190506143b5565b50505050905090810190601f1680156143fd5780820380516001836020036101000a031916815260200191505b5092505050602060405180830381600087803b151561441b57600080fd5b6102c65a03f1151561442c57600080fd5b5050506040518051905060ff16600481111561444457fe5b90506000600481111561445357fe5b81600481111561445f57fe5b118015614482575060048081111561447357fe5b81600481111561447f57fe5b11155b1561461b5780600481111561449357fe5b600260008573ffffffffffffffffffffffffffffffffffffffff1673ffffffffffffffffffffffffffffffffffffffff16815260200190815260200160002060006101000a81548160ff021916908360ff1602179055507fe0002dd72fe0d21c584dfb23d23de71a96770c70d5b244275f416a35df6b29726001838584604051808515151515815260200180602001806020018573ffffffffffffffffffffffffffffffffffffffff1673ffffffffffffffffffffffffffffffffffffffff16815260200184600481111561456457fe5b60ff1681526020018381038352600a8152602001807f5573657220416464656400000000000000000000000000000000000000000000815250602001838103825286818151815260200191508051906020019080838360005b838110156145d85780820151818401526020810190506145bd565b50505050905090810190601f1680156146055780820380516001836020036101000a031916815260200191505b50965050505050505060405180910390a1614748565b7fe0002dd72fe0d21c584dfb23d23de71a96770c70d5b244275f416a35df6b29726000838584604051808515151515815260200180602001806020018573ffffffffffffffffffffffffffffffffffffffff1673ffffffffffffffffffffffffffffffffffffffff16815260200184600481111561469557fe5b60ff168152602001838103835260148152602001807f55736572204372656174696f6e204661696c6564000000000000000000000000815250602001838103825286818151815260200191508051906020019080838360005b838110156147095780820151818401526020810190506146ee565b50505050905090810190601f1680156147365780820380516001836020036101000a031916815260200191505b50965050505050505060405180910390a15b5b505050565b6000809054906101000a900473ffffffffffffffffffffffffffffffffffffffff1673ffffffffffffffffffffffffffffffffffffffff163273ffffffffffffffffffffffffffffffffffffffff1614156148ad57600160009054906101000a900473ffffffffffffffffffffffffffffffffffffffff1673ffffffffffffffffffffffffffffffffffffffff16634af57033826040518263ffffffff167c01000000000000000000000000000000000000000000000000000000000281526004018080602001828103825283818151815260200191508051906020019080838360005b8381101561484d578082015181840152602081019050614832565b50505050905090810190601f16801561487a5780820380516001836020036101000a031916815260200191505b5092505050600060405180830381600087803b151561489857600080fd5b6102c65a03f115156148a957600080fd5b5050505b50565b828054600181600116156101000203166002900490600052602060002090601f016020900481019282601f106148f157805160ff191683800117855561491f565b8280016001018555821561491f579182015b8281111561491e578251825591602001919060010190614903565b5b50905061492c9190614930565b5090565b61495291905b8082111561494e576000816000905550600101614936565b5090565b905600a165627a7a723058203599f4af34cfb057df8ea62c8a20d3bb89b1b08be519bd09bb8ba2ae5b4a43c60029",
  "source": "pragma solidity ^0.4.19;\r\n\r\nimport \"./permissions.sol\";\r\nimport \"./municipality.sol\";\r\n\r\ncontract PollingStation is Permissions {\r\n    \r\n    //Voting data\r\n    uint128 private votingRound = 0;\r\n    uint128 private yesLocal = 0;\r\n    uint128 private noLocal = 0;\r\n    uint128 private invalidLocal = 0;\r\n    uint128 private blankLocal = 0;\r\n    \r\n    //Voter Registration\r\n    uint private scannedPollingCardCount = 0;\r\n    uint private scannedPowerOfAttorneyCount = 0;\r\n    uint private registeredPowerOfAttorneyCount = 0;\r\n    uint private registeredVoterPassCount = 0;\r\n    uint private registeredObjectionCount = 0;\r\n    \r\n    //Control Numbers\r\n    uint private collectedPollingCardCount = 0;\r\n    uint private collectedPowerOfAttorneyCount = 0;\r\n    uint private collectedVoterPassCount = 0;\r\n    \r\n    //Access control\r\n    uint8 private signedInChairmenCount = 0;\r\n    uint8 private signedInTellerCount = 0;\r\n    uint8 private signedOffChairmenCount = 0;\r\n    uint8 private signedOffTellerCount = 0;\r\n    bool private votingSessionClosed = true;\r\n    string private deviationExplanation;\r\n    bool private verificationSuccessful = false;\r\n    bool private needsRecount = true;\r\n    bool private beganCounting = false;\r\n    \r\n    //Mappings\r\n    mapping (address => bool) private signedInChairmen;\r\n    mapping (address => bool) private signedInTellers;\r\n    mapping (address => uint256) private signedOffStaff;\r\n    \r\n    Municipality public munContract;\r\n    \r\n    event VoterAlreadyRecorded(bytes32 qrCodeHash);\r\n    event VoterCleared(bytes32 qrCodeHash);\r\n    event UserSignedIn(address userAddress, Role role);\r\n    event UserSignedOut(bool success, string message, address userAddress, Role role);\r\n    event VotingFinished(address pollingStation);\r\n    event StaffSignedOff(address staff);\r\n    event SignedOff(address staff, bool success, string message);\r\n    event VerificationDone(bool success, string message, bool needsRecount, bool yes, bool no, bool blank, bool invalid);\r\n    event ControlNumbersAdded(uint256 pollingCards, uint256 powerOfAttorneys, uint256 voterPasses);\r\n    event VotingSessionBegan(address pollingStation);\r\n    event VoteCounted(uint voteCode, bool success, string message);\r\n    \r\n    function PollingStation(address mAddress, address uacAddress) Permissions(uacAddress) public {\r\n        munContract = Municipality(mAddress);\r\n        munContract.enrollPollStation();\r\n    }\r\n\r\n    modifier _noRevote(bytes32 qrCodeHash) {\r\n        if (munContract.userVoted(qrCodeHash)) {\r\n            VoterAlreadyRecorded(qrCodeHash);\r\n        } else {\r\n            VoterCleared(qrCodeHash);\r\n            _;\r\n        }\r\n    }\r\n    \r\n    modifier _isSessionOpen() {\r\n        if (!isSessionOpen()) {\r\n            NotAllowed(\"Session is closed.\");\r\n        } else {\r\n            _;\r\n        }\r\n    }\r\n\r\n    modifier _isNotVerified() {\r\n        if (!verificationSuccessful) {\r\n            _;\r\n        } else {\r\n            VoteCounted(0, false, \"Verification already happened, vote counting is closed.\");\r\n        }\r\n    }\r\n    \r\n    modifier _canSignIn() {\r\n        Role currRole = Role(roles[msg.sender]);\r\n        \r\n        if (!isSessionOpen()) {\r\n            NotAllowed(\"Voting Session is closed.\");\r\n            return;\r\n        }\r\n        \r\n        if ((currRole == Role.Chairman && signedInChairmenCount == 0) || (currRole == Role.Teller && signedInChairmenCount >= 0)) {\r\n            _;\r\n        } else {\r\n            NotAllowed(\"Unallowed role or rule violation.\");\r\n        }\r\n    }\r\n    \r\n    modifier _canSessionStart() {\r\n        \r\n        if (block.timestamp > VOTING_START_TIMESTAMP && votingSessionClosed && !verificationSuccessful) {\r\n            _;\r\n        } else {\r\n            NotAllowed(\"Not allowed before official start date.\");\r\n        }\r\n        \r\n    }\r\n    \r\n    modifier _canSignOff() {\r\n        if (votingSessionClosed) {\r\n            SignedOff(msg.sender, false, \"Can only sign off during open voting session.\");\r\n            return;\r\n        }\r\n        \r\n        if (!verificationSuccessful) {\r\n            return;\r\n        }\r\n        \r\n        if (signedOffStaff[msg.sender] != 0) {\r\n            SignedOff(msg.sender, false, \"Staff memeber already signed off.\");\r\n            return;\r\n        }\r\n        \r\n        Role currRole = Role(roles[msg.sender]);\r\n        \r\n        if (currRole == Role.Teller && signedInTellers[msg.sender] != true) {\r\n            SignedOff(msg.sender, false, \"Only signed in Tellers can sign off.\");\r\n            return;\r\n        }\r\n        \r\n        if (currRole == Role.Chairman && signedInChairmen[msg.sender] != true) {\r\n            SignedOff(msg.sender, false, \"Only signed in Chairmen can sign off.\");\r\n            return;\r\n        }\r\n        \r\n        if ((currRole == Role.Chairman && signedOffChairmenCount < signedInChairmenCount && signedInTellerCount > 0) || \r\n            (currRole == Role.Teller && signedOffTellerCount < signedInTellerCount && signedOffChairmenCount == 0)) {\r\n            _;\r\n        } else {\r\n            SignedOff(msg.sender, false, \"All Tellers must sign off, then chairman can sign off. No other role can sign off.\");\r\n        }\r\n    }\r\n    \r\n    function getMunicipalityAddress() public view returns (address municipalityAddress) {\r\n        return munContract;\r\n    }\r\n    \r\n    // this will record the roles locally and into the municipality\r\n    function setUserRole(address user, string email) public _isOwner() payable {\r\n        require(msg.value > 0);\r\n        super.setUserRole(user, email);\r\n        munContract.setUserRole(user, email);\r\n        super.setUsedEmail(email);\r\n        if (user.balance <= 1) {\r\n            user.send(msg.value);\r\n        }    \r\n    }\r\n    \r\n    function isSessionOpen() public view returns (bool) {\r\n        return !votingSessionClosed;\r\n    }\r\n    \r\n    function signIn() public _canSignIn() {\r\n        Role role = Role(roles[msg.sender]);\r\n        \r\n        if (role == Role.Chairman) {\r\n            signedInChairmenCount++;\r\n            signedInChairmen[msg.sender] = true;\r\n        } else if (role == Role.Teller) {\r\n            signedInTellerCount++;\r\n            signedInTellers[msg.sender] = true;\r\n        } else {\r\n            NotAllowed(\"Unallowed role or rule violation.\");\r\n            return;\r\n        }\r\n        \r\n        UserSignedIn(msg.sender, role);\r\n    }\r\n\r\n    function getSignedInTellers() public view returns(uint8) {\r\n        return signedInTellerCount;\r\n    }\r\n    \r\n    function signOut() public { \r\n        Role role = Role(roles[msg.sender]);\r\n        if (role == Role.Chairman) {\r\n            UserSignedOut(false, \"The chairman can't sign out\", msg.sender, role);\r\n        } else if (role == Role.Teller) {\r\n            signedInTellerCount--;\r\n            signedInTellers[msg.sender] = false;\r\n            UserSignedOut(true, \"User signed out\", msg.sender, role);\r\n        } else {\r\n            UserSignedOut(false, \"User not signed in\", msg.sender, Role.Unknown);\r\n        }        \r\n    }\r\n    \r\n    function beginVotingSession() public _isOwner _canSessionStart() {\r\n        votingSessionClosed = false;\r\n        needsRecount = false;\r\n        votingRound++;\r\n        VotingSessionBegan(this);\r\n    }\r\n    \r\n    function recordVoter(bytes32 qrCodeHash, VoterType voterType) public _verifyRole(Role.Chairman) _noRevote(qrCodeHash) returns(bool) {\r\n        if (voterType <= VoterType.Unspecified || voterType > VoterType.Objection) {\r\n            NotAllowed(\"Invalid voter type.\");\r\n            return false;\r\n        }\r\n        \r\n        bool success = munContract.recordVoter(qrCodeHash, voterType);\r\n        if (!success) {\r\n            return false;\r\n        }\r\n        \r\n        if (voterType == VoterType.PollingCard) {\r\n            scannedPollingCardCount++;\r\n        } else if (voterType == VoterType.PowerOfAttorneyPollingCard) {\r\n            scannedPowerOfAttorneyCount++;\r\n        } else if (voterType == VoterType.PowerOfAttorney) {\r\n            registeredPowerOfAttorneyCount++;\r\n        } else if (voterType == VoterType.VoterPass) {\r\n            registeredVoterPassCount++;\r\n        } else if (voterType == VoterType.Objection) {\r\n            registeredObjectionCount++;\r\n        }\r\n        \r\n        return true;\r\n    }\r\n    \r\n    function getReport() public view returns (uint scannedPollingCards, uint registeredVoterPasses, uint scannedPowerOfAttorneys, uint registeredPowerOfAttorneys, uint registeredObjections, uint collectedPollingCards, uint collectedVoterPasses, uint collectedPowerOfAttorneys, uint yes, uint no, uint blank, uint invalid) {\r\n        return (scannedPollingCardCount, registeredVoterPassCount, scannedPowerOfAttorneyCount, registeredPowerOfAttorneyCount, registeredObjectionCount, collectedPollingCardCount, collectedVoterPassCount, collectedPowerOfAttorneyCount, yesLocal, noLocal, blankLocal, invalidLocal);\r\n    }\r\n    \r\n    function yes() public _isSessionOpen() _isNotVerified() _verifyRole(Role.Chairman) {\r\n        beganCounting = true;\r\n        yesLocal++;\r\n        munContract.voteYes();\r\n        VoteCounted(1, true, \"\");\r\n    }\r\n    \r\n    function no() public _isSessionOpen() _isNotVerified() _verifyRole(Role.Chairman) {\r\n        beganCounting = true;\r\n        noLocal++;\r\n        munContract.voteNo();\r\n        VoteCounted(2, true, \"\");\r\n    }\r\n    \r\n    function blank() public _isSessionOpen() _isNotVerified() _verifyRole(Role.Chairman) {\r\n        beganCounting = true;\r\n        blankLocal++;\r\n        munContract.voteBlank();\r\n        VoteCounted(3, true, \"\");\r\n    }\r\n    \r\n    function invalid() public _isSessionOpen() _isNotVerified() _verifyRole(Role.Chairman) {\r\n        beganCounting = true;\r\n        invalidLocal++;\r\n        munContract.voteInvalid();\r\n        VoteCounted(4, true, \"\");\r\n    }\r\n    \r\n    function getVerification() public view returns (bool) {\r\n        return verificationSuccessful;\r\n    }\r\n    \r\n    function getVotingRound() public view returns (uint) {\r\n        return votingRound;\r\n    }\r\n    \r\n    function recount() public _verifyRole(Role.Chairman) {\r\n        munContract.recount();\r\n        votingRound++;\r\n        yesLocal = 0;\r\n        noLocal = 0;\r\n        blankLocal = 0;\r\n        invalidLocal = 0;\r\n        needsRecount = false;\r\n    }\r\n    \r\n    function inputControlNumbers(uint pollingCards, uint powerOfAttorneys, uint voterPasses) public _verifyRole(Role.Chairman) {\r\n        collectedPollingCardCount = pollingCards;\r\n        collectedPowerOfAttorneyCount = powerOfAttorneys;\r\n        collectedVoterPassCount = voterPasses;\r\n        ControlNumbersAdded(pollingCards, powerOfAttorneys, voterPasses);\r\n    }\r\n    \r\n    function verifyVotes(uint yesCount, uint noCount, uint blankCount, uint invalidCount) public _verifyRole(Role.Chairman) {\r\n        if (verificationSuccessful) {\r\n            VerificationDone(verificationSuccessful, \"Verification already happened and it was successful. Input disregarded.\", false, false, false, false, false);\r\n            return;\r\n        }\r\n        \r\n        if (needsRecount) {\r\n            VerificationDone(verificationSuccessful, \"Recount necessary before new verification attempt.\", needsRecount, false, false, false, false);\r\n            return;\r\n        }\r\n        \r\n        if (!beganCounting) {\r\n            VerificationDone(verificationSuccessful, \"Counting must begin first.\", true, false, false, false, false);\r\n            return;\r\n        }\r\n        \r\n        beganCounting = false;\r\n        bool yesVerified = (yesCount == yesLocal);\r\n        bool noVerified = (noCount == noLocal);\r\n        bool blankVerified = (blankCount == blankLocal);\r\n        bool invalidVerified = (invalidCount == invalidLocal);\r\n        if (yesVerified && noVerified && blankVerified && invalidVerified) {\r\n            verificationSuccessful = true;\r\n            VerificationDone(verificationSuccessful, \"\", needsRecount, yesVerified, noVerified, blankVerified, invalidVerified);\r\n        } else {\r\n            needsRecount = true;\r\n            VerificationDone(verificationSuccessful, \"Needs Recount.\", needsRecount, yesVerified, noVerified, blankVerified, invalidVerified);\r\n        }\r\n    }\r\n    \r\n    // Returns the deviation of all votes against the number of collected cards\r\n    function getDeviation() public view returns (uint) {\r\n        int deviation = int(blankLocal + noLocal + yesLocal + invalidLocal) - int(collectedVoterPassCount + collectedPowerOfAttorneyCount + collectedPollingCardCount);\r\n        \r\n        if (deviation < 0) {\r\n            deviation = deviation * -1;\r\n        }\r\n        \r\n        return uint(deviation);\r\n    }\r\n    \r\n    function signOff(string explanation) public _canSignOff() returns(bool) {       \r\n        Role role = Role(roles[msg.sender]);\r\n        if (role == Role.Teller) {\r\n            signedOffTellerCount++;\r\n            signedOffStaff[msg.sender] = 1;\r\n            SignedOff(msg.sender, true, \"\");\r\n        } else if (role == Role.Chairman) {\r\n            if (signedInTellerCount != signedOffTellerCount) {\r\n                SignedOff(msg.sender, false, \"All tellers must signoff first\");\r\n                return false;\r\n            }\r\n            if (getDeviation() != 0 && bytes(explanation).length <= 5) {\r\n                SignedOff(msg.sender, false, \"You should supply an explanation when a deviation occurs.\");\r\n                return false;\r\n            }\r\n\r\n            if (bytes(explanation).length > 140) {\r\n                SignedOff(msg.sender, false, \"Explanation is longer than 140 characters.\");\r\n                return false;\r\n            } else if (getDeviation() != 0) {\r\n                deviationExplanation = explanation;\r\n            }\r\n            signedOffChairmenCount++;\r\n            if (signedOffChairmenCount >= signedInChairmenCount) {\r\n                votingSessionClosed = true;\r\n                signedOffStaff[msg.sender] = 1;\r\n                SignedOff(msg.sender, true, \"\");\r\n                VotingFinished(this);\r\n                return true;\r\n            }\r\n        } else {\r\n            SignedOff(msg.sender, false, \"Role violation.\");\r\n        }\r\n        return false;                \r\n    }\r\n\r\n    function canSubmit() public view returns (bool) {\r\n        return signedOffTellerCount > 0 && signedInTellerCount == signedOffTellerCount && signedOffChairmenCount > 0 && signedOffChairmenCount == signedInChairmenCount;\r\n    }\r\n}",
  "sourcePath": "D:\\LAB15\\git\\CountingVotes\\ps-blockchain\\contracts\\pollingstation.sol",
  "compiler": {
    "name": "solc",
    "version": "0.4.19+commit.c4cbbb05.Emscripten.clang"
  },
  "schemaVersion": "2.0.0",
  "updatedAt": "2018-03-16T12:15:08.344Z"
}