{
  "contractName": "PollingStation",
  "abi": [
    {
      "constant": true,
      "inputs": [],
      "name": "getUacAddress",
      "outputs": [
        {
          "name": "userActivationAddress",
          "type": "address"
        }
      ],
      "payable": false,
      "stateMutability": "view",
      "type": "function"
    },
    {
      "constant": true,
      "inputs": [],
      "name": "VOTING_START_TIMESTAMP",
      "outputs": [
        {
          "name": "",
          "type": "uint256"
        }
      ],
      "payable": false,
      "stateMutability": "view",
      "type": "function"
    },
    {
      "constant": true,
      "inputs": [],
      "name": "munContract",
      "outputs": [
        {
          "name": "",
          "type": "address"
        }
      ],
      "payable": false,
      "stateMutability": "view",
      "type": "function"
    },
    {
      "constant": true,
      "inputs": [],
      "name": "getRole",
      "outputs": [
        {
          "name": "",
          "type": "uint8"
        }
      ],
      "payable": false,
      "stateMutability": "view",
      "type": "function"
    },
    {
      "inputs": [
        {
          "name": "mAddress",
          "type": "address"
        },
        {
          "name": "uacAddress",
          "type": "address"
        }
      ],
      "payable": false,
      "stateMutability": "nonpayable",
      "type": "constructor"
    },
    {
      "anonymous": false,
      "inputs": [
        {
          "indexed": false,
          "name": "qrCodeHash",
          "type": "bytes32"
        }
      ],
      "name": "VoterAlreadyRecorded",
      "type": "event"
    },
    {
      "anonymous": false,
      "inputs": [
        {
          "indexed": false,
          "name": "qrCodeHash",
          "type": "bytes32"
        }
      ],
      "name": "VoterCleared",
      "type": "event"
    },
    {
      "anonymous": false,
      "inputs": [
        {
          "indexed": false,
          "name": "userAddress",
          "type": "address"
        },
        {
          "indexed": false,
          "name": "role",
          "type": "uint8"
        }
      ],
      "name": "UserSignedIn",
      "type": "event"
    },
    {
      "anonymous": false,
      "inputs": [
        {
          "indexed": false,
          "name": "success",
          "type": "bool"
        },
        {
          "indexed": false,
          "name": "message",
          "type": "string"
        },
        {
          "indexed": false,
          "name": "userAddress",
          "type": "address"
        },
        {
          "indexed": false,
          "name": "role",
          "type": "uint8"
        }
      ],
      "name": "UserSignedOut",
      "type": "event"
    },
    {
      "anonymous": false,
      "inputs": [
        {
          "indexed": false,
          "name": "pollingStation",
          "type": "address"
        }
      ],
      "name": "VotingFinished",
      "type": "event"
    },
    {
      "anonymous": false,
      "inputs": [
        {
          "indexed": false,
          "name": "staff",
          "type": "address"
        }
      ],
      "name": "StaffSignedOff",
      "type": "event"
    },
    {
      "anonymous": false,
      "inputs": [
        {
          "indexed": false,
          "name": "staff",
          "type": "address"
        },
        {
          "indexed": false,
          "name": "success",
          "type": "bool"
        },
        {
          "indexed": false,
          "name": "message",
          "type": "string"
        }
      ],
      "name": "SignedOff",
      "type": "event"
    },
    {
      "anonymous": false,
      "inputs": [
        {
          "indexed": false,
          "name": "success",
          "type": "bool"
        },
        {
          "indexed": false,
          "name": "message",
          "type": "string"
        },
        {
          "indexed": false,
          "name": "needsRecount",
          "type": "bool"
        },
        {
          "indexed": false,
          "name": "yes",
          "type": "bool"
        },
        {
          "indexed": false,
          "name": "no",
          "type": "bool"
        },
        {
          "indexed": false,
          "name": "blank",
          "type": "bool"
        },
        {
          "indexed": false,
          "name": "invalid",
          "type": "bool"
        }
      ],
      "name": "VerificationDone",
      "type": "event"
    },
    {
      "anonymous": false,
      "inputs": [
        {
          "indexed": false,
          "name": "pollingCards",
          "type": "uint256"
        },
        {
          "indexed": false,
          "name": "powerOfAttorneys",
          "type": "uint256"
        },
        {
          "indexed": false,
          "name": "voterPasses",
          "type": "uint256"
        }
      ],
      "name": "ControlNumbersAdded",
      "type": "event"
    },
    {
      "anonymous": false,
      "inputs": [
        {
          "indexed": false,
          "name": "pollingStation",
          "type": "address"
        }
      ],
      "name": "VotingSessionBegan",
      "type": "event"
    },
    {
      "anonymous": false,
      "inputs": [
        {
          "indexed": false,
          "name": "voteCode",
          "type": "uint256"
        },
        {
          "indexed": false,
          "name": "success",
          "type": "bool"
        },
        {
          "indexed": false,
          "name": "message",
          "type": "string"
        }
      ],
      "name": "VoteCounted",
      "type": "event"
    },
    {
      "anonymous": false,
      "inputs": [
        {
          "indexed": false,
          "name": "success",
          "type": "bool"
        },
        {
          "indexed": false,
          "name": "message",
          "type": "string"
        },
        {
          "indexed": false,
          "name": "email",
          "type": "string"
        },
        {
          "indexed": false,
          "name": "userAddress",
          "type": "address"
        },
        {
          "indexed": false,
          "name": "role",
          "type": "uint8"
        }
      ],
      "name": "UserAdded",
      "type": "event"
    },
    {
      "anonymous": false,
      "inputs": [
        {
          "indexed": false,
          "name": "uAddress",
          "type": "address"
        },
        {
          "indexed": false,
          "name": "email",
          "type": "string"
        }
      ],
      "name": "UserCreationFailed",
      "type": "event"
    },
    {
      "anonymous": false,
      "inputs": [
        {
          "indexed": false,
          "name": "message",
          "type": "string"
        }
      ],
      "name": "NotAllowed",
      "type": "event"
    },
    {
      "constant": true,
      "inputs": [],
      "name": "getMunicipalityAddress",
      "outputs": [
        {
          "name": "municipalityAddress",
          "type": "address"
        }
      ],
      "payable": false,
      "stateMutability": "view",
      "type": "function"
    },
    {
      "constant": false,
      "inputs": [
        {
          "name": "user",
          "type": "address"
        },
        {
          "name": "email",
          "type": "string"
        }
      ],
      "name": "setUserRole",
      "outputs": [],
      "payable": true,
      "stateMutability": "payable",
      "type": "function"
    },
    {
      "constant": true,
      "inputs": [],
      "name": "isSessionOpen",
      "outputs": [
        {
          "name": "",
          "type": "bool"
        }
      ],
      "payable": false,
      "stateMutability": "view",
      "type": "function"
    },
    {
      "constant": false,
      "inputs": [],
      "name": "signIn",
      "outputs": [],
      "payable": false,
      "stateMutability": "nonpayable",
      "type": "function"
    },
    {
      "constant": true,
      "inputs": [],
      "name": "getSignedInTellers",
      "outputs": [
        {
          "name": "",
          "type": "uint8"
        }
      ],
      "payable": false,
      "stateMutability": "view",
      "type": "function"
    },
    {
      "constant": false,
      "inputs": [],
      "name": "signOut",
      "outputs": [],
      "payable": false,
      "stateMutability": "nonpayable",
      "type": "function"
    },
    {
      "constant": false,
      "inputs": [],
      "name": "beginVotingSession",
      "outputs": [],
      "payable": false,
      "stateMutability": "nonpayable",
      "type": "function"
    },
    {
      "constant": false,
      "inputs": [
        {
          "name": "qrCodeHash",
          "type": "bytes32"
        },
        {
          "name": "voterType",
          "type": "uint8"
        }
      ],
      "name": "recordVoter",
      "outputs": [
        {
          "name": "",
          "type": "bool"
        }
      ],
      "payable": false,
      "stateMutability": "nonpayable",
      "type": "function"
    },
    {
      "constant": true,
      "inputs": [],
      "name": "getReport",
      "outputs": [
        {
          "name": "scannedPollingCards",
          "type": "uint256"
        },
        {
          "name": "registeredVoterPasses",
          "type": "uint256"
        },
        {
          "name": "scannedPowerOfAttorneys",
          "type": "uint256"
        },
        {
          "name": "registeredPowerOfAttorneys",
          "type": "uint256"
        },
        {
          "name": "registeredObjections",
          "type": "uint256"
        },
        {
          "name": "collectedPollingCards",
          "type": "uint256"
        },
        {
          "name": "collectedVoterPasses",
          "type": "uint256"
        },
        {
          "name": "collectedPowerOfAttorneys",
          "type": "uint256"
        },
        {
          "name": "yes",
          "type": "uint256"
        },
        {
          "name": "no",
          "type": "uint256"
        },
        {
          "name": "blank",
          "type": "uint256"
        },
        {
          "name": "invalid",
          "type": "uint256"
        }
      ],
      "payable": false,
      "stateMutability": "view",
      "type": "function"
    },
    {
      "constant": false,
      "inputs": [
        {
          "name": "voteId",
          "type": "uint256"
        },
        {
          "name": "timestamp",
          "type": "string"
        }
      ],
      "name": "countVote",
      "outputs": [],
      "payable": false,
      "stateMutability": "nonpayable",
      "type": "function"
    },
    {
      "constant": false,
      "inputs": [],
      "name": "recount",
      "outputs": [],
      "payable": false,
      "stateMutability": "nonpayable",
      "type": "function"
    },
    {
      "constant": false,
      "inputs": [
        {
          "name": "pollingCards",
          "type": "uint256"
        },
        {
          "name": "powerOfAttorneys",
          "type": "uint256"
        },
        {
          "name": "voterPasses",
          "type": "uint256"
        }
      ],
      "name": "inputControlNumbers",
      "outputs": [],
      "payable": false,
      "stateMutability": "nonpayable",
      "type": "function"
    },
    {
      "constant": false,
      "inputs": [
        {
          "name": "yesCount",
          "type": "uint256"
        },
        {
          "name": "noCount",
          "type": "uint256"
        },
        {
          "name": "blankCount",
          "type": "uint256"
        },
        {
          "name": "invalidCount",
          "type": "uint256"
        }
      ],
      "name": "verifyVotes",
      "outputs": [],
      "payable": false,
      "stateMutability": "nonpayable",
      "type": "function"
    },
    {
      "constant": true,
      "inputs": [],
      "name": "getDeviation",
      "outputs": [
        {
          "name": "",
          "type": "uint256"
        }
      ],
      "payable": false,
      "stateMutability": "view",
      "type": "function"
    },
    {
      "constant": false,
      "inputs": [
        {
          "name": "explanation",
          "type": "string"
        }
      ],
      "name": "signOff",
      "outputs": [
        {
          "name": "",
          "type": "bool"
        }
      ],
      "payable": false,
      "stateMutability": "nonpayable",
      "type": "function"
    },
    {
      "constant": true,
      "inputs": [],
      "name": "canSubmit",
      "outputs": [
        {
          "name": "",
          "type": "bool"
        }
      ],
      "payable": false,
      "stateMutability": "view",
      "type": "function"
    }
  ],
  "bytecode": "0x60606040526000600360006101000a8154816fffffffffffffffffffffffffffffffff02191690836fffffffffffffffffffffffffffffffff1602179055506000600360106101000a8154816fffffffffffffffffffffffffffffffff02191690836fffffffffffffffffffffffffffffffff1602179055506000600460006101000a8154816fffffffffffffffffffffffffffffffff02191690836fffffffffffffffffffffffffffffffff1602179055506000600460106101000a8154816fffffffffffffffffffffffffffffffff02191690836fffffffffffffffffffffffffffffffff1602179055506000600560006101000a8154816fffffffffffffffffffffffffffffffff02191690836fffffffffffffffffffffffffffffffff16021790555060006006556000600755600060085560006009556000600a556000600b556000600c556000600d556000600e60006101000a81548160ff021916908360ff1602179055506000600e60016101000a81548160ff021916908360ff1602179055506000600e60026101000a81548160ff021916908360ff1602179055506000600e60036101000a81548160ff021916908360ff1602179055506001600e60046101000a81548160ff0219169083151502179055506000601060006101000a81548160ff0219169083151502179055506001601060016101000a81548160ff0219169083151502179055506000601060026101000a81548160ff02191690831515021790555034156200023657600080fd5b604051604080620043558339810160405280805190602001909190805190602001909190505080336000806101000a81548173ffffffffffffffffffffffffffffffffffffffff021916908373ffffffffffffffffffffffffffffffffffffffff16021790555080600160006101000a81548173ffffffffffffffffffffffffffffffffffffffff021916908373ffffffffffffffffffffffffffffffffffffffff1602179055505081601460006101000a81548173ffffffffffffffffffffffffffffffffffffffff021916908373ffffffffffffffffffffffffffffffffffffffff160217905550601460009054906101000a900473ffffffffffffffffffffffffffffffffffffffff1673ffffffffffffffffffffffffffffffffffffffff16638d796bb36040518163ffffffff167c0100000000000000000000000000000000000000000000000000000000028152600401600060405180830381600087803b1515620003a657600080fd5b6102c65a03f11515620003b857600080fd5b5050505050613f8880620003cd6000396000f300606060405260043610610112576000357c0100000000000000000000000000000000000000000000000000000000900463ffffffff16806313959081146101175780631df3c85c1461017d57806323f314c4146101d257806324716b20146102105780632bb9e0751461025b5780632f87f8d11461027057806334adc875146102c55780634c1aa976146102da578063724de979146102ef57806386bafc791461036057806389ab35321461038d578063941974a2146103b65780639e4cda43146103eb578063c8bef55014610400578063ce909a5214610429578063dfc86fe21461049e578063e4085d67146104f3578063fde0817414610569578063fe559d97146105a0578063ffbc9bd0146105cf575b600080fd5b341561012257600080fd5b61017b600480803590602001909190803590602001908201803590602001908080601f016020809104026020016040519081016040528093929190818152602001838380828437820191505050505050919050506105fc565b005b341561018857600080fd5b610190610baa565b604051808273ffffffffffffffffffffffffffffffffffffffff1673ffffffffffffffffffffffffffffffffffffffff16815260200191505060405180910390f35b34156101dd57600080fd5b61020e6004808035906020019091908035906020019091908035906020019091908035906020019091905050610bd4565b005b341561021b57600080fd5b61024160048080356000191690602001909190803560ff169060200190919050506112a6565b604051808215151515815260200191505060405180910390f35b341561026657600080fd5b61026e611787565b005b341561027b57600080fd5b610283611a3e565b604051808273ffffffffffffffffffffffffffffffffffffffff1673ffffffffffffffffffffffffffffffffffffffff16815260200191505060405180910390f35b34156102d057600080fd5b6102d8611a68565b005b34156102e557600080fd5b6102ed611ddc565b005b61035e600480803573ffffffffffffffffffffffffffffffffffffffff1690602001909190803590602001908201803590602001908080601f016020809104026020016040519081016040528093929190818152602001838380828437820191505050505050919050506120c2565b005b341561036b57600080fd5b6103736122d3565b604051808215151515815260200191505060405180910390f35b341561039857600080fd5b6103a06122eb565b6040518082815260200191505060405180910390f35b34156103c157600080fd5b6103e960048080359060200190919080359060200190919080359060200190919050506123c3565b005b34156103f657600080fd5b6103fe6125c1565b005b341561040b57600080fd5b610413612b1f565b6040518082815260200191505060405180910390f35b341561043457600080fd5b610484600480803590602001908201803590602001908080601f01602080910402602001604051908101604052809392919081815260200183838082843782019150505050505091905050612b24565b604051808215151515815260200191505060405180910390f35b34156104a957600080fd5b6104b1613676565b604051808273ffffffffffffffffffffffffffffffffffffffff1673ffffffffffffffffffffffffffffffffffffffff16815260200191505060405180910390f35b34156104fe57600080fd5b61050661369c565b604051808d81526020018c81526020018b81526020018a81526020018981526020018881526020018781526020018681526020018581526020018481526020018381526020018281526020019c5050505050505050505050505060405180910390f35b341561057457600080fd5b61057c6137bc565b6040518082600481111561058c57fe5b60ff16815260200191505060405180910390f35b34156105ab57600080fd5b6105b361381e565b604051808260ff1660ff16815260200191505060405180910390f35b34156105da57600080fd5b6105e2613835565b604051808215151515815260200191505060405180910390f35b6106046122d3565b1515610677577f367dccf700b76ac212780fb422c9b7569b12f28f39de0a0f8622641a83355ab16040518080602001828103825260128152602001807f53657373696f6e20697320636c6f7365642e000000000000000000000000000081525060200191505060405180910390a1610ba6565b601060009054906101000a900460ff161515610b0157600380600481111561069b57fe5b600260003273ffffffffffffffffffffffffffffffffffffffff1673ffffffffffffffffffffffffffffffffffffffff16815260200190815260200160002060009054906101000a900460ff1660ff1660048111156106f657fe5b600481111561070157fe5b1415610a92576001601060026101000a81548160ff021916908315150217905550600183141561078f576003601081819054906101000a90046fffffffffffffffffffffffffffffffff168092919060010191906101000a8154816fffffffffffffffffffffffffffffffff02191690836fffffffffffffffffffffffffffffffff160217905550506108cb565b60028314156107fc576004600081819054906101000a90046fffffffffffffffffffffffffffffffff168092919060010191906101000a8154816fffffffffffffffffffffffffffffffff02191690836fffffffffffffffffffffffffffffffff160217905550506108ca565b6003831415610869576005600081819054906101000a90046fffffffffffffffffffffffffffffffff168092919060010191906101000a8154816fffffffffffffffffffffffffffffffff02191690836fffffffffffffffffffffffffffffffff160217905550506108c9565b6004601081819054906101000a90046fffffffffffffffffffffffffffffffff168092919060010191906101000a8154816fffffffffffffffffffffffffffffffff02191690836fffffffffffffffffffffffffffffffff160217905550505b5b5b601460009054906101000a900473ffffffffffffffffffffffffffffffffffffffff1673ffffffffffffffffffffffffffffffffffffffff16631395908184846040518363ffffffff167c01000000000000000000000000000000000000000000000000000000000281526004018083815260200180602001828103825283818151815260200191508051906020019080838360005b8381101561097c578082015181840152602081019050610961565b50505050905090810190601f1680156109a95780820380516001836020036101000a031916815260200191505b509350505050600060405180830381600087803b15156109c857600080fd5b6102c65a03f115156109d957600080fd5b5050507f87567035f0c5d3143998f3f50df307463b25b6e935e0113bb98a7985fcf5da3d83600184604051808481526020018315151515815260200180602001828103825283818151815260200191508051906020019080838360005b83811015610a51578082015181840152602081019050610a36565b50505050905090810190601f168015610a7e5780820380516001836020036101000a031916815260200191505b5094505050505060405180910390a1610afb565b7f367dccf700b76ac212780fb422c9b7569b12f28f39de0a0f8622641a83355ab16040518080602001828103825260148152602001807f556e617574686f72697a6564206163636573732e00000000000000000000000081525060200191505060405180910390a15b50610ba5565b7f87567035f0c5d3143998f3f50df307463b25b6e935e0113bb98a7985fcf5da3d600080604051808381526020018215151515815260200180602001828103825260378152602001807f566572696669636174696f6e20616c72656164792068617070656e65642c207681526020017f6f746520636f756e74696e6720697320636c6f7365642e000000000000000000815250604001935050505060405180910390a15b5b5050565b6000600160009054906101000a900473ffffffffffffffffffffffffffffffffffffffff16905090565b6000806000806003806004811115610be857fe5b600260003273ffffffffffffffffffffffffffffffffffffffff1673ffffffffffffffffffffffffffffffffffffffff16815260200190815260200160002060009054906101000a900460ff1660ff166004811115610c4357fe5b6004811115610c4e57fe5b141561123257601060009054906101000a900460ff1615610d7c577f43ee49b353e606440a3e01e92992e6016fe11eb3c3745608f6b54fbc8d758faa601060009054906101000a900460ff1660008060008060006040518087151515158152602001806020018715151515815260200186151515158152602001851515151581526020018415151515815260200183151515158152602001828103825260478152602001807f566572696669636174696f6e20616c72656164792068617070656e656420616e81526020017f6420697420776173207375636365737366756c2e20496e70757420646973726581526020017f6761726465642e0000000000000000000000000000000000000000000000000081525060600197505050505050505060405180910390a161122d565b601060019054906101000a900460ff1615610e8c577f43ee49b353e606440a3e01e92992e6016fe11eb3c3745608f6b54fbc8d758faa601060009054906101000a900460ff16601060019054906101000a900460ff166000806000806040518087151515158152602001806020018715151515815260200186151515158152602001851515151581526020018415151515815260200183151515158152602001828103825260328152602001807f5265636f756e74206e6563657373617279206265666f7265206e65772076657281526020017f696669636174696f6e20617474656d70742e000000000000000000000000000081525060400197505050505050505060405180910390a161122d565b601060029054906101000a900460ff161515610f69577f43ee49b353e606440a3e01e92992e6016fe11eb3c3745608f6b54fbc8d758faa601060009054906101000a900460ff16600160008060008060405180871515151581526020018060200187151515158152602001861515151581526020018515151515815260200184151515158152602001831515151581526020018281038252601a8152602001807f436f756e74696e67206d75737420626567696e2066697273742e00000000000081525060200197505050505050505060405180910390a161122d565b6000601060026101000a81548160ff021916908315150217905550600360109054906101000a90046fffffffffffffffffffffffffffffffff166fffffffffffffffffffffffffffffffff1689149450600460009054906101000a90046fffffffffffffffffffffffffffffffff166fffffffffffffffffffffffffffffffff1688149350600560009054906101000a90046fffffffffffffffffffffffffffffffff166fffffffffffffffffffffffffffffffff1687149250600460109054906101000a90046fffffffffffffffffffffffffffffffff166fffffffffffffffffffffffffffffffff16861491508480156110625750835b801561106b5750825b80156110745750815b15611142576001601060006101000a81548160ff0219169083151502179055507f43ee49b353e606440a3e01e92992e6016fe11eb3c3745608f6b54fbc8d758faa601060009054906101000a900460ff16601060019054906101000a900460ff1687878787604051808715151515815260200180602001871515151581526020018615151515815260200185151515158152602001841515151581526020018315151515815260200182810382526000815260200160200197505050505050505060405180910390a161122c565b6001601060016101000a81548160ff0219169083151502179055507f43ee49b353e606440a3e01e92992e6016fe11eb3c3745608f6b54fbc8d758faa601060009054906101000a900460ff16601060019054906101000a900460ff168787878760405180871515151581526020018060200187151515158152602001861515151581526020018515151515815260200184151515158152602001831515151581526020018281038252600e8152602001807f4e65656473205265636f756e742e00000000000000000000000000000000000081525060200197505050505050505060405180910390a15b5b61129b565b7f367dccf700b76ac212780fb422c9b7569b12f28f39de0a0f8622641a83355ab16040518080602001828103825260148152602001807f556e617574686f72697a6564206163636573732e00000000000000000000000081525060200191505060405180910390a15b505050505050505050565b60008060038060048111156112b757fe5b600260003273ffffffffffffffffffffffffffffffffffffffff1673ffffffffffffffffffffffffffffffffffffffff16815260200190815260200160002060009054906101000a900460ff1660ff16600481111561131257fe5b600481111561131d57fe5b14156117165784601460009054906101000a900473ffffffffffffffffffffffffffffffffffffffff1673ffffffffffffffffffffffffffffffffffffffff16639d38800d826000604051602001526040518263ffffffff167c0100000000000000000000000000000000000000000000000000000000028152600401808260001916600019168152602001915050602060405180830381600087803b15156113c557600080fd5b6102c65a03f115156113d657600080fd5b5050506040518051905015611429577fc6f463ff03552b32a5c8648ccdcd61429246dafb835c341eb26574fdb791bdf08160405180826000191660001916815260200191505060405180910390a1611710565b7fd135bcf6825b1f8773fbc5614aff8574c3d4bb8bc5853109ef17f35b30e5a0ba8160405180826000191660001916815260200191505060405180910390a16000600581111561147557fe5b85600581111561148157fe5b1115806114a3575060058081111561149557fe5b8560058111156114a157fe5b115b15611519577f367dccf700b76ac212780fb422c9b7569b12f28f39de0a0f8622641a83355ab16040518080602001828103825260138152602001807f496e76616c696420766f74657220747970652e0000000000000000000000000081525060200191505060405180910390a16000935061170f565b601460009054906101000a900473ffffffffffffffffffffffffffffffffffffffff1673ffffffffffffffffffffffffffffffffffffffff166324716b2087876000604051602001526040518363ffffffff167c01000000000000000000000000000000000000000000000000000000000281526004018083600019166000191681526020018260058111156115ab57fe5b60ff16815260200192505050602060405180830381600087803b15156115d057600080fd5b6102c65a03f115156115e157600080fd5b5050506040518051905092508215156115fd576000935061170f565b6001600581111561160a57fe5b85600581111561161657fe5b14156116335760066000815480929190600101919050555061170a565b6002600581111561164057fe5b85600581111561164c57fe5b141561166957600760008154809291906001019190505550611709565b6003600581111561167657fe5b85600581111561168257fe5b141561169f57600860008154809291906001019190505550611708565b600460058111156116ac57fe5b8560058111156116b857fe5b14156116d557600960008154809291906001019190505550611707565b6005808111156116e157fe5b8560058111156116ed57fe5b141561170657600a600081548092919060010191905055505b5b5b5b5b600193505b5b5061177f565b7f367dccf700b76ac212780fb422c9b7569b12f28f39de0a0f8622641a83355ab16040518080602001828103825260148152602001807f556e617574686f72697a6564206163636573732e00000000000000000000000081525060200191505060405180910390a15b505092915050565b6000809054906101000a900473ffffffffffffffffffffffffffffffffffffffff1673ffffffffffffffffffffffffffffffffffffffff163273ffffffffffffffffffffffffffffffffffffffff161415611a3c576001421180156117f85750600e60049054906101000a900460ff165b80156118115750601060009054906101000a900460ff16155b156119ac576000600e60046101000a81548160ff0219169083151502179055506000601060016101000a81548160ff0219169083151502179055506003600081819054906101000a90046fffffffffffffffffffffffffffffffff168092919060010191906101000a8154816fffffffffffffffffffffffffffffffff02191690836fffffffffffffffffffffffffffffffff160217905550507ff8c17d4907a64b36c45f63ee113f829f56a8059e18751190e9d7f81d18aed06530604051808273ffffffffffffffffffffffffffffffffffffffff1673ffffffffffffffffffffffffffffffffffffffff16815260200191505060405180910390a1601460009054906101000a900473ffffffffffffffffffffffffffffffffffffffff1673ffffffffffffffffffffffffffffffffffffffff16632bb9e0756040518163ffffffff167c0100000000000000000000000000000000000000000000000000000000028152600401600060405180830381600087803b151561199357600080fd5b6102c65a03f115156119a457600080fd5b505050611a3b565b7f367dccf700b76ac212780fb422c9b7569b12f28f39de0a0f8622641a83355ab16040518080602001828103825260278152602001807f4e6f7420616c6c6f776564206265666f7265206f6666696369616c207374617281526020017f7420646174652e0000000000000000000000000000000000000000000000000081525060400191505060405180910390a15b5b565b6000601460009054906101000a900473ffffffffffffffffffffffffffffffffffffffff16905090565b6000600260003373ffffffffffffffffffffffffffffffffffffffff1673ffffffffffffffffffffffffffffffffffffffff16815260200190815260200160002060009054906101000a900460ff1660ff166004811115611ac557fe5b905060036004811115611ad457fe5b816004811115611ae057fe5b1415611baa577f9f5d878a6c93f9c0170f49b359f3217699e53adf8f8291807c90626fc5faf88a600033836040518084151515158152602001806020018473ffffffffffffffffffffffffffffffffffffffff1673ffffffffffffffffffffffffffffffffffffffff168152602001836004811115611b5b57fe5b60ff1681526020018281038252601b8152602001807f5468652063686169726d616e2063616e2774207369676e206f7574000000000081525060200194505050505060405180910390a1611dd9565b600480811115611bb657fe5b816004811115611bc257fe5b1415611d1757600e600181819054906101000a900460ff16809291906001900391906101000a81548160ff021916908360ff160217905550506000601260003373ffffffffffffffffffffffffffffffffffffffff1673ffffffffffffffffffffffffffffffffffffffff16815260200190815260200160002060006101000a81548160ff0219169083151502179055507f9f5d878a6c93f9c0170f49b359f3217699e53adf8f8291807c90626fc5faf88a600133836040518084151515158152602001806020018473ffffffffffffffffffffffffffffffffffffffff1673ffffffffffffffffffffffffffffffffffffffff168152602001836004811115611cc857fe5b60ff1681526020018281038252600f8152602001807f55736572207369676e6564206f7574000000000000000000000000000000000081525060200194505050505060405180910390a1611dd8565b7f9f5d878a6c93f9c0170f49b359f3217699e53adf8f8291807c90626fc5faf88a60003360006040518084151515158152602001806020018473ffffffffffffffffffffffffffffffffffffffff1673ffffffffffffffffffffffffffffffffffffffff168152602001836004811115611d8d57fe5b60ff168152602001828103825260128152602001807f55736572206e6f74207369676e656420696e000000000000000000000000000081525060200194505050505060405180910390a15b5b50565b6003806004811115611dea57fe5b600260003273ffffffffffffffffffffffffffffffffffffffff1673ffffffffffffffffffffffffffffffffffffffff16815260200190815260200160002060009054906101000a900460ff1660ff166004811115611e4557fe5b6004811115611e5057fe5b141561205657601460009054906101000a900473ffffffffffffffffffffffffffffffffffffffff1673ffffffffffffffffffffffffffffffffffffffff16634c1aa9766040518163ffffffff167c0100000000000000000000000000000000000000000000000000000000028152600401600060405180830381600087803b1515611edb57600080fd5b6102c65a03f11515611eec57600080fd5b5050506003600081819054906101000a90046fffffffffffffffffffffffffffffffff168092919060010191906101000a8154816fffffffffffffffffffffffffffffffff02191690836fffffffffffffffffffffffffffffffff160217905550506000600360106101000a8154816fffffffffffffffffffffffffffffffff02191690836fffffffffffffffffffffffffffffffff1602179055506000600460006101000a8154816fffffffffffffffffffffffffffffffff02191690836fffffffffffffffffffffffffffffffff1602179055506000600560006101000a8154816fffffffffffffffffffffffffffffffff02191690836fffffffffffffffffffffffffffffffff1602179055506000600460106101000a8154816fffffffffffffffffffffffffffffffff02191690836fffffffffffffffffffffffffffffffff1602179055506000601060016101000a81548160ff0219169083151502179055506120bf565b7f367dccf700b76ac212780fb422c9b7569b12f28f39de0a0f8622641a83355ab16040518080602001828103825260148152602001807f556e617574686f72697a6564206163636573732e00000000000000000000000081525060200191505060405180910390a15b50565b6000809054906101000a900473ffffffffffffffffffffffffffffffffffffffff1673ffffffffffffffffffffffffffffffffffffffff163273ffffffffffffffffffffffffffffffffffffffff1614156122cf5760003411151561212657600080fd5b61213082826138cd565b601460009054906101000a900473ffffffffffffffffffffffffffffffffffffffff1673ffffffffffffffffffffffffffffffffffffffff1663724de97983836040518363ffffffff167c0100000000000000000000000000000000000000000000000000000000028152600401808373ffffffffffffffffffffffffffffffffffffffff1673ffffffffffffffffffffffffffffffffffffffff16815260200180602001828103825283818151815260200191508051906020019080838360005b8381101561220d5780820151818401526020810190506121f2565b50505050905090810190601f16801561223a5780820380516001836020036101000a031916815260200191505b509350505050600060405180830381600087803b151561225957600080fd5b6102c65a03f1151561226a57600080fd5b50505061227681613d55565b60018273ffffffffffffffffffffffffffffffffffffffff16311115156122ce578173ffffffffffffffffffffffffffffffffffffffff166108fc349081150290604051600060405180830381858888f19350505050505b5b5050565b6000600e60049054906101000a900460ff1615905090565b600080600b54600c54600d540101600460109054906101000a90046fffffffffffffffffffffffffffffffff16600360109054906101000a90046fffffffffffffffffffffffffffffffff16600460009054906101000a90046fffffffffffffffffffffffffffffffff16600560009054906101000a90046fffffffffffffffffffffffffffffffff160101016fffffffffffffffffffffffffffffffff1603905060008112156123bc577fffffffffffffffffffffffffffffffffffffffffffffffffffffffffffffffff810290505b8091505090565b60038060048111156123d157fe5b600260003273ffffffffffffffffffffffffffffffffffffffff1673ffffffffffffffffffffffffffffffffffffffff16815260200190815260200160002060009054906101000a900460ff1660ff16600481111561242c57fe5b600481111561243757fe5b14156125525783600b8190555082600c8190555081600d81905550601460009054906101000a900473ffffffffffffffffffffffffffffffffffffffff1673ffffffffffffffffffffffffffffffffffffffff1663941974a28585856040518463ffffffff167c0100000000000000000000000000000000000000000000000000000000028152600401808481526020018381526020018281526020019350505050600060405180830381600087803b15156124f257600080fd5b6102c65a03f1151561250357600080fd5b5050507faeceb13618d1f91e300025c2eed9b7064b28e50e9624b49ea8c3f33fae6f5d7384848460405180848152602001838152602001828152602001935050505060405180910390a16125bb565b7f367dccf700b76ac212780fb422c9b7569b12f28f39de0a0f8622641a83355ab16040518080602001828103825260148152602001807f556e617574686f72697a6564206163636573732e00000000000000000000000081525060200191505060405180910390a15b50505050565b600080600260003373ffffffffffffffffffffffffffffffffffffffff1673ffffffffffffffffffffffffffffffffffffffff16815260200190815260200160002060009054906101000a900460ff1660ff16600481111561261f57fe5b90506126296122d3565b151561269c577f367dccf700b76ac212780fb422c9b7569b12f28f39de0a0f8622641a83355ab16040518080602001828103825260198152602001807f566f74696e672053657373696f6e20697320636c6f7365642e0000000000000081525060200191505060405180910390a1612b1b565b600360048111156126a957fe5b8160048111156126b557fe5b1480156126d457506000600e60009054906101000a900460ff1660ff16145b8061271357506004808111156126e657fe5b8160048111156126f257fe5b14801561271257506000600e60009054906101000a900460ff1660ff1610155b5b15612a8b57600260003373ffffffffffffffffffffffffffffffffffffffff1673ffffffffffffffffffffffffffffffffffffffff16815260200190815260200160002060009054906101000a900460ff1660ff16600481111561277357fe5b91506003600481111561278257fe5b82600481111561278e57fe5b141561287757601160003373ffffffffffffffffffffffffffffffffffffffff1673ffffffffffffffffffffffffffffffffffffffff16815260200190815260200160002060009054906101000a900460ff16151561281a57600e600081819054906101000a900460ff168092919060010191906101000a81548160ff021916908360ff160217905550505b6001601160003373ffffffffffffffffffffffffffffffffffffffff1673ffffffffffffffffffffffffffffffffffffffff16815260200190815260200160002060006101000a81548160ff021916908315150217905550612a0c565b60048081111561288357fe5b82600481111561288f57fe5b141561297857601260003373ffffffffffffffffffffffffffffffffffffffff1673ffffffffffffffffffffffffffffffffffffffff16815260200190815260200160002060009054906101000a900460ff16151561291b57600e600181819054906101000a900460ff168092919060010191906101000a81548160ff021916908360ff160217905550505b6001601260003373ffffffffffffffffffffffffffffffffffffffff1673ffffffffffffffffffffffffffffffffffffffff16815260200190815260200160002060006101000a81548160ff021916908315150217905550612a0b565b7f367dccf700b76ac212780fb422c9b7569b12f28f39de0a0f8622641a83355ab16040518080602001828103825260218152602001807f556e616c6c6f77656420726f6c65206f722072756c652076696f6c6174696f6e81526020017f2e0000000000000000000000000000000000000000000000000000000000000081525060400191505060405180910390a1612a86565b5b7f45cd18d769a210a633e8004aa52201726912d20a65e161dedd6650fb3058a3783383604051808373ffffffffffffffffffffffffffffffffffffffff1673ffffffffffffffffffffffffffffffffffffffff168152602001826004811115612a7157fe5b60ff1681526020019250505060405180910390a15b612b1a565b7f367dccf700b76ac212780fb422c9b7569b12f28f39de0a0f8622641a83355ab16040518080602001828103825260218152602001807f556e616c6c6f77656420726f6c65206f722072756c652076696f6c6174696f6e81526020017f2e0000000000000000000000000000000000000000000000000000000000000081525060400191505060405180910390a15b5b5050565b600181565b600080600260003373ffffffffffffffffffffffffffffffffffffffff1673ffffffffffffffffffffffffffffffffffffffff16815260200190815260200160002060009054906101000a900460ff1660ff166004811115612b8257fe5b9050600e60049054906101000a900460ff1680612bac5750601060009054906101000a900460ff16155b80612bf757506000601360003373ffffffffffffffffffffffffffffffffffffffff1673ffffffffffffffffffffffffffffffffffffffff1681526020019081526020016000205414155b15612cae577f76159ff031441b48dca9d0fcd995632b18116259a9887cfe2c1ece27b8cf2113336000604051808373ffffffffffffffffffffffffffffffffffffffff1673ffffffffffffffffffffffffffffffffffffffff1681526020018215151515815260200180602001828103825260118152602001807f436f756c646e2774207369676e6f66662e000000000000000000000000000000815250602001935050505060405180910390a160009150613670565b600480811115612cba57fe5b816004811115612cc657fe5b148015612d24575060011515601260003373ffffffffffffffffffffffffffffffffffffffff1673ffffffffffffffffffffffffffffffffffffffff16815260200190815260200160002060009054906101000a900460ff16151514155b15612e01577f76159ff031441b48dca9d0fcd995632b18116259a9887cfe2c1ece27b8cf2113336000604051808373ffffffffffffffffffffffffffffffffffffffff1673ffffffffffffffffffffffffffffffffffffffff1681526020018215151515815260200180602001828103825260248152602001807f4f6e6c79207369676e656420696e2054656c6c6572732063616e207369676e2081526020017f6f66662e00000000000000000000000000000000000000000000000000000000815250604001935050505060405180910390a160009150613670565b60036004811115612e0e57fe5b816004811115612e1a57fe5b148015612e78575060011515601160003373ffffffffffffffffffffffffffffffffffffffff1673ffffffffffffffffffffffffffffffffffffffff16815260200190815260200160002060009054906101000a900460ff16151514155b15612f55577f76159ff031441b48dca9d0fcd995632b18116259a9887cfe2c1ece27b8cf2113336000604051808373ffffffffffffffffffffffffffffffffffffffff1673ffffffffffffffffffffffffffffffffffffffff1681526020018215151515815260200180602001828103825260258152602001807f4f6e6c79207369676e656420696e2043686169726d656e2063616e207369676e81526020017f206f66662e000000000000000000000000000000000000000000000000000000815250604001935050505060405180910390a160009150613670565b600480811115612f6157fe5b816004811115612f6d57fe5b141561307357600e600381819054906101000a900460ff168092919060010191906101000a81548160ff021916908360ff160217905550506001601360003373ffffffffffffffffffffffffffffffffffffffff1673ffffffffffffffffffffffffffffffffffffffff168152602001908152602001600020819055507f76159ff031441b48dca9d0fcd995632b18116259a9887cfe2c1ece27b8cf2113336001604051808373ffffffffffffffffffffffffffffffffffffffff1673ffffffffffffffffffffffffffffffffffffffff1681526020018215151515815260200180602001828103825260008152602001602001935050505060405180910390a161366b565b6003600481111561308057fe5b81600481111561308c57fe5b14156135c057600e60039054906101000a900460ff1660ff16600e60019054906101000a900460ff1660ff16141515613171577f76159ff031441b48dca9d0fcd995632b18116259a9887cfe2c1ece27b8cf2113336000604051808373ffffffffffffffffffffffffffffffffffffffff1673ffffffffffffffffffffffffffffffffffffffff16815260200182151515158152602001806020018281038252601e8152602001807f416c6c2074656c6c657273206d757374207369676e6f66662066697273740000815250602001935050505060405180910390a160009150613670565b600061317b6122eb565b1415801561318b57506005835111155b15613268577f76159ff031441b48dca9d0fcd995632b18116259a9887cfe2c1ece27b8cf2113336000604051808373ffffffffffffffffffffffffffffffffffffffff1673ffffffffffffffffffffffffffffffffffffffff1681526020018215151515815260200180602001828103825260398152602001807f596f752073686f756c6420737570706c7920616e206578706c616e6174696f6e81526020017f207768656e206120646576696174696f6e206f63637572732e00000000000000815250604001935050505060405180910390a160009150613670565b608c8351111561334a577f76159ff031441b48dca9d0fcd995632b18116259a9887cfe2c1ece27b8cf2113336000604051808373ffffffffffffffffffffffffffffffffffffffff1673ffffffffffffffffffffffffffffffffffffffff16815260200182151515158152602001806020018281038252602a8152602001807f4578706c616e6174696f6e206973206c6f6e676572207468616e20313430206381526020017f6861726163746572732e00000000000000000000000000000000000000000000815250604001935050505060405180910390a160009150613670565b60006133546122eb565b1415156133735782600f9080519060200190613371929190613eb7565b505b600e600281819054906101000a900460ff168092919060010191906101000a81548160ff021916908360ff16021790555050600e60009054906101000a900460ff1660ff16600e60029054906101000a900460ff1660ff161015156135bb576001600e60046101000a81548160ff0219169083151502179055506001601360003373ffffffffffffffffffffffffffffffffffffffff1673ffffffffffffffffffffffffffffffffffffffff16815260200190815260200160002081905550601460009054906101000a900473ffffffffffffffffffffffffffffffffffffffff1673ffffffffffffffffffffffffffffffffffffffff1663bc5bd14a6040518163ffffffff167c0100000000000000000000000000000000000000000000000000000000028152600401600060405180830381600087803b15156134b757600080fd5b6102c65a03f115156134c857600080fd5b5050507f76159ff031441b48dca9d0fcd995632b18116259a9887cfe2c1ece27b8cf2113336001604051808373ffffffffffffffffffffffffffffffffffffffff1673ffffffffffffffffffffffffffffffffffffffff1681526020018215151515815260200180602001828103825260008152602001602001935050505060405180910390a17f4636d8618be0c9ce1d54a3899392732cbf63446bdf72f5d0920a95657771e9ff30604051808273ffffffffffffffffffffffffffffffffffffffff1673ffffffffffffffffffffffffffffffffffffffff16815260200191505060405180910390a160019150613670565b61366a565b7f76159ff031441b48dca9d0fcd995632b18116259a9887cfe2c1ece27b8cf2113336000604051808373ffffffffffffffffffffffffffffffffffffffff1673ffffffffffffffffffffffffffffffffffffffff16815260200182151515158152602001806020018281038252600f8152602001807f526f6c652076696f6c6174696f6e2e0000000000000000000000000000000000815250602001935050505060405180910390a15b5b600091505b50919050565b601460009054906101000a900473ffffffffffffffffffffffffffffffffffffffff1681565b600080600080600080600080600080600080600654600954600754600854600a54600b54600d54600c54600360109054906101000a90046fffffffffffffffffffffffffffffffff16600460009054906101000a90046fffffffffffffffffffffffffffffffff16600560009054906101000a90046fffffffffffffffffffffffffffffffff16600460109054906101000a90046fffffffffffffffffffffffffffffffff16836fffffffffffffffffffffffffffffffff169350826fffffffffffffffffffffffffffffffff169250816fffffffffffffffffffffffffffffffff169150806fffffffffffffffffffffffffffffffff1690509b509b509b509b509b509b509b509b509b509b509b509b50909192939495969798999a9b565b6000600260003273ffffffffffffffffffffffffffffffffffffffff1673ffffffffffffffffffffffffffffffffffffffff16815260200190815260200160002060009054906101000a900460ff1660ff16600481111561381957fe5b905090565b6000600e60019054906101000a900460ff16905090565b600080600e60039054906101000a900460ff1660ff1611801561387b5750600e60039054906101000a900460ff1660ff16600e60019054906101000a900460ff1660ff16145b801561389957506000600e60029054906101000a900460ff1660ff16115b80156138c85750600e60009054906101000a900460ff1660ff16600e60029054906101000a900460ff1660ff16145b905090565b60008060009054906101000a900473ffffffffffffffffffffffffffffffffffffffff1673ffffffffffffffffffffffffffffffffffffffff163273ffffffffffffffffffffffffffffffffffffffff161415613d5057600160009054906101000a900473ffffffffffffffffffffffffffffffffffffffff1673ffffffffffffffffffffffffffffffffffffffff1663b8c51067836000604051602001526040518263ffffffff167c01000000000000000000000000000000000000000000000000000000000281526004018080602001828103825283818151815260200191508051906020019080838360005b838110156139d75780820151818401526020810190506139bc565b50505050905090810190601f168015613a045780820380516001836020036101000a031916815260200191505b5092505050602060405180830381600087803b1515613a2257600080fd5b6102c65a03f11515613a3357600080fd5b5050506040518051905060ff166004811115613a4b57fe5b905060006004811115613a5a57fe5b816004811115613a6657fe5b118015613a895750600480811115613a7a57fe5b816004811115613a8657fe5b11155b15613c2257806004811115613a9a57fe5b600260008573ffffffffffffffffffffffffffffffffffffffff1673ffffffffffffffffffffffffffffffffffffffff16815260200190815260200160002060006101000a81548160ff021916908360ff1602179055507fe0002dd72fe0d21c584dfb23d23de71a96770c70d5b244275f416a35df6b29726001838584604051808515151515815260200180602001806020018573ffffffffffffffffffffffffffffffffffffffff1673ffffffffffffffffffffffffffffffffffffffff168152602001846004811115613b6b57fe5b60ff1681526020018381038352600a8152602001807f5573657220416464656400000000000000000000000000000000000000000000815250602001838103825286818151815260200191508051906020019080838360005b83811015613bdf578082015181840152602081019050613bc4565b50505050905090810190601f168015613c0c5780820380516001836020036101000a031916815260200191505b50965050505050505060405180910390a1613d4f565b7fe0002dd72fe0d21c584dfb23d23de71a96770c70d5b244275f416a35df6b29726000838584604051808515151515815260200180602001806020018573ffffffffffffffffffffffffffffffffffffffff1673ffffffffffffffffffffffffffffffffffffffff168152602001846004811115613c9c57fe5b60ff168152602001838103835260148152602001807f55736572204372656174696f6e204661696c6564000000000000000000000000815250602001838103825286818151815260200191508051906020019080838360005b83811015613d10578082015181840152602081019050613cf5565b50505050905090810190601f168015613d3d5780820380516001836020036101000a031916815260200191505b50965050505050505060405180910390a15b5b505050565b6000809054906101000a900473ffffffffffffffffffffffffffffffffffffffff1673ffffffffffffffffffffffffffffffffffffffff163273ffffffffffffffffffffffffffffffffffffffff161415613eb457600160009054906101000a900473ffffffffffffffffffffffffffffffffffffffff1673ffffffffffffffffffffffffffffffffffffffff16634af57033826040518263ffffffff167c01000000000000000000000000000000000000000000000000000000000281526004018080602001828103825283818151815260200191508051906020019080838360005b83811015613e54578082015181840152602081019050613e39565b50505050905090810190601f168015613e815780820380516001836020036101000a031916815260200191505b5092505050600060405180830381600087803b1515613e9f57600080fd5b6102c65a03f11515613eb057600080fd5b5050505b50565b828054600181600116156101000203166002900490600052602060002090601f016020900481019282601f10613ef857805160ff1916838001178555613f26565b82800160010185558215613f26579182015b82811115613f25578251825591602001919060010190613f0a565b5b509050613f339190613f37565b5090565b613f5991905b80821115613f55576000816000905550600101613f3d565b5090565b905600a165627a7a72305820f8c378bfe57f6e2a617f555fe0cb43f6891c2b7e6fe4d8baa6c6268e3057fb560029",
  "source": "pragma solidity ^0.4.19;\r\n\r\nimport \"./permissions.sol\";\r\nimport \"./municipality.sol\";\r\n\r\n\r\ncontract PollingStation is Permissions {\r\n    \r\n    //Voting data\r\n    uint128 private votingRound = 0;\r\n    uint128 private yesLocal = 0;\r\n    uint128 private noLocal = 0;\r\n    uint128 private invalidLocal = 0;\r\n    uint128 private blankLocal = 0;\r\n    \r\n    //Voter Registration\r\n    uint private scannedPollingCardCount = 0;\r\n    uint private scannedPowerOfAttorneyCount = 0;\r\n    uint private registeredPowerOfAttorneyCount = 0;\r\n    uint private registeredVoterPassCount = 0;\r\n    uint private registeredObjectionCount = 0;\r\n    \r\n    //Control Numbers\r\n    uint private collectedPollingCardCount = 0;\r\n    uint private collectedPowerOfAttorneyCount = 0;\r\n    uint private collectedVoterPassCount = 0;\r\n    \r\n    //Access control\r\n    uint8 private signedInChairmenCount = 0;\r\n    uint8 private signedInTellerCount = 0;\r\n    uint8 private signedOffChairmenCount = 0;\r\n    uint8 private signedOffTellerCount = 0;\r\n    bool private votingSessionClosed = true;\r\n    string private deviationExplanation;\r\n    bool private verificationSuccessful = false;\r\n    bool private needsRecount = true;\r\n    bool private beganCounting = false;\r\n    \r\n    //Mappings\r\n    mapping (address => bool) private signedInChairmen;\r\n    mapping (address => bool) private signedInTellers;\r\n    mapping (address => uint256) private signedOffStaff;\r\n    \r\n    Municipality public munContract;\r\n    \r\n    event VoterAlreadyRecorded(bytes32 qrCodeHash);\r\n    event VoterCleared(bytes32 qrCodeHash);\r\n    event UserSignedIn(address userAddress, Role role);\r\n    event UserSignedOut(bool success, string message, address userAddress, Role role);\r\n    event VotingFinished(address pollingStation);\r\n    event StaffSignedOff(address staff);\r\n    event SignedOff(address staff, bool success, string message);\r\n    event VerificationDone(bool success, string message, bool needsRecount, bool yes, bool no, bool blank, bool invalid);\r\n    event ControlNumbersAdded(uint256 pollingCards, uint256 powerOfAttorneys, uint256 voterPasses);\r\n    event VotingSessionBegan(address pollingStation);\r\n    event VoteCounted(uint voteCode, bool success, string message);\r\n    \r\n    function PollingStation(address mAddress, address uacAddress) Permissions(uacAddress) public {\r\n        munContract = Municipality(mAddress);\r\n        munContract.enrollPollStation();\r\n    }\r\n\r\n    modifier _noRevote(bytes32 qrCodeHash) {\r\n        if (munContract.userVoted(qrCodeHash)) {\r\n            VoterAlreadyRecorded(qrCodeHash);\r\n        } else {\r\n            VoterCleared(qrCodeHash);\r\n            _;\r\n        }\r\n    }\r\n    \r\n    modifier _isSessionOpen() {\r\n        if (!isSessionOpen()) {\r\n            NotAllowed(\"Session is closed.\");\r\n        } else {\r\n            _;\r\n        }\r\n    }\r\n\r\n    modifier _isNotVerified() {\r\n        if (!verificationSuccessful) {\r\n            _;\r\n        } else {\r\n            VoteCounted(0, false, \"Verification already happened, vote counting is closed.\");\r\n        }\r\n    }\r\n    \r\n    modifier _canSignIn() {\r\n        Role currRole = Role(roles[msg.sender]);\r\n        \r\n        if (!isSessionOpen()) {\r\n            NotAllowed(\"Voting Session is closed.\");\r\n            return;\r\n        }\r\n        \r\n        if ((currRole == Role.Chairman && signedInChairmenCount == 0) || (currRole == Role.Teller && signedInChairmenCount >= 0)) {\r\n            _;\r\n        } else {\r\n            NotAllowed(\"Unallowed role or rule violation.\");\r\n        }\r\n    }\r\n    \r\n    modifier _canSessionStart() {\r\n        \r\n        if (block.timestamp > VOTING_START_TIMESTAMP && votingSessionClosed && !verificationSuccessful) {\r\n            _;\r\n        } else {\r\n            NotAllowed(\"Not allowed before official start date.\");\r\n        }\r\n        \r\n    }\r\n    \r\n    function getMunicipalityAddress() public view returns (address municipalityAddress) {\r\n        return munContract;\r\n    }\r\n    \r\n    // this will record the roles locally and into the municipality\r\n    function setUserRole(address user, string email) public _isOwner() payable {\r\n        require(msg.value > 0);\r\n        super.setUserRole(user, email);\r\n        munContract.setUserRole(user, email);\r\n        super.setUsedEmail(email);\r\n        if (user.balance <= 1) {\r\n            user.send(msg.value);\r\n        }    \r\n    }\r\n    \r\n    function isSessionOpen() public view returns (bool) {\r\n        return !votingSessionClosed;\r\n    }\r\n    \r\n    function signIn() public _canSignIn() {\r\n        Role role = Role(roles[msg.sender]);\r\n        \r\n        if (role == Role.Chairman) {\r\n            if (!signedInChairmen[msg.sender]) {\r\n                signedInChairmenCount++;\r\n            }\r\n            signedInChairmen[msg.sender] = true;\r\n        } else if (role == Role.Teller) {\r\n            if (!signedInTellers[msg.sender]) {\r\n                signedInTellerCount++;\r\n            }\r\n            signedInTellers[msg.sender] = true;\r\n        } else {\r\n            NotAllowed(\"Unallowed role or rule violation.\");\r\n            return;\r\n        }\r\n        \r\n        UserSignedIn(msg.sender, role);\r\n    }\r\n\r\n    function getSignedInTellers() public view returns(uint8) {\r\n        return signedInTellerCount;\r\n    }\r\n    \r\n    function signOut() public { \r\n        Role role = Role(roles[msg.sender]);\r\n        if (role == Role.Chairman) {\r\n            UserSignedOut(false, \"The chairman can't sign out\", msg.sender, role);\r\n        } else if (role == Role.Teller) {\r\n            signedInTellerCount--;\r\n            signedInTellers[msg.sender] = false;\r\n            UserSignedOut(true, \"User signed out\", msg.sender, role);\r\n        } else {\r\n            UserSignedOut(false, \"User not signed in\", msg.sender, Role.Unknown);\r\n        }        \r\n    }\r\n    \r\n    function beginVotingSession() public _isOwner _canSessionStart() {\r\n        votingSessionClosed = false;\r\n        needsRecount = false;\r\n        votingRound++;\r\n        VotingSessionBegan(this);\r\n        munContract.beginVotingSession();\r\n    }\r\n    \r\n    function recordVoter(bytes32 qrCodeHash, VoterType voterType) public _verifyRole(Role.Chairman) _noRevote(qrCodeHash) returns(bool) {\r\n        if (voterType <= VoterType.Unspecified || voterType > VoterType.Objection) {\r\n            NotAllowed(\"Invalid voter type.\");\r\n            return false;\r\n        }\r\n        \r\n        bool success = munContract.recordVoter(qrCodeHash, voterType);\r\n        if (!success) {\r\n            return false;\r\n        }\r\n        \r\n        if (voterType == VoterType.PollingCard) {\r\n            scannedPollingCardCount++;\r\n        } else if (voterType == VoterType.PowerOfAttorneyPollingCard) {\r\n            scannedPowerOfAttorneyCount++;\r\n        } else if (voterType == VoterType.PowerOfAttorney) {\r\n            registeredPowerOfAttorneyCount++;\r\n        } else if (voterType == VoterType.VoterPass) {\r\n            registeredVoterPassCount++;\r\n        } else if (voterType == VoterType.Objection) {\r\n            registeredObjectionCount++;\r\n        }\r\n        \r\n        return true;\r\n    }\r\n    \r\n    function getReport() public view returns (uint scannedPollingCards, uint registeredVoterPasses, uint scannedPowerOfAttorneys, uint registeredPowerOfAttorneys, uint registeredObjections, uint collectedPollingCards, uint collectedVoterPasses, uint collectedPowerOfAttorneys, uint yes, uint no, uint blank, uint invalid) {\r\n        return (scannedPollingCardCount, registeredVoterPassCount, scannedPowerOfAttorneyCount, registeredPowerOfAttorneyCount, registeredObjectionCount, collectedPollingCardCount, collectedVoterPassCount, collectedPowerOfAttorneyCount, yesLocal, noLocal, blankLocal, invalidLocal);\r\n    }\r\n\r\n    function countVote(uint voteId, string timestamp) public _isSessionOpen() _isNotVerified() _verifyRole(Role.Chairman) {\r\n        beganCounting = true;\r\n        if (voteId == 1) {\r\n            yesLocal++;\r\n        } else if (voteId == 2) {\r\n            noLocal++;\r\n        } else if (voteId == 3) {\r\n            blankLocal++;\r\n        } else {\r\n            invalidLocal++;\r\n        }\r\n        \r\n        munContract.countVote(voteId, timestamp);\r\n        VoteCounted(voteId, true, timestamp);\r\n    }\r\n    \r\n    function recount() public _verifyRole(Role.Chairman) {\r\n        munContract.recount();\r\n        votingRound++;\r\n        yesLocal = 0;\r\n        noLocal = 0;\r\n        blankLocal = 0;\r\n        invalidLocal = 0;\r\n        needsRecount = false;\r\n    }\r\n    \r\n    function inputControlNumbers(uint pollingCards, uint powerOfAttorneys, uint voterPasses) public _verifyRole(Role.Chairman) {\r\n        collectedPollingCardCount = pollingCards;\r\n        collectedPowerOfAttorneyCount = powerOfAttorneys;\r\n        collectedVoterPassCount = voterPasses;\r\n        munContract.inputControlNumbers(pollingCards, powerOfAttorneys, voterPasses);\r\n        ControlNumbersAdded(pollingCards, powerOfAttorneys, voterPasses);\r\n    }\r\n    \r\n    function verifyVotes(uint yesCount, uint noCount, uint blankCount, uint invalidCount) public _verifyRole(Role.Chairman) {\r\n        if (verificationSuccessful) {\r\n            VerificationDone(verificationSuccessful, \"Verification already happened and it was successful. Input disregarded.\", false, false, false, false, false);\r\n            return;\r\n        }\r\n        \r\n        if (needsRecount) {\r\n            VerificationDone(verificationSuccessful, \"Recount necessary before new verification attempt.\", needsRecount, false, false, false, false);\r\n            return;\r\n        }\r\n        \r\n        if (!beganCounting) {\r\n            VerificationDone(verificationSuccessful, \"Counting must begin first.\", true, false, false, false, false);\r\n            return;\r\n        }\r\n        \r\n        beganCounting = false;\r\n        bool yesVerified = (yesCount == yesLocal);\r\n        bool noVerified = (noCount == noLocal);\r\n        bool blankVerified = (blankCount == blankLocal);\r\n        bool invalidVerified = (invalidCount == invalidLocal);\r\n        if (yesVerified && noVerified && blankVerified && invalidVerified) {\r\n            verificationSuccessful = true;\r\n            VerificationDone(verificationSuccessful, \"\", needsRecount, yesVerified, noVerified, blankVerified, invalidVerified);\r\n        } else {\r\n            needsRecount = true;\r\n            VerificationDone(verificationSuccessful, \"Needs Recount.\", needsRecount, yesVerified, noVerified, blankVerified, invalidVerified);\r\n        }\r\n    }\r\n    \r\n    // Returns the deviation of all votes against the number of collected cards\r\n    function getDeviation() public view returns (uint) {\r\n        int deviation = int(blankLocal + noLocal + yesLocal + invalidLocal) - int(collectedVoterPassCount + collectedPowerOfAttorneyCount + collectedPollingCardCount);\r\n        \r\n        if (deviation < 0) {\r\n            deviation = deviation * -1;\r\n        }\r\n        \r\n        return uint(deviation);\r\n    }\r\n    \r\n    function signOff(string explanation) public returns(bool) {       \r\n        Role role = Role(roles[msg.sender]);\r\n\r\n        if (votingSessionClosed || !verificationSuccessful || signedOffStaff[msg.sender] != 0) {\r\n            SignedOff(msg.sender, false, \"Couldn't signoff.\");\r\n            return false;\r\n        }\r\n\r\n        if (role == Role.Teller && signedInTellers[msg.sender] != true) {\r\n            SignedOff(msg.sender, false, \"Only signed in Tellers can sign off.\");\r\n            return false;\r\n        }\r\n        if (role == Role.Chairman && signedInChairmen[msg.sender] != true) {\r\n            SignedOff(msg.sender, false, \"Only signed in Chairmen can sign off.\");\r\n            return false;\r\n        }\r\n\r\n        if (role == Role.Teller) {\r\n            signedOffTellerCount++;\r\n            signedOffStaff[msg.sender] = 1;\r\n            SignedOff(msg.sender, true, \"\");\r\n        } else if (role == Role.Chairman) {\r\n            if (signedInTellerCount != signedOffTellerCount) {\r\n                SignedOff(msg.sender, false, \"All tellers must signoff first\");\r\n                return false;\r\n            }\r\n            if (getDeviation() != 0 && bytes(explanation).length <= 5) {\r\n                SignedOff(msg.sender, false, \"You should supply an explanation when a deviation occurs.\");\r\n                return false;\r\n            }\r\n\r\n            if (bytes(explanation).length > 140) {\r\n                SignedOff(msg.sender, false, \"Explanation is longer than 140 characters.\");\r\n                return false;\r\n            } else if (getDeviation() != 0) {\r\n                deviationExplanation = explanation;\r\n            }\r\n            signedOffChairmenCount++;\r\n            if (signedOffChairmenCount >= signedInChairmenCount) {\r\n                votingSessionClosed = true;\r\n                signedOffStaff[msg.sender] = 1;\r\n                munContract.finishVotingSession();\r\n                SignedOff(msg.sender, true, \"\");\r\n                VotingFinished(this);\r\n                return true;\r\n            }\r\n        } else {\r\n            SignedOff(msg.sender, false, \"Role violation.\");\r\n        }\r\n        return false;                \r\n    }\r\n\r\n    function canSubmit() public view returns (bool) {\r\n        return signedOffTellerCount > 0 && signedInTellerCount == signedOffTellerCount && signedOffChairmenCount > 0 && signedOffChairmenCount == signedInChairmenCount;\r\n    }\r\n}",
  "sourcePath": "D:\\LAB15\\git\\CountingVotes\\ps-blockchain\\contracts\\pollingstation.sol",
  "compiler": {
    "name": "solc",
    "version": "0.4.19+commit.c4cbbb05.Emscripten.clang"
  },
  "schemaVersion": "2.0.0",
  "updatedAt": "2018-04-03T09:56:12.833Z"
}