{
  "contractName": "PollingStation",
  "abi": [
    {
      "constant": true,
      "inputs": [],
      "name": "VOTING_START_TIMESTAMP",
      "outputs": [
        {
          "name": "",
          "type": "uint256"
        }
      ],
      "payable": false,
      "stateMutability": "view",
      "type": "function"
    },
    {
      "constant": true,
      "inputs": [],
      "name": "munContract",
      "outputs": [
        {
          "name": "",
          "type": "address"
        }
      ],
      "payable": false,
      "stateMutability": "view",
      "type": "function"
    },
    {
      "constant": true,
      "inputs": [],
      "name": "getRole",
      "outputs": [
        {
          "name": "",
          "type": "uint8"
        }
      ],
      "payable": false,
      "stateMutability": "view",
      "type": "function"
    },
    {
      "inputs": [
        {
          "name": "mAddress",
          "type": "address"
        },
        {
          "name": "uacAddress",
          "type": "address"
        }
      ],
      "payable": false,
      "stateMutability": "nonpayable",
      "type": "constructor"
    },
    {
      "anonymous": false,
      "inputs": [
        {
          "indexed": false,
          "name": "qrCodeHash",
          "type": "bytes32"
        }
      ],
      "name": "VoterAlreadyRecorded",
      "type": "event"
    },
    {
      "anonymous": false,
      "inputs": [
        {
          "indexed": false,
          "name": "qrCodeHash",
          "type": "bytes32"
        }
      ],
      "name": "VoterCleared",
      "type": "event"
    },
    {
      "anonymous": false,
      "inputs": [
        {
          "indexed": false,
          "name": "userAddress",
          "type": "address"
        },
        {
          "indexed": false,
          "name": "role",
          "type": "uint8"
        }
      ],
      "name": "UserSignedIn",
      "type": "event"
    },
    {
      "anonymous": false,
      "inputs": [
        {
          "indexed": false,
          "name": "userAddress",
          "type": "address"
        },
        {
          "indexed": false,
          "name": "role",
          "type": "uint8"
        }
      ],
      "name": "UserSignedOut",
      "type": "event"
    },
    {
      "anonymous": false,
      "inputs": [
        {
          "indexed": false,
          "name": "pollingStation",
          "type": "address"
        }
      ],
      "name": "VotingFinished",
      "type": "event"
    },
    {
      "anonymous": false,
      "inputs": [
        {
          "indexed": false,
          "name": "staff",
          "type": "address"
        }
      ],
      "name": "StaffSignedOff",
      "type": "event"
    },
    {
      "anonymous": false,
      "inputs": [
        {
          "indexed": false,
          "name": "yes",
          "type": "bool"
        },
        {
          "indexed": false,
          "name": "no",
          "type": "bool"
        },
        {
          "indexed": false,
          "name": "blank",
          "type": "bool"
        },
        {
          "indexed": false,
          "name": "invalid",
          "type": "bool"
        }
      ],
      "name": "VerificationAttempt",
      "type": "event"
    },
    {
      "anonymous": false,
      "inputs": [
        {
          "indexed": false,
          "name": "pollingCards",
          "type": "uint256"
        },
        {
          "indexed": false,
          "name": "powerOfAttorneys",
          "type": "uint256"
        },
        {
          "indexed": false,
          "name": "voterPasses",
          "type": "uint256"
        }
      ],
      "name": "ControlNumbersAdded",
      "type": "event"
    },
    {
      "anonymous": false,
      "inputs": [
        {
          "indexed": false,
          "name": "pollingStation",
          "type": "address"
        }
      ],
      "name": "VotingSessionBegan",
      "type": "event"
    },
    {
      "anonymous": false,
      "inputs": [
        {
          "indexed": false,
          "name": "role",
          "type": "uint8"
        }
      ],
      "name": "UserAdded",
      "type": "event"
    },
    {
      "anonymous": false,
      "inputs": [
        {
          "indexed": false,
          "name": "uAddress",
          "type": "address"
        },
        {
          "indexed": false,
          "name": "email",
          "type": "string"
        }
      ],
      "name": "UserCreationFailed",
      "type": "event"
    },
    {
      "anonymous": false,
      "inputs": [
        {
          "indexed": false,
          "name": "message",
          "type": "string"
        }
      ],
      "name": "NotAllowed",
      "type": "event"
    },
    {
      "constant": false,
      "inputs": [
        {
          "name": "user",
          "type": "address"
        },
        {
          "name": "email",
          "type": "string"
        }
      ],
      "name": "setUserRole",
      "outputs": [],
      "payable": true,
      "stateMutability": "payable",
      "type": "function"
    },
    {
      "constant": true,
      "inputs": [],
      "name": "isSessionOpen",
      "outputs": [
        {
          "name": "",
          "type": "bool"
        }
      ],
      "payable": false,
      "stateMutability": "view",
      "type": "function"
    },
    {
      "constant": false,
      "inputs": [],
      "name": "signIn",
      "outputs": [],
      "payable": false,
      "stateMutability": "nonpayable",
      "type": "function"
    },
    {
      "constant": false,
      "inputs": [],
      "name": "signOut",
      "outputs": [],
      "payable": false,
      "stateMutability": "nonpayable",
      "type": "function"
    },
    {
      "constant": false,
      "inputs": [],
      "name": "beginVotingSession",
      "outputs": [],
      "payable": false,
      "stateMutability": "nonpayable",
      "type": "function"
    },
    {
      "constant": false,
      "inputs": [
        {
          "name": "qrCodeHash",
          "type": "bytes32"
        },
        {
          "name": "voterType",
          "type": "uint8"
        }
      ],
      "name": "recordVoter",
      "outputs": [
        {
          "name": "",
          "type": "bool"
        }
      ],
      "payable": false,
      "stateMutability": "nonpayable",
      "type": "function"
    },
    {
      "constant": true,
      "inputs": [],
      "name": "getReport",
      "outputs": [
        {
          "name": "scannedPollingCards",
          "type": "uint256"
        },
        {
          "name": "registeredVoterPasses",
          "type": "uint256"
        },
        {
          "name": "scannedPowerOfAttorneys",
          "type": "uint256"
        },
        {
          "name": "registeredPowerOfAttorneys",
          "type": "uint256"
        },
        {
          "name": "registeredObjections",
          "type": "uint256"
        },
        {
          "name": "collectedPollingCards",
          "type": "uint256"
        },
        {
          "name": "collectedVoterPasses",
          "type": "uint256"
        },
        {
          "name": "collectedPowerOfAttorneys",
          "type": "uint256"
        },
        {
          "name": "yes",
          "type": "uint256"
        },
        {
          "name": "no",
          "type": "uint256"
        },
        {
          "name": "blank",
          "type": "uint256"
        },
        {
          "name": "invalid",
          "type": "uint256"
        }
      ],
      "payable": false,
      "stateMutability": "view",
      "type": "function"
    },
    {
      "constant": false,
      "inputs": [],
      "name": "yes",
      "outputs": [],
      "payable": false,
      "stateMutability": "nonpayable",
      "type": "function"
    },
    {
      "constant": false,
      "inputs": [],
      "name": "no",
      "outputs": [],
      "payable": false,
      "stateMutability": "nonpayable",
      "type": "function"
    },
    {
      "constant": false,
      "inputs": [],
      "name": "blank",
      "outputs": [],
      "payable": false,
      "stateMutability": "nonpayable",
      "type": "function"
    },
    {
      "constant": false,
      "inputs": [],
      "name": "invalid",
      "outputs": [],
      "payable": false,
      "stateMutability": "nonpayable",
      "type": "function"
    },
    {
      "constant": true,
      "inputs": [],
      "name": "getVerification",
      "outputs": [
        {
          "name": "",
          "type": "bool"
        }
      ],
      "payable": false,
      "stateMutability": "view",
      "type": "function"
    },
    {
      "constant": true,
      "inputs": [],
      "name": "getVotingRound",
      "outputs": [
        {
          "name": "",
          "type": "uint256"
        }
      ],
      "payable": false,
      "stateMutability": "view",
      "type": "function"
    },
    {
      "constant": false,
      "inputs": [],
      "name": "recount",
      "outputs": [],
      "payable": false,
      "stateMutability": "nonpayable",
      "type": "function"
    },
    {
      "constant": false,
      "inputs": [
        {
          "name": "pollingCards",
          "type": "uint256"
        },
        {
          "name": "powerOfAttorneys",
          "type": "uint256"
        },
        {
          "name": "voterPasses",
          "type": "uint256"
        }
      ],
      "name": "inputControlNumbers",
      "outputs": [],
      "payable": false,
      "stateMutability": "nonpayable",
      "type": "function"
    },
    {
      "constant": false,
      "inputs": [
        {
          "name": "yesCount",
          "type": "uint256"
        },
        {
          "name": "noCount",
          "type": "uint256"
        },
        {
          "name": "blankCount",
          "type": "uint256"
        },
        {
          "name": "invalidCount",
          "type": "uint256"
        }
      ],
      "name": "verifyVotes",
      "outputs": [
        {
          "name": "yesVerified",
          "type": "bool"
        },
        {
          "name": "noVerified",
          "type": "bool"
        },
        {
          "name": "blankVerified",
          "type": "bool"
        },
        {
          "name": "invalidVerified",
          "type": "bool"
        }
      ],
      "payable": false,
      "stateMutability": "nonpayable",
      "type": "function"
    },
    {
      "constant": true,
      "inputs": [],
      "name": "getDeviation",
      "outputs": [
        {
          "name": "",
          "type": "uint256"
        }
      ],
      "payable": false,
      "stateMutability": "view",
      "type": "function"
    },
    {
      "constant": false,
      "inputs": [
        {
          "name": "explanation",
          "type": "string"
        }
      ],
      "name": "signOff",
      "outputs": [
        {
          "name": "",
          "type": "bool"
        }
      ],
      "payable": false,
      "stateMutability": "nonpayable",
      "type": "function"
    }
  ],
  "bytecode": "0x60606040526000600360006101000a8154816fffffffffffffffffffffffffffffffff02191690836fffffffffffffffffffffffffffffffff1602179055506000600360106101000a8154816fffffffffffffffffffffffffffffffff02191690836fffffffffffffffffffffffffffffffff1602179055506000600460006101000a8154816fffffffffffffffffffffffffffffffff02191690836fffffffffffffffffffffffffffffffff1602179055506000600460106101000a8154816fffffffffffffffffffffffffffffffff02191690836fffffffffffffffffffffffffffffffff1602179055506000600560006101000a8154816fffffffffffffffffffffffffffffffff02191690836fffffffffffffffffffffffffffffffff16021790555060006006556000600755600060085560006009556000600a556000600b556000600c556000600d556000600e60006101000a81548160ff021916908360ff1602179055506000600e60016101000a81548160ff021916908360ff1602179055506000600e60026101000a81548160ff021916908360ff1602179055506000600e60036101000a81548160ff021916908360ff1602179055506001600e60046101000a81548160ff0219169083151502179055506000601060006101000a81548160ff0219169083151502179055506001601060016101000a81548160ff0219169083151502179055506000601060026101000a81548160ff021916908315150217905550341561023557600080fd5b604051604080620040aa8339810160405280805190602001909190805190602001909190505080336000806101000a81548173ffffffffffffffffffffffffffffffffffffffff021916908373ffffffffffffffffffffffffffffffffffffffff16021790555080600160006101000a81548173ffffffffffffffffffffffffffffffffffffffff021916908373ffffffffffffffffffffffffffffffffffffffff1602179055505081601460006101000a81548173ffffffffffffffffffffffffffffffffffffffff021916908373ffffffffffffffffffffffffffffffffffffffff160217905550601460009054906101000a900473ffffffffffffffffffffffffffffffffffffffff1673ffffffffffffffffffffffffffffffffffffffff16638d796bb36040518163ffffffff167c0100000000000000000000000000000000000000000000000000000000028152600401600060405180830381600087803b15156103a457600080fd5b6102c65a03f115156103b557600080fd5b5050505050613ce080620003ca6000396000f30060606040526004361061011d576000357c0100000000000000000000000000000000000000000000000000000000900463ffffffff1680631704f0981461012257806323f314c41461014f57806324716b20146101c65780632bb9e0751461021157806334adc875146102265780634c1aa9761461023b5780634c6c9b7814610250578063724de9791461026557806386bafc79146102d657806389ab3532146103035780638a365e591461032c578063941974a2146103555780639e4cda431461038a578063b6c52ae81461039f578063bde9e40e146103b4578063c8bef550146103c9578063ce909a52146103f2578063dfc86fe214610467578063e4085d67146104bc578063e66632fb14610532578063fde0817414610547575b600080fd5b341561012d57600080fd5b61013561057e565b604051808215151515815260200191505060405180910390f35b341561015a57600080fd5b61018b6004808035906020019091908035906020019091908035906020019091908035906020019091905050610595565b604051808515151515815260200184151515158152602001831515151581526020018215151515815260200194505050505060405180910390f35b34156101d157600080fd5b6101f760048080356000191690602001909190803560ff16906020019091905050610ae7565b604051808215151515815260200191505060405180910390f35b341561021c57600080fd5b610224610fc8565b005b341561023157600080fd5b6102396111e6565b005b341561024657600080fd5b61024e61166f565b005b341561025b57600080fd5b610263611955565b005b6102d4600480803573ffffffffffffffffffffffffffffffffffffffff1690602001909190803590602001908201803590602001908080601f01602080910402602001604051908101604052809392919081815260200183838082843782019150505050505091905050611bcf565b005b34156102e157600080fd5b6102e9611de0565b604051808215151515815260200191505060405180910390f35b341561030e57600080fd5b610316611e11565b6040518082815260200191505060405180910390f35b341561033757600080fd5b61033f611ee9565b6040518082815260200191505060405180910390f35b341561036057600080fd5b6103886004808035906020019091908035906020019091908035906020019091905050611f21565b005b341561039557600080fd5b61039d61206b565b005b34156103aa57600080fd5b6103b2612521565b005b34156103bf57600080fd5b6103c761279b565b005b34156103d457600080fd5b6103dc612a15565b6040518082815260200191505060405180910390f35b34156103fd57600080fd5b61044d600480803590602001908201803590602001908080601f01602080910402602001604051908101604052809392919081815260200183838082843782019150505050505091905050612a1a565b604051808215151515815260200191505060405180910390f35b341561047257600080fd5b61047a613367565b604051808273ffffffffffffffffffffffffffffffffffffffff1673ffffffffffffffffffffffffffffffffffffffff16815260200191505060405180910390f35b34156104c757600080fd5b6104cf61338d565b604051808d81526020018c81526020018b81526020018a81526020018981526020018881526020018781526020018681526020018581526020018481526020018381526020018281526020019c5050505050505050505050505060405180910390f35b341561053d57600080fd5b6105456134ad565b005b341561055257600080fd5b61055a613727565b6040518082600481111561056a57fe5b60ff16815260200191505060405180910390f35b6000601060009054906101000a900460ff16905090565b60008060008060038060048111156105a957fe5b600260003273ffffffffffffffffffffffffffffffffffffffff1673ffffffffffffffffffffffffffffffffffffffff16815260200190815260200160002060009054906101000a900460ff1660ff16600481111561060457fe5b600481111561060f57fe5b1415610a7257601060009054906101000a900460ff16156106f1577f367dccf700b76ac212780fb422c9b7569b12f28f39de0a0f8622641a83355ab16040518080602001828103825260478152602001807f566572696669636174696f6e20616c72656164792068617070656e656420616e81526020017f6420697420776173207375636365737366756c2e20496e70757420646973726581526020017f6761726465642e0000000000000000000000000000000000000000000000000081525060600191505060405180910390a16001806001809450945094509450610a6d565b601060019054906101000a900460ff1615610795577f367dccf700b76ac212780fb422c9b7569b12f28f39de0a0f8622641a83355ab16040518080602001828103825260328152602001807f5265636f756e74206e6563657373617279206265666f7265206e65772076657281526020017f696669636174696f6e20617474656d70742e000000000000000000000000000081525060400191505060405180910390a15b601060029054906101000a900460ff161515610814577f367dccf700b76ac212780fb422c9b7569b12f28f39de0a0f8622641a83355ab160405180806020018281038252601a8152602001807f436f756e74696e67206d75737420626567696e2066697273742e00000000000081525060200191505060405180910390a15b601060029054906101000a900460ff16158061083c5750601060019054906101000a900460ff165b156108b5577fcfc42fdb488cfdf107e9c6677564e2bd3f5731bb0199c318cbc6298ede4aaac3600080600080604051808515151515815260200184151515158152602001831515151581526020018215151515815260200194505050505060405180910390a16000806000809450945094509450610a6d565b6000601060026101000a81548160ff021916908315150217905550600360109054906101000a90046fffffffffffffffffffffffffffffffff166fffffffffffffffffffffffffffffffff1689149450600460009054906101000a90046fffffffffffffffffffffffffffffffff166fffffffffffffffffffffffffffffffff1688149350600560009054906101000a90046fffffffffffffffffffffffffffffffff166fffffffffffffffffffffffffffffffff1687149250600460109054906101000a90046fffffffffffffffffffffffffffffffff166fffffffffffffffffffffffffffffffff16861491507fcfc42fdb488cfdf107e9c6677564e2bd3f5731bb0199c318cbc6298ede4aaac385858585604051808515151515815260200184151515158152602001831515151581526020018215151515815260200194505050505060405180910390a1848015610a0d5750835b8015610a165750825b8015610a1f5750815b15610a44576001601060006101000a81548160ff021916908315150217905550610a60565b6001601060016101000a81548160ff0219169083151502179055505b8484848494509450945094505b610adb565b7f367dccf700b76ac212780fb422c9b7569b12f28f39de0a0f8622641a83355ab16040518080602001828103825260148152602001807f556e617574686f72697a6564206163636573732e00000000000000000000000081525060200191505060405180910390a15b50945094509450949050565b6000806003806004811115610af857fe5b600260003273ffffffffffffffffffffffffffffffffffffffff1673ffffffffffffffffffffffffffffffffffffffff16815260200190815260200160002060009054906101000a900460ff1660ff166004811115610b5357fe5b6004811115610b5e57fe5b1415610f575784601460009054906101000a900473ffffffffffffffffffffffffffffffffffffffff1673ffffffffffffffffffffffffffffffffffffffff16639d38800d826000604051602001526040518263ffffffff167c0100000000000000000000000000000000000000000000000000000000028152600401808260001916600019168152602001915050602060405180830381600087803b1515610c0657600080fd5b6102c65a03f11515610c1757600080fd5b5050506040518051905015610c6a577fc6f463ff03552b32a5c8648ccdcd61429246dafb835c341eb26574fdb791bdf08160405180826000191660001916815260200191505060405180910390a1610f51565b7fd135bcf6825b1f8773fbc5614aff8574c3d4bb8bc5853109ef17f35b30e5a0ba8160405180826000191660001916815260200191505060405180910390a160006005811115610cb657fe5b856005811115610cc257fe5b111580610ce45750600580811115610cd657fe5b856005811115610ce257fe5b115b15610d5a577f367dccf700b76ac212780fb422c9b7569b12f28f39de0a0f8622641a83355ab16040518080602001828103825260138152602001807f496e76616c696420766f74657220747970652e0000000000000000000000000081525060200191505060405180910390a160009350610f50565b601460009054906101000a900473ffffffffffffffffffffffffffffffffffffffff1673ffffffffffffffffffffffffffffffffffffffff166324716b2087876000604051602001526040518363ffffffff167c0100000000000000000000000000000000000000000000000000000000028152600401808360001916600019168152602001826005811115610dec57fe5b60ff16815260200192505050602060405180830381600087803b1515610e1157600080fd5b6102c65a03f11515610e2257600080fd5b505050604051805190509250821515610e3e5760009350610f50565b60016005811115610e4b57fe5b856005811115610e5757fe5b1415610e7457600660008154809291906001019190505550610f4b565b60026005811115610e8157fe5b856005811115610e8d57fe5b1415610eaa57600760008154809291906001019190505550610f4a565b60036005811115610eb757fe5b856005811115610ec357fe5b1415610ee057600860008154809291906001019190505550610f49565b60046005811115610eed57fe5b856005811115610ef957fe5b1415610f1657600960008154809291906001019190505550610f48565b600580811115610f2257fe5b856005811115610f2e57fe5b1415610f4757600a600081548092919060010191905055505b5b5b5b5b600193505b5b50610fc0565b7f367dccf700b76ac212780fb422c9b7569b12f28f39de0a0f8622641a83355ab16040518080602001828103825260148152602001807f556e617574686f72697a6564206163636573732e00000000000000000000000081525060200191505060405180910390a15b505092915050565b6000809054906101000a900473ffffffffffffffffffffffffffffffffffffffff1673ffffffffffffffffffffffffffffffffffffffff163273ffffffffffffffffffffffffffffffffffffffff1614156111e4576001421180156110395750600e60049054906101000a900460ff165b80156110525750601060009054906101000a900460ff16155b15611154576000600e60046101000a81548160ff0219169083151502179055506000601060016101000a81548160ff0219169083151502179055506003600081819054906101000a90046fffffffffffffffffffffffffffffffff168092919060010191906101000a8154816fffffffffffffffffffffffffffffffff02191690836fffffffffffffffffffffffffffffffff160217905550507ff8c17d4907a64b36c45f63ee113f829f56a8059e18751190e9d7f81d18aed06530604051808273ffffffffffffffffffffffffffffffffffffffff1673ffffffffffffffffffffffffffffffffffffffff16815260200191505060405180910390a16111e3565b7f367dccf700b76ac212780fb422c9b7569b12f28f39de0a0f8622641a83355ab16040518080602001828103825260278152602001807f4e6f7420616c6c6f776564206265666f7265206f6666696369616c207374617281526020017f7420646174652e0000000000000000000000000000000000000000000000000081525060400191505060405180910390a15b5b565b600080600260003373ffffffffffffffffffffffffffffffffffffffff1673ffffffffffffffffffffffffffffffffffffffff16815260200190815260200160002060009054906101000a900460ff1660ff16600481111561124457fe5b90506003600481111561125357fe5b81600481111561125f57fe5b14801561127e57506000600e60009054906101000a900460ff1660ff16115b801561129d57506000600e60019054906101000a900460ff1660ff1611155b80156112b55750600e60049054906101000a900460ff165b8061130a57506004808111156112c757fe5b8160048111156112d357fe5b14801561130957506001600e60019054906101000a900460ff1660ff1611806113085750600e60049054906101000a900460ff165b5b5b156115dc57600260003373ffffffffffffffffffffffffffffffffffffffff1673ffffffffffffffffffffffffffffffffffffffff16815260200190815260200160002060009054906101000a900460ff1660ff16600481111561136a57fe5b91506003600481111561137957fe5b82600481111561138557fe5b141561141b57600e600081819054906101000a900460ff16809291906001900391906101000a81548160ff021916908360ff160217905550506000601160003373ffffffffffffffffffffffffffffffffffffffff1673ffffffffffffffffffffffffffffffffffffffff16815260200190815260200160002060006101000a81548160ff02191690831515021790555061155d565b60048081111561142757fe5b82600481111561143357fe5b14156114c957600e600181819054906101000a900460ff16809291906001900391906101000a81548160ff021916908360ff160217905550506000601260003373ffffffffffffffffffffffffffffffffffffffff1673ffffffffffffffffffffffffffffffffffffffff16815260200190815260200160002060006101000a81548160ff02191690831515021790555061155c565b7f367dccf700b76ac212780fb422c9b7569b12f28f39de0a0f8622641a83355ab16040518080602001828103825260218152602001807f556e616c6c6f77656420726f6c65206f722072756c652076696f6c6174696f6e81526020017f2e0000000000000000000000000000000000000000000000000000000000000081525060400191505060405180910390a16115d7565b5b7f95e9e12152d49e817d9be172b4aa1bee982eb0d34932f10d6a5c36d19535f32a3383604051808373ffffffffffffffffffffffffffffffffffffffff1673ffffffffffffffffffffffffffffffffffffffff1681526020018260048111156115c257fe5b60ff1681526020019250505060405180910390a15b61166b565b7f367dccf700b76ac212780fb422c9b7569b12f28f39de0a0f8622641a83355ab16040518080602001828103825260218152602001807f556e616c6c6f77656420726f6c65206f722072756c652076696f6c6174696f6e81526020017f2e0000000000000000000000000000000000000000000000000000000000000081525060400191505060405180910390a15b5050565b600380600481111561167d57fe5b600260003273ffffffffffffffffffffffffffffffffffffffff1673ffffffffffffffffffffffffffffffffffffffff16815260200190815260200160002060009054906101000a900460ff1660ff1660048111156116d857fe5b60048111156116e357fe5b14156118e957601460009054906101000a900473ffffffffffffffffffffffffffffffffffffffff1673ffffffffffffffffffffffffffffffffffffffff16634c1aa9766040518163ffffffff167c0100000000000000000000000000000000000000000000000000000000028152600401600060405180830381600087803b151561176e57600080fd5b6102c65a03f1151561177f57600080fd5b5050506003600081819054906101000a90046fffffffffffffffffffffffffffffffff168092919060010191906101000a8154816fffffffffffffffffffffffffffffffff02191690836fffffffffffffffffffffffffffffffff160217905550506000600360106101000a8154816fffffffffffffffffffffffffffffffff02191690836fffffffffffffffffffffffffffffffff1602179055506000600460006101000a8154816fffffffffffffffffffffffffffffffff02191690836fffffffffffffffffffffffffffffffff1602179055506000600560006101000a8154816fffffffffffffffffffffffffffffffff02191690836fffffffffffffffffffffffffffffffff1602179055506000600460106101000a8154816fffffffffffffffffffffffffffffffff02191690836fffffffffffffffffffffffffffffffff1602179055506000601060016101000a81548160ff021916908315150217905550611952565b7f367dccf700b76ac212780fb422c9b7569b12f28f39de0a0f8622641a83355ab16040518080602001828103825260148152602001807f556e617574686f72697a6564206163636573732e00000000000000000000000081525060200191505060405180910390a15b50565b61195d611de0565b15156119d0577f367dccf700b76ac212780fb422c9b7569b12f28f39de0a0f8622641a83355ab16040518080602001828103825260128152602001807f53657373696f6e20697320636c6f7365642e000000000000000000000000000081525060200191505060405180910390a1611bcd565b60038060048111156119de57fe5b600260003273ffffffffffffffffffffffffffffffffffffffff1673ffffffffffffffffffffffffffffffffffffffff16815260200190815260200160002060009054906101000a900460ff1660ff166004811115611a3957fe5b6004811115611a4457fe5b1415611b62576001601060026101000a81548160ff0219169083151502179055506003601081819054906101000a90046fffffffffffffffffffffffffffffffff168092919060010191906101000a8154816fffffffffffffffffffffffffffffffff02191690836fffffffffffffffffffffffffffffffff16021790555050601460009054906101000a900473ffffffffffffffffffffffffffffffffffffffff1673ffffffffffffffffffffffffffffffffffffffff166390cf581c6040518163ffffffff167c0100000000000000000000000000000000000000000000000000000000028152600401600060405180830381600087803b1515611b4957600080fd5b6102c65a03f11515611b5a57600080fd5b505050611bcb565b7f367dccf700b76ac212780fb422c9b7569b12f28f39de0a0f8622641a83355ab16040518080602001828103825260148152602001807f556e617574686f72697a6564206163636573732e00000000000000000000000081525060200191505060405180910390a15b505b565b6000809054906101000a900473ffffffffffffffffffffffffffffffffffffffff1673ffffffffffffffffffffffffffffffffffffffff163273ffffffffffffffffffffffffffffffffffffffff161415611ddc57600034111515611c3357600080fd5b611c3d8282613789565b601460009054906101000a900473ffffffffffffffffffffffffffffffffffffffff1673ffffffffffffffffffffffffffffffffffffffff1663724de97983836040518363ffffffff167c0100000000000000000000000000000000000000000000000000000000028152600401808373ffffffffffffffffffffffffffffffffffffffff1673ffffffffffffffffffffffffffffffffffffffff16815260200180602001828103825283818151815260200191508051906020019080838360005b83811015611d1a578082015181840152602081019050611cff565b50505050905090810190601f168015611d475780820380516001836020036101000a031916815260200191505b509350505050600060405180830381600087803b1515611d6657600080fd5b6102c65a03f11515611d7757600080fd5b505050611d8381613aad565b60018273ffffffffffffffffffffffffffffffffffffffff1631111515611ddb578173ffffffffffffffffffffffffffffffffffffffff166108fc349081150290604051600060405180830381858888f19350505050505b5b5050565b6000600e60049054906101000a900460ff16158015611e0c5750601060009054906101000a900460ff16155b905090565b600080600b54600c54600d540101600460109054906101000a90046fffffffffffffffffffffffffffffffff16600360109054906101000a90046fffffffffffffffffffffffffffffffff16600460009054906101000a90046fffffffffffffffffffffffffffffffff16600560009054906101000a90046fffffffffffffffffffffffffffffffff160101016fffffffffffffffffffffffffffffffff160390506000811215611ee2577fffffffffffffffffffffffffffffffffffffffffffffffffffffffffffffffff810290505b8091505090565b6000600360009054906101000a90046fffffffffffffffffffffffffffffffff166fffffffffffffffffffffffffffffffff16905090565b6003806004811115611f2f57fe5b600260003273ffffffffffffffffffffffffffffffffffffffff1673ffffffffffffffffffffffffffffffffffffffff16815260200190815260200160002060009054906101000a900460ff1660ff166004811115611f8a57fe5b6004811115611f9557fe5b1415611ffc5783600b8190555082600c8190555081600d819055507faeceb13618d1f91e300025c2eed9b7064b28e50e9624b49ea8c3f33fae6f5d7384848460405180848152602001838152602001828152602001935050505060405180910390a1612065565b7f367dccf700b76ac212780fb422c9b7569b12f28f39de0a0f8622641a83355ab16040518080602001828103825260148152602001807f556e617574686f72697a6564206163636573732e00000000000000000000000081525060200191505060405180910390a15b50505050565b600080600260003373ffffffffffffffffffffffffffffffffffffffff1673ffffffffffffffffffffffffffffffffffffffff16815260200190815260200160002060009054906101000a900460ff1660ff1660048111156120c957fe5b90506120d3611de0565b1515612146577f367dccf700b76ac212780fb422c9b7569b12f28f39de0a0f8622641a83355ab16040518080602001828103825260198152602001807f566f74696e672053657373696f6e20697320636c6f7365642e0000000000000081525060200191505060405180910390a161251d565b6003600481111561215357fe5b81600481111561215f57fe5b14801561217e57506000600e60009054906101000a900460ff1660ff16145b806121bd575060048081111561219057fe5b81600481111561219c57fe5b1480156121bc57506000600e60009054906101000a900460ff1660ff1610155b5b1561248d57600260003373ffffffffffffffffffffffffffffffffffffffff1673ffffffffffffffffffffffffffffffffffffffff16815260200190815260200160002060009054906101000a900460ff1660ff16600481111561221d57fe5b91506003600481111561222c57fe5b82600481111561223857fe5b14156122cd57600e600081819054906101000a900460ff168092919060010191906101000a81548160ff021916908360ff160217905550506001601160003373ffffffffffffffffffffffffffffffffffffffff1673ffffffffffffffffffffffffffffffffffffffff16815260200190815260200160002060006101000a81548160ff02191690831515021790555061240e565b6004808111156122d957fe5b8260048111156122e557fe5b141561237a57600e600181819054906101000a900460ff168092919060010191906101000a81548160ff021916908360ff160217905550506001601260003373ffffffffffffffffffffffffffffffffffffffff1673ffffffffffffffffffffffffffffffffffffffff16815260200190815260200160002060006101000a81548160ff02191690831515021790555061240d565b7f367dccf700b76ac212780fb422c9b7569b12f28f39de0a0f8622641a83355ab16040518080602001828103825260218152602001807f556e616c6c6f77656420726f6c65206f722072756c652076696f6c6174696f6e81526020017f2e0000000000000000000000000000000000000000000000000000000000000081525060400191505060405180910390a1612488565b5b7f45cd18d769a210a633e8004aa52201726912d20a65e161dedd6650fb3058a3783383604051808373ffffffffffffffffffffffffffffffffffffffff1673ffffffffffffffffffffffffffffffffffffffff16815260200182600481111561247357fe5b60ff1681526020019250505060405180910390a15b61251c565b7f367dccf700b76ac212780fb422c9b7569b12f28f39de0a0f8622641a83355ab16040518080602001828103825260218152602001807f556e616c6c6f77656420726f6c65206f722072756c652076696f6c6174696f6e81526020017f2e0000000000000000000000000000000000000000000000000000000000000081525060400191505060405180910390a15b5b5050565b612529611de0565b151561259c577f367dccf700b76ac212780fb422c9b7569b12f28f39de0a0f8622641a83355ab16040518080602001828103825260128152602001807f53657373696f6e20697320636c6f7365642e000000000000000000000000000081525060200191505060405180910390a1612799565b60038060048111156125aa57fe5b600260003273ffffffffffffffffffffffffffffffffffffffff1673ffffffffffffffffffffffffffffffffffffffff16815260200190815260200160002060009054906101000a900460ff1660ff16600481111561260557fe5b600481111561261057fe5b141561272e576001601060026101000a81548160ff0219169083151502179055506004600081819054906101000a90046fffffffffffffffffffffffffffffffff168092919060010191906101000a8154816fffffffffffffffffffffffffffffffff02191690836fffffffffffffffffffffffffffffffff16021790555050601460009054906101000a900473ffffffffffffffffffffffffffffffffffffffff1673ffffffffffffffffffffffffffffffffffffffff166341c12a706040518163ffffffff167c0100000000000000000000000000000000000000000000000000000000028152600401600060405180830381600087803b151561271557600080fd5b6102c65a03f1151561272657600080fd5b505050612797565b7f367dccf700b76ac212780fb422c9b7569b12f28f39de0a0f8622641a83355ab16040518080602001828103825260148152602001807f556e617574686f72697a6564206163636573732e00000000000000000000000081525060200191505060405180910390a15b505b565b6127a3611de0565b1515612816577f367dccf700b76ac212780fb422c9b7569b12f28f39de0a0f8622641a83355ab16040518080602001828103825260128152602001807f53657373696f6e20697320636c6f7365642e000000000000000000000000000081525060200191505060405180910390a1612a13565b600380600481111561282457fe5b600260003273ffffffffffffffffffffffffffffffffffffffff1673ffffffffffffffffffffffffffffffffffffffff16815260200190815260200160002060009054906101000a900460ff1660ff16600481111561287f57fe5b600481111561288a57fe5b14156129a8576001601060026101000a81548160ff0219169083151502179055506004601081819054906101000a90046fffffffffffffffffffffffffffffffff168092919060010191906101000a8154816fffffffffffffffffffffffffffffffff02191690836fffffffffffffffffffffffffffffffff16021790555050601460009054906101000a900473ffffffffffffffffffffffffffffffffffffffff1673ffffffffffffffffffffffffffffffffffffffff16633ec3d5c46040518163ffffffff167c0100000000000000000000000000000000000000000000000000000000028152600401600060405180830381600087803b151561298f57600080fd5b6102c65a03f115156129a057600080fd5b505050612a11565b7f367dccf700b76ac212780fb422c9b7569b12f28f39de0a0f8622641a83355ab16040518080602001828103825260148152602001807f556e617574686f72697a6564206163636573732e00000000000000000000000081525060200191505060405180910390a15b505b565b600181565b6000806000600e60049054906101000a900460ff1615612ac7577f367dccf700b76ac212780fb422c9b7569b12f28f39de0a0f8622641a83355ab160405180806020018281038252602d8152602001807f43616e206f6e6c79207369676e206f666620647572696e67206f70656e20766f81526020017f74696e672073657373696f6e2e0000000000000000000000000000000000000081525060400191505060405180910390a1613360565b601060009054906101000a900460ff161515612ae257613360565b6000601360003373ffffffffffffffffffffffffffffffffffffffff1673ffffffffffffffffffffffffffffffffffffffff16815260200190815260200160002054141515612bbe577f367dccf700b76ac212780fb422c9b7569b12f28f39de0a0f8622641a83355ab16040518080602001828103825260218152602001807f5374616666206d656d6562657220616c7265616479207369676e6564206f666681526020017f2e0000000000000000000000000000000000000000000000000000000000000081525060400191505060405180910390a1613360565b600260003373ffffffffffffffffffffffffffffffffffffffff1673ffffffffffffffffffffffffffffffffffffffff16815260200190815260200160002060009054906101000a900460ff1660ff166004811115612c1957fe5b9050600480811115612c2757fe5b816004811115612c3357fe5b148015612c91575060011515601260003373ffffffffffffffffffffffffffffffffffffffff1673ffffffffffffffffffffffffffffffffffffffff16815260200190815260200160002060009054906101000a900460ff16151514155b15612d29577f367dccf700b76ac212780fb422c9b7569b12f28f39de0a0f8622641a83355ab16040518080602001828103825260248152602001807f4f6e6c79207369676e656420696e2054656c6c6572732063616e207369676e2081526020017f6f66662e0000000000000000000000000000000000000000000000000000000081525060400191505060405180910390a1613360565b60036004811115612d3657fe5b816004811115612d4257fe5b148015612da0575060011515601160003373ffffffffffffffffffffffffffffffffffffffff1673ffffffffffffffffffffffffffffffffffffffff16815260200190815260200160002060009054906101000a900460ff16151514155b15612e38577f367dccf700b76ac212780fb422c9b7569b12f28f39de0a0f8622641a83355ab16040518080602001828103825260258152602001807f4f6e6c79207369676e656420696e2043686169726d656e2063616e207369676e81526020017f206f66662e00000000000000000000000000000000000000000000000000000081525060400191505060405180910390a1613360565b60036004811115612e4557fe5b816004811115612e5157fe5b148015612e815750600e60009054906101000a900460ff1660ff16600e60029054906101000a900460ff1660ff16105b8015612e9f57506000600e60019054906101000a900460ff1660ff16115b80612f0c5750600480811115612eb157fe5b816004811115612ebd57fe5b148015612eed5750600e60019054906101000a900460ff1660ff16600e60039054906101000a900460ff1660ff16105b8015612f0b57506000600e60029054906101000a900460ff1660ff16145b5b156132aa576000612f1b611e11565b14158015612f2b57506005845111155b15612fc7577f367dccf700b76ac212780fb422c9b7569b12f28f39de0a0f8622641a83355ab16040518080602001828103825260398152602001807f596f752073686f756c6420737570706c7920616e206578706c616e6174696f6e81526020017f207768656e206120646576696174696f6e206f63637572732e0000000000000081525060400191505060405180910390a1600092506132a5565b608c84511115613068577f367dccf700b76ac212780fb422c9b7569b12f28f39de0a0f8622641a83355ab160405180806020018281038252602a8152602001807f4578706c616e6174696f6e206973206c6f6e676572207468616e20313430206381526020017f6861726163746572732e0000000000000000000000000000000000000000000081525060400191505060405180910390a1600092506132a5565b6000613072611e11565b1415156130915783600f908051906020019061308f929190613c0f565b505b600260003373ffffffffffffffffffffffffffffffffffffffff1673ffffffffffffffffffffffffffffffffffffffff16815260200190815260200160002060009054906101000a900460ff1660ff1660048111156130ec57fe5b9150600360048111156130fb57fe5b82600481111561310757fe5b14156131ec57600e600281819054906101000a900460ff168092919060010191906101000a81548160ff021916908360ff16021790555050600e60009054906101000a900460ff1660ff16600e60029054906101000a900460ff1660ff161015156131eb576001600e60046101000a81548160ff0219169083151502179055507f4636d8618be0c9ce1d54a3899392732cbf63446bdf72f5d0920a95657771e9ff30604051808273ffffffffffffffffffffffffffffffffffffffff1673ffffffffffffffffffffffffffffffffffffffff16815260200191505060405180910390a15b5b6004808111156131f857fe5b82600481111561320457fe5b141561323d57600e600381819054906101000a900460ff168092919060010191906101000a81548160ff021916908360ff160217905550505b7f1475fd16d23fa3af154a302531e9198ac528a3d89db524c08e9802ee93dd809e33604051808273ffffffffffffffffffffffffffffffffffffffff1673ffffffffffffffffffffffffffffffffffffffff16815260200191505060405180910390a1600192505b61335f565b7f367dccf700b76ac212780fb422c9b7569b12f28f39de0a0f8622641a83355ab16040518080602001828103825260528152602001807f416c6c2054656c6c657273206d757374207369676e206f66662c207468656e2081526020017f63686169726d616e2063616e207369676e206f66662e204e6f206f746865722081526020017f726f6c652063616e207369676e206f66662e000000000000000000000000000081525060600191505060405180910390a15b5b5050919050565b601460009054906101000a900473ffffffffffffffffffffffffffffffffffffffff1681565b600080600080600080600080600080600080600654600954600754600854600a54600b54600d54600c54600360109054906101000a90046fffffffffffffffffffffffffffffffff16600460009054906101000a90046fffffffffffffffffffffffffffffffff16600560009054906101000a90046fffffffffffffffffffffffffffffffff16600460109054906101000a90046fffffffffffffffffffffffffffffffff16836fffffffffffffffffffffffffffffffff169350826fffffffffffffffffffffffffffffffff169250816fffffffffffffffffffffffffffffffff169150806fffffffffffffffffffffffffffffffff1690509b509b509b509b509b509b509b509b509b509b509b509b50909192939495969798999a9b565b6134b5611de0565b1515613528577f367dccf700b76ac212780fb422c9b7569b12f28f39de0a0f8622641a83355ab16040518080602001828103825260128152602001807f53657373696f6e20697320636c6f7365642e000000000000000000000000000081525060200191505060405180910390a1613725565b600380600481111561353657fe5b600260003273ffffffffffffffffffffffffffffffffffffffff1673ffffffffffffffffffffffffffffffffffffffff16815260200190815260200160002060009054906101000a900460ff1660ff16600481111561359157fe5b600481111561359c57fe5b14156136ba576001601060026101000a81548160ff0219169083151502179055506005600081819054906101000a90046fffffffffffffffffffffffffffffffff168092919060010191906101000a8154816fffffffffffffffffffffffffffffffff02191690836fffffffffffffffffffffffffffffffff16021790555050601460009054906101000a900473ffffffffffffffffffffffffffffffffffffffff1673ffffffffffffffffffffffffffffffffffffffff1663cd7553416040518163ffffffff167c0100000000000000000000000000000000000000000000000000000000028152600401600060405180830381600087803b15156136a157600080fd5b6102c65a03f115156136b257600080fd5b505050613723565b7f367dccf700b76ac212780fb422c9b7569b12f28f39de0a0f8622641a83355ab16040518080602001828103825260148152602001807f556e617574686f72697a6564206163636573732e00000000000000000000000081525060200191505060405180910390a15b505b565b6000600260003273ffffffffffffffffffffffffffffffffffffffff1673ffffffffffffffffffffffffffffffffffffffff16815260200190815260200160002060009054906101000a900460ff1660ff16600481111561378457fe5b905090565b60008060009054906101000a900473ffffffffffffffffffffffffffffffffffffffff1673ffffffffffffffffffffffffffffffffffffffff163273ffffffffffffffffffffffffffffffffffffffff161415613aa857600160009054906101000a900473ffffffffffffffffffffffffffffffffffffffff1673ffffffffffffffffffffffffffffffffffffffff1663b8c51067836000604051602001526040518263ffffffff167c01000000000000000000000000000000000000000000000000000000000281526004018080602001828103825283818151815260200191508051906020019080838360005b83811015613893578082015181840152602081019050613878565b50505050905090810190601f1680156138c05780820380516001836020036101000a031916815260200191505b5092505050602060405180830381600087803b15156138de57600080fd5b6102c65a03f115156138ef57600080fd5b5050506040518051905060ff16600481111561390757fe5b90506000600481111561391657fe5b81600481111561392257fe5b1415156139d65780600481111561393557fe5b600260008573ffffffffffffffffffffffffffffffffffffffff1673ffffffffffffffffffffffffffffffffffffffff16815260200190815260200160002060006101000a81548160ff021916908360ff1602179055507f0db108fd08f791e0a8707015f9100e5936e30ef23034b51285733bec66e2480581604051808260048111156139be57fe5b60ff16815260200191505060405180910390a1613aa7565b7f4298449a2c73d2957b2b49fcfece5131ab9a0e15d2c6549f0730c5a6bc8d17b68383604051808373ffffffffffffffffffffffffffffffffffffffff1673ffffffffffffffffffffffffffffffffffffffff16815260200180602001828103825283818151815260200191508051906020019080838360005b83811015613a6b578082015181840152602081019050613a50565b50505050905090810190601f168015613a985780820380516001836020036101000a031916815260200191505b50935050505060405180910390a15b5b505050565b6000809054906101000a900473ffffffffffffffffffffffffffffffffffffffff1673ffffffffffffffffffffffffffffffffffffffff163273ffffffffffffffffffffffffffffffffffffffff161415613c0c57600160009054906101000a900473ffffffffffffffffffffffffffffffffffffffff1673ffffffffffffffffffffffffffffffffffffffff16634af57033826040518263ffffffff167c01000000000000000000000000000000000000000000000000000000000281526004018080602001828103825283818151815260200191508051906020019080838360005b83811015613bac578082015181840152602081019050613b91565b50505050905090810190601f168015613bd95780820380516001836020036101000a031916815260200191505b5092505050600060405180830381600087803b1515613bf757600080fd5b6102c65a03f11515613c0857600080fd5b5050505b50565b828054600181600116156101000203166002900490600052602060002090601f016020900481019282601f10613c5057805160ff1916838001178555613c7e565b82800160010185558215613c7e579182015b82811115613c7d578251825591602001919060010190613c62565b5b509050613c8b9190613c8f565b5090565b613cb191905b80821115613cad576000816000905550600101613c95565b5090565b905600a165627a7a7230582036dde7015edf657cbc514a2a0a39d10a35968887ebb19608ccf13e5936d741680029",
  "source": "pragma solidity ^0.4.19;\r\n\r\nimport \"./permissions.sol\";\r\nimport \"./municipality.sol\";\r\n\r\ncontract PollingStation is Permissions {\r\n    \r\n    //Voting data\r\n    uint128 private votingRound = 0;\r\n    uint128 private yesLocal = 0;\r\n    uint128 private noLocal = 0;\r\n    uint128 private invalidLocal = 0;\r\n    uint128 private blankLocal = 0;\r\n    \r\n    //Voter Registration\r\n    uint private scannedPollingCardCount = 0;\r\n    uint private scannedPowerOfAttorneyCount = 0;\r\n    uint private registeredPowerOfAttorneyCount = 0;\r\n    uint private registeredVoterPassCount = 0;\r\n    uint private registeredObjectionCount = 0;\r\n    \r\n    //Control Numbers\r\n    uint private collectedPollingCardCount = 0;\r\n    uint private collectedPowerOfAttorneyCount = 0;\r\n    uint private collectedVoterPassCount = 0;\r\n    \r\n    //Access control\r\n    uint8 private signedInChairmenCount = 0;\r\n    uint8 private signedInTellerCount = 0;\r\n    uint8 private signedOffChairmenCount = 0;\r\n    uint8 private signedOffTellerCount = 0;\r\n    bool private votingSessionClosed = true;\r\n    string private deviationExplanation;\r\n    bool private verificationSuccessful = false;\r\n    bool private needsRecount = true;\r\n    bool private beganCounting = false;\r\n    \r\n    //Mappings\r\n    mapping (address => bool) private signedInChairmen;\r\n    mapping (address => bool) private signedInTellers;\r\n    mapping (address => uint256) private signedOffStaff;\r\n    \r\n    Municipality public munContract;\r\n    \r\n    event VoterAlreadyRecorded(bytes32 qrCodeHash);\r\n    event VoterCleared(bytes32 qrCodeHash);\r\n    event UserSignedIn(address userAddress, Role role);\r\n    event UserSignedOut(address userAddress, Role role);\r\n    event VotingFinished(address pollingStation);\r\n    event StaffSignedOff(address staff);\r\n    event VerificationAttempt(bool yes, bool no, bool blank, bool invalid);\r\n    event ControlNumbersAdded(uint256 pollingCards, uint256 powerOfAttorneys, uint256 voterPasses);\r\n    event VotingSessionBegan(address pollingStation);\r\n    \r\n    function PollingStation(address mAddress, address uacAddress) Permissions(uacAddress) public {\r\n        munContract = Municipality(mAddress);\r\n        munContract.enrollPollStation();\r\n    }\r\n\r\n    modifier _noRevote(bytes32 qrCodeHash) {\r\n        if (munContract.userVoted(qrCodeHash)) {\r\n            VoterAlreadyRecorded(qrCodeHash);\r\n        } else {\r\n            VoterCleared(qrCodeHash);\r\n            _;\r\n        }\r\n    }\r\n    \r\n    modifier _isSessionOpen() {\r\n        if (!isSessionOpen()) {\r\n            NotAllowed(\"Session is closed.\");\r\n        } else {\r\n            _;\r\n        }\r\n    }\r\n    \r\n    modifier _canSignIn() {\r\n        Role currRole = Role(roles[msg.sender]);\r\n        \r\n        if (!isSessionOpen()) {\r\n            NotAllowed(\"Voting Session is closed.\");\r\n            return;\r\n        }\r\n        \r\n        if ((currRole == Role.Chairman && signedInChairmenCount == 0) || (currRole == Role.Teller && signedInChairmenCount >= 0)) {\r\n            _;\r\n        } else {\r\n            NotAllowed(\"Unallowed role or rule violation.\");\r\n        }\r\n    }\r\n    \r\n    modifier _canSignOut() {\r\n        Role currRole = Role(roles[msg.sender]);\r\n        \r\n        if ((currRole == Role.Chairman && signedInChairmenCount > 0 && signedInTellerCount <= 0 && votingSessionClosed) || \r\n            (currRole == Role.Teller && (signedInTellerCount > 1 || votingSessionClosed))) {\r\n            _;\r\n        } else {\r\n            NotAllowed(\"Unallowed role or rule violation.\");\r\n        }\r\n    }\r\n    \r\n    modifier _canSessionStart() {\r\n        \r\n        if (block.timestamp > VOTING_START_TIMESTAMP && votingSessionClosed && !verificationSuccessful) {\r\n            _;\r\n        } else {\r\n            NotAllowed(\"Not allowed before official start date.\");\r\n        }\r\n        \r\n    }\r\n    \r\n    modifier _canSignOff() {\r\n        if (votingSessionClosed) {\r\n            NotAllowed(\"Can only sign off during open voting session.\");\r\n            return;\r\n        }\r\n        \r\n        if (!verificationSuccessful) {\r\n            return;\r\n        }\r\n        \r\n        if (signedOffStaff[msg.sender] != 0) {\r\n            NotAllowed(\"Staff memeber already signed off.\");\r\n            return;\r\n        }\r\n        \r\n        Role currRole = Role(roles[msg.sender]);\r\n        \r\n        if (currRole == Role.Teller && signedInTellers[msg.sender] != true) {\r\n            NotAllowed(\"Only signed in Tellers can sign off.\");\r\n            return;\r\n        }\r\n        \r\n        if (currRole == Role.Chairman && signedInChairmen[msg.sender] != true) {\r\n            NotAllowed(\"Only signed in Chairmen can sign off.\");\r\n            return;\r\n        }\r\n        \r\n        if ((currRole == Role.Chairman && signedOffChairmenCount < signedInChairmenCount && signedInTellerCount > 0) || \r\n            (currRole == Role.Teller && signedOffTellerCount < signedInTellerCount && signedOffChairmenCount == 0)) {\r\n            _;\r\n        } else {\r\n            NotAllowed(\"All Tellers must sign off, then chairman can sign off. No other role can sign off.\");\r\n        }\r\n    }\r\n    \r\n    // this will record the roles locally and into the municipality\r\n    function setUserRole(address user, string email) public _isOwner() payable {\r\n        require(msg.value > 0);\r\n        super.setUserRole(user, email);\r\n        munContract.setUserRole(user, email);\r\n        super.setUsedEmail(email);\r\n        if (user.balance <= 1) {\r\n            user.send(msg.value);\r\n        }        \r\n    }\r\n    \r\n    function isSessionOpen() public view returns (bool) {\r\n        return !votingSessionClosed && !verificationSuccessful;\r\n    }\r\n    \r\n    function signIn() public _canSignIn() {\r\n        Role role = Role(roles[msg.sender]);\r\n        \r\n        if (role == Role.Chairman) {\r\n            signedInChairmenCount++;\r\n            signedInChairmen[msg.sender] = true;\r\n        } else if (role == Role.Teller) {\r\n            signedInTellerCount++;\r\n            signedInTellers[msg.sender] = true;\r\n        } else {\r\n            NotAllowed(\"Unallowed role or rule violation.\");\r\n            return;\r\n        }\r\n        \r\n        UserSignedIn(msg.sender, role);\r\n    }\r\n    \r\n    function signOut() public _canSignOut { \r\n        \r\n        Role role = Role(roles[msg.sender]);\r\n        \r\n        if (role == Role.Chairman) {\r\n            signedInChairmenCount--;\r\n            signedInChairmen[msg.sender] = false;\r\n        } else if (role == Role.Teller) {\r\n            signedInTellerCount--;\r\n            signedInTellers[msg.sender] = false;\r\n        } else {\r\n            NotAllowed(\"Unallowed role or rule violation.\");\r\n            return;\r\n        }\r\n        \r\n        UserSignedOut(msg.sender, role);\r\n    }\r\n    \r\n    function beginVotingSession() public _isOwner _canSessionStart() {\r\n        votingSessionClosed = false;\r\n        needsRecount = false;\r\n        votingRound++;\r\n        VotingSessionBegan(this);\r\n    }\r\n    \r\n    function recordVoter(bytes32 qrCodeHash, VoterType voterType) public _verifyRole(Role.Chairman) _noRevote(qrCodeHash) returns(bool) {\r\n        if (voterType <= VoterType.Unspecified || voterType > VoterType.Objection) {\r\n            NotAllowed(\"Invalid voter type.\");\r\n            return false;\r\n        }\r\n        \r\n        bool success = munContract.recordVoter(qrCodeHash, voterType);\r\n        if (!success) {\r\n            return false;\r\n        }\r\n        \r\n        if (voterType == VoterType.PollingCard) {\r\n            scannedPollingCardCount++;\r\n        } else if (voterType == VoterType.PowerOfAttorneyPollingCard) {\r\n            scannedPowerOfAttorneyCount++;\r\n        } else if (voterType == VoterType.PowerOfAttorney) {\r\n            registeredPowerOfAttorneyCount++;\r\n        } else if (voterType == VoterType.VoterPass) {\r\n            registeredVoterPassCount++;\r\n        } else if (voterType == VoterType.Objection) {\r\n            registeredObjectionCount++;\r\n        }\r\n        \r\n        return true;\r\n    }\r\n    \r\n    function getReport() public view returns (uint scannedPollingCards, uint registeredVoterPasses, uint scannedPowerOfAttorneys, uint registeredPowerOfAttorneys, uint registeredObjections, uint collectedPollingCards, uint collectedVoterPasses, uint collectedPowerOfAttorneys, uint yes, uint no, uint blank, uint invalid) {\r\n        return (scannedPollingCardCount, registeredVoterPassCount, scannedPowerOfAttorneyCount, registeredPowerOfAttorneyCount, registeredObjectionCount, collectedPollingCardCount, collectedVoterPassCount, collectedPowerOfAttorneyCount, yesLocal, noLocal, blankLocal, invalidLocal);\r\n    }\r\n    \r\n    function yes() public _isSessionOpen() _verifyRole(Role.Chairman) {\r\n        beganCounting = true;\r\n        yesLocal++;\r\n        munContract.voteYes();\r\n    }\r\n    \r\n    function no() public _isSessionOpen() _verifyRole(Role.Chairman) {\r\n        beganCounting = true;\r\n        noLocal++;\r\n        munContract.voteNo();\r\n    }\r\n    \r\n    function blank() public _isSessionOpen() _verifyRole(Role.Chairman) {\r\n        beganCounting = true;\r\n        blankLocal++;\r\n        munContract.voteBlank();\r\n    }\r\n    \r\n    function invalid() public _isSessionOpen() _verifyRole(Role.Chairman) {\r\n        beganCounting = true;\r\n        invalidLocal++;\r\n        munContract.voteInvalid();\r\n    }\r\n    \r\n    function getVerification() public view returns (bool) {\r\n        return verificationSuccessful;\r\n    }\r\n    \r\n    function getVotingRound() public view returns (uint) {\r\n        return votingRound;\r\n    }\r\n    \r\n    function recount() public _verifyRole(Role.Chairman) {\r\n        munContract.recount();\r\n        votingRound++;\r\n        yesLocal = 0;\r\n        noLocal = 0;\r\n        blankLocal = 0;\r\n        invalidLocal = 0;\r\n        needsRecount = false;\r\n    }\r\n    \r\n    function inputControlNumbers(uint pollingCards, uint powerOfAttorneys, uint voterPasses) public _verifyRole(Role.Chairman) {\r\n        collectedPollingCardCount = pollingCards;\r\n        collectedPowerOfAttorneyCount = powerOfAttorneys;\r\n        collectedVoterPassCount = voterPasses;\r\n        ControlNumbersAdded(pollingCards, powerOfAttorneys, voterPasses);\r\n    }\r\n    \r\n    function verifyVotes(uint yesCount, uint noCount, uint blankCount, uint invalidCount) public _verifyRole(Role.Chairman) returns (bool yesVerified, bool noVerified, bool blankVerified, bool invalidVerified) {\r\n        if (verificationSuccessful) {\r\n            NotAllowed(\"Verification already happened and it was successful. Input disregarded.\");\r\n            return (true, true, true, true);\r\n        }\r\n        \r\n        if (needsRecount) {\r\n            NotAllowed(\"Recount necessary before new verification attempt.\");\r\n        }\r\n        \r\n        if (!beganCounting) {\r\n            NotAllowed(\"Counting must begin first.\");\r\n        }\r\n        \r\n        if (!beganCounting || needsRecount) {\r\n            VerificationAttempt(false, false, false, false);\r\n            return (false, false, false, false);\r\n        }\r\n        \r\n        beganCounting = false;\r\n        yesVerified = (yesCount == yesLocal);\r\n        noVerified = (noCount == noLocal);\r\n        blankVerified = (blankCount == blankLocal);\r\n        invalidVerified = (invalidCount == invalidLocal);\r\n        \r\n        VerificationAttempt(yesVerified, noVerified, blankVerified, invalidVerified);\r\n        if (yesVerified && noVerified && blankVerified && invalidVerified) {\r\n            verificationSuccessful = true;\r\n        } else {\r\n            needsRecount = true;\r\n        }\r\n        \r\n        return (yesVerified, noVerified, blankVerified, invalidVerified);\r\n    }\r\n    \r\n    // Returns the deviation of all votes against the number of collected cards\r\n    function getDeviation() public view returns (uint) {\r\n        int deviation = int(blankLocal + noLocal + yesLocal + invalidLocal) - int(collectedVoterPassCount + collectedPowerOfAttorneyCount + collectedPollingCardCount);\r\n        \r\n        if (deviation < 0) {\r\n            deviation = deviation * -1;\r\n        }\r\n        \r\n        return uint(deviation);\r\n    }\r\n    \r\n    function signOff(string explanation) public _canSignOff() returns(bool) {\r\n        if (getDeviation() != 0 && bytes(explanation).length <= 5) {\r\n            NotAllowed(\"You should supply an explanation when a deviation occurs.\");\r\n            return false;\r\n        }\r\n        \r\n        if (bytes(explanation).length > 140) {\r\n            NotAllowed(\"Explanation is longer than 140 characters.\");\r\n            return false;\r\n        } else if (getDeviation() != 0) {\r\n            deviationExplanation = explanation;\r\n        }\r\n        \r\n        Role role = Role(roles[msg.sender]);\r\n        if (role == Role.Chairman) {\r\n            signedOffChairmenCount++;\r\n            if (signedOffChairmenCount >= signedInChairmenCount) {\r\n                votingSessionClosed = true;\r\n                VotingFinished(this);\r\n            }\r\n        }\r\n        \r\n        if (role == Role.Teller) {\r\n            signedOffTellerCount++;\r\n        }\r\n        \r\n        StaffSignedOff(msg.sender);\r\n        return true;\r\n    }\r\n}",
  "sourcePath": "D:\\LAB15\\git\\CountingVotes\\ps-blockchain\\contracts\\Pollingstation.sol",
  "compiler": {
    "name": "solc",
    "version": "0.4.19+commit.c4cbbb05.Emscripten.clang"
  },
  "schemaVersion": "2.0.0",
  "updatedAt": "2018-03-13T14:40:07.773Z"
}