{
  "contractName": "PollingStation",
  "abi": [
    {
      "constant": true,
      "inputs": [],
      "name": "getUacAddress",
      "outputs": [
        {
          "name": "userActivationAddress",
          "type": "address"
        }
      ],
      "payable": false,
      "stateMutability": "view",
      "type": "function"
    },
    {
      "constant": true,
      "inputs": [],
      "name": "VOTING_START_TIMESTAMP",
      "outputs": [
        {
          "name": "",
          "type": "uint256"
        }
      ],
      "payable": false,
      "stateMutability": "view",
      "type": "function"
    },
    {
      "constant": true,
      "inputs": [],
      "name": "munContract",
      "outputs": [
        {
          "name": "",
          "type": "address"
        }
      ],
      "payable": false,
      "stateMutability": "view",
      "type": "function"
    },
    {
      "constant": true,
      "inputs": [],
      "name": "getRole",
      "outputs": [
        {
          "name": "",
          "type": "uint8"
        }
      ],
      "payable": false,
      "stateMutability": "view",
      "type": "function"
    },
    {
      "inputs": [
        {
          "name": "mAddress",
          "type": "address"
        },
        {
          "name": "uacAddress",
          "type": "address"
        }
      ],
      "payable": false,
      "stateMutability": "nonpayable",
      "type": "constructor"
    },
    {
      "anonymous": false,
      "inputs": [
        {
          "indexed": false,
          "name": "qrCodeHash",
          "type": "bytes32"
        }
      ],
      "name": "VoterAlreadyRecorded",
      "type": "event"
    },
    {
      "anonymous": false,
      "inputs": [
        {
          "indexed": false,
          "name": "qrCodeHash",
          "type": "bytes32"
        }
      ],
      "name": "VoterCleared",
      "type": "event"
    },
    {
      "anonymous": false,
      "inputs": [
        {
          "indexed": false,
          "name": "userAddress",
          "type": "address"
        },
        {
          "indexed": false,
          "name": "role",
          "type": "uint8"
        }
      ],
      "name": "UserSignedIn",
      "type": "event"
    },
    {
      "anonymous": false,
      "inputs": [
        {
          "indexed": false,
          "name": "userAddress",
          "type": "address"
        },
        {
          "indexed": false,
          "name": "role",
          "type": "uint8"
        }
      ],
      "name": "UserSignedOut",
      "type": "event"
    },
    {
      "anonymous": false,
      "inputs": [
        {
          "indexed": false,
          "name": "pollingStation",
          "type": "address"
        }
      ],
      "name": "VotingFinished",
      "type": "event"
    },
    {
      "anonymous": false,
      "inputs": [
        {
          "indexed": false,
          "name": "staff",
          "type": "address"
        }
      ],
      "name": "StaffSignedOff",
      "type": "event"
    },
    {
      "anonymous": false,
      "inputs": [
        {
          "indexed": false,
          "name": "staff",
          "type": "address"
        },
        {
          "indexed": false,
          "name": "success",
          "type": "bool"
        },
        {
          "indexed": false,
          "name": "message",
          "type": "string"
        }
      ],
      "name": "SignedOff",
      "type": "event"
    },
    {
      "anonymous": false,
      "inputs": [
        {
          "indexed": false,
          "name": "success",
          "type": "bool"
        },
        {
          "indexed": false,
          "name": "message",
          "type": "string"
        },
        {
          "indexed": false,
          "name": "needsRecount",
          "type": "bool"
        },
        {
          "indexed": false,
          "name": "yes",
          "type": "bool"
        },
        {
          "indexed": false,
          "name": "no",
          "type": "bool"
        },
        {
          "indexed": false,
          "name": "blank",
          "type": "bool"
        },
        {
          "indexed": false,
          "name": "invalid",
          "type": "bool"
        }
      ],
      "name": "VerificationDone",
      "type": "event"
    },
    {
      "anonymous": false,
      "inputs": [
        {
          "indexed": false,
          "name": "pollingCards",
          "type": "uint256"
        },
        {
          "indexed": false,
          "name": "powerOfAttorneys",
          "type": "uint256"
        },
        {
          "indexed": false,
          "name": "voterPasses",
          "type": "uint256"
        }
      ],
      "name": "ControlNumbersAdded",
      "type": "event"
    },
    {
      "anonymous": false,
      "inputs": [
        {
          "indexed": false,
          "name": "pollingStation",
          "type": "address"
        }
      ],
      "name": "VotingSessionBegan",
      "type": "event"
    },
    {
      "anonymous": false,
      "inputs": [
        {
          "indexed": false,
          "name": "voteCode",
          "type": "uint256"
        },
        {
          "indexed": false,
          "name": "success",
          "type": "bool"
        },
        {
          "indexed": false,
          "name": "message",
          "type": "string"
        }
      ],
      "name": "VoteCounted",
      "type": "event"
    },
    {
      "anonymous": false,
      "inputs": [
        {
          "indexed": false,
          "name": "success",
          "type": "bool"
        },
        {
          "indexed": false,
          "name": "message",
          "type": "string"
        },
        {
          "indexed": false,
          "name": "email",
          "type": "string"
        },
        {
          "indexed": false,
          "name": "userAddress",
          "type": "address"
        },
        {
          "indexed": false,
          "name": "role",
          "type": "uint8"
        }
      ],
      "name": "UserAdded",
      "type": "event"
    },
    {
      "anonymous": false,
      "inputs": [
        {
          "indexed": false,
          "name": "uAddress",
          "type": "address"
        },
        {
          "indexed": false,
          "name": "email",
          "type": "string"
        }
      ],
      "name": "UserCreationFailed",
      "type": "event"
    },
    {
      "anonymous": false,
      "inputs": [
        {
          "indexed": false,
          "name": "message",
          "type": "string"
        }
      ],
      "name": "NotAllowed",
      "type": "event"
    },
    {
      "constant": true,
      "inputs": [],
      "name": "getMunicipalityAddress",
      "outputs": [
        {
          "name": "municipalityAddress",
          "type": "address"
        }
      ],
      "payable": false,
      "stateMutability": "view",
      "type": "function"
    },
    {
      "constant": false,
      "inputs": [
        {
          "name": "user",
          "type": "address"
        },
        {
          "name": "email",
          "type": "string"
        }
      ],
      "name": "setUserRole",
      "outputs": [],
      "payable": true,
      "stateMutability": "payable",
      "type": "function"
    },
    {
      "constant": true,
      "inputs": [],
      "name": "isSessionOpen",
      "outputs": [
        {
          "name": "",
          "type": "bool"
        }
      ],
      "payable": false,
      "stateMutability": "view",
      "type": "function"
    },
    {
      "constant": false,
      "inputs": [],
      "name": "signIn",
      "outputs": [],
      "payable": false,
      "stateMutability": "nonpayable",
      "type": "function"
    },
    {
      "constant": true,
      "inputs": [],
      "name": "getSignedInTellers",
      "outputs": [
        {
          "name": "",
          "type": "uint8"
        }
      ],
      "payable": false,
      "stateMutability": "view",
      "type": "function"
    },
    {
      "constant": false,
      "inputs": [],
      "name": "signOut",
      "outputs": [],
      "payable": false,
      "stateMutability": "nonpayable",
      "type": "function"
    },
    {
      "constant": false,
      "inputs": [],
      "name": "beginVotingSession",
      "outputs": [],
      "payable": false,
      "stateMutability": "nonpayable",
      "type": "function"
    },
    {
      "constant": false,
      "inputs": [
        {
          "name": "qrCodeHash",
          "type": "bytes32"
        },
        {
          "name": "voterType",
          "type": "uint8"
        }
      ],
      "name": "recordVoter",
      "outputs": [
        {
          "name": "",
          "type": "bool"
        }
      ],
      "payable": false,
      "stateMutability": "nonpayable",
      "type": "function"
    },
    {
      "constant": true,
      "inputs": [],
      "name": "getReport",
      "outputs": [
        {
          "name": "scannedPollingCards",
          "type": "uint256"
        },
        {
          "name": "registeredVoterPasses",
          "type": "uint256"
        },
        {
          "name": "scannedPowerOfAttorneys",
          "type": "uint256"
        },
        {
          "name": "registeredPowerOfAttorneys",
          "type": "uint256"
        },
        {
          "name": "registeredObjections",
          "type": "uint256"
        },
        {
          "name": "collectedPollingCards",
          "type": "uint256"
        },
        {
          "name": "collectedVoterPasses",
          "type": "uint256"
        },
        {
          "name": "collectedPowerOfAttorneys",
          "type": "uint256"
        },
        {
          "name": "yes",
          "type": "uint256"
        },
        {
          "name": "no",
          "type": "uint256"
        },
        {
          "name": "blank",
          "type": "uint256"
        },
        {
          "name": "invalid",
          "type": "uint256"
        }
      ],
      "payable": false,
      "stateMutability": "view",
      "type": "function"
    },
    {
      "constant": false,
      "inputs": [
        {
          "name": "timestamp",
          "type": "string"
        }
      ],
      "name": "yes",
      "outputs": [],
      "payable": false,
      "stateMutability": "nonpayable",
      "type": "function"
    },
    {
      "constant": false,
      "inputs": [
        {
          "name": "timestamp",
          "type": "string"
        }
      ],
      "name": "no",
      "outputs": [],
      "payable": false,
      "stateMutability": "nonpayable",
      "type": "function"
    },
    {
      "constant": false,
      "inputs": [
        {
          "name": "timestamp",
          "type": "string"
        }
      ],
      "name": "blank",
      "outputs": [],
      "payable": false,
      "stateMutability": "nonpayable",
      "type": "function"
    },
    {
      "constant": false,
      "inputs": [
        {
          "name": "timestamp",
          "type": "string"
        }
      ],
      "name": "invalid",
      "outputs": [],
      "payable": false,
      "stateMutability": "nonpayable",
      "type": "function"
    },
    {
      "constant": true,
      "inputs": [],
      "name": "getVerification",
      "outputs": [
        {
          "name": "",
          "type": "bool"
        }
      ],
      "payable": false,
      "stateMutability": "view",
      "type": "function"
    },
    {
      "constant": true,
      "inputs": [],
      "name": "getVotingRound",
      "outputs": [
        {
          "name": "",
          "type": "uint256"
        }
      ],
      "payable": false,
      "stateMutability": "view",
      "type": "function"
    },
    {
      "constant": false,
      "inputs": [],
      "name": "recount",
      "outputs": [],
      "payable": false,
      "stateMutability": "nonpayable",
      "type": "function"
    },
    {
      "constant": false,
      "inputs": [
        {
          "name": "pollingCards",
          "type": "uint256"
        },
        {
          "name": "powerOfAttorneys",
          "type": "uint256"
        },
        {
          "name": "voterPasses",
          "type": "uint256"
        }
      ],
      "name": "inputControlNumbers",
      "outputs": [],
      "payable": false,
      "stateMutability": "nonpayable",
      "type": "function"
    },
    {
      "constant": false,
      "inputs": [
        {
          "name": "yesCount",
          "type": "uint256"
        },
        {
          "name": "noCount",
          "type": "uint256"
        },
        {
          "name": "blankCount",
          "type": "uint256"
        },
        {
          "name": "invalidCount",
          "type": "uint256"
        }
      ],
      "name": "verifyVotes",
      "outputs": [],
      "payable": false,
      "stateMutability": "nonpayable",
      "type": "function"
    },
    {
      "constant": true,
      "inputs": [],
      "name": "getDeviation",
      "outputs": [
        {
          "name": "",
          "type": "uint256"
        }
      ],
      "payable": false,
      "stateMutability": "view",
      "type": "function"
    },
    {
      "constant": false,
      "inputs": [
        {
          "name": "explanation",
          "type": "string"
        }
      ],
      "name": "signOff",
      "outputs": [
        {
          "name": "",
          "type": "bool"
        }
      ],
      "payable": false,
      "stateMutability": "nonpayable",
      "type": "function"
    },
    {
      "constant": true,
      "inputs": [],
      "name": "canSubmit",
      "outputs": [
        {
          "name": "",
          "type": "bool"
        }
      ],
      "payable": false,
      "stateMutability": "view",
      "type": "function"
    }
  ],
  "bytecode": "0x60606040526000600360006101000a8154816fffffffffffffffffffffffffffffffff02191690836fffffffffffffffffffffffffffffffff1602179055506000600360106101000a8154816fffffffffffffffffffffffffffffffff02191690836fffffffffffffffffffffffffffffffff1602179055506000600460006101000a8154816fffffffffffffffffffffffffffffffff02191690836fffffffffffffffffffffffffffffffff1602179055506000600460106101000a8154816fffffffffffffffffffffffffffffffff02191690836fffffffffffffffffffffffffffffffff1602179055506000600560006101000a8154816fffffffffffffffffffffffffffffffff02191690836fffffffffffffffffffffffffffffffff16021790555060006006556000600755600060085560006009556000600a556000600b556000600c556000600d556000600e60006101000a81548160ff021916908360ff1602179055506000600e60016101000a81548160ff021916908360ff1602179055506000600e60026101000a81548160ff021916908360ff1602179055506000600e60036101000a81548160ff021916908360ff1602179055506001600e60046101000a81548160ff0219169083151502179055506000601060006101000a81548160ff0219169083151502179055506001601060016101000a81548160ff0219169083151502179055506000601060026101000a81548160ff02191690831515021790555034156200023657600080fd5b6040516040806200519f8339810160405280805190602001909190805190602001909190505080336000806101000a81548173ffffffffffffffffffffffffffffffffffffffff021916908373ffffffffffffffffffffffffffffffffffffffff16021790555080600160006101000a81548173ffffffffffffffffffffffffffffffffffffffff021916908373ffffffffffffffffffffffffffffffffffffffff1602179055505081601460006101000a81548173ffffffffffffffffffffffffffffffffffffffff021916908373ffffffffffffffffffffffffffffffffffffffff160217905550601460009054906101000a900473ffffffffffffffffffffffffffffffffffffffff1673ffffffffffffffffffffffffffffffffffffffff16638d796bb36040518163ffffffff167c0100000000000000000000000000000000000000000000000000000000028152600401600060405180830381600087803b1515620003a657600080fd5b6102c65a03f11515620003b857600080fd5b5050505050614dd280620003cd6000396000f300606060405260043610610149576000357c0100000000000000000000000000000000000000000000000000000000900463ffffffff1680631704f0981461014e5780631df3c85c1461017b57806323f314c4146101d057806324716b201461020e578063273bb1cf146102595780632bb9e075146102b65780632f87f8d1146102cb57806334adc875146103205780634c1aa97614610335578063724de9791461034a57806382f7a105146103bb57806386bafc791461041857806389ab3532146104455780638a365e591461046e578063941974a2146104975780639e4cda43146104cc578063c8bef550146104e1578063cbb8bf9b1461050a578063ce909a5214610567578063dfc86fe2146105dc578063e4085d6714610631578063fbfae0fc146106a7578063fde0817414610704578063fe559d971461073b578063ffbc9bd01461076a575b600080fd5b341561015957600080fd5b610161610797565b604051808215151515815260200191505060405180910390f35b341561018657600080fd5b61018e6107ae565b604051808273ffffffffffffffffffffffffffffffffffffffff1673ffffffffffffffffffffffffffffffffffffffff16815260200191505060405180910390f35b34156101db57600080fd5b61020c60048080359060200190919080359060200190919080359060200190919080359060200190919050506107d8565b005b341561021957600080fd5b61023f60048080356000191690602001909190803560ff16906020019091905050610eaa565b604051808215151515815260200191505060405180910390f35b341561026457600080fd5b6102b4600480803590602001908201803590602001908080601f0160208091040260200160405190810160405280939291908181526020018383808284378201915050505050509190505061138b565b005b34156102c157600080fd5b6102c9611776565b005b34156102d657600080fd5b6102de611994565b604051808273ffffffffffffffffffffffffffffffffffffffff1673ffffffffffffffffffffffffffffffffffffffff16815260200191505060405180910390f35b341561032b57600080fd5b6103336119be565b005b341561034057600080fd5b610348611e47565b005b6103b9600480803573ffffffffffffffffffffffffffffffffffffffff1690602001909190803590602001908201803590602001908080601f0160208091040260200160405190810160405280939291908181526020018383808284378201915050505050509190505061212d565b005b34156103c657600080fd5b610416600480803590602001908201803590602001908080601f0160208091040260200160405190810160405280939291908181526020018383808284378201915050505050509190505061233e565b005b341561042357600080fd5b61042b61272a565b604051808215151515815260200191505060405180910390f35b341561045057600080fd5b610458612742565b6040518082815260200191505060405180910390f35b341561047957600080fd5b61048161281a565b6040518082815260200191505060405180910390f35b34156104a257600080fd5b6104ca6004808035906020019091908035906020019091908035906020019091905050612852565b005b34156104d757600080fd5b6104df612a50565b005b34156104ec57600080fd5b6104f4612f06565b6040518082815260200191505060405180910390f35b341561051557600080fd5b610565600480803590602001908201803590602001908080601f01602080910402602001604051908101604052809392919081815260200183838082843782019150505050505091905050612f0b565b005b341561057257600080fd5b6105c2600480803590602001908201803590602001908080601f016020809104026020016040519081016040528093929190818152602001838380828437820191505050505050919050506132f7565b604051808215151515815260200191505060405180910390f35b34156105e757600080fd5b6105ef6140d4565b604051808273ffffffffffffffffffffffffffffffffffffffff1673ffffffffffffffffffffffffffffffffffffffff16815260200191505060405180910390f35b341561063c57600080fd5b6106446140fa565b604051808d81526020018c81526020018b81526020018a81526020018981526020018881526020018781526020018681526020018581526020018481526020018381526020018281526020019c5050505050505050505050505060405180910390f35b34156106b257600080fd5b610702600480803590602001908201803590602001908080601f0160208091040260200160405190810160405280939291908181526020018383808284378201915050505050509190505061421a565b005b341561070f57600080fd5b610717614606565b6040518082600481111561072757fe5b60ff16815260200191505060405180910390f35b341561074657600080fd5b61074e614668565b604051808260ff1660ff16815260200191505060405180910390f35b341561077557600080fd5b61077d61467f565b604051808215151515815260200191505060405180910390f35b6000601060009054906101000a900460ff16905090565b6000600160009054906101000a900473ffffffffffffffffffffffffffffffffffffffff16905090565b60008060008060038060048111156107ec57fe5b600260003273ffffffffffffffffffffffffffffffffffffffff1673ffffffffffffffffffffffffffffffffffffffff16815260200190815260200160002060009054906101000a900460ff1660ff16600481111561084757fe5b600481111561085257fe5b1415610e3657601060009054906101000a900460ff1615610980577f43ee49b353e606440a3e01e92992e6016fe11eb3c3745608f6b54fbc8d758faa601060009054906101000a900460ff1660008060008060006040518087151515158152602001806020018715151515815260200186151515158152602001851515151581526020018415151515815260200183151515158152602001828103825260478152602001807f566572696669636174696f6e20616c72656164792068617070656e656420616e81526020017f6420697420776173207375636365737366756c2e20496e70757420646973726581526020017f6761726465642e0000000000000000000000000000000000000000000000000081525060600197505050505050505060405180910390a1610e31565b601060019054906101000a900460ff1615610a90577f43ee49b353e606440a3e01e92992e6016fe11eb3c3745608f6b54fbc8d758faa601060009054906101000a900460ff16601060019054906101000a900460ff166000806000806040518087151515158152602001806020018715151515815260200186151515158152602001851515151581526020018415151515815260200183151515158152602001828103825260328152602001807f5265636f756e74206e6563657373617279206265666f7265206e65772076657281526020017f696669636174696f6e20617474656d70742e000000000000000000000000000081525060400197505050505050505060405180910390a1610e31565b601060029054906101000a900460ff161515610b6d577f43ee49b353e606440a3e01e92992e6016fe11eb3c3745608f6b54fbc8d758faa601060009054906101000a900460ff16600160008060008060405180871515151581526020018060200187151515158152602001861515151581526020018515151515815260200184151515158152602001831515151581526020018281038252601a8152602001807f436f756e74696e67206d75737420626567696e2066697273742e00000000000081525060200197505050505050505060405180910390a1610e31565b6000601060026101000a81548160ff021916908315150217905550600360109054906101000a90046fffffffffffffffffffffffffffffffff166fffffffffffffffffffffffffffffffff1689149450600460009054906101000a90046fffffffffffffffffffffffffffffffff166fffffffffffffffffffffffffffffffff1688149350600560009054906101000a90046fffffffffffffffffffffffffffffffff166fffffffffffffffffffffffffffffffff1687149250600460109054906101000a90046fffffffffffffffffffffffffffffffff166fffffffffffffffffffffffffffffffff1686149150848015610c665750835b8015610c6f5750825b8015610c785750815b15610d46576001601060006101000a81548160ff0219169083151502179055507f43ee49b353e606440a3e01e92992e6016fe11eb3c3745608f6b54fbc8d758faa601060009054906101000a900460ff16601060019054906101000a900460ff1687878787604051808715151515815260200180602001871515151581526020018615151515815260200185151515158152602001841515151581526020018315151515815260200182810382526000815260200160200197505050505050505060405180910390a1610e30565b6001601060016101000a81548160ff0219169083151502179055507f43ee49b353e606440a3e01e92992e6016fe11eb3c3745608f6b54fbc8d758faa601060009054906101000a900460ff16601060019054906101000a900460ff168787878760405180871515151581526020018060200187151515158152602001861515151581526020018515151515815260200184151515158152602001831515151581526020018281038252600e8152602001807f4e65656473205265636f756e742e00000000000000000000000000000000000081525060200197505050505050505060405180910390a15b5b610e9f565b7f367dccf700b76ac212780fb422c9b7569b12f28f39de0a0f8622641a83355ab16040518080602001828103825260148152602001807f556e617574686f72697a6564206163636573732e00000000000000000000000081525060200191505060405180910390a15b505050505050505050565b6000806003806004811115610ebb57fe5b600260003273ffffffffffffffffffffffffffffffffffffffff1673ffffffffffffffffffffffffffffffffffffffff16815260200190815260200160002060009054906101000a900460ff1660ff166004811115610f1657fe5b6004811115610f2157fe5b141561131a5784601460009054906101000a900473ffffffffffffffffffffffffffffffffffffffff1673ffffffffffffffffffffffffffffffffffffffff16639d38800d826000604051602001526040518263ffffffff167c0100000000000000000000000000000000000000000000000000000000028152600401808260001916600019168152602001915050602060405180830381600087803b1515610fc957600080fd5b6102c65a03f11515610fda57600080fd5b505050604051805190501561102d577fc6f463ff03552b32a5c8648ccdcd61429246dafb835c341eb26574fdb791bdf08160405180826000191660001916815260200191505060405180910390a1611314565b7fd135bcf6825b1f8773fbc5614aff8574c3d4bb8bc5853109ef17f35b30e5a0ba8160405180826000191660001916815260200191505060405180910390a16000600581111561107957fe5b85600581111561108557fe5b1115806110a7575060058081111561109957fe5b8560058111156110a557fe5b115b1561111d577f367dccf700b76ac212780fb422c9b7569b12f28f39de0a0f8622641a83355ab16040518080602001828103825260138152602001807f496e76616c696420766f74657220747970652e0000000000000000000000000081525060200191505060405180910390a160009350611313565b601460009054906101000a900473ffffffffffffffffffffffffffffffffffffffff1673ffffffffffffffffffffffffffffffffffffffff166324716b2087876000604051602001526040518363ffffffff167c01000000000000000000000000000000000000000000000000000000000281526004018083600019166000191681526020018260058111156111af57fe5b60ff16815260200192505050602060405180830381600087803b15156111d457600080fd5b6102c65a03f115156111e557600080fd5b5050506040518051905092508215156112015760009350611313565b6001600581111561120e57fe5b85600581111561121a57fe5b14156112375760066000815480929190600101919050555061130e565b6002600581111561124457fe5b85600581111561125057fe5b141561126d5760076000815480929190600101919050555061130d565b6003600581111561127a57fe5b85600581111561128657fe5b14156112a35760086000815480929190600101919050555061130c565b600460058111156112b057fe5b8560058111156112bc57fe5b14156112d95760096000815480929190600101919050555061130b565b6005808111156112e557fe5b8560058111156112f157fe5b141561130a57600a600081548092919060010191905055505b5b5b5b5b600193505b5b50611383565b7f367dccf700b76ac212780fb422c9b7569b12f28f39de0a0f8622641a83355ab16040518080602001828103825260148152602001807f556e617574686f72697a6564206163636573732e00000000000000000000000081525060200191505060405180910390a15b505092915050565b61139361272a565b1515611406577f367dccf700b76ac212780fb422c9b7569b12f28f39de0a0f8622641a83355ab16040518080602001828103825260128152602001807f53657373696f6e20697320636c6f7365642e000000000000000000000000000081525060200191505060405180910390a1611773565b601060009054906101000a900460ff1615156116ce57600380600481111561142a57fe5b600260003273ffffffffffffffffffffffffffffffffffffffff1673ffffffffffffffffffffffffffffffffffffffff16815260200190815260200160002060009054906101000a900460ff1660ff16600481111561148557fe5b600481111561149057fe5b141561165f576001601060026101000a81548160ff0219169083151502179055506003601081819054906101000a90046fffffffffffffffffffffffffffffffff168092919060010191906101000a8154816fffffffffffffffffffffffffffffffff02191690836fffffffffffffffffffffffffffffffff16021790555050601460009054906101000a900473ffffffffffffffffffffffffffffffffffffffff1673ffffffffffffffffffffffffffffffffffffffff166390cf581c6040518163ffffffff167c0100000000000000000000000000000000000000000000000000000000028152600401600060405180830381600087803b151561159557600080fd5b6102c65a03f115156115a657600080fd5b5050507f87567035f0c5d3143998f3f50df307463b25b6e935e0113bb98a7985fcf5da3d60018084604051808481526020018315151515815260200180602001828103825283818151815260200191508051906020019080838360005b8381101561161e578082015181840152602081019050611603565b50505050905090810190601f16801561164b5780820380516001836020036101000a031916815260200191505b5094505050505060405180910390a16116c8565b7f367dccf700b76ac212780fb422c9b7569b12f28f39de0a0f8622641a83355ab16040518080602001828103825260148152602001807f556e617574686f72697a6564206163636573732e00000000000000000000000081525060200191505060405180910390a15b50611772565b7f87567035f0c5d3143998f3f50df307463b25b6e935e0113bb98a7985fcf5da3d600080604051808381526020018215151515815260200180602001828103825260378152602001807f566572696669636174696f6e20616c72656164792068617070656e65642c207681526020017f6f746520636f756e74696e6720697320636c6f7365642e000000000000000000815250604001935050505060405180910390a15b5b50565b6000809054906101000a900473ffffffffffffffffffffffffffffffffffffffff1673ffffffffffffffffffffffffffffffffffffffff163273ffffffffffffffffffffffffffffffffffffffff161415611992576001421180156117e75750600e60049054906101000a900460ff165b80156118005750601060009054906101000a900460ff16155b15611902576000600e60046101000a81548160ff0219169083151502179055506000601060016101000a81548160ff0219169083151502179055506003600081819054906101000a90046fffffffffffffffffffffffffffffffff168092919060010191906101000a8154816fffffffffffffffffffffffffffffffff02191690836fffffffffffffffffffffffffffffffff160217905550507ff8c17d4907a64b36c45f63ee113f829f56a8059e18751190e9d7f81d18aed06530604051808273ffffffffffffffffffffffffffffffffffffffff1673ffffffffffffffffffffffffffffffffffffffff16815260200191505060405180910390a1611991565b7f367dccf700b76ac212780fb422c9b7569b12f28f39de0a0f8622641a83355ab16040518080602001828103825260278152602001807f4e6f7420616c6c6f776564206265666f7265206f6666696369616c207374617281526020017f7420646174652e0000000000000000000000000000000000000000000000000081525060400191505060405180910390a15b5b565b6000601460009054906101000a900473ffffffffffffffffffffffffffffffffffffffff16905090565b600080600260003373ffffffffffffffffffffffffffffffffffffffff1673ffffffffffffffffffffffffffffffffffffffff16815260200190815260200160002060009054906101000a900460ff1660ff166004811115611a1c57fe5b905060036004811115611a2b57fe5b816004811115611a3757fe5b148015611a5657506000600e60009054906101000a900460ff1660ff16115b8015611a7557506000600e60019054906101000a900460ff1660ff1611155b8015611a8d5750600e60049054906101000a900460ff165b80611ae25750600480811115611a9f57fe5b816004811115611aab57fe5b148015611ae157506001600e60019054906101000a900460ff1660ff161180611ae05750600e60049054906101000a900460ff165b5b5b15611db457600260003373ffffffffffffffffffffffffffffffffffffffff1673ffffffffffffffffffffffffffffffffffffffff16815260200190815260200160002060009054906101000a900460ff1660ff166004811115611b4257fe5b915060036004811115611b5157fe5b826004811115611b5d57fe5b1415611bf357600e600081819054906101000a900460ff16809291906001900391906101000a81548160ff021916908360ff160217905550506000601160003373ffffffffffffffffffffffffffffffffffffffff1673ffffffffffffffffffffffffffffffffffffffff16815260200190815260200160002060006101000a81548160ff021916908315150217905550611d35565b600480811115611bff57fe5b826004811115611c0b57fe5b1415611ca157600e600181819054906101000a900460ff16809291906001900391906101000a81548160ff021916908360ff160217905550506000601260003373ffffffffffffffffffffffffffffffffffffffff1673ffffffffffffffffffffffffffffffffffffffff16815260200190815260200160002060006101000a81548160ff021916908315150217905550611d34565b7f367dccf700b76ac212780fb422c9b7569b12f28f39de0a0f8622641a83355ab16040518080602001828103825260218152602001807f556e616c6c6f77656420726f6c65206f722072756c652076696f6c6174696f6e81526020017f2e0000000000000000000000000000000000000000000000000000000000000081525060400191505060405180910390a1611daf565b5b7f95e9e12152d49e817d9be172b4aa1bee982eb0d34932f10d6a5c36d19535f32a3383604051808373ffffffffffffffffffffffffffffffffffffffff1673ffffffffffffffffffffffffffffffffffffffff168152602001826004811115611d9a57fe5b60ff1681526020019250505060405180910390a15b611e43565b7f367dccf700b76ac212780fb422c9b7569b12f28f39de0a0f8622641a83355ab16040518080602001828103825260218152602001807f556e616c6c6f77656420726f6c65206f722072756c652076696f6c6174696f6e81526020017f2e0000000000000000000000000000000000000000000000000000000000000081525060400191505060405180910390a15b5050565b6003806004811115611e5557fe5b600260003273ffffffffffffffffffffffffffffffffffffffff1673ffffffffffffffffffffffffffffffffffffffff16815260200190815260200160002060009054906101000a900460ff1660ff166004811115611eb057fe5b6004811115611ebb57fe5b14156120c157601460009054906101000a900473ffffffffffffffffffffffffffffffffffffffff1673ffffffffffffffffffffffffffffffffffffffff16634c1aa9766040518163ffffffff167c0100000000000000000000000000000000000000000000000000000000028152600401600060405180830381600087803b1515611f4657600080fd5b6102c65a03f11515611f5757600080fd5b5050506003600081819054906101000a90046fffffffffffffffffffffffffffffffff168092919060010191906101000a8154816fffffffffffffffffffffffffffffffff02191690836fffffffffffffffffffffffffffffffff160217905550506000600360106101000a8154816fffffffffffffffffffffffffffffffff02191690836fffffffffffffffffffffffffffffffff1602179055506000600460006101000a8154816fffffffffffffffffffffffffffffffff02191690836fffffffffffffffffffffffffffffffff1602179055506000600560006101000a8154816fffffffffffffffffffffffffffffffff02191690836fffffffffffffffffffffffffffffffff1602179055506000600460106101000a8154816fffffffffffffffffffffffffffffffff02191690836fffffffffffffffffffffffffffffffff1602179055506000601060016101000a81548160ff02191690831515021790555061212a565b7f367dccf700b76ac212780fb422c9b7569b12f28f39de0a0f8622641a83355ab16040518080602001828103825260148152602001807f556e617574686f72697a6564206163636573732e00000000000000000000000081525060200191505060405180910390a15b50565b6000809054906101000a900473ffffffffffffffffffffffffffffffffffffffff1673ffffffffffffffffffffffffffffffffffffffff163273ffffffffffffffffffffffffffffffffffffffff16141561233a5760003411151561219157600080fd5b61219b8282614717565b601460009054906101000a900473ffffffffffffffffffffffffffffffffffffffff1673ffffffffffffffffffffffffffffffffffffffff1663724de97983836040518363ffffffff167c0100000000000000000000000000000000000000000000000000000000028152600401808373ffffffffffffffffffffffffffffffffffffffff1673ffffffffffffffffffffffffffffffffffffffff16815260200180602001828103825283818151815260200191508051906020019080838360005b8381101561227857808201518184015260208101905061225d565b50505050905090810190601f1680156122a55780820380516001836020036101000a031916815260200191505b509350505050600060405180830381600087803b15156122c457600080fd5b6102c65a03f115156122d557600080fd5b5050506122e181614b9f565b60018273ffffffffffffffffffffffffffffffffffffffff1631111515612339578173ffffffffffffffffffffffffffffffffffffffff166108fc349081150290604051600060405180830381858888f19350505050505b5b5050565b61234661272a565b15156123b9577f367dccf700b76ac212780fb422c9b7569b12f28f39de0a0f8622641a83355ab16040518080602001828103825260128152602001807f53657373696f6e20697320636c6f7365642e000000000000000000000000000081525060200191505060405180910390a1612727565b601060009054906101000a900460ff1615156126825760038060048111156123dd57fe5b600260003273ffffffffffffffffffffffffffffffffffffffff1673ffffffffffffffffffffffffffffffffffffffff16815260200190815260200160002060009054906101000a900460ff1660ff16600481111561243857fe5b600481111561244357fe5b1415612613576001601060026101000a81548160ff0219169083151502179055506004601081819054906101000a90046fffffffffffffffffffffffffffffffff168092919060010191906101000a8154816fffffffffffffffffffffffffffffffff02191690836fffffffffffffffffffffffffffffffff16021790555050601460009054906101000a900473ffffffffffffffffffffffffffffffffffffffff1673ffffffffffffffffffffffffffffffffffffffff16633ec3d5c46040518163ffffffff167c0100000000000000000000000000000000000000000000000000000000028152600401600060405180830381600087803b151561254857600080fd5b6102c65a03f1151561255957600080fd5b5050507f87567035f0c5d3143998f3f50df307463b25b6e935e0113bb98a7985fcf5da3d6004600184604051808481526020018315151515815260200180602001828103825283818151815260200191508051906020019080838360005b838110156125d25780820151818401526020810190506125b7565b50505050905090810190601f1680156125ff5780820380516001836020036101000a031916815260200191505b5094505050505060405180910390a161267c565b7f367dccf700b76ac212780fb422c9b7569b12f28f39de0a0f8622641a83355ab16040518080602001828103825260148152602001807f556e617574686f72697a6564206163636573732e00000000000000000000000081525060200191505060405180910390a15b50612726565b7f87567035f0c5d3143998f3f50df307463b25b6e935e0113bb98a7985fcf5da3d600080604051808381526020018215151515815260200180602001828103825260378152602001807f566572696669636174696f6e20616c72656164792068617070656e65642c207681526020017f6f746520636f756e74696e6720697320636c6f7365642e000000000000000000815250604001935050505060405180910390a15b5b50565b6000600e60049054906101000a900460ff1615905090565b600080600b54600c54600d540101600460109054906101000a90046fffffffffffffffffffffffffffffffff16600360109054906101000a90046fffffffffffffffffffffffffffffffff16600460009054906101000a90046fffffffffffffffffffffffffffffffff16600560009054906101000a90046fffffffffffffffffffffffffffffffff160101016fffffffffffffffffffffffffffffffff160390506000811215612813577fffffffffffffffffffffffffffffffffffffffffffffffffffffffffffffffff810290505b8091505090565b6000600360009054906101000a90046fffffffffffffffffffffffffffffffff166fffffffffffffffffffffffffffffffff16905090565b600380600481111561286057fe5b600260003273ffffffffffffffffffffffffffffffffffffffff1673ffffffffffffffffffffffffffffffffffffffff16815260200190815260200160002060009054906101000a900460ff1660ff1660048111156128bb57fe5b60048111156128c657fe5b14156129e15783600b8190555082600c8190555081600d81905550601460009054906101000a900473ffffffffffffffffffffffffffffffffffffffff1673ffffffffffffffffffffffffffffffffffffffff1663941974a28585856040518463ffffffff167c0100000000000000000000000000000000000000000000000000000000028152600401808481526020018381526020018281526020019350505050600060405180830381600087803b151561298157600080fd5b6102c65a03f1151561299257600080fd5b5050507faeceb13618d1f91e300025c2eed9b7064b28e50e9624b49ea8c3f33fae6f5d7384848460405180848152602001838152602001828152602001935050505060405180910390a1612a4a565b7f367dccf700b76ac212780fb422c9b7569b12f28f39de0a0f8622641a83355ab16040518080602001828103825260148152602001807f556e617574686f72697a6564206163636573732e00000000000000000000000081525060200191505060405180910390a15b50505050565b600080600260003373ffffffffffffffffffffffffffffffffffffffff1673ffffffffffffffffffffffffffffffffffffffff16815260200190815260200160002060009054906101000a900460ff1660ff166004811115612aae57fe5b9050612ab861272a565b1515612b2b577f367dccf700b76ac212780fb422c9b7569b12f28f39de0a0f8622641a83355ab16040518080602001828103825260198152602001807f566f74696e672053657373696f6e20697320636c6f7365642e0000000000000081525060200191505060405180910390a1612f02565b60036004811115612b3857fe5b816004811115612b4457fe5b148015612b6357506000600e60009054906101000a900460ff1660ff16145b80612ba25750600480811115612b7557fe5b816004811115612b8157fe5b148015612ba157506000600e60009054906101000a900460ff1660ff1610155b5b15612e7257600260003373ffffffffffffffffffffffffffffffffffffffff1673ffffffffffffffffffffffffffffffffffffffff16815260200190815260200160002060009054906101000a900460ff1660ff166004811115612c0257fe5b915060036004811115612c1157fe5b826004811115612c1d57fe5b1415612cb257600e600081819054906101000a900460ff168092919060010191906101000a81548160ff021916908360ff160217905550506001601160003373ffffffffffffffffffffffffffffffffffffffff1673ffffffffffffffffffffffffffffffffffffffff16815260200190815260200160002060006101000a81548160ff021916908315150217905550612df3565b600480811115612cbe57fe5b826004811115612cca57fe5b1415612d5f57600e600181819054906101000a900460ff168092919060010191906101000a81548160ff021916908360ff160217905550506001601260003373ffffffffffffffffffffffffffffffffffffffff1673ffffffffffffffffffffffffffffffffffffffff16815260200190815260200160002060006101000a81548160ff021916908315150217905550612df2565b7f367dccf700b76ac212780fb422c9b7569b12f28f39de0a0f8622641a83355ab16040518080602001828103825260218152602001807f556e616c6c6f77656420726f6c65206f722072756c652076696f6c6174696f6e81526020017f2e0000000000000000000000000000000000000000000000000000000000000081525060400191505060405180910390a1612e6d565b5b7f45cd18d769a210a633e8004aa52201726912d20a65e161dedd6650fb3058a3783383604051808373ffffffffffffffffffffffffffffffffffffffff1673ffffffffffffffffffffffffffffffffffffffff168152602001826004811115612e5857fe5b60ff1681526020019250505060405180910390a15b612f01565b7f367dccf700b76ac212780fb422c9b7569b12f28f39de0a0f8622641a83355ab16040518080602001828103825260218152602001807f556e616c6c6f77656420726f6c65206f722072756c652076696f6c6174696f6e81526020017f2e0000000000000000000000000000000000000000000000000000000000000081525060400191505060405180910390a15b5b5050565b600181565b612f1361272a565b1515612f86577f367dccf700b76ac212780fb422c9b7569b12f28f39de0a0f8622641a83355ab16040518080602001828103825260128152602001807f53657373696f6e20697320636c6f7365642e000000000000000000000000000081525060200191505060405180910390a16132f4565b601060009054906101000a900460ff16151561324f576003806004811115612faa57fe5b600260003273ffffffffffffffffffffffffffffffffffffffff1673ffffffffffffffffffffffffffffffffffffffff16815260200190815260200160002060009054906101000a900460ff1660ff16600481111561300557fe5b600481111561301057fe5b14156131e0576001601060026101000a81548160ff0219169083151502179055506004600081819054906101000a90046fffffffffffffffffffffffffffffffff168092919060010191906101000a8154816fffffffffffffffffffffffffffffffff02191690836fffffffffffffffffffffffffffffffff16021790555050601460009054906101000a900473ffffffffffffffffffffffffffffffffffffffff1673ffffffffffffffffffffffffffffffffffffffff166341c12a706040518163ffffffff167c0100000000000000000000000000000000000000000000000000000000028152600401600060405180830381600087803b151561311557600080fd5b6102c65a03f1151561312657600080fd5b5050507f87567035f0c5d3143998f3f50df307463b25b6e935e0113bb98a7985fcf5da3d6002600184604051808481526020018315151515815260200180602001828103825283818151815260200191508051906020019080838360005b8381101561319f578082015181840152602081019050613184565b50505050905090810190601f1680156131cc5780820380516001836020036101000a031916815260200191505b5094505050505060405180910390a1613249565b7f367dccf700b76ac212780fb422c9b7569b12f28f39de0a0f8622641a83355ab16040518080602001828103825260148152602001807f556e617574686f72697a6564206163636573732e00000000000000000000000081525060200191505060405180910390a15b506132f3565b7f87567035f0c5d3143998f3f50df307463b25b6e935e0113bb98a7985fcf5da3d600080604051808381526020018215151515815260200180602001828103825260378152602001807f566572696669636174696f6e20616c72656164792068617070656e65642c207681526020017f6f746520636f756e74696e6720697320636c6f7365642e000000000000000000815250604001935050505060405180910390a15b5b50565b6000806000600e60049054906101000a900460ff16156133e5577f76159ff031441b48dca9d0fcd995632b18116259a9887cfe2c1ece27b8cf2113336000604051808373ffffffffffffffffffffffffffffffffffffffff1673ffffffffffffffffffffffffffffffffffffffff16815260200182151515158152602001806020018281038252602d8152602001807f43616e206f6e6c79207369676e206f666620647572696e67206f70656e20766f81526020017f74696e672073657373696f6e2e00000000000000000000000000000000000000815250604001935050505060405180910390a16140cd565b601060009054906101000a900460ff161515613400576140cd565b6000601360003373ffffffffffffffffffffffffffffffffffffffff1673ffffffffffffffffffffffffffffffffffffffff1681526020019081526020016000205414151561351d577f76159ff031441b48dca9d0fcd995632b18116259a9887cfe2c1ece27b8cf2113336000604051808373ffffffffffffffffffffffffffffffffffffffff1673ffffffffffffffffffffffffffffffffffffffff1681526020018215151515815260200180602001828103825260218152602001807f5374616666206d656d6562657220616c7265616479207369676e6564206f666681526020017f2e00000000000000000000000000000000000000000000000000000000000000815250604001935050505060405180910390a16140cd565b600260003373ffffffffffffffffffffffffffffffffffffffff1673ffffffffffffffffffffffffffffffffffffffff16815260200190815260200160002060009054906101000a900460ff1660ff16600481111561357857fe5b905060048081111561358657fe5b81600481111561359257fe5b1480156135f0575060011515601260003373ffffffffffffffffffffffffffffffffffffffff1673ffffffffffffffffffffffffffffffffffffffff16815260200190815260200160002060009054906101000a900460ff16151514155b156136c9577f76159ff031441b48dca9d0fcd995632b18116259a9887cfe2c1ece27b8cf2113336000604051808373ffffffffffffffffffffffffffffffffffffffff1673ffffffffffffffffffffffffffffffffffffffff1681526020018215151515815260200180602001828103825260248152602001807f4f6e6c79207369676e656420696e2054656c6c6572732063616e207369676e2081526020017f6f66662e00000000000000000000000000000000000000000000000000000000815250604001935050505060405180910390a16140cd565b600360048111156136d657fe5b8160048111156136e257fe5b148015613740575060011515601160003373ffffffffffffffffffffffffffffffffffffffff1673ffffffffffffffffffffffffffffffffffffffff16815260200190815260200160002060009054906101000a900460ff16151514155b15613819577f76159ff031441b48dca9d0fcd995632b18116259a9887cfe2c1ece27b8cf2113336000604051808373ffffffffffffffffffffffffffffffffffffffff1673ffffffffffffffffffffffffffffffffffffffff1681526020018215151515815260200180602001828103825260258152602001807f4f6e6c79207369676e656420696e2043686169726d656e2063616e207369676e81526020017f206f66662e000000000000000000000000000000000000000000000000000000815250604001935050505060405180910390a16140cd565b6003600481111561382657fe5b81600481111561383257fe5b1480156138625750600e60009054906101000a900460ff1660ff16600e60029054906101000a900460ff1660ff16105b801561388057506000600e60019054906101000a900460ff1660ff16115b806138ed575060048081111561389257fe5b81600481111561389e57fe5b1480156138ce5750600e60019054906101000a900460ff1660ff16600e60039054906101000a900460ff1660ff16105b80156138ec57506000600e60029054906101000a900460ff1660ff16145b5b15613fd657600260003373ffffffffffffffffffffffffffffffffffffffff1673ffffffffffffffffffffffffffffffffffffffff16815260200190815260200160002060009054906101000a900460ff1660ff16600481111561394d57fe5b915060048081111561395b57fe5b82600481111561396757fe5b1415613a6d57600e600381819054906101000a900460ff168092919060010191906101000a81548160ff021916908360ff160217905550506001601360003373ffffffffffffffffffffffffffffffffffffffff1673ffffffffffffffffffffffffffffffffffffffff168152602001908152602001600020819055507f76159ff031441b48dca9d0fcd995632b18116259a9887cfe2c1ece27b8cf2113336001604051808373ffffffffffffffffffffffffffffffffffffffff1673ffffffffffffffffffffffffffffffffffffffff1681526020018215151515815260200180602001828103825260008152602001602001935050505060405180910390a1613fcc565b60036004811115613a7a57fe5b826004811115613a8657fe5b1415613f2157600e60039054906101000a900460ff1660ff16600e60019054906101000a900460ff1660ff16141515613b6b577f76159ff031441b48dca9d0fcd995632b18116259a9887cfe2c1ece27b8cf2113336000604051808373ffffffffffffffffffffffffffffffffffffffff1673ffffffffffffffffffffffffffffffffffffffff16815260200182151515158152602001806020018281038252601e8152602001807f416c6c2074656c6c657273206d757374207369676e6f66662066697273740000815250602001935050505060405180910390a160009250613fd1565b6000613b75612742565b14158015613b8557506005845111155b15613c62577f76159ff031441b48dca9d0fcd995632b18116259a9887cfe2c1ece27b8cf2113336000604051808373ffffffffffffffffffffffffffffffffffffffff1673ffffffffffffffffffffffffffffffffffffffff1681526020018215151515815260200180602001828103825260398152602001807f596f752073686f756c6420737570706c7920616e206578706c616e6174696f6e81526020017f207768656e206120646576696174696f6e206f63637572732e00000000000000815250604001935050505060405180910390a160009250613fd1565b608c84511115613d44577f76159ff031441b48dca9d0fcd995632b18116259a9887cfe2c1ece27b8cf2113336000604051808373ffffffffffffffffffffffffffffffffffffffff1673ffffffffffffffffffffffffffffffffffffffff16815260200182151515158152602001806020018281038252602a8152602001807f4578706c616e6174696f6e206973206c6f6e676572207468616e20313430206381526020017f6861726163746572732e00000000000000000000000000000000000000000000815250604001935050505060405180910390a160009250613fd1565b6000613d4e612742565b141515613d6d5783600f9080519060200190613d6b929190614d01565b505b600e600281819054906101000a900460ff168092919060010191906101000a81548160ff021916908360ff16021790555050600e60009054906101000a900460ff1660ff16600e60029054906101000a900460ff1660ff16101515613f1c576001600e60046101000a81548160ff0219169083151502179055506001601360003373ffffffffffffffffffffffffffffffffffffffff1673ffffffffffffffffffffffffffffffffffffffff168152602001908152602001600020819055507f76159ff031441b48dca9d0fcd995632b18116259a9887cfe2c1ece27b8cf2113336001604051808373ffffffffffffffffffffffffffffffffffffffff1673ffffffffffffffffffffffffffffffffffffffff1681526020018215151515815260200180602001828103825260008152602001602001935050505060405180910390a17f4636d8618be0c9ce1d54a3899392732cbf63446bdf72f5d0920a95657771e9ff30604051808273ffffffffffffffffffffffffffffffffffffffff1673ffffffffffffffffffffffffffffffffffffffff16815260200191505060405180910390a160019250613fd1565b613fcb565b7f76159ff031441b48dca9d0fcd995632b18116259a9887cfe2c1ece27b8cf2113336000604051808373ffffffffffffffffffffffffffffffffffffffff1673ffffffffffffffffffffffffffffffffffffffff16815260200182151515158152602001806020018281038252600f8152602001807f526f6c652076696f6c6174696f6e2e0000000000000000000000000000000000815250602001935050505060405180910390a15b5b600092505b6140cc565b7f76159ff031441b48dca9d0fcd995632b18116259a9887cfe2c1ece27b8cf2113336000604051808373ffffffffffffffffffffffffffffffffffffffff1673ffffffffffffffffffffffffffffffffffffffff1681526020018215151515815260200180602001828103825260528152602001807f416c6c2054656c6c657273206d757374207369676e206f66662c207468656e2081526020017f63686169726d616e2063616e207369676e206f66662e204e6f206f746865722081526020017f726f6c652063616e207369676e206f66662e0000000000000000000000000000815250606001935050505060405180910390a15b5b5050919050565b601460009054906101000a900473ffffffffffffffffffffffffffffffffffffffff1681565b600080600080600080600080600080600080600654600954600754600854600a54600b54600d54600c54600360109054906101000a90046fffffffffffffffffffffffffffffffff16600460009054906101000a90046fffffffffffffffffffffffffffffffff16600560009054906101000a90046fffffffffffffffffffffffffffffffff16600460109054906101000a90046fffffffffffffffffffffffffffffffff16836fffffffffffffffffffffffffffffffff169350826fffffffffffffffffffffffffffffffff169250816fffffffffffffffffffffffffffffffff169150806fffffffffffffffffffffffffffffffff1690509b509b509b509b509b509b509b509b509b509b509b509b50909192939495969798999a9b565b61422261272a565b1515614295577f367dccf700b76ac212780fb422c9b7569b12f28f39de0a0f8622641a83355ab16040518080602001828103825260128152602001807f53657373696f6e20697320636c6f7365642e000000000000000000000000000081525060200191505060405180910390a1614603565b601060009054906101000a900460ff16151561455e5760038060048111156142b957fe5b600260003273ffffffffffffffffffffffffffffffffffffffff1673ffffffffffffffffffffffffffffffffffffffff16815260200190815260200160002060009054906101000a900460ff1660ff16600481111561431457fe5b600481111561431f57fe5b14156144ef576001601060026101000a81548160ff0219169083151502179055506005600081819054906101000a90046fffffffffffffffffffffffffffffffff168092919060010191906101000a8154816fffffffffffffffffffffffffffffffff02191690836fffffffffffffffffffffffffffffffff16021790555050601460009054906101000a900473ffffffffffffffffffffffffffffffffffffffff1673ffffffffffffffffffffffffffffffffffffffff1663cd7553416040518163ffffffff167c0100000000000000000000000000000000000000000000000000000000028152600401600060405180830381600087803b151561442457600080fd5b6102c65a03f1151561443557600080fd5b5050507f87567035f0c5d3143998f3f50df307463b25b6e935e0113bb98a7985fcf5da3d6003600184604051808481526020018315151515815260200180602001828103825283818151815260200191508051906020019080838360005b838110156144ae578082015181840152602081019050614493565b50505050905090810190601f1680156144db5780820380516001836020036101000a031916815260200191505b5094505050505060405180910390a1614558565b7f367dccf700b76ac212780fb422c9b7569b12f28f39de0a0f8622641a83355ab16040518080602001828103825260148152602001807f556e617574686f72697a6564206163636573732e00000000000000000000000081525060200191505060405180910390a15b50614602565b7f87567035f0c5d3143998f3f50df307463b25b6e935e0113bb98a7985fcf5da3d600080604051808381526020018215151515815260200180602001828103825260378152602001807f566572696669636174696f6e20616c72656164792068617070656e65642c207681526020017f6f746520636f756e74696e6720697320636c6f7365642e000000000000000000815250604001935050505060405180910390a15b5b50565b6000600260003273ffffffffffffffffffffffffffffffffffffffff1673ffffffffffffffffffffffffffffffffffffffff16815260200190815260200160002060009054906101000a900460ff1660ff16600481111561466357fe5b905090565b6000600e60019054906101000a900460ff16905090565b600080600e60039054906101000a900460ff1660ff161180156146c55750600e60039054906101000a900460ff1660ff16600e60019054906101000a900460ff1660ff16145b80156146e357506000600e60029054906101000a900460ff1660ff16115b80156147125750600e60009054906101000a900460ff1660ff16600e60029054906101000a900460ff1660ff16145b905090565b60008060009054906101000a900473ffffffffffffffffffffffffffffffffffffffff1673ffffffffffffffffffffffffffffffffffffffff163273ffffffffffffffffffffffffffffffffffffffff161415614b9a57600160009054906101000a900473ffffffffffffffffffffffffffffffffffffffff1673ffffffffffffffffffffffffffffffffffffffff1663b8c51067836000604051602001526040518263ffffffff167c01000000000000000000000000000000000000000000000000000000000281526004018080602001828103825283818151815260200191508051906020019080838360005b83811015614821578082015181840152602081019050614806565b50505050905090810190601f16801561484e5780820380516001836020036101000a031916815260200191505b5092505050602060405180830381600087803b151561486c57600080fd5b6102c65a03f1151561487d57600080fd5b5050506040518051905060ff16600481111561489557fe5b9050600060048111156148a457fe5b8160048111156148b057fe5b1180156148d357506004808111156148c457fe5b8160048111156148d057fe5b11155b15614a6c578060048111156148e457fe5b600260008573ffffffffffffffffffffffffffffffffffffffff1673ffffffffffffffffffffffffffffffffffffffff16815260200190815260200160002060006101000a81548160ff021916908360ff1602179055507fe0002dd72fe0d21c584dfb23d23de71a96770c70d5b244275f416a35df6b29726001838584604051808515151515815260200180602001806020018573ffffffffffffffffffffffffffffffffffffffff1673ffffffffffffffffffffffffffffffffffffffff1681526020018460048111156149b557fe5b60ff1681526020018381038352600a8152602001807f5573657220416464656400000000000000000000000000000000000000000000815250602001838103825286818151815260200191508051906020019080838360005b83811015614a29578082015181840152602081019050614a0e565b50505050905090810190601f168015614a565780820380516001836020036101000a031916815260200191505b50965050505050505060405180910390a1614b99565b7fe0002dd72fe0d21c584dfb23d23de71a96770c70d5b244275f416a35df6b29726000838584604051808515151515815260200180602001806020018573ffffffffffffffffffffffffffffffffffffffff1673ffffffffffffffffffffffffffffffffffffffff168152602001846004811115614ae657fe5b60ff168152602001838103835260148152602001807f55736572204372656174696f6e204661696c6564000000000000000000000000815250602001838103825286818151815260200191508051906020019080838360005b83811015614b5a578082015181840152602081019050614b3f565b50505050905090810190601f168015614b875780820380516001836020036101000a031916815260200191505b50965050505050505060405180910390a15b5b505050565b6000809054906101000a900473ffffffffffffffffffffffffffffffffffffffff1673ffffffffffffffffffffffffffffffffffffffff163273ffffffffffffffffffffffffffffffffffffffff161415614cfe57600160009054906101000a900473ffffffffffffffffffffffffffffffffffffffff1673ffffffffffffffffffffffffffffffffffffffff16634af57033826040518263ffffffff167c01000000000000000000000000000000000000000000000000000000000281526004018080602001828103825283818151815260200191508051906020019080838360005b83811015614c9e578082015181840152602081019050614c83565b50505050905090810190601f168015614ccb5780820380516001836020036101000a031916815260200191505b5092505050600060405180830381600087803b1515614ce957600080fd5b6102c65a03f11515614cfa57600080fd5b5050505b50565b828054600181600116156101000203166002900490600052602060002090601f016020900481019282601f10614d4257805160ff1916838001178555614d70565b82800160010185558215614d70579182015b82811115614d6f578251825591602001919060010190614d54565b5b509050614d7d9190614d81565b5090565b614da391905b80821115614d9f576000816000905550600101614d87565b5090565b905600a165627a7a72305820c6658d2a95b4c4579edc6a9fbd0b6aaad036dd3e06ef863bd37c8f05af2e13870029",
  "source": "pragma solidity ^0.4.19;\r\n\r\nimport \"./permissions.sol\";\r\nimport \"./municipality.sol\";\r\n\r\ncontract PollingStation is Permissions {\r\n    \r\n    //Voting data\r\n    uint128 private votingRound = 0;\r\n    uint128 private yesLocal = 0;\r\n    uint128 private noLocal = 0;\r\n    uint128 private invalidLocal = 0;\r\n    uint128 private blankLocal = 0;\r\n    \r\n    //Voter Registration\r\n    uint private scannedPollingCardCount = 0;\r\n    uint private scannedPowerOfAttorneyCount = 0;\r\n    uint private registeredPowerOfAttorneyCount = 0;\r\n    uint private registeredVoterPassCount = 0;\r\n    uint private registeredObjectionCount = 0;\r\n    \r\n    //Control Numbers\r\n    uint private collectedPollingCardCount = 0;\r\n    uint private collectedPowerOfAttorneyCount = 0;\r\n    uint private collectedVoterPassCount = 0;\r\n    \r\n    //Access control\r\n    uint8 private signedInChairmenCount = 0;\r\n    uint8 private signedInTellerCount = 0;\r\n    uint8 private signedOffChairmenCount = 0;\r\n    uint8 private signedOffTellerCount = 0;\r\n    bool private votingSessionClosed = true;\r\n    string private deviationExplanation;\r\n    bool private verificationSuccessful = false;\r\n    bool private needsRecount = true;\r\n    bool private beganCounting = false;\r\n    \r\n    //Mappings\r\n    mapping (address => bool) private signedInChairmen;\r\n    mapping (address => bool) private signedInTellers;\r\n    mapping (address => uint256) private signedOffStaff;\r\n    \r\n    Municipality public munContract;\r\n    \r\n    event VoterAlreadyRecorded(bytes32 qrCodeHash);\r\n    event VoterCleared(bytes32 qrCodeHash);\r\n    event UserSignedIn(address userAddress, Role role);\r\n    event UserSignedOut(address userAddress, Role role);\r\n    event VotingFinished(address pollingStation);\r\n    event StaffSignedOff(address staff);\r\n    event SignedOff(address staff, bool success, string message);\r\n    event VerificationDone(bool success, string message, bool needsRecount, bool yes, bool no, bool blank, bool invalid);\r\n    event ControlNumbersAdded(uint256 pollingCards, uint256 powerOfAttorneys, uint256 voterPasses);\r\n    event VotingSessionBegan(address pollingStation);\r\n    event VoteCounted(uint voteCode, bool success, string message);\r\n    \r\n    function PollingStation(address mAddress, address uacAddress) Permissions(uacAddress) public {\r\n        munContract = Municipality(mAddress);\r\n        munContract.enrollPollStation();\r\n    }\r\n\r\n    modifier _noRevote(bytes32 qrCodeHash) {\r\n        if (munContract.userVoted(qrCodeHash)) {\r\n            VoterAlreadyRecorded(qrCodeHash);\r\n        } else {\r\n            VoterCleared(qrCodeHash);\r\n            _;\r\n        }\r\n    }\r\n    \r\n    modifier _isSessionOpen() {\r\n        if (!isSessionOpen()) {\r\n            NotAllowed(\"Session is closed.\");\r\n        } else {\r\n            _;\r\n        }\r\n    }\r\n\r\n    modifier _isNotVerified() {\r\n        if (!verificationSuccessful) {\r\n            _;\r\n        } else {\r\n            VoteCounted(0, false, \"Verification already happened, vote counting is closed.\");\r\n        }\r\n    }\r\n    \r\n    modifier _canSignIn() {\r\n        Role currRole = Role(roles[msg.sender]);\r\n        \r\n        if (!isSessionOpen()) {\r\n            NotAllowed(\"Voting Session is closed.\");\r\n            return;\r\n        }\r\n        \r\n        if ((currRole == Role.Chairman && signedInChairmenCount == 0) || (currRole == Role.Teller && signedInChairmenCount >= 0)) {\r\n            _;\r\n        } else {\r\n            NotAllowed(\"Unallowed role or rule violation.\");\r\n        }\r\n    }\r\n    \r\n    modifier _canSignOut() {\r\n        Role currRole = Role(roles[msg.sender]);\r\n        \r\n        if ((currRole == Role.Chairman && signedInChairmenCount > 0 && signedInTellerCount <= 0 && votingSessionClosed) || \r\n            (currRole == Role.Teller && (signedInTellerCount > 1 || votingSessionClosed))) {\r\n            _;\r\n        } else {\r\n            NotAllowed(\"Unallowed role or rule violation.\");\r\n        }\r\n    }\r\n    \r\n    modifier _canSessionStart() {\r\n        \r\n        if (block.timestamp > VOTING_START_TIMESTAMP && votingSessionClosed && !verificationSuccessful) {\r\n            _;\r\n        } else {\r\n            NotAllowed(\"Not allowed before official start date.\");\r\n        }\r\n        \r\n    }\r\n    \r\n    modifier _canSignOff() {\r\n        if (votingSessionClosed) {\r\n            SignedOff(msg.sender, false, \"Can only sign off during open voting session.\");\r\n            return;\r\n        }\r\n        \r\n        if (!verificationSuccessful) {\r\n            return;\r\n        }\r\n        \r\n        if (signedOffStaff[msg.sender] != 0) {\r\n            SignedOff(msg.sender, false, \"Staff memeber already signed off.\");\r\n            return;\r\n        }\r\n        \r\n        Role currRole = Role(roles[msg.sender]);\r\n        \r\n        if (currRole == Role.Teller && signedInTellers[msg.sender] != true) {\r\n            SignedOff(msg.sender, false, \"Only signed in Tellers can sign off.\");\r\n            return;\r\n        }\r\n        \r\n        if (currRole == Role.Chairman && signedInChairmen[msg.sender] != true) {\r\n            SignedOff(msg.sender, false, \"Only signed in Chairmen can sign off.\");\r\n            return;\r\n        }\r\n        \r\n        if ((currRole == Role.Chairman && signedOffChairmenCount < signedInChairmenCount && signedInTellerCount > 0) || \r\n            (currRole == Role.Teller && signedOffTellerCount < signedInTellerCount && signedOffChairmenCount == 0)) {\r\n            _;\r\n        } else {\r\n            SignedOff(msg.sender, false, \"All Tellers must sign off, then chairman can sign off. No other role can sign off.\");\r\n        }\r\n    }\r\n    \r\n    function getMunicipalityAddress() public view returns (address municipalityAddress) {\r\n        return munContract;\r\n    }\r\n    \r\n    // this will record the roles locally and into the municipality\r\n    function setUserRole(address user, string email) public _isOwner() payable {\r\n        require(msg.value > 0);\r\n        super.setUserRole(user, email);\r\n        munContract.setUserRole(user, email);\r\n        super.setUsedEmail(email);\r\n        if (user.balance <= 1) {\r\n            user.send(msg.value);\r\n        }    \r\n    }\r\n    \r\n    function isSessionOpen() public view returns (bool) {\r\n        return !votingSessionClosed;\r\n    }\r\n    \r\n    function signIn() public _canSignIn() {\r\n        Role role = Role(roles[msg.sender]);\r\n        \r\n        if (role == Role.Chairman) {\r\n            signedInChairmenCount++;\r\n            signedInChairmen[msg.sender] = true;\r\n        } else if (role == Role.Teller) {\r\n            signedInTellerCount++;\r\n            signedInTellers[msg.sender] = true;\r\n        } else {\r\n            NotAllowed(\"Unallowed role or rule violation.\");\r\n            return;\r\n        }\r\n        \r\n        UserSignedIn(msg.sender, role);\r\n    }\r\n\r\n    function getSignedInTellers() public view returns(uint8) {\r\n        return signedInTellerCount;\r\n    }\r\n    \r\n    function signOut() public _canSignOut { \r\n        \r\n        Role role = Role(roles[msg.sender]);\r\n        \r\n        if (role == Role.Chairman) {\r\n            signedInChairmenCount--;\r\n            signedInChairmen[msg.sender] = false;\r\n        } else if (role == Role.Teller) {\r\n            signedInTellerCount--;\r\n            signedInTellers[msg.sender] = false;\r\n        } else {\r\n            NotAllowed(\"Unallowed role or rule violation.\");\r\n            return;\r\n        }\r\n        \r\n        UserSignedOut(msg.sender, role);\r\n    }\r\n    \r\n    function beginVotingSession() public _isOwner _canSessionStart() {\r\n        votingSessionClosed = false;\r\n        needsRecount = false;\r\n        votingRound++;\r\n        VotingSessionBegan(this);\r\n    }\r\n    \r\n    function recordVoter(bytes32 qrCodeHash, VoterType voterType) public _verifyRole(Role.Chairman) _noRevote(qrCodeHash) returns(bool) {\r\n        if (voterType <= VoterType.Unspecified || voterType > VoterType.Objection) {\r\n            NotAllowed(\"Invalid voter type.\");\r\n            return false;\r\n        }\r\n        \r\n        bool success = munContract.recordVoter(qrCodeHash, voterType);\r\n        if (!success) {\r\n            return false;\r\n        }\r\n        \r\n        if (voterType == VoterType.PollingCard) {\r\n            scannedPollingCardCount++;\r\n        } else if (voterType == VoterType.PowerOfAttorneyPollingCard) {\r\n            scannedPowerOfAttorneyCount++;\r\n        } else if (voterType == VoterType.PowerOfAttorney) {\r\n            registeredPowerOfAttorneyCount++;\r\n        } else if (voterType == VoterType.VoterPass) {\r\n            registeredVoterPassCount++;\r\n        } else if (voterType == VoterType.Objection) {\r\n            registeredObjectionCount++;\r\n        }\r\n        \r\n        return true;\r\n    }\r\n    \r\n    function getReport() public view returns (uint scannedPollingCards, uint registeredVoterPasses, uint scannedPowerOfAttorneys, uint registeredPowerOfAttorneys, uint registeredObjections, uint collectedPollingCards, uint collectedVoterPasses, uint collectedPowerOfAttorneys, uint yes, uint no, uint blank, uint invalid) {\r\n        return (scannedPollingCardCount, registeredVoterPassCount, scannedPowerOfAttorneyCount, registeredPowerOfAttorneyCount, registeredObjectionCount, collectedPollingCardCount, collectedVoterPassCount, collectedPowerOfAttorneyCount, yesLocal, noLocal, blankLocal, invalidLocal);\r\n    }\r\n    \r\n    function yes(string timestamp) public _isSessionOpen() _isNotVerified() _verifyRole(Role.Chairman) {\r\n        beganCounting = true;\r\n        yesLocal++;\r\n        munContract.voteYes();\r\n        VoteCounted(1, true, timestamp);\r\n    }\r\n    \r\n    function no(string timestamp) public _isSessionOpen() _isNotVerified() _verifyRole(Role.Chairman) {\r\n        beganCounting = true;\r\n        noLocal++;\r\n        munContract.voteNo();\r\n        VoteCounted(2, true, timestamp);\r\n    }\r\n    \r\n    function blank(string timestamp) public _isSessionOpen() _isNotVerified() _verifyRole(Role.Chairman) {\r\n        beganCounting = true;\r\n        blankLocal++;\r\n        munContract.voteBlank();\r\n        VoteCounted(3, true, timestamp);\r\n    }\r\n    \r\n    function invalid(string timestamp) public _isSessionOpen() _isNotVerified() _verifyRole(Role.Chairman) {\r\n        beganCounting = true;\r\n        invalidLocal++;\r\n        munContract.voteInvalid();\r\n        VoteCounted(4, true, timestamp);\r\n    }\r\n    \r\n    function getVerification() public view returns (bool) {\r\n        return verificationSuccessful;\r\n    }\r\n    \r\n    function getVotingRound() public view returns (uint) {\r\n        return votingRound;\r\n    }\r\n    \r\n    function recount() public _verifyRole(Role.Chairman) {\r\n        munContract.recount();\r\n        votingRound++;\r\n        yesLocal = 0;\r\n        noLocal = 0;\r\n        blankLocal = 0;\r\n        invalidLocal = 0;\r\n        needsRecount = false;\r\n    }\r\n    \r\n    function inputControlNumbers(uint pollingCards, uint powerOfAttorneys, uint voterPasses) public _verifyRole(Role.Chairman) {\r\n        collectedPollingCardCount = pollingCards;\r\n        collectedPowerOfAttorneyCount = powerOfAttorneys;\r\n        collectedVoterPassCount = voterPasses;\r\n        munContract.inputControlNumbers(pollingCards, powerOfAttorneys, voterPasses);\r\n        ControlNumbersAdded(pollingCards, powerOfAttorneys, voterPasses);\r\n    }\r\n    \r\n    function verifyVotes(uint yesCount, uint noCount, uint blankCount, uint invalidCount) public _verifyRole(Role.Chairman) {\r\n        if (verificationSuccessful) {\r\n            VerificationDone(verificationSuccessful, \"Verification already happened and it was successful. Input disregarded.\", false, false, false, false, false);\r\n            return;\r\n        }\r\n        \r\n        if (needsRecount) {\r\n            VerificationDone(verificationSuccessful, \"Recount necessary before new verification attempt.\", needsRecount, false, false, false, false);\r\n            return;\r\n        }\r\n        \r\n        if (!beganCounting) {\r\n            VerificationDone(verificationSuccessful, \"Counting must begin first.\", true, false, false, false, false);\r\n            return;\r\n        }\r\n        \r\n        beganCounting = false;\r\n        bool yesVerified = (yesCount == yesLocal);\r\n        bool noVerified = (noCount == noLocal);\r\n        bool blankVerified = (blankCount == blankLocal);\r\n        bool invalidVerified = (invalidCount == invalidLocal);\r\n        if (yesVerified && noVerified && blankVerified && invalidVerified) {\r\n            verificationSuccessful = true;\r\n            VerificationDone(verificationSuccessful, \"\", needsRecount, yesVerified, noVerified, blankVerified, invalidVerified);\r\n        } else {\r\n            needsRecount = true;\r\n            VerificationDone(verificationSuccessful, \"Needs Recount.\", needsRecount, yesVerified, noVerified, blankVerified, invalidVerified);\r\n        }\r\n    }\r\n    \r\n    // Returns the deviation of all votes against the number of collected cards\r\n    function getDeviation() public view returns (uint) {\r\n        int deviation = int(blankLocal + noLocal + yesLocal + invalidLocal) - int(collectedVoterPassCount + collectedPowerOfAttorneyCount + collectedPollingCardCount);\r\n        \r\n        if (deviation < 0) {\r\n            deviation = deviation * -1;\r\n        }\r\n        \r\n        return uint(deviation);\r\n    }\r\n    \r\n    function signOff(string explanation) public _canSignOff() returns(bool) {       \r\n        Role role = Role(roles[msg.sender]);\r\n        if (role == Role.Teller) {\r\n            signedOffTellerCount++;\r\n            signedOffStaff[msg.sender] = 1;\r\n            SignedOff(msg.sender, true, \"\");\r\n        } else if (role == Role.Chairman) {\r\n            if (signedInTellerCount != signedOffTellerCount) {\r\n                SignedOff(msg.sender, false, \"All tellers must signoff first\");\r\n                return false;\r\n            }\r\n            if (getDeviation() != 0 && bytes(explanation).length <= 5) {\r\n                SignedOff(msg.sender, false, \"You should supply an explanation when a deviation occurs.\");\r\n                return false;\r\n            }\r\n\r\n            if (bytes(explanation).length > 140) {\r\n                SignedOff(msg.sender, false, \"Explanation is longer than 140 characters.\");\r\n                return false;\r\n            } else if (getDeviation() != 0) {\r\n                deviationExplanation = explanation;\r\n            }\r\n            signedOffChairmenCount++;\r\n            if (signedOffChairmenCount >= signedInChairmenCount) {\r\n                votingSessionClosed = true;\r\n                signedOffStaff[msg.sender] = 1;\r\n                SignedOff(msg.sender, true, \"\");\r\n                VotingFinished(this);\r\n                return true;\r\n            }\r\n        } else {\r\n            SignedOff(msg.sender, false, \"Role violation.\");\r\n        }\r\n        return false;                \r\n    }\r\n\r\n    function canSubmit() public view returns (bool) {\r\n        return signedOffTellerCount > 0 && signedInTellerCount == signedOffTellerCount && signedOffChairmenCount > 0 && signedOffChairmenCount == signedInChairmenCount;\r\n    }\r\n}",
  "sourcePath": "C:\\Repos\\CountingVotes\\Pilot\\ps-blockchain\\contracts\\pollingstation.sol",
  "compiler": {
    "name": "solc",
    "version": "0.4.19+commit.c4cbbb05.Emscripten.clang"
  },
  "schemaVersion": "2.0.0",
  "updatedAt": "2018-03-16T17:29:48.493Z"
}