{
  "contractName": "Router",
  "abi": [
    {
      "inputs": [],
      "payable": false,
      "stateMutability": "nonpayable",
      "type": "constructor"
    },
    {
      "constant": false,
      "inputs": [
        {
          "name": "pollingStationId",
          "type": "string"
        },
        {
          "name": "contractAddress",
          "type": "address"
        }
      ],
      "name": "setAddress",
      "outputs": [],
      "payable": false,
      "stateMutability": "nonpayable",
      "type": "function"
    },
    {
      "constant": true,
      "inputs": [
        {
          "name": "pollingStationId",
          "type": "string"
        }
      ],
      "name": "getPollingStationAddress",
      "outputs": [
        {
          "name": "pollingStationAddress",
          "type": "address"
        }
      ],
      "payable": false,
      "stateMutability": "view",
      "type": "function"
    },
    {
      "constant": true,
      "inputs": [
        {
          "name": "pollingStationAddress",
          "type": "address"
        }
      ],
      "name": "getPollingStationId",
      "outputs": [
        {
          "name": "pollingStationId",
          "type": "string"
        }
      ],
      "payable": false,
      "stateMutability": "view",
      "type": "function"
    },
    {
      "constant": true,
      "inputs": [
        {
          "name": "pollingStationId",
          "type": "string"
        }
      ],
      "name": "getMunicipalityAddress",
      "outputs": [
        {
          "name": "municipalityAddress",
          "type": "address"
        }
      ],
      "payable": false,
      "stateMutability": "view",
      "type": "function"
    },
    {
      "constant": true,
      "inputs": [
        {
          "name": "pollingStationId",
          "type": "string"
        }
      ],
      "name": "getUacAddress",
      "outputs": [
        {
          "name": "userActivationAddress",
          "type": "address"
        }
      ],
      "payable": false,
      "stateMutability": "view",
      "type": "function"
    }
  ],
  "bytecode": "0x6060604052341561000f57600080fd5b336000806101000a81548173ffffffffffffffffffffffffffffffffffffffff021916908373ffffffffffffffffffffffffffffffffffffffff1602179055506108468061005e6000396000f30060606040526004361061006d576000357c0100000000000000000000000000000000000000000000000000000000900463ffffffff168063348cfb701461007257806356c9011e1461010f57806377dc96b5146101ac5780639b2ea4bd1461025e578063b0681118146102da575b600080fd5b341561007d57600080fd5b6100cd600480803590602001908201803590602001908080601f01602080910402602001604051908101604052809392919081815260200183838082843782019150505050505091905050610377565b604051808273ffffffffffffffffffffffffffffffffffffffff1673ffffffffffffffffffffffffffffffffffffffff16815260200191505060405180910390f35b341561011a57600080fd5b61016a600480803590602001908201803590602001908080601f01602080910402602001604051908101604052809392919081815260200183838082843782019150505050505091905050610402565b604051808273ffffffffffffffffffffffffffffffffffffffff1673ffffffffffffffffffffffffffffffffffffffff16815260200191505060405180910390f35b34156101b757600080fd5b6101e3600480803573ffffffffffffffffffffffffffffffffffffffff1690602001909190505061048d565b6040518080602001828103825283818151815260200191508051906020019080838360005b83811015610223578082015181840152602081019050610208565b50505050905090810190601f1680156102505780820380516001836020036101000a031916815260200191505b509250505060405180910390f35b341561026957600080fd5b6102d8600480803590602001908201803590602001908080601f0160208091040260200160405190810160405280939291908181526020018383808284378201915050505050509190803573ffffffffffffffffffffffffffffffffffffffff16906020019091905050610574565b005b34156102e557600080fd5b610335600480803590602001908201803590602001908080601f016020809104026020016040519081016040528093929190818152602001838380828437820191505050505050919050506106cc565b604051808273ffffffffffffffffffffffffffffffffffffffff1673ffffffffffffffffffffffffffffffffffffffff16815260200191505060405180910390f35b6000610382826106cc565b73ffffffffffffffffffffffffffffffffffffffff16631df3c85c6040518163ffffffff167c0100000000000000000000000000000000000000000000000000000000028152600401602060405180830381600087803b15156103e457600080fd5b5af115156103f157600080fd5b505050604051805190509050919050565b600061040d826106cc565b73ffffffffffffffffffffffffffffffffffffffff16632f87f8d16040518163ffffffff167c0100000000000000000000000000000000000000000000000000000000028152600401602060405180830381600087803b151561046f57600080fd5b5af1151561047c57600080fd5b505050604051805190509050919050565b610495610761565b600260008373ffffffffffffffffffffffffffffffffffffffff1673ffffffffffffffffffffffffffffffffffffffff1681526020019081526020016000208054600181600116156101000203166002900480601f0160208091040260200160405190810160405280929190818152602001828054600181600116156101000203166002900480156105685780601f1061053d57610100808354040283529160200191610568565b820191906000526020600020905b81548152906001019060200180831161054b57829003601f168201915b50505050509050919050565b6000809054906101000a900473ffffffffffffffffffffffffffffffffffffffff1673ffffffffffffffffffffffffffffffffffffffff163273ffffffffffffffffffffffffffffffffffffffff1614156106c857806001836040518082805190602001908083835b60208310151561060257805182526020820191506020810190506020830392506105dd565b6001836020036101000a038019825116818451168082178552505050505050905001915050908152602001604051809103902060006101000a81548173ffffffffffffffffffffffffffffffffffffffff021916908373ffffffffffffffffffffffffffffffffffffffff16021790555081600260008373ffffffffffffffffffffffffffffffffffffffff1673ffffffffffffffffffffffffffffffffffffffff16815260200190815260200160002090805190602001906106c6929190610775565b505b5050565b60006001826040518082805190602001908083835b60208310151561070657805182526020820191506020810190506020830392506106e1565b6001836020036101000a038019825116818451168082178552505050505050905001915050908152602001604051809103902060009054906101000a900473ffffffffffffffffffffffffffffffffffffffff169050919050565b602060405190810160405280600081525090565b828054600181600116156101000203166002900490600052602060002090601f016020900481019282601f106107b657805160ff19168380011785556107e4565b828001600101855582156107e4579182015b828111156107e35782518255916020019190600101906107c8565b5b5090506107f191906107f5565b5090565b61081791905b808211156108135760008160009055506001016107fb565b5090565b905600a165627a7a7230582039480627df7bbd569b5e6d8ddcd9f5958af8e958fb6a94e1b39521fb34a6b1d50029",
  "source": "pragma solidity ^0.4.19;\r\n\r\nimport \"./permissions.sol\";\r\nimport \"./municipality.sol\";\r\nimport \"./pollingstation.sol\";\r\n\r\ncontract Router {\r\n    address private owner;\r\n    mapping (string => address) private pollingStationAddresses;\r\n    mapping (address => string) private pollingStationIds;\r\n    \r\n    function Router() public {\r\n        owner = msg.sender;\r\n    }\r\n    \r\n    function setAddress(string pollingStationId, address contractAddress) public _isOwner {\r\n        pollingStationAddresses[pollingStationId] = contractAddress;\r\n        pollingStationIds[contractAddress] = pollingStationId;\r\n    }\r\n    \r\n    function getPollingStationAddress(string pollingStationId) public view returns(address pollingStationAddress) {\r\n        return pollingStationAddresses[pollingStationId];\r\n    }\r\n    \r\n    function getPollingStationId(address pollingStationAddress) public view returns(string pollingStationId) {\r\n        return pollingStationIds[pollingStationAddress];\r\n    }\r\n    \r\n    function getMunicipalityAddress(string pollingStationId) public view returns(address municipalityAddress) {\r\n        return PollingStation(getPollingStationAddress(pollingStationId)).getMunicipalityAddress();\r\n    }\r\n    \r\n    function getUacAddress(string pollingStationId) public view returns(address userActivationAddress) {\r\n        return PollingStation(getPollingStationAddress(pollingStationId)).getUacAddress();\r\n    }\r\n    \r\n    modifier _isOwner() {\r\n        if (tx.origin == owner) {\r\n            _;\r\n        }\r\n    }\r\n}",
  "sourcePath": "D:\\LAB15\\git\\CountingVotes\\ps-blockchain\\contracts\\router.sol",
  "compiler": {
    "name": "solc",
    "version": "0.4.21+commit.dfe3193c.Emscripten.clang"
  },
  "schemaVersion": "2.0.0",
  "updatedAt": "2018-04-18T14:18:22.553Z"
}