{
  "contractName": "UserActivation",
  "abi": [
    {
      "inputs": [],
      "payable": false,
      "stateMutability": "nonpayable",
      "type": "constructor"
    },
    {
      "anonymous": false,
      "inputs": [],
      "name": "NotAllowed",
      "type": "event"
    },
    {
      "constant": false,
      "inputs": [
        {
          "name": "email",
          "type": "string"
        },
        {
          "name": "assignedUserRole",
          "type": "uint8"
        }
      ],
      "name": "addEmail",
      "outputs": [],
      "payable": false,
      "stateMutability": "nonpayable",
      "type": "function"
    },
    {
      "constant": true,
      "inputs": [
        {
          "name": "email",
          "type": "string"
        }
      ],
      "name": "getRoleId",
      "outputs": [
        {
          "name": "",
          "type": "uint8"
        }
      ],
      "payable": false,
      "stateMutability": "view",
      "type": "function"
    },
    {
      "constant": false,
      "inputs": [
        {
          "name": "email",
          "type": "string"
        }
      ],
      "name": "setUsedEmail",
      "outputs": [],
      "payable": false,
      "stateMutability": "nonpayable",
      "type": "function"
    },
    {
      "constant": true,
      "inputs": [
        {
          "name": "email",
          "type": "string"
        }
      ],
      "name": "getUsedEmail",
      "outputs": [
        {
          "name": "",
          "type": "bool"
        }
      ],
      "payable": false,
      "stateMutability": "view",
      "type": "function"
    }
  ],
  "bytecode": "0x6060604052341561000f57600080fd5b336000806101000a81548173ffffffffffffffffffffffffffffffffffffffff021916908373ffffffffffffffffffffffffffffffffffffffff1602179055506107b58061005e6000396000f300606060405260043610610062576000357c0100000000000000000000000000000000000000000000000000000000900463ffffffff16806325e96224146100675780634af57033146100d05780638955a2aa1461012d578063b8c51067146101a2575b600080fd5b341561007257600080fd5b6100ce600480803590602001908201803590602001908080601f0160208091040260200160405190810160405280939291908181526020018383808284378201915050505050509190803560ff16906020019091905050610219565b005b34156100db57600080fd5b61012b600480803590602001908201803590602001908080601f016020809104026020016040519081016040528093929190818152602001838380828437820191505050505050919050506103b7565b005b341561013857600080fd5b610188600480803590602001908201803590602001908080601f01602080910402602001604051908101604052809392919081815260200183838082843782019150505050505091905050610494565b604051808215151515815260200191505060405180910390f35b34156101ad57600080fd5b6101fd600480803590602001908201803590602001908080601f0160208091040260200160405190810160405280939291908181526020018383808284378201915050505050509190505061056c565b604051808260ff1660ff16815260200191505060405180910390f35b6000809054906101000a900473ffffffffffffffffffffffffffffffffffffffff1673ffffffffffffffffffffffffffffffffffffffff163273ffffffffffffffffffffffffffffffffffffffff1614156103b357600180548060010182816102829190610644565b9160005260206000209001600084909190915090805190602001906102a8929190610670565b5050806003836040518082805190602001908083835b6020831015156102e357805182526020820191506020810190506020830392506102be565b6001836020036101000a038019825116818451168082178552505050505050905001915050908152602001604051809103902060006101000a81548160ff021916908360ff16021790555060006002836040518082805190602001908083835b6020831015156103685780518252602082019150602081019050602083039250610343565b6001836020036101000a038019825116818451168082178552505050505050905001915050908152602001604051809103902060006101000a81548160ff0219169083151502179055505b5050565b6000809054906101000a900473ffffffffffffffffffffffffffffffffffffffff1673ffffffffffffffffffffffffffffffffffffffff163273ffffffffffffffffffffffffffffffffffffffff1614156104915760016002826040518082805190602001908083835b6020831015156104465780518252602082019150602081019050602083039250610421565b6001836020036101000a038019825116818451168082178552505050505050905001915050908152602001604051809103902060006101000a81548160ff0219169083151502179055505b50565b60008060009054906101000a900473ffffffffffffffffffffffffffffffffffffffff1673ffffffffffffffffffffffffffffffffffffffff163273ffffffffffffffffffffffffffffffffffffffff161415610567576002826040518082805190602001908083835b60208310151561052357805182526020820191506020810190506020830392506104fe565b6001836020036101000a038019825116818451168082178552505050505050905001915050908152602001604051809103902060009054906101000a900460ff1690505b919050565b60008060009054906101000a900473ffffffffffffffffffffffffffffffffffffffff1673ffffffffffffffffffffffffffffffffffffffff163273ffffffffffffffffffffffffffffffffffffffff16141561063f576003826040518082805190602001908083835b6020831015156105fb57805182526020820191506020810190506020830392506105d6565b6001836020036101000a038019825116818451168082178552505050505050905001915050908152602001604051809103902060009054906101000a900460ff1690505b919050565b81548183558181151161066b5781836000526020600020918201910161066a91906106f0565b5b505050565b828054600181600116156101000203166002900490600052602060002090601f016020900481019282601f106106b157805160ff19168380011785556106df565b828001600101855582156106df579182015b828111156106de5782518255916020019190600101906106c3565b5b5090506106ec919061071c565b5090565b61071991905b80821115610715576000818161070c9190610741565b506001016106f6565b5090565b90565b61073e91905b8082111561073a576000816000905550600101610722565b5090565b90565b50805460018160011615610100020316600290046000825580601f106107675750610786565b601f016020900490600052602060002090810190610785919061071c565b5b505600a165627a7a7230582013a3d6bb06842fdc33c2408738127cb0cc3a03a922ebb04d8980475e4331db460029",
  "source": "pragma solidity ^0.4.19;\r\n\r\ncontract UserActivation {\r\n\r\n    address private owner;\r\n    string[] private emailAddresses;\r\n    mapping (string => bool) private usedAddresses;\r\n    mapping (string => uint8) private roles;\r\n    \r\n    event NotAllowed();\r\n    \r\n    function UserActivation() public {\r\n        owner = msg.sender;\r\n    }\r\n\r\n    //email do client -> wallet address\r\n    modifier _isOwner() {\r\n        if (tx.origin == owner) {\r\n            _;\r\n        }\r\n    }\r\n\r\n    function addEmail(string email, uint8 assignedUserRole) public _isOwner() {\r\n        emailAddresses.push(email);\r\n        roles[email] = assignedUserRole;\r\n        usedAddresses[email] = false;\r\n    }\r\n    \r\n    function getRoleId(string email) public _isOwner view returns(uint8) {\r\n        return roles[email];\r\n    }\r\n    \r\n    function setUsedEmail(string email) public _isOwner {\r\n        usedAddresses[email] = true;\r\n    }\r\n    \r\n    function getUsedEmail(string email) public _isOwner view returns(bool) {\r\n        return usedAddresses[email];\r\n    }\r\n}",
  "sourcePath": "C:\\Repos\\CountingVotes\\Pilot\\ps-blockchain\\contracts\\useractivation.sol",
  "compiler": {
    "name": "solc",
    "version": "0.4.19+commit.c4cbbb05.Emscripten.clang"
  },
  "schemaVersion": "2.0.0",
  "updatedAt": "2018-03-16T17:29:48.503Z"
}